{"contracts/NexusToken.sol":{"NexusToken":{"abi":[{"inputs":[{"internalType":"address","name":"_feeRecipient","type":"address"}],"stateMutability":"nonpayable","type":"constructor"},{"inputs":[],"name":"AccessControlBadConfirmation","type":"error"},{"inputs":[{"internalType":"address","name":"account","type":"address"},{"internalType":"bytes32","name":"neededRole","type":"bytes32"}],"name":"AccessControlUnauthorizedAccount","type":"error"},{"inputs":[{"internalType":"uint256","name":"increasedSupply","type":"uint256"},{"internalType":"uint256","name":"cap","type":"uint256"}],"name":"ERC20ExceededCap","type":"error"},{"inputs":[{"internalType":"address","name":"spender","type":"address"},{"internalType":"uint256","name":"allowance","type":"uint256"},{"internalType":"uint256","name":"needed","type":"uint256"}],"name":"ERC20InsufficientAllowance","type":"error"},{"inputs":[{"internalType":"address","name":"sender","type":"address"},{"internalType":"uint256","name":"balance","type":"uint256"},{"internalType":"uint256","name":"needed","type":"uint256"}],"name":"ERC20InsufficientBalance","type":"error"},{"inputs":[{"internalType":"address","name":"approver","type":"address"}],"name":"ERC20InvalidApprover","type":"error"},{"inputs":[{"internalType":"uint256","name":"cap","type":"uint256"}],"name":"ERC20InvalidCap","type":"error"},{"inputs":[{"internalType":"address","name":"receiver","type":"address"}],"name":"ERC20InvalidReceiver","type":"error"},{"inputs":[{"internalType":"address","name":"sender","type":"address"}],"name":"ERC20InvalidSender","type":"error"},{"inputs":[{"internalType":"address","name":"spender","type":"address"}],"name":"ERC20InvalidSpender","type":"error"},{"inputs":[],"name":"EnforcedPause","type":"error"},{"inputs":[],"name":"ExpectedPause","type":"error"},{"inputs":[],"name":"ReentrancyGuardReentrantCall","type":"error"},{"anonymous":false,"inputs":[{"indexed":false,"internalType":"bool","name":"enabled","type":"bool"}],"name":"AntiWhaleToggled","type":"event"},{"anonymous":false,"inputs":[{"indexed":true,"internalType":"address","name":"owner","type":"address"},{"indexed":true,"internalType":"address","name":"spender","type":"address"},{"indexed":false,"internalType":"uint256","name":"value","type":"uint256"}],"name":"Approval","type":"event"},{"anonymous":false,"inputs":[{"indexed":false,"internalType":"uint256","name":"newFeePercentage","type":"uint256"}],"name":"BurnFeeUpdated","type":"event"},{"anonymous":false,"inputs":[{"indexed":false,"internalType":"address","name":"newFeeRecipient","type":"address"}],"name":"FeeRecipientUpdated","type":"event"},{"anonymous":false,"inputs":[{"indexed":true,"internalType":"address","name":"from","type":"address"},{"indexed":false,"internalType":"uint256","name":"transferFee","type":"uint256"},{"indexed":false,"internalType":"uint256","name":"burnFee","type":"uint256"}],"name":"FeesCollected","type":"event"},{"anonymous":false,"inputs":[{"indexed":false,"internalType":"uint256","name":"newAmount","type":"uint256"}],"name":"MaxTransferAmountUpdated","type":"event"},{"anonymous":false,"inputs":[{"indexed":false,"internalType":"address","name":"account","type":"address"}],"name":"Paused","type":"event"},{"anonymous":false,"inputs":[{"indexed":true,"internalType":"bytes32","name":"role","type":"bytes32"},{"indexed":true,"internalType":"bytes32","name":"previousAdminRole","type":"bytes32"},{"indexed":true,"internalType":"bytes32","name":"newAdminRole","type":"bytes32"}],"name":"RoleAdminChanged","type":"event"},{"anonymous":false,"inputs":[{"indexed":true,"internalType":"bytes32","name":"role","type":"bytes32"},{"indexed":true,"internalType":"address","name":"account","type":"address"},{"indexed":true,"internalType":"address","name":"sender","type":"address"}],"name":"RoleGranted","type":"event"},{"anonymous":false,"inputs":[{"indexed":true,"internalType":"bytes32","name":"role","type":"bytes32"},{"indexed":true,"internalType":"address","name":"account","type":"address"},{"indexed":true,"internalType":"address","name":"sender","type":"address"}],"name":"RoleRevoked","type":"event"},{"anonymous":false,"inputs":[{"indexed":true,"internalType":"address","name":"from","type":"address"},{"indexed":true,"internalType":"address","name":"to","type":"address"},{"indexed":false,"internalType":"uint256","name":"value","type":"uint256"}],"name":"Transfer","type":"event"},{"anonymous":false,"inputs":[{"indexed":false,"internalType":"uint256","name":"newFeePercentage","type":"uint256"}],"name":"TransferFeeUpdated","type":"event"},{"anonymous":false,"inputs":[{"indexed":false,"internalType":"address","name":"account","type":"address"}],"name":"Unpaused","type":"event"},{"inputs":[],"name":"ADMIN_ROLE","outputs":[{"internalType":"bytes32","name":"","type":"bytes32"}],"stateMutability":"view","type":"function"},{"inputs":[],"name":"DEFAULT_ADMIN_ROLE","outputs":[{"internalType":"bytes32","name":"","type":"bytes32"}],"stateMutability":"view","type":"function"},{"inputs":[],"name":"INITIAL_SUPPLY","outputs":[{"internalType":"uint256","name":"","type":"uint256"}],"stateMutability":"view","type":"function"},{"inputs":[],"name":"MAX_SUPPLY","outputs":[{"internalType":"uint256","name":"","type":"uint256"}],"stateMutability":"view","type":"function"},{"inputs":[],"name":"MINTER_ROLE","outputs":[{"internalType":"bytes32","name":"","type":"bytes32"}],"stateMutability":"view","type":"function"},{"inputs":[],"name":"PAUSER_ROLE","outputs":[{"internalType":"bytes32","name":"","type":"bytes32"}],"stateMutability":"view","type":"function"},{"inputs":[{"internalType":"address","name":"owner","type":"address"},{"internalType":"address","name":"spender","type":"address"}],"name":"allowance","outputs":[{"internalType":"uint256","name":"","type":"uint256"}],"stateMutability":"view","type":"function"},{"inputs":[],"name":"antiWhaleEnabled","outputs":[{"internalType":"bool","name":"","type":"bool"}],"stateMutability":"view","type":"function"},{"inputs":[{"internalType":"address","name":"spender","type":"address"},{"internalType":"uint256","name":"value","type":"uint256"}],"name":"approve","outputs":[{"internalType":"bool","name":"","type":"bool"}],"stateMutability":"nonpayable","type":"function"},{"inputs":[{"internalType":"address","name":"account","type":"address"}],"name":"balanceOf","outputs":[{"internalType":"uint256","name":"","type":"uint256"}],"stateMutability":"view","type":"function"},{"inputs":[{"internalType":"uint256","name":"value","type":"uint256"}],"name":"burn","outputs":[],"stateMutability":"nonpayable","type":"function"},{"inputs":[],"name":"burnFeePercentage","outputs":[{"internalType":"uint256","name":"","type":"uint256"}],"stateMutability":"view","type":"function"},{"inputs":[{"internalType":"address","name":"account","type":"address"},{"internalType":"uint256","name":"value","type":"uint256"}],"name":"burnFrom","outputs":[],"stateMutability":"nonpayable","type":"function"},{"inputs":[{"internalType":"uint256","name":"amount","type":"uint256"}],"name":"calculateBurnFee","outputs":[{"internalType":"uint256","name":"","type":"uint256"}],"stateMutability":"view","type":"function"},{"inputs":[{"internalType":"uint256","name":"amount","type":"uint256"}],"name":"calculateTransferFee","outputs":[{"internalType":"uint256","name":"","type":"uint256"}],"stateMutability":"view","type":"function"},{"inputs":[],"name":"cap","outputs":[{"internalType":"uint256","name":"","type":"uint256"}],"stateMutability":"view","type":"function"},{"inputs":[],"name":"decimals","outputs":[{"internalType":"uint8","name":"","type":"uint8"}],"stateMutability":"view","type":"function"},{"inputs":[],"name":"feeRecipient","outputs":[{"internalType":"address","name":"","type":"address"}],"stateMutability":"view","type":"function"},{"inputs":[{"internalType":"bytes32","name":"role","type":"bytes32"}],"name":"getRoleAdmin","outputs":[{"internalType":"bytes32","name":"","type":"bytes32"}],"stateMutability":"view","type":"function"},{"inputs":[{"internalType":"uint256","name":"amount","type":"uint256"}],"name":"getTransferFees","outputs":[{"internalType":"uint256","name":"transferFee","type":"uint256"},{"internalType":"uint256","name":"burnFee","type":"uint256"},{"internalType":"uint256","name":"totalFees","type":"uint256"}],"stateMutability":"view","type":"function"},{"inputs":[{"internalType":"bytes32","name":"role","type":"bytes32"},{"internalType":"address","name":"account","type":"address"}],"name":"grantRole","outputs":[],"stateMutability":"nonpayable","type":"function"},{"inputs":[{"internalType":"bytes32","name":"role","type":"bytes32"},{"internalType":"address","name":"account","type":"address"}],"name":"hasRole","outputs":[{"internalType":"bool","name":"","type":"bool"}],"stateMutability":"view","type":"function"},{"inputs":[],"name":"maxTransferAmount","outputs":[{"internalType":"uint256","name":"","type":"uint256"}],"stateMutability":"view","type":"function"},{"inputs":[{"internalType":"address","name":"to","type":"address"},{"internalType":"uint256","name":"amount","type":"uint256"}],"name":"mint","outputs":[],"stateMutability":"nonpayable","type":"function"},{"inputs":[],"name":"name","outputs":[{"internalType":"string","name":"","type":"string"}],"stateMutability":"view","type":"function"},{"inputs":[],"name":"pause","outputs":[],"stateMutability":"nonpayable","type":"function"},{"inputs":[],"name":"paused","outputs":[{"internalType":"bool","name":"","type":"bool"}],"stateMutability":"view","type":"function"},{"inputs":[{"internalType":"bytes32","name":"role","type":"bytes32"},{"internalType":"address","name":"callerConfirmation","type":"address"}],"name":"renounceRole","outputs":[],"stateMutability":"nonpayable","type":"function"},{"inputs":[{"internalType":"bytes32","name":"role","type":"bytes32"},{"internalType":"address","name":"account","type":"address"}],"name":"revokeRole","outputs":[],"stateMutability":"nonpayable","type":"function"},{"inputs":[{"internalType":"bytes4","name":"interfaceId","type":"bytes4"}],"name":"supportsInterface","outputs":[{"internalType":"bool","name":"","type":"bool"}],"stateMutability":"view","type":"function"},{"inputs":[],"name":"symbol","outputs":[{"internalType":"string","name":"","type":"string"}],"stateMutability":"view","type":"function"},{"inputs":[{"internalType":"bool","name":"enabled","type":"bool"}],"name":"toggleAntiWhale","outputs":[],"stateMutability":"nonpayable","type":"function"},{"inputs":[],"name":"totalSupply","outputs":[{"internalType":"uint256","name":"","type":"uint256"}],"stateMutability":"view","type":"function"},{"inputs":[{"internalType":"address","name":"to","type":"address"},{"internalType":"uint256","name":"amount","type":"uint256"}],"name":"transfer","outputs":[{"internalType":"bool","name":"","type":"bool"}],"stateMutability":"nonpayable","type":"function"},{"inputs":[],"name":"transferFeePercentage","outputs":[{"internalType":"uint256","name":"","type":"uint256"}],"stateMutability":"view","type":"function"},{"inputs":[{"internalType":"address","name":"from","type":"address"},{"internalType":"address","name":"to","type":"address"},{"internalType":"uint256","name":"amount","type":"uint256"}],"name":"transferFrom","outputs":[{"internalType":"bool","name":"","type":"bool"}],"stateMutability":"nonpayable","type":"function"},{"inputs":[],"name":"unpause","outputs":[],"stateMutability":"nonpayable","type":"function"},{"inputs":[{"internalType":"uint256","name":"newFeePercentage","type":"uint256"}],"name":"updateBurnFee","outputs":[],"stateMutability":"nonpayable","type":"function"},{"inputs":[{"internalType":"address","name":"newFeeRecipient","type":"address"}],"name":"updateFeeRecipient","outputs":[],"stateMutability":"nonpayable","type":"function"},{"inputs":[{"internalType":"uint256","name":"newAmount","type":"uint256"}],"name":"updateMaxTransferAmount","outputs":[],"stateMutability":"nonpayable","type":"function"},{"inputs":[{"internalType":"uint256","name":"newFeePercentage","type":"uint256"}],"name":"updateTransferFee","outputs":[],"stateMutability":"nonpayable","type":"function"}],"evm":{"bytecode":{"linkReferences":{},"object":"60a060405260fa60085560646009556a084595161401484a000000600b55600c805460ff191660011790553480156200003757600080fd5b50604051620020cd380380620020cd8339810160408190526200005a916200055a565b6b06765c793fa10079d00000006040518060400160405280600b81526020016a2732bc3ab9902a37b5b2b760a91b815250604051806040016040528060058152602001644e4558555360d81b8152508160039081620000ba919062000630565b506004620000c9828262000630565b50505080600003620000f65760405163392e1e2760e01b8152600060048201526024015b60405180910390fd5b60805260016007556001600160a01b0381166200016f5760405162461bcd60e51b815260206004820152603060248201527f4e65787573546f6b656e3a2066656520726563697069656e742063616e6e6f7460448201526f206265207a65726f206164647265737360801b6064820152608401620000ed565b6200017c6000336200027a565b50620001a97fa49807205ce4d355092ef5a8a18f56e8913cf4a201fbe287825b095693c21775336200027a565b50620001d67f9f2df0fed2c77648de5860a4cc508cd0818c85b8b8a1ab4ceeef8d981c8956a6336200027a565b50620002037f65d7a28e3265b37a6474929f336521b332c1681b933f6cb9f3376673440d862a336200027a565b50600a80546001600160a01b0319166001600160a01b03831617905562000237336b033b2e3c9fd0803ce80000006200032d565b6040516001600160a01b03821681527f7a7b5a0a132f9e0581eb8527f66eae9ee89c2a3e79d4ac7e41a1f1f4d48a7fc29060200160405180910390a1506200071e565b60008281526006602090815260408083206001600160a01b038516845290915281205460ff16620003235760008381526006602090815260408083206001600160a01b03861684529091529020805460ff19166001179055620002da3390565b6001600160a01b0316826001600160a01b0316847f2f8788117e7eff1d82e926ec794901d17c78024a50270940304540a733656f0d60405160405180910390a450600162000327565b5060005b92915050565b6001600160a01b038216620003595760405163ec442f0560e01b815260006004820152602401620000ed565b62000367600083836200036b565b5050565b620003788383836200037d565b505050565b6200038a838383620003e9565b6001600160a01b03831662000378576000620003a560805190565b90506000620003b360025490565b905081811115620003e25760405163279e7e1560e21b81526004810182905260248101839052604401620000ed565b5050505050565b620003f362000400565b6200037883838362000427565b60055460ff1615620004255760405163d93c066560e01b815260040160405180910390fd5b565b6001600160a01b038316620004565780600260008282546200044a9190620006fc565b90915550620004ca9050565b6001600160a01b03831660009081526020819052604090205481811015620004ab5760405163391434e360e21b81526001600160a01b03851660048201526024810182905260448101839052606401620000ed565b6001600160a01b03841660009081526020819052604090209082900390555b6001600160a01b038216620004e85760028054829003905562000507565b6001600160a01b03821660009081526020819052604090208054820190555b816001600160a01b0316836001600160a01b03167fddf252ad1be2c89b69c2b068fc378daa952ba7f163c4a11628f55a4df523b3ef836040516200054d91815260200190565b60405180910390a3505050565b6000602082840312156200056d57600080fd5b81516001600160a01b03811681146200058557600080fd5b9392505050565b634e487b7160e01b600052604160045260246000fd5b600181811c90821680620005b757607f821691505b602082108103620005d857634e487b7160e01b600052602260045260246000fd5b50919050565b601f8211156200037857600081815260208120601f850160051c81016020861015620006075750805b601f850160051c820191505b81811015620006285782815560010162000613565b505050505050565b81516001600160401b038111156200064c576200064c6200058c565b62000664816200065d8454620005a2565b84620005de565b602080601f8311600181146200069c5760008415620006835750858301515b600019600386901b1c1916600185901b17855562000628565b600085815260208120601f198616915b82811015620006cd57888601518255948401946001909101908401620006ac565b5085821015620006ec5787850151600019600388901b60f8161c191681555b5050505050600190811b01905550565b808201808211156200032757634e487b7160e01b600052601160045260246000fd5b60805161198c620007416000396000818161033c0152611496015261198c6000f3fe608060405234801561001057600080fd5b50600436106102535760003560e01c80636ad88269116101465780639d11aaaa116100c3578063c4ceb33911610087578063c4ceb33914610525578063d53913931461052e578063d547741f14610555578063dd62ed3e14610568578063e63ab1e91461057b578063f160d369146105a257600080fd5b80639d11aaaa146104e5578063a217fddf146104ee578063a9059cbb146104f6578063a9e7572314610509578063bd70239b1461051257600080fd5b8063825d7df21161010a578063825d7df2146104815780638456cb59146104af5780638577a6d5146104b757806391d14854146104ca57806395d89b41146104dd57600080fd5b80636ad882691461040a57806370a082311461041d57806371e367531461044657806375b238fc1461045957806379cc67901461046e57600080fd5b8063355274ea116101d457806340c10f191161019857806340c10f19146103a157806342966c68146103b457806346904840146103c757806357d87f0d146103f25780635c975abb146103ff57600080fd5b8063355274ea1461033a5780633554681b1461036057806336568abe1461037357806337800bde146103865780633f4ba83a1461039957600080fd5b8063248a9ca31161021b578063248a9ca3146102cd5780632f2ff15d146102f05780632ff2e9dc14610305578063313ce5671461031857806332cb6b0c1461032757600080fd5b806301ffc9a71461025857806306fdde0314610280578063095ea7b31461029557806318160ddd146102a857806323b872dd146102ba575b600080fd5b61026b610266366004611620565b6105b5565b60405190151581526020015b60405180910390f35b6102886105ec565b604051610277919061164a565b61026b6102a33660046116b4565b61067e565b6002545b604051908152602001610277565b61026b6102c83660046116de565b610696565b6102ac6102db36600461171a565b60009081526006602052604090206001015490565b6103036102fe366004611733565b61086e565b005b6102ac6b033b2e3c9fd0803ce800000081565b60405160128152602001610277565b6102ac6b06765c793fa10079d000000081565b7f00000000000000000000000000000000000000000000000000000000000000006102ac565b61030361036e36600461175f565b610899565b610303610381366004611733565b610915565b6102ac61039436600461171a565b61094d565b61030361096a565b6103036103af3660046116b4565b6109ba565b6103036103c236600461171a565b610a48565b600a546103da906001600160a01b031681565b6040516001600160a01b039091168152602001610277565b600c5461026b9060ff1681565b60055460ff1661026b565b6102ac61041836600461171a565b610a55565b6102ac61042b366004611781565b6001600160a01b031660009081526020819052604090205490565b61030361045436600461171a565b610a68565b6102ac60008051602061193783398151915281565b61030361047c3660046116b4565b610b31565b61049461048f36600461171a565b610b46565b60408051938452602084019290925290820152606001610277565b610303610b73565b6103036104c536600461171a565b610bc1565b61026b6104d8366004611733565b610c86565b610288610cb1565b6102ac60085481565b6102ac600081565b61026b6105043660046116b4565b610cc0565b6102ac600b5481565b61030361052036600461171a565b610e02565b6102ac60095481565b6102ac7f9f2df0fed2c77648de5860a4cc508cd0818c85b8b8a1ab4ceeef8d981c8956a681565b610303610563366004611733565b610eda565b6102ac61057636600461179c565b610eff565b6102ac7f65d7a28e3265b37a6474929f336521b332c1681b933f6cb9f3376673440d862a81565b6103036105b0366004611781565b610f2a565b60006001600160e01b03198216637965db0b60e01b14806105e657506301ffc9a760e01b6001600160e01b03198316145b92915050565b6060600380546105fb906117c6565b80601f0160208091040260200160405190810160405280929190818152602001828054610627906117c6565b80156106745780601f1061064957610100808354040283529160200191610674565b820191906000526020600020905b81548152906001019060200180831161065757829003601f168201915b5050505050905090565b60003361068c81858561101b565b5060019392505050565b60006106a0611028565b6106a861104c565b600c5484908490849060ff1680156106d557506106d360008051602061193783398151915284610c86565b155b80156106f657506106f460008051602061193783398151915283610c86565b155b1561072657600b548111156107265760405162461bcd60e51b815260040161071d90611800565b60405180910390fd5b60006107318661094d565b9050600061073e87610a55565b905060008161074d848a611861565b6107579190611861565b9050821561077757600a54610777908b906001600160a01b031685611076565b8115610787576107878a836110d5565b6107928a8a83611076565b600061079e8b33610eff565b9050888110156108015760405162461bcd60e51b815260206004820152602860248201527f45524332303a207472616e7366657220616d6f756e74206578636565647320616044820152676c6c6f77616e636560c01b606482015260840161071d565b61080e8b338b840361101b565b60408051858152602081018590526001600160a01b038d16917f2e4fb6077d4acf86e12bb7411fb82b2b3eaa6a49787f4b1e17b423e7ea841169910160405180910390a260019750505050505050506108676001600755565b9392505050565b6000828152600660205260409020600101546108898161110b565b6108938383611115565b50505050565b6108b160008051602061193783398151915233610c86565b6108cd5760405162461bcd60e51b815260040161071d90611874565b600c805460ff19168215159081179091556040519081527fd7b362f4d69f337b426dae3260a53bf0f823e1439c8d95de90fe2dd4295066cf906020015b60405180910390a150565b6001600160a01b038116331461093e5760405163334bd91960e11b815260040160405180910390fd5b61094882826111a9565b505050565b60006127106008548361096091906118a9565b6105e691906118c0565b6109947f65d7a28e3265b37a6474929f336521b332c1681b933f6cb9f3376673440d862a33610c86565b6109b05760405162461bcd60e51b815260040161071d906118e2565b6109b8611216565b565b6109e47f9f2df0fed2c77648de5860a4cc508cd0818c85b8b8a1ab4ceeef8d981c8956a633610c86565b610a3a5760405162461bcd60e51b815260206004820152602160248201527f4e65787573546f6b656e3a206d7573742068617665206d696e74657220726f6c6044820152606560f81b606482015260840161071d565b610a448282611268565b5050565b610a5233826110d5565b50565b60006127106009548361096091906118a9565b610a8060008051602061193783398151915233610c86565b610a9c5760405162461bcd60e51b815260040161071d90611874565b6101f4811115610afc5760405162461bcd60e51b815260206004820152602560248201527f4e65787573546f6b656e3a206275726e206665652063616e6e6f742065786365604482015264656420352560d81b606482015260840161071d565b60098190556040518181527fd54296e32811a7f2da2c1f6e8b39cb815ce208595da09bb98b034ccca6dffc699060200161090a565b610b3c82338361129e565b610a4482826110d5565b6000806000610b548461094d565b9250610b5f84610a55565b9150610b6b8284611923565b929491935050565b610b9d7f65d7a28e3265b37a6474929f336521b332c1681b933f6cb9f3376673440d862a33610c86565b610bb95760405162461bcd60e51b815260040161071d906118e2565b6109b86112ff565b610bd960008051602061193783398151915233610c86565b610bf55760405162461bcd60e51b815260040161071d90611874565b6103e8811115610c515760405162461bcd60e51b815260206004820152602160248201527f4e65787573546f6b656e3a206665652063616e6e6f74206578636565642031306044820152602560f81b606482015260840161071d565b60088190556040518181527ff9f635b7cf851af6071aaf78ef8a5f752dc52f19d556fea4512b0c2ad4baea729060200161090a565b60009182526006602090815260408084206001600160a01b0393909316845291905290205460ff1690565b6060600480546105fb906117c6565b6000610cca611028565b610cd261104c565b600c5433908490849060ff168015610cff5750610cfd60008051602061193783398151915284610c86565b155b8015610d205750610d1e60008051602061193783398151915283610c86565b155b15610d4757600b54811115610d475760405162461bcd60e51b815260040161071d90611800565b6000610d528661094d565b90506000610d5f87610a55565b9050600081610d6e848a611861565b610d789190611861565b90508215610d9857600a54610d989033906001600160a01b031685611076565b8115610da857610da833836110d5565b610db3338a83611076565b604080518481526020810184905233917f2e4fb6077d4acf86e12bb7411fb82b2b3eaa6a49787f4b1e17b423e7ea841169910160405180910390a2600196505050505050506105e66001600755565b610e1a60008051602061193783398151915233610c86565b610e365760405162461bcd60e51b815260040161071d90611874565b60008111610ea55760405162461bcd60e51b815260206004820152603660248201527f4e65787573546f6b656e3a206d6178207472616e7366657220616d6f756e742060448201527506d7573742062652067726561746572207468616e20360541b606482015260840161071d565b600b8190556040518181527fb81a465c2b79d7b689b78d9aaf5a787dd386b73a952be0569f2fbc637aabb8979060200161090a565b600082815260066020526040902060010154610ef58161110b565b61089383836111a9565b6001600160a01b03918216600090815260016020908152604080832093909416825291909152205490565b610f4260008051602061193783398151915233610c86565b610f5e5760405162461bcd60e51b815260040161071d90611874565b6001600160a01b038116610fcd5760405162461bcd60e51b815260206004820152603060248201527f4e65787573546f6b656e3a2066656520726563697069656e742063616e6e6f7460448201526f206265207a65726f206164647265737360801b606482015260840161071d565b600a80546001600160a01b0319166001600160a01b0383169081179091556040519081527f7a7b5a0a132f9e0581eb8527f66eae9ee89c2a3e79d4ac7e41a1f1f4d48a7fc29060200161090a565b610948838383600161133c565b60055460ff16156109b85760405163d93c066560e01b815260040160405180910390fd5b60026007540361106f57604051633ee5aeb560e01b815260040160405180910390fd5b6002600755565b6001600160a01b0383166110a057604051634b637e8f60e11b81526000600482015260240161071d565b6001600160a01b0382166110ca5760405163ec442f0560e01b81526000600482015260240161071d565b610948838383611411565b6001600160a01b0382166110ff57604051634b637e8f60e11b81526000600482015260240161071d565b610a4482600083611411565b610a52813361141c565b60006111218383610c86565b6111a15760008381526006602090815260408083206001600160a01b03861684529091529020805460ff191660011790556111593390565b6001600160a01b0316826001600160a01b0316847f2f8788117e7eff1d82e926ec794901d17c78024a50270940304540a733656f0d60405160405180910390a45060016105e6565b5060006105e6565b60006111b58383610c86565b156111a15760008381526006602090815260408083206001600160a01b0386168085529252808320805460ff1916905551339286917ff6391f5c32d9c69d2a47ea670b442974b53935d1edc7fd64eb21e047a839171b9190a45060016105e6565b61121e611455565b6005805460ff191690557f5db9ee0a495bf2e6ff9c91a7834c1ba4fdd244a5e8aa4e537bd38aeae4b073aa335b6040516001600160a01b03909116815260200160405180910390a1565b6001600160a01b0382166112925760405163ec442f0560e01b81526000600482015260240161071d565b610a4460008383611411565b60006112aa8484610eff565b905060001981101561089357818110156112f057604051637dc7a0d960e11b81526001600160a01b0384166004820152602481018290526044810183905260640161071d565b6108938484848403600061133c565b611307611028565b6005805460ff191660011790557f62e78cea01bee320cd4e420270b5ea74000d11b0c9f74754ebdbfc544b05a25861124b3390565b6001600160a01b0384166113665760405163e602df0560e01b81526000600482015260240161071d565b6001600160a01b03831661139057604051634a1406b160e11b81526000600482015260240161071d565b6001600160a01b038085166000908152600160209081526040808320938716835292905220829055801561089357826001600160a01b0316846001600160a01b03167f8c5be1e5ebec7d5bd14f71427d1e84f3dd0314c0f7b2291e5b200ac8c7c3b9258460405161140391815260200190565b60405180910390a350505050565b610948838383611478565b6114268282610c86565b610a445760405163e2517d3f60e01b81526001600160a01b03821660048201526024810183905260440161071d565b60055460ff166109b857604051638dfc202b60e01b815260040160405180910390fd5b6114838383836114e8565b6001600160a01b038316610948576002547f000000000000000000000000000000000000000000000000000000000000000090818111156114e15760405163279e7e1560e21b8152600481018290526024810183905260440161071d565b5050505050565b6114f0611028565b6109488383836001600160a01b0383166115215780600260008282546115169190611923565b909155506115939050565b6001600160a01b038316600090815260208190526040902054818110156115745760405163391434e360e21b81526001600160a01b0385166004820152602481018290526044810183905260640161071d565b6001600160a01b03841660009081526020819052604090209082900390555b6001600160a01b0382166115af576002805482900390556115ce565b6001600160a01b03821660009081526020819052604090208054820190555b816001600160a01b0316836001600160a01b03167fddf252ad1be2c89b69c2b068fc378daa952ba7f163c4a11628f55a4df523b3ef8360405161161391815260200190565b60405180910390a3505050565b60006020828403121561163257600080fd5b81356001600160e01b03198116811461086757600080fd5b600060208083528351808285015260005b818110156116775785810183015185820160400152820161165b565b506000604082860101526040601f19601f8301168501019250505092915050565b80356001600160a01b03811681146116af57600080fd5b919050565b600080604083850312156116c757600080fd5b6116d083611698565b946020939093013593505050565b6000806000606084860312156116f357600080fd5b6116fc84611698565b925061170a60208501611698565b9150604084013590509250925092565b60006020828403121561172c57600080fd5b5035919050565b6000806040838503121561174657600080fd5b8235915061175660208401611698565b90509250929050565b60006020828403121561177157600080fd5b8135801515811461086757600080fd5b60006020828403121561179357600080fd5b61086782611698565b600080604083850312156117af57600080fd5b6117b883611698565b915061175660208401611698565b600181811c908216806117da57607f821691505b6020821081036117fa57634e487b7160e01b600052602260045260246000fd5b50919050565b6020808252602b908201527f4e65787573546f6b656e3a207472616e7366657220616d6f756e74206578636560408201526a656473206d6178696d756d60a81b606082015260800190565b634e487b7160e01b600052601160045260246000fd5b818103818111156105e6576105e661184b565b6020808252818101527f4e65787573546f6b656e3a206d75737420686176652061646d696e20726f6c65604082015260600190565b80820281158282048414176105e6576105e661184b565b6000826118dd57634e487b7160e01b600052601260045260246000fd5b500490565b60208082526021908201527f4e65787573546f6b656e3a206d75737420686176652070617573657220726f6c6040820152606560f81b606082015260800190565b808201808211156105e6576105e661184b56fea49807205ce4d355092ef5a8a18f56e8913cf4a201fbe287825b095693c21775a264697066735822122089caf577f2b5a980e04bb44f2ac827afaf1f4408734ec53cf8f1024d7c4fe0e764736f6c63430008140033","opcodes":"PUSH1 0xA0 PUSH1 0x40 MSTORE PUSH1 0xFA PUSH1 0x8 SSTORE PUSH1 0x64 PUSH1 0x9 SSTORE PUSH11 0x84595161401484A000000 PUSH1 0xB SSTORE PUSH1 0xC DUP1 SLOAD PUSH1 0xFF NOT AND PUSH1 0x1 OR SWAP1 SSTORE CALLVALUE DUP1 ISZERO PUSH3 0x37 JUMPI PUSH1 0x0 DUP1 REVERT JUMPDEST POP PUSH1 0x40 MLOAD PUSH3 0x20CD CODESIZE SUB DUP1 PUSH3 0x20CD DUP4 CODECOPY DUP2 ADD PUSH1 0x40 DUP2 SWAP1 MSTORE PUSH3 0x5A SWAP2 PUSH3 0x55A JUMP JUMPDEST PUSH12 0x6765C793FA10079D0000000 PUSH1 0x40 MLOAD DUP1 PUSH1 0x40 ADD PUSH1 0x40 MSTORE DUP1 PUSH1 0xB DUP2 MSTORE PUSH1 0x20 ADD PUSH11 0x2732BC3AB9902A37B5B2B7 PUSH1 0xA9 SHL DUP2 MSTORE POP PUSH1 0x40 MLOAD DUP1 PUSH1 0x40 ADD PUSH1 0x40 MSTORE DUP1 PUSH1 0x5 DUP2 MSTORE PUSH1 0x20 ADD PUSH5 0x4E45585553 PUSH1 0xD8 SHL DUP2 MSTORE POP DUP2 PUSH1 0x3 SWAP1 DUP2 PUSH3 0xBA SWAP2 SWAP1 PUSH3 0x630 JUMP JUMPDEST POP PUSH1 0x4 PUSH3 0xC9 DUP3 DUP3 PUSH3 0x630 JUMP JUMPDEST POP POP POP DUP1 PUSH1 0x0 SUB PUSH3 0xF6 JUMPI PUSH1 0x40 MLOAD PUSH4 0x392E1E27 PUSH1 0xE0 SHL DUP2 MSTORE PUSH1 0x0 PUSH1 0x4 DUP3 ADD MSTORE PUSH1 0x24 ADD JUMPDEST PUSH1 0x40 MLOAD DUP1 SWAP2 SUB SWAP1 REVERT JUMPDEST PUSH1 0x80 MSTORE PUSH1 0x1 PUSH1 0x7 SSTORE PUSH1 0x1 PUSH1 0x1 PUSH1 0xA0 SHL SUB DUP2 AND PUSH3 0x16F JUMPI PUSH1 0x40 MLOAD PUSH3 0x461BCD PUSH1 0xE5 SHL DUP2 MSTORE PUSH1 0x20 PUSH1 0x4 DUP3 ADD MSTORE PUSH1 0x30 PUSH1 0x24 DUP3 ADD MSTORE PUSH32 0x4E65787573546F6B656E3A2066656520726563697069656E742063616E6E6F74 PUSH1 0x44 DUP3 ADD MSTORE PUSH16 0x206265207A65726F2061646472657373 PUSH1 0x80 SHL PUSH1 0x64 DUP3 ADD MSTORE PUSH1 0x84 ADD PUSH3 0xED JUMP JUMPDEST PUSH3 0x17C PUSH1 0x0 CALLER PUSH3 0x27A JUMP JUMPDEST POP PUSH3 0x1A9 PUSH32 0xA49807205CE4D355092EF5A8A18F56E8913CF4A201FBE287825B095693C21775 CALLER PUSH3 0x27A JUMP JUMPDEST POP PUSH3 0x1D6 PUSH32 0x9F2DF0FED2C77648DE5860A4CC508CD0818C85B8B8A1AB4CEEEF8D981C8956A6 CALLER PUSH3 0x27A JUMP JUMPDEST POP PUSH3 0x203 PUSH32 0x65D7A28E3265B37A6474929F336521B332C1681B933F6CB9F3376673440D862A CALLER PUSH3 0x27A JUMP JUMPDEST POP PUSH1 0xA DUP1 SLOAD PUSH1 0x1 PUSH1 0x1 PUSH1 0xA0 SHL SUB NOT AND PUSH1 0x1 PUSH1 0x1 PUSH1 0xA0 SHL SUB DUP4 AND OR SWAP1 SSTORE PUSH3 0x237 CALLER PUSH12 0x33B2E3C9FD0803CE8000000 PUSH3 0x32D JUMP JUMPDEST PUSH1 0x40 MLOAD PUSH1 0x1 PUSH1 0x1 PUSH1 0xA0 SHL SUB DUP3 AND DUP2 MSTORE PUSH32 0x7A7B5A0A132F9E0581EB8527F66EAE9EE89C2A3E79D4AC7E41A1F1F4D48A7FC2 SWAP1 PUSH1 0x20 ADD PUSH1 0x40 MLOAD DUP1 SWAP2 SUB SWAP1 LOG1 POP PUSH3 0x71E JUMP JUMPDEST PUSH1 0x0 DUP3 DUP2 MSTORE PUSH1 0x6 PUSH1 0x20 SWAP1 DUP2 MSTORE PUSH1 0x40 DUP1 DUP4 KECCAK256 PUSH1 0x1 PUSH1 0x1 PUSH1 0xA0 SHL SUB DUP6 AND DUP5 MSTORE SWAP1 SWAP2 MSTORE DUP2 KECCAK256 SLOAD PUSH1 0xFF AND PUSH3 0x323 JUMPI PUSH1 0x0 DUP4 DUP2 MSTORE PUSH1 0x6 PUSH1 0x20 SWAP1 DUP2 MSTORE PUSH1 0x40 DUP1 DUP4 KECCAK256 PUSH1 0x1 PUSH1 0x1 PUSH1 0xA0 SHL SUB DUP7 AND DUP5 MSTORE SWAP1 SWAP2 MSTORE SWAP1 KECCAK256 DUP1 SLOAD PUSH1 0xFF NOT AND PUSH1 0x1 OR SWAP1 SSTORE PUSH3 0x2DA CALLER SWAP1 JUMP JUMPDEST PUSH1 0x1 PUSH1 0x1 PUSH1 0xA0 SHL SUB AND DUP3 PUSH1 0x1 PUSH1 0x1 PUSH1 0xA0 SHL SUB AND DUP5 PUSH32 0x2F8788117E7EFF1D82E926EC794901D17C78024A50270940304540A733656F0D PUSH1 0x40 MLOAD PUSH1 0x40 MLOAD DUP1 SWAP2 SUB SWAP1 LOG4 POP PUSH1 0x1 PUSH3 0x327 JUMP JUMPDEST POP PUSH1 0x0 JUMPDEST SWAP3 SWAP2 POP POP JUMP JUMPDEST PUSH1 0x1 PUSH1 0x1 PUSH1 0xA0 SHL SUB DUP3 AND PUSH3 0x359 JUMPI PUSH1 0x40 MLOAD PUSH4 0xEC442F05 PUSH1 0xE0 SHL DUP2 MSTORE PUSH1 0x0 PUSH1 0x4 DUP3 ADD MSTORE PUSH1 0x24 ADD PUSH3 0xED JUMP JUMPDEST PUSH3 0x367 PUSH1 0x0 DUP4 DUP4 PUSH3 0x36B JUMP JUMPDEST POP POP JUMP JUMPDEST PUSH3 0x378 DUP4 DUP4 DUP4 PUSH3 0x37D JUMP JUMPDEST POP POP POP JUMP JUMPDEST PUSH3 0x38A DUP4 DUP4 DUP4 PUSH3 0x3E9 JUMP JUMPDEST PUSH1 0x1 PUSH1 0x1 PUSH1 0xA0 SHL SUB DUP4 AND PUSH3 0x378 JUMPI PUSH1 0x0 PUSH3 0x3A5 PUSH1 0x80 MLOAD SWAP1 JUMP JUMPDEST SWAP1 POP PUSH1 0x0 PUSH3 0x3B3 PUSH1 0x2 SLOAD SWAP1 JUMP JUMPDEST SWAP1 POP DUP2 DUP2 GT ISZERO PUSH3 0x3E2 JUMPI PUSH1 0x40 MLOAD PUSH4 0x279E7E15 PUSH1 0xE2 SHL DUP2 MSTORE PUSH1 0x4 DUP2 ADD DUP3 SWAP1 MSTORE PUSH1 0x24 DUP2 ADD DUP4 SWAP1 MSTORE PUSH1 0x44 ADD PUSH3 0xED JUMP JUMPDEST POP POP POP POP POP JUMP JUMPDEST PUSH3 0x3F3 PUSH3 0x400 JUMP JUMPDEST PUSH3 0x378 DUP4 DUP4 DUP4 PUSH3 0x427 JUMP JUMPDEST PUSH1 0x5 SLOAD PUSH1 0xFF AND ISZERO PUSH3 0x425 JUMPI PUSH1 0x40 MLOAD PUSH4 0xD93C0665 PUSH1 0xE0 SHL DUP2 MSTORE PUSH1 0x4 ADD PUSH1 0x40 MLOAD DUP1 SWAP2 SUB SWAP1 REVERT JUMPDEST JUMP JUMPDEST PUSH1 0x1 PUSH1 0x1 PUSH1 0xA0 SHL SUB DUP4 AND PUSH3 0x456 JUMPI DUP1 PUSH1 0x2 PUSH1 0x0 DUP3 DUP3 SLOAD PUSH3 0x44A SWAP2 SWAP1 PUSH3 0x6FC JUMP JUMPDEST SWAP1 SWAP2 SSTORE POP PUSH3 0x4CA SWAP1 POP JUMP JUMPDEST PUSH1 0x1 PUSH1 0x1 PUSH1 0xA0 SHL SUB DUP4 AND PUSH1 0x0 SWAP1 DUP2 MSTORE PUSH1 0x20 DUP2 SWAP1 MSTORE PUSH1 0x40 SWAP1 KECCAK256 SLOAD DUP2 DUP2 LT ISZERO PUSH3 0x4AB JUMPI PUSH1 0x40 MLOAD PUSH4 0x391434E3 PUSH1 0xE2 SHL DUP2 MSTORE PUSH1 0x1 PUSH1 0x1 PUSH1 0xA0 SHL SUB DUP6 AND PUSH1 0x4 DUP3 ADD MSTORE PUSH1 0x24 DUP2 ADD DUP3 SWAP1 MSTORE PUSH1 0x44 DUP2 ADD DUP4 SWAP1 MSTORE PUSH1 0x64 ADD PUSH3 0xED JUMP JUMPDEST PUSH1 0x1 PUSH1 0x1 PUSH1 0xA0 SHL SUB DUP5 AND PUSH1 0x0 SWAP1 DUP2 MSTORE PUSH1 0x20 DUP2 SWAP1 MSTORE PUSH1 0x40 SWAP1 KECCAK256 SWAP1 DUP3 SWAP1 SUB SWAP1 SSTORE JUMPDEST PUSH1 0x1 PUSH1 0x1 PUSH1 0xA0 SHL SUB DUP3 AND PUSH3 0x4E8 JUMPI PUSH1 0x2 DUP1 SLOAD DUP3 SWAP1 SUB SWAP1 SSTORE PUSH3 0x507 JUMP JUMPDEST PUSH1 0x1 PUSH1 0x1 PUSH1 0xA0 SHL SUB DUP3 AND PUSH1 0x0 SWAP1 DUP2 MSTORE PUSH1 0x20 DUP2 SWAP1 MSTORE PUSH1 0x40 SWAP1 KECCAK256 DUP1 SLOAD DUP3 ADD SWAP1 SSTORE JUMPDEST DUP2 PUSH1 0x1 PUSH1 0x1 PUSH1 0xA0 SHL SUB AND DUP4 PUSH1 0x1 PUSH1 0x1 PUSH1 0xA0 SHL SUB AND PUSH32 0xDDF252AD1BE2C89B69C2B068FC378DAA952BA7F163C4A11628F55A4DF523B3EF DUP4 PUSH1 0x40 MLOAD PUSH3 0x54D SWAP2 DUP2 MSTORE PUSH1 0x20 ADD SWAP1 JUMP JUMPDEST PUSH1 0x40 MLOAD DUP1 SWAP2 SUB SWAP1 LOG3 POP POP POP JUMP JUMPDEST PUSH1 0x0 PUSH1 0x20 DUP3 DUP5 SUB SLT ISZERO PUSH3 0x56D JUMPI PUSH1 0x0 DUP1 REVERT JUMPDEST DUP2 MLOAD PUSH1 0x1 PUSH1 0x1 PUSH1 0xA0 SHL SUB DUP2 AND DUP2 EQ PUSH3 0x585 JUMPI PUSH1 0x0 DUP1 REVERT JUMPDEST SWAP4 SWAP3 POP POP POP JUMP JUMPDEST PUSH4 0x4E487B71 PUSH1 0xE0 SHL PUSH1 0x0 MSTORE PUSH1 0x41 PUSH1 0x4 MSTORE PUSH1 0x24 PUSH1 0x0 REVERT JUMPDEST PUSH1 0x1 DUP2 DUP2 SHR SWAP1 DUP3 AND DUP1 PUSH3 0x5B7 JUMPI PUSH1 0x7F DUP3 AND SWAP2 POP JUMPDEST PUSH1 0x20 DUP3 LT DUP2 SUB PUSH3 0x5D8 JUMPI PUSH4 0x4E487B71 PUSH1 0xE0 SHL PUSH1 0x0 MSTORE PUSH1 0x22 PUSH1 0x4 MSTORE PUSH1 0x24 PUSH1 0x0 REVERT JUMPDEST POP SWAP2 SWAP1 POP JUMP JUMPDEST PUSH1 0x1F DUP3 GT ISZERO PUSH3 0x378 JUMPI PUSH1 0x0 DUP2 DUP2 MSTORE PUSH1 0x20 DUP2 KECCAK256 PUSH1 0x1F DUP6 ADD PUSH1 0x5 SHR DUP2 ADD PUSH1 0x20 DUP7 LT ISZERO PUSH3 0x607 JUMPI POP DUP1 JUMPDEST PUSH1 0x1F DUP6 ADD PUSH1 0x5 SHR DUP3 ADD SWAP2 POP JUMPDEST DUP2 DUP2 LT ISZERO PUSH3 0x628 JUMPI DUP3 DUP2 SSTORE PUSH1 0x1 ADD PUSH3 0x613 JUMP JUMPDEST POP POP POP POP POP POP JUMP JUMPDEST DUP2 MLOAD PUSH1 0x1 PUSH1 0x1 PUSH1 0x40 SHL SUB DUP2 GT ISZERO PUSH3 0x64C JUMPI PUSH3 0x64C PUSH3 0x58C JUMP JUMPDEST PUSH3 0x664 DUP2 PUSH3 0x65D DUP5 SLOAD PUSH3 0x5A2 JUMP JUMPDEST DUP5 PUSH3 0x5DE JUMP JUMPDEST PUSH1 0x20 DUP1 PUSH1 0x1F DUP4 GT PUSH1 0x1 DUP2 EQ PUSH3 0x69C JUMPI PUSH1 0x0 DUP5 ISZERO PUSH3 0x683 JUMPI POP DUP6 DUP4 ADD MLOAD JUMPDEST PUSH1 0x0 NOT PUSH1 0x3 DUP7 SWAP1 SHL SHR NOT AND PUSH1 0x1 DUP6 SWAP1 SHL OR DUP6 SSTORE PUSH3 0x628 JUMP JUMPDEST PUSH1 0x0 DUP6 DUP2 MSTORE PUSH1 0x20 DUP2 KECCAK256 PUSH1 0x1F NOT DUP7 AND SWAP2 JUMPDEST DUP3 DUP2 LT ISZERO PUSH3 0x6CD JUMPI DUP9 DUP7 ADD MLOAD DUP3 SSTORE SWAP5 DUP5 ADD SWAP5 PUSH1 0x1 SWAP1 SWAP2 ADD SWAP1 DUP5 ADD PUSH3 0x6AC JUMP JUMPDEST POP DUP6 DUP3 LT ISZERO PUSH3 0x6EC JUMPI DUP8 DUP6 ADD MLOAD PUSH1 0x0 NOT PUSH1 0x3 DUP9 SWAP1 SHL PUSH1 0xF8 AND SHR NOT AND DUP2 SSTORE JUMPDEST POP POP POP POP POP PUSH1 0x1 SWAP1 DUP2 SHL ADD SWAP1 SSTORE POP JUMP JUMPDEST DUP1 DUP3 ADD DUP1 DUP3 GT ISZERO PUSH3 0x327 JUMPI PUSH4 0x4E487B71 PUSH1 0xE0 SHL PUSH1 0x0 MSTORE PUSH1 0x11 PUSH1 0x4 MSTORE PUSH1 0x24 PUSH1 0x0 REVERT JUMPDEST PUSH1 0x80 MLOAD PUSH2 0x198C PUSH3 0x741 PUSH1 0x0 CODECOPY PUSH1 0x0 DUP2 DUP2 PUSH2 0x33C ADD MSTORE PUSH2 0x1496 ADD MSTORE PUSH2 0x198C PUSH1 0x0 RETURN INVALID PUSH1 0x80 PUSH1 0x40 MSTORE CALLVALUE DUP1 ISZERO PUSH2 0x10 JUMPI PUSH1 0x0 DUP1 REVERT JUMPDEST POP PUSH1 0x4 CALLDATASIZE LT PUSH2 0x253 JUMPI PUSH1 0x0 CALLDATALOAD PUSH1 0xE0 SHR DUP1 PUSH4 0x6AD88269 GT PUSH2 0x146 JUMPI DUP1 PUSH4 0x9D11AAAA GT PUSH2 0xC3 JUMPI DUP1 PUSH4 0xC4CEB339 GT PUSH2 0x87 JUMPI DUP1 PUSH4 0xC4CEB339 EQ PUSH2 0x525 JUMPI DUP1 PUSH4 0xD5391393 EQ PUSH2 0x52E JUMPI DUP1 PUSH4 0xD547741F EQ PUSH2 0x555 JUMPI DUP1 PUSH4 0xDD62ED3E EQ PUSH2 0x568 JUMPI DUP1 PUSH4 0xE63AB1E9 EQ PUSH2 0x57B JUMPI DUP1 PUSH4 0xF160D369 EQ PUSH2 0x5A2 JUMPI PUSH1 0x0 DUP1 REVERT JUMPDEST DUP1 PUSH4 0x9D11AAAA EQ PUSH2 0x4E5 JUMPI DUP1 PUSH4 0xA217FDDF EQ PUSH2 0x4EE JUMPI DUP1 PUSH4 0xA9059CBB EQ PUSH2 0x4F6 JUMPI DUP1 PUSH4 0xA9E75723 EQ PUSH2 0x509 JUMPI DUP1 PUSH4 0xBD70239B EQ PUSH2 0x512 JUMPI PUSH1 0x0 DUP1 REVERT JUMPDEST DUP1 PUSH4 0x825D7DF2 GT PUSH2 0x10A JUMPI DUP1 PUSH4 0x825D7DF2 EQ PUSH2 0x481 JUMPI DUP1 PUSH4 0x8456CB59 EQ PUSH2 0x4AF JUMPI DUP1 PUSH4 0x8577A6D5 EQ PUSH2 0x4B7 JUMPI DUP1 PUSH4 0x91D14854 EQ PUSH2 0x4CA JUMPI DUP1 PUSH4 0x95D89B41 EQ PUSH2 0x4DD JUMPI PUSH1 0x0 DUP1 REVERT JUMPDEST DUP1 PUSH4 0x6AD88269 EQ PUSH2 0x40A JUMPI DUP1 PUSH4 0x70A08231 EQ PUSH2 0x41D JUMPI DUP1 PUSH4 0x71E36753 EQ PUSH2 0x446 JUMPI DUP1 PUSH4 0x75B238FC EQ PUSH2 0x459 JUMPI DUP1 PUSH4 0x79CC6790 EQ PUSH2 0x46E JUMPI PUSH1 0x0 DUP1 REVERT JUMPDEST DUP1 PUSH4 0x355274EA GT PUSH2 0x1D4 JUMPI DUP1 PUSH4 0x40C10F19 GT PUSH2 0x198 JUMPI DUP1 PUSH4 0x40C10F19 EQ PUSH2 0x3A1 JUMPI DUP1 PUSH4 0x42966C68 EQ PUSH2 0x3B4 JUMPI DUP1 PUSH4 0x46904840 EQ PUSH2 0x3C7 JUMPI DUP1 PUSH4 0x57D87F0D EQ PUSH2 0x3F2 JUMPI DUP1 PUSH4 0x5C975ABB EQ PUSH2 0x3FF JUMPI PUSH1 0x0 DUP1 REVERT JUMPDEST DUP1 PUSH4 0x355274EA EQ PUSH2 0x33A JUMPI DUP1 PUSH4 0x3554681B EQ PUSH2 0x360 JUMPI DUP1 PUSH4 0x36568ABE EQ PUSH2 0x373 JUMPI DUP1 PUSH4 0x37800BDE EQ PUSH2 0x386 JUMPI DUP1 PUSH4 0x3F4BA83A EQ PUSH2 0x399 JUMPI PUSH1 0x0 DUP1 REVERT JUMPDEST DUP1 PUSH4 0x248A9CA3 GT PUSH2 0x21B JUMPI DUP1 PUSH4 0x248A9CA3 EQ PUSH2 0x2CD JUMPI DUP1 PUSH4 0x2F2FF15D EQ PUSH2 0x2F0 JUMPI DUP1 PUSH4 0x2FF2E9DC EQ PUSH2 0x305 JUMPI DUP1 PUSH4 0x313CE567 EQ PUSH2 0x318 JUMPI DUP1 PUSH4 0x32CB6B0C EQ PUSH2 0x327 JUMPI PUSH1 0x0 DUP1 REVERT JUMPDEST DUP1 PUSH4 0x1FFC9A7 EQ PUSH2 0x258 JUMPI DUP1 PUSH4 0x6FDDE03 EQ PUSH2 0x280 JUMPI DUP1 PUSH4 0x95EA7B3 EQ PUSH2 0x295 JUMPI DUP1 PUSH4 0x18160DDD EQ PUSH2 0x2A8 JUMPI DUP1 PUSH4 0x23B872DD EQ PUSH2 0x2BA JUMPI JUMPDEST PUSH1 0x0 DUP1 REVERT JUMPDEST PUSH2 0x26B PUSH2 0x266 CALLDATASIZE PUSH1 0x4 PUSH2 0x1620 JUMP JUMPDEST PUSH2 0x5B5 JUMP JUMPDEST PUSH1 0x40 MLOAD SWAP1 ISZERO ISZERO DUP2 MSTORE PUSH1 0x20 ADD JUMPDEST PUSH1 0x40 MLOAD DUP1 SWAP2 SUB SWAP1 RETURN JUMPDEST PUSH2 0x288 PUSH2 0x5EC JUMP JUMPDEST PUSH1 0x40 MLOAD PUSH2 0x277 SWAP2 SWAP1 PUSH2 0x164A JUMP JUMPDEST PUSH2 0x26B PUSH2 0x2A3 CALLDATASIZE PUSH1 0x4 PUSH2 0x16B4 JUMP JUMPDEST PUSH2 0x67E JUMP JUMPDEST PUSH1 0x2 SLOAD JUMPDEST PUSH1 0x40 MLOAD SWAP1 DUP2 MSTORE PUSH1 0x20 ADD PUSH2 0x277 JUMP JUMPDEST PUSH2 0x26B PUSH2 0x2C8 CALLDATASIZE PUSH1 0x4 PUSH2 0x16DE JUMP JUMPDEST PUSH2 0x696 JUMP JUMPDEST PUSH2 0x2AC PUSH2 0x2DB CALLDATASIZE PUSH1 0x4 PUSH2 0x171A JUMP JUMPDEST PUSH1 0x0 SWAP1 DUP2 MSTORE PUSH1 0x6 PUSH1 0x20 MSTORE PUSH1 0x40 SWAP1 KECCAK256 PUSH1 0x1 ADD SLOAD SWAP1 JUMP JUMPDEST PUSH2 0x303 PUSH2 0x2FE CALLDATASIZE PUSH1 0x4 PUSH2 0x1733 JUMP JUMPDEST PUSH2 0x86E JUMP JUMPDEST STOP JUMPDEST PUSH2 0x2AC PUSH12 0x33B2E3C9FD0803CE8000000 DUP2 JUMP JUMPDEST PUSH1 0x40 MLOAD PUSH1 0x12 DUP2 MSTORE PUSH1 0x20 ADD PUSH2 0x277 JUMP JUMPDEST PUSH2 0x2AC PUSH12 0x6765C793FA10079D0000000 DUP2 JUMP JUMPDEST PUSH32 0x0 PUSH2 0x2AC JUMP JUMPDEST PUSH2 0x303 PUSH2 0x36E CALLDATASIZE PUSH1 0x4 PUSH2 0x175F JUMP JUMPDEST PUSH2 0x899 JUMP JUMPDEST PUSH2 0x303 PUSH2 0x381 CALLDATASIZE PUSH1 0x4 PUSH2 0x1733 JUMP JUMPDEST PUSH2 0x915 JUMP JUMPDEST PUSH2 0x2AC PUSH2 0x394 CALLDATASIZE PUSH1 0x4 PUSH2 0x171A JUMP JUMPDEST PUSH2 0x94D JUMP JUMPDEST PUSH2 0x303 PUSH2 0x96A JUMP JUMPDEST PUSH2 0x303 PUSH2 0x3AF CALLDATASIZE PUSH1 0x4 PUSH2 0x16B4 JUMP JUMPDEST PUSH2 0x9BA JUMP JUMPDEST PUSH2 0x303 PUSH2 0x3C2 CALLDATASIZE PUSH1 0x4 PUSH2 0x171A JUMP JUMPDEST PUSH2 0xA48 JUMP JUMPDEST PUSH1 0xA SLOAD PUSH2 0x3DA SWAP1 PUSH1 0x1 PUSH1 0x1 PUSH1 0xA0 SHL SUB AND DUP2 JUMP JUMPDEST PUSH1 0x40 MLOAD PUSH1 0x1 PUSH1 0x1 PUSH1 0xA0 SHL SUB SWAP1 SWAP2 AND DUP2 MSTORE PUSH1 0x20 ADD PUSH2 0x277 JUMP JUMPDEST PUSH1 0xC SLOAD PUSH2 0x26B SWAP1 PUSH1 0xFF AND DUP2 JUMP JUMPDEST PUSH1 0x5 SLOAD PUSH1 0xFF AND PUSH2 0x26B JUMP JUMPDEST PUSH2 0x2AC PUSH2 0x418 CALLDATASIZE PUSH1 0x4 PUSH2 0x171A JUMP JUMPDEST PUSH2 0xA55 JUMP JUMPDEST PUSH2 0x2AC PUSH2 0x42B CALLDATASIZE PUSH1 0x4 PUSH2 0x1781 JUMP JUMPDEST PUSH1 0x1 PUSH1 0x1 PUSH1 0xA0 SHL SUB AND PUSH1 0x0 SWAP1 DUP2 MSTORE PUSH1 0x20 DUP2 SWAP1 MSTORE PUSH1 0x40 SWAP1 KECCAK256 SLOAD SWAP1 JUMP JUMPDEST PUSH2 0x303 PUSH2 0x454 CALLDATASIZE PUSH1 0x4 PUSH2 0x171A JUMP JUMPDEST PUSH2 0xA68 JUMP JUMPDEST PUSH2 0x2AC PUSH1 0x0 DUP1 MLOAD PUSH1 0x20 PUSH2 0x1937 DUP4 CODECOPY DUP2 MLOAD SWAP2 MSTORE DUP2 JUMP JUMPDEST PUSH2 0x303 PUSH2 0x47C CALLDATASIZE PUSH1 0x4 PUSH2 0x16B4 JUMP JUMPDEST PUSH2 0xB31 JUMP JUMPDEST PUSH2 0x494 PUSH2 0x48F CALLDATASIZE PUSH1 0x4 PUSH2 0x171A JUMP JUMPDEST PUSH2 0xB46 JUMP JUMPDEST PUSH1 0x40 DUP1 MLOAD SWAP4 DUP5 MSTORE PUSH1 0x20 DUP5 ADD SWAP3 SWAP1 SWAP3 MSTORE SWAP1 DUP3 ADD MSTORE PUSH1 0x60 ADD PUSH2 0x277 JUMP JUMPDEST PUSH2 0x303 PUSH2 0xB73 JUMP JUMPDEST PUSH2 0x303 PUSH2 0x4C5 CALLDATASIZE PUSH1 0x4 PUSH2 0x171A JUMP JUMPDEST PUSH2 0xBC1 JUMP JUMPDEST PUSH2 0x26B PUSH2 0x4D8 CALLDATASIZE PUSH1 0x4 PUSH2 0x1733 JUMP JUMPDEST PUSH2 0xC86 JUMP JUMPDEST PUSH2 0x288 PUSH2 0xCB1 JUMP JUMPDEST PUSH2 0x2AC PUSH1 0x8 SLOAD DUP2 JUMP JUMPDEST PUSH2 0x2AC PUSH1 0x0 DUP2 JUMP JUMPDEST PUSH2 0x26B PUSH2 0x504 CALLDATASIZE PUSH1 0x4 PUSH2 0x16B4 JUMP JUMPDEST PUSH2 0xCC0 JUMP JUMPDEST PUSH2 0x2AC PUSH1 0xB SLOAD DUP2 JUMP JUMPDEST PUSH2 0x303 PUSH2 0x520 CALLDATASIZE PUSH1 0x4 PUSH2 0x171A JUMP JUMPDEST PUSH2 0xE02 JUMP JUMPDEST PUSH2 0x2AC PUSH1 0x9 SLOAD DUP2 JUMP JUMPDEST PUSH2 0x2AC PUSH32 0x9F2DF0FED2C77648DE5860A4CC508CD0818C85B8B8A1AB4CEEEF8D981C8956A6 DUP2 JUMP JUMPDEST PUSH2 0x303 PUSH2 0x563 CALLDATASIZE PUSH1 0x4 PUSH2 0x1733 JUMP JUMPDEST PUSH2 0xEDA JUMP JUMPDEST PUSH2 0x2AC PUSH2 0x576 CALLDATASIZE PUSH1 0x4 PUSH2 0x179C JUMP JUMPDEST PUSH2 0xEFF JUMP JUMPDEST PUSH2 0x2AC PUSH32 0x65D7A28E3265B37A6474929F336521B332C1681B933F6CB9F3376673440D862A DUP2 JUMP JUMPDEST PUSH2 0x303 PUSH2 0x5B0 CALLDATASIZE PUSH1 0x4 PUSH2 0x1781 JUMP JUMPDEST PUSH2 0xF2A JUMP JUMPDEST PUSH1 0x0 PUSH1 0x1 PUSH1 0x1 PUSH1 0xE0 SHL SUB NOT DUP3 AND PUSH4 0x7965DB0B PUSH1 0xE0 SHL EQ DUP1 PUSH2 0x5E6 JUMPI POP PUSH4 0x1FFC9A7 PUSH1 0xE0 SHL PUSH1 0x1 PUSH1 0x1 PUSH1 0xE0 SHL SUB NOT DUP4 AND EQ JUMPDEST SWAP3 SWAP2 POP POP JUMP JUMPDEST PUSH1 0x60 PUSH1 0x3 DUP1 SLOAD PUSH2 0x5FB SWAP1 PUSH2 0x17C6 JUMP JUMPDEST DUP1 PUSH1 0x1F ADD PUSH1 0x20 DUP1 SWAP2 DIV MUL PUSH1 0x20 ADD PUSH1 0x40 MLOAD SWAP1 DUP2 ADD PUSH1 0x40 MSTORE DUP1 SWAP3 SWAP2 SWAP1 DUP2 DUP2 MSTORE PUSH1 0x20 ADD DUP3 DUP1 SLOAD PUSH2 0x627 SWAP1 PUSH2 0x17C6 JUMP JUMPDEST DUP1 ISZERO PUSH2 0x674 JUMPI DUP1 PUSH1 0x1F LT PUSH2 0x649 JUMPI PUSH2 0x100 DUP1 DUP4 SLOAD DIV MUL DUP4 MSTORE SWAP2 PUSH1 0x20 ADD SWAP2 PUSH2 0x674 JUMP JUMPDEST DUP3 ADD SWAP2 SWAP1 PUSH1 0x0 MSTORE PUSH1 0x20 PUSH1 0x0 KECCAK256 SWAP1 JUMPDEST DUP2 SLOAD DUP2 MSTORE SWAP1 PUSH1 0x1 ADD SWAP1 PUSH1 0x20 ADD DUP1 DUP4 GT PUSH2 0x657 JUMPI DUP3 SWAP1 SUB PUSH1 0x1F AND DUP3 ADD SWAP2 JUMPDEST POP POP POP POP POP SWAP1 POP SWAP1 JUMP JUMPDEST PUSH1 0x0 CALLER PUSH2 0x68C DUP2 DUP6 DUP6 PUSH2 0x101B JUMP JUMPDEST POP PUSH1 0x1 SWAP4 SWAP3 POP POP POP JUMP JUMPDEST PUSH1 0x0 PUSH2 0x6A0 PUSH2 0x1028 JUMP JUMPDEST PUSH2 0x6A8 PUSH2 0x104C JUMP JUMPDEST PUSH1 0xC SLOAD DUP5 SWAP1 DUP5 SWAP1 DUP5 SWAP1 PUSH1 0xFF AND DUP1 ISZERO PUSH2 0x6D5 JUMPI POP PUSH2 0x6D3 PUSH1 0x0 DUP1 MLOAD PUSH1 0x20 PUSH2 0x1937 DUP4 CODECOPY DUP2 MLOAD SWAP2 MSTORE DUP5 PUSH2 0xC86 JUMP JUMPDEST ISZERO JUMPDEST DUP1 ISZERO PUSH2 0x6F6 JUMPI POP PUSH2 0x6F4 PUSH1 0x0 DUP1 MLOAD PUSH1 0x20 PUSH2 0x1937 DUP4 CODECOPY DUP2 MLOAD SWAP2 MSTORE DUP4 PUSH2 0xC86 JUMP JUMPDEST ISZERO JUMPDEST ISZERO PUSH2 0x726 JUMPI PUSH1 0xB SLOAD DUP2 GT ISZERO PUSH2 0x726 JUMPI PUSH1 0x40 MLOAD PUSH3 0x461BCD PUSH1 0xE5 SHL DUP2 MSTORE PUSH1 0x4 ADD PUSH2 0x71D SWAP1 PUSH2 0x1800 JUMP JUMPDEST PUSH1 0x40 MLOAD DUP1 SWAP2 SUB SWAP1 REVERT JUMPDEST PUSH1 0x0 PUSH2 0x731 DUP7 PUSH2 0x94D JUMP JUMPDEST SWAP1 POP PUSH1 0x0 PUSH2 0x73E DUP8 PUSH2 0xA55 JUMP JUMPDEST SWAP1 POP PUSH1 0x0 DUP2 PUSH2 0x74D DUP5 DUP11 PUSH2 0x1861 JUMP JUMPDEST PUSH2 0x757 SWAP2 SWAP1 PUSH2 0x1861 JUMP JUMPDEST SWAP1 POP DUP3 ISZERO PUSH2 0x777 JUMPI PUSH1 0xA SLOAD PUSH2 0x777 SWAP1 DUP12 SWAP1 PUSH1 0x1 PUSH1 0x1 PUSH1 0xA0 SHL SUB AND DUP6 PUSH2 0x1076 JUMP JUMPDEST DUP2 ISZERO PUSH2 0x787 JUMPI PUSH2 0x787 DUP11 DUP4 PUSH2 0x10D5 JUMP JUMPDEST PUSH2 0x792 DUP11 DUP11 DUP4 PUSH2 0x1076 JUMP JUMPDEST PUSH1 0x0 PUSH2 0x79E DUP12 CALLER PUSH2 0xEFF JUMP JUMPDEST SWAP1 POP DUP9 DUP2 LT ISZERO PUSH2 0x801 JUMPI PUSH1 0x40 MLOAD PUSH3 0x461BCD PUSH1 0xE5 SHL DUP2 MSTORE PUSH1 0x20 PUSH1 0x4 DUP3 ADD MSTORE PUSH1 0x28 PUSH1 0x24 DUP3 ADD MSTORE PUSH32 0x45524332303A207472616E7366657220616D6F756E7420657863656564732061 PUSH1 0x44 DUP3 ADD MSTORE PUSH8 0x6C6C6F77616E6365 PUSH1 0xC0 SHL PUSH1 0x64 DUP3 ADD MSTORE PUSH1 0x84 ADD PUSH2 0x71D JUMP JUMPDEST PUSH2 0x80E DUP12 CALLER DUP12 DUP5 SUB PUSH2 0x101B JUMP JUMPDEST PUSH1 0x40 DUP1 MLOAD DUP6 DUP2 MSTORE PUSH1 0x20 DUP2 ADD DUP6 SWAP1 MSTORE PUSH1 0x1 PUSH1 0x1 PUSH1 0xA0 SHL SUB DUP14 AND SWAP2 PUSH32 0x2E4FB6077D4ACF86E12BB7411FB82B2B3EAA6A49787F4B1E17B423E7EA841169 SWAP2 ADD PUSH1 0x40 MLOAD DUP1 SWAP2 SUB SWAP1 LOG2 PUSH1 0x1 SWAP8 POP POP POP POP POP POP POP POP PUSH2 0x867 PUSH1 0x1 PUSH1 0x7 SSTORE JUMP JUMPDEST SWAP4 SWAP3 POP POP POP JUMP JUMPDEST PUSH1 0x0 DUP3 DUP2 MSTORE PUSH1 0x6 PUSH1 0x20 MSTORE PUSH1 0x40 SWAP1 KECCAK256 PUSH1 0x1 ADD SLOAD PUSH2 0x889 DUP2 PUSH2 0x110B JUMP JUMPDEST PUSH2 0x893 DUP4 DUP4 PUSH2 0x1115 JUMP JUMPDEST POP POP POP POP JUMP JUMPDEST PUSH2 0x8B1 PUSH1 0x0 DUP1 MLOAD PUSH1 0x20 PUSH2 0x1937 DUP4 CODECOPY DUP2 MLOAD SWAP2 MSTORE CALLER PUSH2 0xC86 JUMP JUMPDEST PUSH2 0x8CD JUMPI PUSH1 0x40 MLOAD PUSH3 0x461BCD PUSH1 0xE5 SHL DUP2 MSTORE PUSH1 0x4 ADD PUSH2 0x71D SWAP1 PUSH2 0x1874 JUMP JUMPDEST PUSH1 0xC DUP1 SLOAD PUSH1 0xFF NOT AND DUP3 ISZERO ISZERO SWAP1 DUP2 OR SWAP1 SWAP2 SSTORE PUSH1 0x40 MLOAD SWAP1 DUP2 MSTORE PUSH32 0xD7B362F4D69F337B426DAE3260A53BF0F823E1439C8D95DE90FE2DD4295066CF SWAP1 PUSH1 0x20 ADD JUMPDEST PUSH1 0x40 MLOAD DUP1 SWAP2 SUB SWAP1 LOG1 POP JUMP JUMPDEST PUSH1 0x1 PUSH1 0x1 PUSH1 0xA0 SHL SUB DUP2 AND CALLER EQ PUSH2 0x93E JUMPI PUSH1 0x40 MLOAD PUSH4 0x334BD919 PUSH1 0xE1 SHL DUP2 MSTORE PUSH1 0x4 ADD PUSH1 0x40 MLOAD DUP1 SWAP2 SUB SWAP1 REVERT JUMPDEST PUSH2 0x948 DUP3 DUP3 PUSH2 0x11A9 JUMP JUMPDEST POP POP POP JUMP JUMPDEST PUSH1 0x0 PUSH2 0x2710 PUSH1 0x8 SLOAD DUP4 PUSH2 0x960 SWAP2 SWAP1 PUSH2 0x18A9 JUMP JUMPDEST PUSH2 0x5E6 SWAP2 SWAP1 PUSH2 0x18C0 JUMP JUMPDEST PUSH2 0x994 PUSH32 0x65D7A28E3265B37A6474929F336521B332C1681B933F6CB9F3376673440D862A CALLER PUSH2 0xC86 JUMP JUMPDEST PUSH2 0x9B0 JUMPI PUSH1 0x40 MLOAD PUSH3 0x461BCD PUSH1 0xE5 SHL DUP2 MSTORE PUSH1 0x4 ADD PUSH2 0x71D SWAP1 PUSH2 0x18E2 JUMP JUMPDEST PUSH2 0x9B8 PUSH2 0x1216 JUMP JUMPDEST JUMP JUMPDEST PUSH2 0x9E4 PUSH32 0x9F2DF0FED2C77648DE5860A4CC508CD0818C85B8B8A1AB4CEEEF8D981C8956A6 CALLER PUSH2 0xC86 JUMP JUMPDEST PUSH2 0xA3A JUMPI PUSH1 0x40 MLOAD PUSH3 0x461BCD PUSH1 0xE5 SHL DUP2 MSTORE PUSH1 0x20 PUSH1 0x4 DUP3 ADD MSTORE PUSH1 0x21 PUSH1 0x24 DUP3 ADD MSTORE PUSH32 0x4E65787573546F6B656E3A206D7573742068617665206D696E74657220726F6C PUSH1 0x44 DUP3 ADD MSTORE PUSH1 0x65 PUSH1 0xF8 SHL PUSH1 0x64 DUP3 ADD MSTORE PUSH1 0x84 ADD PUSH2 0x71D JUMP JUMPDEST PUSH2 0xA44 DUP3 DUP3 PUSH2 0x1268 JUMP JUMPDEST POP POP JUMP JUMPDEST PUSH2 0xA52 CALLER DUP3 PUSH2 0x10D5 JUMP JUMPDEST POP JUMP JUMPDEST PUSH1 0x0 PUSH2 0x2710 PUSH1 0x9 SLOAD DUP4 PUSH2 0x960 SWAP2 SWAP1 PUSH2 0x18A9 JUMP JUMPDEST PUSH2 0xA80 PUSH1 0x0 DUP1 MLOAD PUSH1 0x20 PUSH2 0x1937 DUP4 CODECOPY DUP2 MLOAD SWAP2 MSTORE CALLER PUSH2 0xC86 JUMP JUMPDEST PUSH2 0xA9C JUMPI PUSH1 0x40 MLOAD PUSH3 0x461BCD PUSH1 0xE5 SHL DUP2 MSTORE PUSH1 0x4 ADD PUSH2 0x71D SWAP1 PUSH2 0x1874 JUMP JUMPDEST PUSH2 0x1F4 DUP2 GT ISZERO PUSH2 0xAFC JUMPI PUSH1 0x40 MLOAD PUSH3 0x461BCD PUSH1 0xE5 SHL DUP2 MSTORE PUSH1 0x20 PUSH1 0x4 DUP3 ADD MSTORE PUSH1 0x25 PUSH1 0x24 DUP3 ADD MSTORE PUSH32 0x4E65787573546F6B656E3A206275726E206665652063616E6E6F742065786365 PUSH1 0x44 DUP3 ADD MSTORE PUSH5 0x6564203525 PUSH1 0xD8 SHL PUSH1 0x64 DUP3 ADD MSTORE PUSH1 0x84 ADD PUSH2 0x71D JUMP JUMPDEST PUSH1 0x9 DUP2 SWAP1 SSTORE PUSH1 0x40 MLOAD DUP2 DUP2 MSTORE PUSH32 0xD54296E32811A7F2DA2C1F6E8B39CB815CE208595DA09BB98B034CCCA6DFFC69 SWAP1 PUSH1 0x20 ADD PUSH2 0x90A JUMP JUMPDEST PUSH2 0xB3C DUP3 CALLER DUP4 PUSH2 0x129E JUMP JUMPDEST PUSH2 0xA44 DUP3 DUP3 PUSH2 0x10D5 JUMP JUMPDEST PUSH1 0x0 DUP1 PUSH1 0x0 PUSH2 0xB54 DUP5 PUSH2 0x94D JUMP JUMPDEST SWAP3 POP PUSH2 0xB5F DUP5 PUSH2 0xA55 JUMP JUMPDEST SWAP2 POP PUSH2 0xB6B DUP3 DUP5 PUSH2 0x1923 JUMP JUMPDEST SWAP3 SWAP5 SWAP2 SWAP4 POP POP JUMP JUMPDEST PUSH2 0xB9D PUSH32 0x65D7A28E3265B37A6474929F336521B332C1681B933F6CB9F3376673440D862A CALLER PUSH2 0xC86 JUMP JUMPDEST PUSH2 0xBB9 JUMPI PUSH1 0x40 MLOAD PUSH3 0x461BCD PUSH1 0xE5 SHL DUP2 MSTORE PUSH1 0x4 ADD PUSH2 0x71D SWAP1 PUSH2 0x18E2 JUMP JUMPDEST PUSH2 0x9B8 PUSH2 0x12FF JUMP JUMPDEST PUSH2 0xBD9 PUSH1 0x0 DUP1 MLOAD PUSH1 0x20 PUSH2 0x1937 DUP4 CODECOPY DUP2 MLOAD SWAP2 MSTORE CALLER PUSH2 0xC86 JUMP JUMPDEST PUSH2 0xBF5 JUMPI PUSH1 0x40 MLOAD PUSH3 0x461BCD PUSH1 0xE5 SHL DUP2 MSTORE PUSH1 0x4 ADD PUSH2 0x71D SWAP1 PUSH2 0x1874 JUMP JUMPDEST PUSH2 0x3E8 DUP2 GT ISZERO PUSH2 0xC51 JUMPI PUSH1 0x40 MLOAD PUSH3 0x461BCD PUSH1 0xE5 SHL DUP2 MSTORE PUSH1 0x20 PUSH1 0x4 DUP3 ADD MSTORE PUSH1 0x21 PUSH1 0x24 DUP3 ADD MSTORE PUSH32 0x4E65787573546F6B656E3A206665652063616E6E6F7420657863656564203130 PUSH1 0x44 DUP3 ADD MSTORE PUSH1 0x25 PUSH1 0xF8 SHL PUSH1 0x64 DUP3 ADD MSTORE PUSH1 0x84 ADD PUSH2 0x71D JUMP JUMPDEST PUSH1 0x8 DUP2 SWAP1 SSTORE PUSH1 0x40 MLOAD DUP2 DUP2 MSTORE PUSH32 0xF9F635B7CF851AF6071AAF78EF8A5F752DC52F19D556FEA4512B0C2AD4BAEA72 SWAP1 PUSH1 0x20 ADD PUSH2 0x90A JUMP JUMPDEST PUSH1 0x0 SWAP2 DUP3 MSTORE PUSH1 0x6 PUSH1 0x20 SWAP1 DUP2 MSTORE PUSH1 0x40 DUP1 DUP5 KECCAK256 PUSH1 0x1 PUSH1 0x1 PUSH1 0xA0 SHL SUB SWAP4 SWAP1 SWAP4 AND DUP5 MSTORE SWAP2 SWAP1 MSTORE SWAP1 KECCAK256 SLOAD PUSH1 0xFF AND SWAP1 JUMP JUMPDEST PUSH1 0x60 PUSH1 0x4 DUP1 SLOAD PUSH2 0x5FB SWAP1 PUSH2 0x17C6 JUMP JUMPDEST PUSH1 0x0 PUSH2 0xCCA PUSH2 0x1028 JUMP JUMPDEST PUSH2 0xCD2 PUSH2 0x104C JUMP JUMPDEST PUSH1 0xC SLOAD CALLER SWAP1 DUP5 SWAP1 DUP5 SWAP1 PUSH1 0xFF AND DUP1 ISZERO PUSH2 0xCFF JUMPI POP PUSH2 0xCFD PUSH1 0x0 DUP1 MLOAD PUSH1 0x20 PUSH2 0x1937 DUP4 CODECOPY DUP2 MLOAD SWAP2 MSTORE DUP5 PUSH2 0xC86 JUMP JUMPDEST ISZERO JUMPDEST DUP1 ISZERO PUSH2 0xD20 JUMPI POP PUSH2 0xD1E PUSH1 0x0 DUP1 MLOAD PUSH1 0x20 PUSH2 0x1937 DUP4 CODECOPY DUP2 MLOAD SWAP2 MSTORE DUP4 PUSH2 0xC86 JUMP JUMPDEST ISZERO JUMPDEST ISZERO PUSH2 0xD47 JUMPI PUSH1 0xB SLOAD DUP2 GT ISZERO PUSH2 0xD47 JUMPI PUSH1 0x40 MLOAD PUSH3 0x461BCD PUSH1 0xE5 SHL DUP2 MSTORE PUSH1 0x4 ADD PUSH2 0x71D SWAP1 PUSH2 0x1800 JUMP JUMPDEST PUSH1 0x0 PUSH2 0xD52 DUP7 PUSH2 0x94D JUMP JUMPDEST SWAP1 POP PUSH1 0x0 PUSH2 0xD5F DUP8 PUSH2 0xA55 JUMP JUMPDEST SWAP1 POP PUSH1 0x0 DUP2 PUSH2 0xD6E DUP5 DUP11 PUSH2 0x1861 JUMP JUMPDEST PUSH2 0xD78 SWAP2 SWAP1 PUSH2 0x1861 JUMP JUMPDEST SWAP1 POP DUP3 ISZERO PUSH2 0xD98 JUMPI PUSH1 0xA SLOAD PUSH2 0xD98 SWAP1 CALLER SWAP1 PUSH1 0x1 PUSH1 0x1 PUSH1 0xA0 SHL SUB AND DUP6 PUSH2 0x1076 JUMP JUMPDEST DUP2 ISZERO PUSH2 0xDA8 JUMPI PUSH2 0xDA8 CALLER DUP4 PUSH2 0x10D5 JUMP JUMPDEST PUSH2 0xDB3 CALLER DUP11 DUP4 PUSH2 0x1076 JUMP JUMPDEST PUSH1 0x40 DUP1 MLOAD DUP5 DUP2 MSTORE PUSH1 0x20 DUP2 ADD DUP5 SWAP1 MSTORE CALLER SWAP2 PUSH32 0x2E4FB6077D4ACF86E12BB7411FB82B2B3EAA6A49787F4B1E17B423E7EA841169 SWAP2 ADD PUSH1 0x40 MLOAD DUP1 SWAP2 SUB SWAP1 LOG2 PUSH1 0x1 SWAP7 POP POP POP POP POP POP POP PUSH2 0x5E6 PUSH1 0x1 PUSH1 0x7 SSTORE JUMP JUMPDEST PUSH2 0xE1A PUSH1 0x0 DUP1 MLOAD PUSH1 0x20 PUSH2 0x1937 DUP4 CODECOPY DUP2 MLOAD SWAP2 MSTORE CALLER PUSH2 0xC86 JUMP JUMPDEST PUSH2 0xE36 JUMPI PUSH1 0x40 MLOAD PUSH3 0x461BCD PUSH1 0xE5 SHL DUP2 MSTORE PUSH1 0x4 ADD PUSH2 0x71D SWAP1 PUSH2 0x1874 JUMP JUMPDEST PUSH1 0x0 DUP2 GT PUSH2 0xEA5 JUMPI PUSH1 0x40 MLOAD PUSH3 0x461BCD PUSH1 0xE5 SHL DUP2 MSTORE PUSH1 0x20 PUSH1 0x4 DUP3 ADD MSTORE PUSH1 0x36 PUSH1 0x24 DUP3 ADD MSTORE PUSH32 0x4E65787573546F6B656E3A206D6178207472616E7366657220616D6F756E7420 PUSH1 0x44 DUP3 ADD MSTORE PUSH22 0x6D7573742062652067726561746572207468616E203 PUSH1 0x54 SHL PUSH1 0x64 DUP3 ADD MSTORE PUSH1 0x84 ADD PUSH2 0x71D JUMP JUMPDEST PUSH1 0xB DUP2 SWAP1 SSTORE PUSH1 0x40 MLOAD DUP2 DUP2 MSTORE PUSH32 0xB81A465C2B79D7B689B78D9AAF5A787DD386B73A952BE0569F2FBC637AABB897 SWAP1 PUSH1 0x20 ADD PUSH2 0x90A JUMP JUMPDEST PUSH1 0x0 DUP3 DUP2 MSTORE PUSH1 0x6 PUSH1 0x20 MSTORE PUSH1 0x40 SWAP1 KECCAK256 PUSH1 0x1 ADD SLOAD PUSH2 0xEF5 DUP2 PUSH2 0x110B JUMP JUMPDEST PUSH2 0x893 DUP4 DUP4 PUSH2 0x11A9 JUMP JUMPDEST PUSH1 0x1 PUSH1 0x1 PUSH1 0xA0 SHL SUB SWAP2 DUP3 AND PUSH1 0x0 SWAP1 DUP2 MSTORE PUSH1 0x1 PUSH1 0x20 SWAP1 DUP2 MSTORE PUSH1 0x40 DUP1 DUP4 KECCAK256 SWAP4 SWAP1 SWAP5 AND DUP3 MSTORE SWAP2 SWAP1 SWAP2 MSTORE KECCAK256 SLOAD SWAP1 JUMP JUMPDEST PUSH2 0xF42 PUSH1 0x0 DUP1 MLOAD PUSH1 0x20 PUSH2 0x1937 DUP4 CODECOPY DUP2 MLOAD SWAP2 MSTORE CALLER PUSH2 0xC86 JUMP JUMPDEST PUSH2 0xF5E JUMPI PUSH1 0x40 MLOAD PUSH3 0x461BCD PUSH1 0xE5 SHL DUP2 MSTORE PUSH1 0x4 ADD PUSH2 0x71D SWAP1 PUSH2 0x1874 JUMP JUMPDEST PUSH1 0x1 PUSH1 0x1 PUSH1 0xA0 SHL SUB DUP2 AND PUSH2 0xFCD JUMPI PUSH1 0x40 MLOAD PUSH3 0x461BCD PUSH1 0xE5 SHL DUP2 MSTORE PUSH1 0x20 PUSH1 0x4 DUP3 ADD MSTORE PUSH1 0x30 PUSH1 0x24 DUP3 ADD MSTORE PUSH32 0x4E65787573546F6B656E3A2066656520726563697069656E742063616E6E6F74 PUSH1 0x44 DUP3 ADD MSTORE PUSH16 0x206265207A65726F2061646472657373 PUSH1 0x80 SHL PUSH1 0x64 DUP3 ADD MSTORE PUSH1 0x84 ADD PUSH2 0x71D JUMP JUMPDEST PUSH1 0xA DUP1 SLOAD PUSH1 0x1 PUSH1 0x1 PUSH1 0xA0 SHL SUB NOT AND PUSH1 0x1 PUSH1 0x1 PUSH1 0xA0 SHL SUB DUP4 AND SWAP1 DUP2 OR SWAP1 SWAP2 SSTORE PUSH1 0x40 MLOAD SWAP1 DUP2 MSTORE PUSH32 0x7A7B5A0A132F9E0581EB8527F66EAE9EE89C2A3E79D4AC7E41A1F1F4D48A7FC2 SWAP1 PUSH1 0x20 ADD PUSH2 0x90A JUMP JUMPDEST PUSH2 0x948 DUP4 DUP4 DUP4 PUSH1 0x1 PUSH2 0x133C JUMP JUMPDEST PUSH1 0x5 SLOAD PUSH1 0xFF AND ISZERO PUSH2 0x9B8 JUMPI PUSH1 0x40 MLOAD PUSH4 0xD93C0665 PUSH1 0xE0 SHL DUP2 MSTORE PUSH1 0x4 ADD PUSH1 0x40 MLOAD DUP1 SWAP2 SUB SWAP1 REVERT JUMPDEST PUSH1 0x2 PUSH1 0x7 SLOAD SUB PUSH2 0x106F JUMPI PUSH1 0x40 MLOAD PUSH4 0x3EE5AEB5 PUSH1 0xE0 SHL DUP2 MSTORE PUSH1 0x4 ADD PUSH1 0x40 MLOAD DUP1 SWAP2 SUB SWAP1 REVERT JUMPDEST PUSH1 0x2 PUSH1 0x7 SSTORE JUMP JUMPDEST PUSH1 0x1 PUSH1 0x1 PUSH1 0xA0 SHL SUB DUP4 AND PUSH2 0x10A0 JUMPI PUSH1 0x40 MLOAD PUSH4 0x4B637E8F PUSH1 0xE1 SHL DUP2 MSTORE PUSH1 0x0 PUSH1 0x4 DUP3 ADD MSTORE PUSH1 0x24 ADD PUSH2 0x71D JUMP JUMPDEST PUSH1 0x1 PUSH1 0x1 PUSH1 0xA0 SHL SUB DUP3 AND PUSH2 0x10CA JUMPI PUSH1 0x40 MLOAD PUSH4 0xEC442F05 PUSH1 0xE0 SHL DUP2 MSTORE PUSH1 0x0 PUSH1 0x4 DUP3 ADD MSTORE PUSH1 0x24 ADD PUSH2 0x71D JUMP JUMPDEST PUSH2 0x948 DUP4 DUP4 DUP4 PUSH2 0x1411 JUMP JUMPDEST PUSH1 0x1 PUSH1 0x1 PUSH1 0xA0 SHL SUB DUP3 AND PUSH2 0x10FF JUMPI PUSH1 0x40 MLOAD PUSH4 0x4B637E8F PUSH1 0xE1 SHL DUP2 MSTORE PUSH1 0x0 PUSH1 0x4 DUP3 ADD MSTORE PUSH1 0x24 ADD PUSH2 0x71D JUMP JUMPDEST PUSH2 0xA44 DUP3 PUSH1 0x0 DUP4 PUSH2 0x1411 JUMP JUMPDEST PUSH2 0xA52 DUP2 CALLER PUSH2 0x141C JUMP JUMPDEST PUSH1 0x0 PUSH2 0x1121 DUP4 DUP4 PUSH2 0xC86 JUMP JUMPDEST PUSH2 0x11A1 JUMPI PUSH1 0x0 DUP4 DUP2 MSTORE PUSH1 0x6 PUSH1 0x20 SWAP1 DUP2 MSTORE PUSH1 0x40 DUP1 DUP4 KECCAK256 PUSH1 0x1 PUSH1 0x1 PUSH1 0xA0 SHL SUB DUP7 AND DUP5 MSTORE SWAP1 SWAP2 MSTORE SWAP1 KECCAK256 DUP1 SLOAD PUSH1 0xFF NOT AND PUSH1 0x1 OR SWAP1 SSTORE PUSH2 0x1159 CALLER SWAP1 JUMP JUMPDEST PUSH1 0x1 PUSH1 0x1 PUSH1 0xA0 SHL SUB AND DUP3 PUSH1 0x1 PUSH1 0x1 PUSH1 0xA0 SHL SUB AND DUP5 PUSH32 0x2F8788117E7EFF1D82E926EC794901D17C78024A50270940304540A733656F0D PUSH1 0x40 MLOAD PUSH1 0x40 MLOAD DUP1 SWAP2 SUB SWAP1 LOG4 POP PUSH1 0x1 PUSH2 0x5E6 JUMP JUMPDEST POP PUSH1 0x0 PUSH2 0x5E6 JUMP JUMPDEST PUSH1 0x0 PUSH2 0x11B5 DUP4 DUP4 PUSH2 0xC86 JUMP JUMPDEST ISZERO PUSH2 0x11A1 JUMPI PUSH1 0x0 DUP4 DUP2 MSTORE PUSH1 0x6 PUSH1 0x20 SWAP1 DUP2 MSTORE PUSH1 0x40 DUP1 DUP4 KECCAK256 PUSH1 0x1 PUSH1 0x1 PUSH1 0xA0 SHL SUB DUP7 AND DUP1 DUP6 MSTORE SWAP3 MSTORE DUP1 DUP4 KECCAK256 DUP1 SLOAD PUSH1 0xFF NOT AND SWAP1 SSTORE MLOAD CALLER SWAP3 DUP7 SWAP2 PUSH32 0xF6391F5C32D9C69D2A47EA670B442974B53935D1EDC7FD64EB21E047A839171B SWAP2 SWAP1 LOG4 POP PUSH1 0x1 PUSH2 0x5E6 JUMP JUMPDEST PUSH2 0x121E PUSH2 0x1455 JUMP JUMPDEST PUSH1 0x5 DUP1 SLOAD PUSH1 0xFF NOT AND SWAP1 SSTORE PUSH32 0x5DB9EE0A495BF2E6FF9C91A7834C1BA4FDD244A5E8AA4E537BD38AEAE4B073AA CALLER JUMPDEST PUSH1 0x40 MLOAD PUSH1 0x1 PUSH1 0x1 PUSH1 0xA0 SHL SUB SWAP1 SWAP2 AND DUP2 MSTORE PUSH1 0x20 ADD PUSH1 0x40 MLOAD DUP1 SWAP2 SUB SWAP1 LOG1 JUMP JUMPDEST PUSH1 0x1 PUSH1 0x1 PUSH1 0xA0 SHL SUB DUP3 AND PUSH2 0x1292 JUMPI PUSH1 0x40 MLOAD PUSH4 0xEC442F05 PUSH1 0xE0 SHL DUP2 MSTORE PUSH1 0x0 PUSH1 0x4 DUP3 ADD MSTORE PUSH1 0x24 ADD PUSH2 0x71D JUMP JUMPDEST PUSH2 0xA44 PUSH1 0x0 DUP4 DUP4 PUSH2 0x1411 JUMP JUMPDEST PUSH1 0x0 PUSH2 0x12AA DUP5 DUP5 PUSH2 0xEFF JUMP JUMPDEST SWAP1 POP PUSH1 0x0 NOT DUP2 LT ISZERO PUSH2 0x893 JUMPI DUP2 DUP2 LT ISZERO PUSH2 0x12F0 JUMPI PUSH1 0x40 MLOAD PUSH4 0x7DC7A0D9 PUSH1 0xE1 SHL DUP2 MSTORE PUSH1 0x1 PUSH1 0x1 PUSH1 0xA0 SHL SUB DUP5 AND PUSH1 0x4 DUP3 ADD MSTORE PUSH1 0x24 DUP2 ADD DUP3 SWAP1 MSTORE PUSH1 0x44 DUP2 ADD DUP4 SWAP1 MSTORE PUSH1 0x64 ADD PUSH2 0x71D JUMP JUMPDEST PUSH2 0x893 DUP5 DUP5 DUP5 DUP5 SUB PUSH1 0x0 PUSH2 0x133C JUMP JUMPDEST PUSH2 0x1307 PUSH2 0x1028 JUMP JUMPDEST PUSH1 0x5 DUP1 SLOAD PUSH1 0xFF NOT AND PUSH1 0x1 OR SWAP1 SSTORE PUSH32 0x62E78CEA01BEE320CD4E420270B5EA74000D11B0C9F74754EBDBFC544B05A258 PUSH2 0x124B CALLER SWAP1 JUMP JUMPDEST PUSH1 0x1 PUSH1 0x1 PUSH1 0xA0 SHL SUB DUP5 AND PUSH2 0x1366 JUMPI PUSH1 0x40 MLOAD PUSH4 0xE602DF05 PUSH1 0xE0 SHL DUP2 MSTORE PUSH1 0x0 PUSH1 0x4 DUP3 ADD MSTORE PUSH1 0x24 ADD PUSH2 0x71D JUMP JUMPDEST PUSH1 0x1 PUSH1 0x1 PUSH1 0xA0 SHL SUB DUP4 AND PUSH2 0x1390 JUMPI PUSH1 0x40 MLOAD PUSH4 0x4A1406B1 PUSH1 0xE1 SHL DUP2 MSTORE PUSH1 0x0 PUSH1 0x4 DUP3 ADD MSTORE PUSH1 0x24 ADD PUSH2 0x71D JUMP JUMPDEST PUSH1 0x1 PUSH1 0x1 PUSH1 0xA0 SHL SUB DUP1 DUP6 AND PUSH1 0x0 SWAP1 DUP2 MSTORE PUSH1 0x1 PUSH1 0x20 SWAP1 DUP2 MSTORE PUSH1 0x40 DUP1 DUP4 KECCAK256 SWAP4 DUP8 AND DUP4 MSTORE SWAP3 SWAP1 MSTORE KECCAK256 DUP3 SWAP1 SSTORE DUP1 ISZERO PUSH2 0x893 JUMPI DUP3 PUSH1 0x1 PUSH1 0x1 PUSH1 0xA0 SHL SUB AND DUP5 PUSH1 0x1 PUSH1 0x1 PUSH1 0xA0 SHL SUB AND PUSH32 0x8C5BE1E5EBEC7D5BD14F71427D1E84F3DD0314C0F7B2291E5B200AC8C7C3B925 DUP5 PUSH1 0x40 MLOAD PUSH2 0x1403 SWAP2 DUP2 MSTORE PUSH1 0x20 ADD SWAP1 JUMP JUMPDEST PUSH1 0x40 MLOAD DUP1 SWAP2 SUB SWAP1 LOG3 POP POP POP POP JUMP JUMPDEST PUSH2 0x948 DUP4 DUP4 DUP4 PUSH2 0x1478 JUMP JUMPDEST PUSH2 0x1426 DUP3 DUP3 PUSH2 0xC86 JUMP JUMPDEST PUSH2 0xA44 JUMPI PUSH1 0x40 MLOAD PUSH4 0xE2517D3F PUSH1 0xE0 SHL DUP2 MSTORE PUSH1 0x1 PUSH1 0x1 PUSH1 0xA0 SHL SUB DUP3 AND PUSH1 0x4 DUP3 ADD MSTORE PUSH1 0x24 DUP2 ADD DUP4 SWAP1 MSTORE PUSH1 0x44 ADD PUSH2 0x71D JUMP JUMPDEST PUSH1 0x5 SLOAD PUSH1 0xFF AND PUSH2 0x9B8 JUMPI PUSH1 0x40 MLOAD PUSH4 0x8DFC202B PUSH1 0xE0 SHL DUP2 MSTORE PUSH1 0x4 ADD PUSH1 0x40 MLOAD DUP1 SWAP2 SUB SWAP1 REVERT JUMPDEST PUSH2 0x1483 DUP4 DUP4 DUP4 PUSH2 0x14E8 JUMP JUMPDEST PUSH1 0x1 PUSH1 0x1 PUSH1 0xA0 SHL SUB DUP4 AND PUSH2 0x948 JUMPI PUSH1 0x2 SLOAD PUSH32 0x0 SWAP1 DUP2 DUP2 GT ISZERO PUSH2 0x14E1 JUMPI PUSH1 0x40 MLOAD PUSH4 0x279E7E15 PUSH1 0xE2 SHL DUP2 MSTORE PUSH1 0x4 DUP2 ADD DUP3 SWAP1 MSTORE PUSH1 0x24 DUP2 ADD DUP4 SWAP1 MSTORE PUSH1 0x44 ADD PUSH2 0x71D JUMP JUMPDEST POP POP POP POP POP JUMP JUMPDEST PUSH2 0x14F0 PUSH2 0x1028 JUMP JUMPDEST PUSH2 0x948 DUP4 DUP4 DUP4 PUSH1 0x1 PUSH1 0x1 PUSH1 0xA0 SHL SUB DUP4 AND PUSH2 0x1521 JUMPI DUP1 PUSH1 0x2 PUSH1 0x0 DUP3 DUP3 SLOAD PUSH2 0x1516 SWAP2 SWAP1 PUSH2 0x1923 JUMP JUMPDEST SWAP1 SWAP2 SSTORE POP PUSH2 0x1593 SWAP1 POP JUMP JUMPDEST PUSH1 0x1 PUSH1 0x1 PUSH1 0xA0 SHL SUB DUP4 AND PUSH1 0x0 SWAP1 DUP2 MSTORE PUSH1 0x20 DUP2 SWAP1 MSTORE PUSH1 0x40 SWAP1 KECCAK256 SLOAD DUP2 DUP2 LT ISZERO PUSH2 0x1574 JUMPI PUSH1 0x40 MLOAD PUSH4 0x391434E3 PUSH1 0xE2 SHL DUP2 MSTORE PUSH1 0x1 PUSH1 0x1 PUSH1 0xA0 SHL SUB DUP6 AND PUSH1 0x4 DUP3 ADD MSTORE PUSH1 0x24 DUP2 ADD DUP3 SWAP1 MSTORE PUSH1 0x44 DUP2 ADD DUP4 SWAP1 MSTORE PUSH1 0x64 ADD PUSH2 0x71D JUMP JUMPDEST PUSH1 0x1 PUSH1 0x1 PUSH1 0xA0 SHL SUB DUP5 AND PUSH1 0x0 SWAP1 DUP2 MSTORE PUSH1 0x20 DUP2 SWAP1 MSTORE PUSH1 0x40 SWAP1 KECCAK256 SWAP1 DUP3 SWAP1 SUB SWAP1 SSTORE JUMPDEST PUSH1 0x1 PUSH1 0x1 PUSH1 0xA0 SHL SUB DUP3 AND PUSH2 0x15AF JUMPI PUSH1 0x2 DUP1 SLOAD DUP3 SWAP1 SUB SWAP1 SSTORE PUSH2 0x15CE JUMP JUMPDEST PUSH1 0x1 PUSH1 0x1 PUSH1 0xA0 SHL SUB DUP3 AND PUSH1 0x0 SWAP1 DUP2 MSTORE PUSH1 0x20 DUP2 SWAP1 MSTORE PUSH1 0x40 SWAP1 KECCAK256 DUP1 SLOAD DUP3 ADD SWAP1 SSTORE JUMPDEST DUP2 PUSH1 0x1 PUSH1 0x1 PUSH1 0xA0 SHL SUB AND DUP4 PUSH1 0x1 PUSH1 0x1 PUSH1 0xA0 SHL SUB AND PUSH32 0xDDF252AD1BE2C89B69C2B068FC378DAA952BA7F163C4A11628F55A4DF523B3EF DUP4 PUSH1 0x40 MLOAD PUSH2 0x1613 SWAP2 DUP2 MSTORE PUSH1 0x20 ADD SWAP1 JUMP JUMPDEST PUSH1 0x40 MLOAD DUP1 SWAP2 SUB SWAP1 LOG3 POP POP POP JUMP JUMPDEST PUSH1 0x0 PUSH1 0x20 DUP3 DUP5 SUB SLT ISZERO PUSH2 0x1632 JUMPI PUSH1 0x0 DUP1 REVERT JUMPDEST DUP2 CALLDATALOAD PUSH1 0x1 PUSH1 0x1 PUSH1 0xE0 SHL SUB NOT DUP2 AND DUP2 EQ PUSH2 0x867 JUMPI PUSH1 0x0 DUP1 REVERT JUMPDEST PUSH1 0x0 PUSH1 0x20 DUP1 DUP4 MSTORE DUP4 MLOAD DUP1 DUP3 DUP6 ADD MSTORE PUSH1 0x0 JUMPDEST DUP2 DUP2 LT ISZERO PUSH2 0x1677 JUMPI DUP6 DUP2 ADD DUP4 ADD MLOAD DUP6 DUP3 ADD PUSH1 0x40 ADD MSTORE DUP3 ADD PUSH2 0x165B JUMP JUMPDEST POP PUSH1 0x0 PUSH1 0x40 DUP3 DUP7 ADD ADD MSTORE PUSH1 0x40 PUSH1 0x1F NOT PUSH1 0x1F DUP4 ADD AND DUP6 ADD ADD SWAP3 POP POP POP SWAP3 SWAP2 POP POP JUMP JUMPDEST DUP1 CALLDATALOAD PUSH1 0x1 PUSH1 0x1 PUSH1 0xA0 SHL SUB DUP2 AND DUP2 EQ PUSH2 0x16AF JUMPI PUSH1 0x0 DUP1 REVERT JUMPDEST SWAP2 SWAP1 POP JUMP JUMPDEST PUSH1 0x0 DUP1 PUSH1 0x40 DUP4 DUP6 SUB SLT ISZERO PUSH2 0x16C7 JUMPI PUSH1 0x0 DUP1 REVERT JUMPDEST PUSH2 0x16D0 DUP4 PUSH2 0x1698 JUMP JUMPDEST SWAP5 PUSH1 0x20 SWAP4 SWAP1 SWAP4 ADD CALLDATALOAD SWAP4 POP POP POP JUMP JUMPDEST PUSH1 0x0 DUP1 PUSH1 0x0 PUSH1 0x60 DUP5 DUP7 SUB SLT ISZERO PUSH2 0x16F3 JUMPI PUSH1 0x0 DUP1 REVERT JUMPDEST PUSH2 0x16FC DUP5 PUSH2 0x1698 JUMP JUMPDEST SWAP3 POP PUSH2 0x170A PUSH1 0x20 DUP6 ADD PUSH2 0x1698 JUMP JUMPDEST SWAP2 POP PUSH1 0x40 DUP5 ADD CALLDATALOAD SWAP1 POP SWAP3 POP SWAP3 POP SWAP3 JUMP JUMPDEST PUSH1 0x0 PUSH1 0x20 DUP3 DUP5 SUB SLT ISZERO PUSH2 0x172C JUMPI PUSH1 0x0 DUP1 REVERT JUMPDEST POP CALLDATALOAD SWAP2 SWAP1 POP JUMP JUMPDEST PUSH1 0x0 DUP1 PUSH1 0x40 DUP4 DUP6 SUB SLT ISZERO PUSH2 0x1746 JUMPI PUSH1 0x0 DUP1 REVERT JUMPDEST DUP3 CALLDATALOAD SWAP2 POP PUSH2 0x1756 PUSH1 0x20 DUP5 ADD PUSH2 0x1698 JUMP JUMPDEST SWAP1 POP SWAP3 POP SWAP3 SWAP1 POP JUMP JUMPDEST PUSH1 0x0 PUSH1 0x20 DUP3 DUP5 SUB SLT ISZERO PUSH2 0x1771 JUMPI PUSH1 0x0 DUP1 REVERT JUMPDEST DUP2 CALLDATALOAD DUP1 ISZERO ISZERO DUP2 EQ PUSH2 0x867 JUMPI PUSH1 0x0 DUP1 REVERT JUMPDEST PUSH1 0x0 PUSH1 0x20 DUP3 DUP5 SUB SLT ISZERO PUSH2 0x1793 JUMPI PUSH1 0x0 DUP1 REVERT JUMPDEST PUSH2 0x867 DUP3 PUSH2 0x1698 JUMP JUMPDEST PUSH1 0x0 DUP1 PUSH1 0x40 DUP4 DUP6 SUB SLT ISZERO PUSH2 0x17AF JUMPI PUSH1 0x0 DUP1 REVERT JUMPDEST PUSH2 0x17B8 DUP4 PUSH2 0x1698 JUMP JUMPDEST SWAP2 POP PUSH2 0x1756 PUSH1 0x20 DUP5 ADD PUSH2 0x1698 JUMP JUMPDEST PUSH1 0x1 DUP2 DUP2 SHR SWAP1 DUP3 AND DUP1 PUSH2 0x17DA JUMPI PUSH1 0x7F DUP3 AND SWAP2 POP JUMPDEST PUSH1 0x20 DUP3 LT DUP2 SUB PUSH2 0x17FA JUMPI PUSH4 0x4E487B71 PUSH1 0xE0 SHL PUSH1 0x0 MSTORE PUSH1 0x22 PUSH1 0x4 MSTORE PUSH1 0x24 PUSH1 0x0 REVERT JUMPDEST POP SWAP2 SWAP1 POP JUMP JUMPDEST PUSH1 0x20 DUP1 DUP3 MSTORE PUSH1 0x2B SWAP1 DUP3 ADD MSTORE PUSH32 0x4E65787573546F6B656E3A207472616E7366657220616D6F756E742065786365 PUSH1 0x40 DUP3 ADD MSTORE PUSH11 0x656473206D6178696D756D PUSH1 0xA8 SHL PUSH1 0x60 DUP3 ADD MSTORE PUSH1 0x80 ADD SWAP1 JUMP JUMPDEST PUSH4 0x4E487B71 PUSH1 0xE0 SHL PUSH1 0x0 MSTORE PUSH1 0x11 PUSH1 0x4 MSTORE PUSH1 0x24 PUSH1 0x0 REVERT JUMPDEST DUP2 DUP2 SUB DUP2 DUP2 GT ISZERO PUSH2 0x5E6 JUMPI PUSH2 0x5E6 PUSH2 0x184B JUMP JUMPDEST PUSH1 0x20 DUP1 DUP3 MSTORE DUP2 DUP2 ADD MSTORE PUSH32 0x4E65787573546F6B656E3A206D75737420686176652061646D696E20726F6C65 PUSH1 0x40 DUP3 ADD MSTORE PUSH1 0x60 ADD SWAP1 JUMP JUMPDEST DUP1 DUP3 MUL DUP2 ISZERO DUP3 DUP3 DIV DUP5 EQ OR PUSH2 0x5E6 JUMPI PUSH2 0x5E6 PUSH2 0x184B JUMP JUMPDEST PUSH1 0x0 DUP3 PUSH2 0x18DD JUMPI PUSH4 0x4E487B71 PUSH1 0xE0 SHL PUSH1 0x0 MSTORE PUSH1 0x12 PUSH1 0x4 MSTORE PUSH1 0x24 PUSH1 0x0 REVERT JUMPDEST POP DIV SWAP1 JUMP JUMPDEST PUSH1 0x20 DUP1 DUP3 MSTORE PUSH1 0x21 SWAP1 DUP3 ADD MSTORE PUSH32 0x4E65787573546F6B656E3A206D75737420686176652070617573657220726F6C PUSH1 0x40 DUP3 ADD MSTORE PUSH1 0x65 PUSH1 0xF8 SHL PUSH1 0x60 DUP3 ADD MSTORE PUSH1 0x80 ADD SWAP1 JUMP JUMPDEST DUP1 DUP3 ADD DUP1 DUP3 GT ISZERO PUSH2 0x5E6 JUMPI PUSH2 0x5E6 PUSH2 0x184B JUMP INVALID LOG4 SWAP9 SMOD KECCAK256 0x5C 0xE4 0xD3 SSTORE MULMOD 0x2E CREATE2 0xA8 LOG1 DUP16 JUMP 0xE8 SWAP2 EXTCODECOPY DELEGATECALL LOG2 ADD 0xFB 0xE2 DUP8 DUP3 JUMPDEST MULMOD JUMP SWAP4 0xC2 OR PUSH22 0xA264697066735822122089CAF577F2B5A980E04BB44F 0x2A 0xC8 0x27 0xAF 0xAF 0x1F PREVRANDAO ADDMOD PUSH20 0x4EC53CF8F1024D7C4FE0E764736F6C6343000814 STOP CALLER "},"methodIdentifiers":{"ADMIN_ROLE()":"75b238fc","DEFAULT_ADMIN_ROLE()":"a217fddf","INITIAL_SUPPLY()":"2ff2e9dc","MAX_SUPPLY()":"32cb6b0c","MINTER_ROLE()":"d5391393","PAUSER_ROLE()":"e63ab1e9","allowance(address,address)":"dd62ed3e","antiWhaleEnabled()":"57d87f0d","approve(address,uint256)":"095ea7b3","balanceOf(address)":"70a08231","burn(uint256)":"42966c68","burnFeePercentage()":"c4ceb339","burnFrom(address,uint256)":"79cc6790","calculateBurnFee(uint256)":"6ad88269","calculateTransferFee(uint256)":"37800bde","cap()":"355274ea","decimals()":"313ce567","feeRecipient()":"46904840","getRoleAdmin(bytes32)":"248a9ca3","getTransferFees(uint256)":"825d7df2","grantRole(bytes32,address)":"2f2ff15d","hasRole(bytes32,address)":"91d14854","maxTransferAmount()":"a9e75723","mint(address,uint256)":"40c10f19","name()":"06fdde03","pause()":"8456cb59","paused()":"5c975abb","renounceRole(bytes32,address)":"36568abe","revokeRole(bytes32,address)":"d547741f","supportsInterface(bytes4)":"01ffc9a7","symbol()":"95d89b41","toggleAntiWhale(bool)":"3554681b","totalSupply()":"18160ddd","transfer(address,uint256)":"a9059cbb","transferFeePercentage()":"9d11aaaa","transferFrom(address,address,uint256)":"23b872dd","unpause()":"3f4ba83a","updateBurnFee(uint256)":"71e36753","updateFeeRecipient(address)":"f160d369","updateMaxTransferAmount(uint256)":"bd70239b","updateTransferFee(uint256)":"8577a6d5"}}}}}