{"contracts/DeFAIManager.sol":{"DeFAIManager":{"abi":[{"inputs":[{"internalType":"address","name":"_nexusToken","type":"address"},{"internalType":"address","name":"_potToken","type":"address"},{"internalType":"address","name":"_feeRecipient","type":"address"}],"stateMutability":"nonpayable","type":"constructor"},{"inputs":[],"name":"AccessControlBadConfirmation","type":"error"},{"inputs":[{"internalType":"address","name":"account","type":"address"},{"internalType":"bytes32","name":"neededRole","type":"bytes32"}],"name":"AccessControlUnauthorizedAccount","type":"error"},{"inputs":[],"name":"EnforcedPause","type":"error"},{"inputs":[],"name":"ExpectedPause","type":"error"},{"inputs":[],"name":"ReentrancyGuardReentrantCall","type":"error"},{"inputs":[{"internalType":"address","name":"token","type":"address"}],"name":"SafeERC20FailedOperation","type":"error"},{"anonymous":false,"inputs":[{"indexed":true,"internalType":"address","name":"user","type":"address"},{"indexed":false,"internalType":"uint256","name":"amount","type":"uint256"},{"indexed":false,"internalType":"string","name":"reason","type":"string"}],"name":"EmergencyWithdrawal","type":"event"},{"anonymous":false,"inputs":[{"indexed":true,"internalType":"address","name":"user","type":"address"},{"indexed":false,"internalType":"uint256","name":"managementFee","type":"uint256"},{"indexed":false,"internalType":"uint256","name":"performanceFee","type":"uint256"}],"name":"FeesCollected","type":"event"},{"anonymous":false,"inputs":[{"indexed":false,"internalType":"address","name":"account","type":"address"}],"name":"Paused","type":"event"},{"anonymous":false,"inputs":[{"indexed":true,"internalType":"address","name":"owner","type":"address"},{"indexed":false,"internalType":"uint256","name":"initialValue","type":"uint256"}],"name":"PortfolioCreated","type":"event"},{"anonymous":false,"inputs":[{"indexed":true,"internalType":"address","name":"owner","type":"address"},{"indexed":false,"internalType":"uint256","name":"newValue","type":"uint256"}],"name":"PortfolioRebalanced","type":"event"},{"anonymous":false,"inputs":[{"indexed":true,"internalType":"address","name":"user","type":"address"},{"indexed":false,"internalType":"uint256","name":"riskScore","type":"uint256"},{"indexed":false,"internalType":"bool","name":"isApproved","type":"bool"}],"name":"RiskProfileUpdated","type":"event"},{"anonymous":false,"inputs":[{"indexed":true,"internalType":"bytes32","name":"role","type":"bytes32"},{"indexed":true,"internalType":"bytes32","name":"previousAdminRole","type":"bytes32"},{"indexed":true,"internalType":"bytes32","name":"newAdminRole","type":"bytes32"}],"name":"RoleAdminChanged","type":"event"},{"anonymous":false,"inputs":[{"indexed":true,"internalType":"bytes32","name":"role","type":"bytes32"},{"indexed":true,"internalType":"address","name":"account","type":"address"},{"indexed":true,"internalType":"address","name":"sender","type":"address"}],"name":"RoleGranted","type":"event"},{"anonymous":false,"inputs":[{"indexed":true,"internalType":"bytes32","name":"role","type":"bytes32"},{"indexed":true,"internalType":"address","name":"account","type":"address"},{"indexed":true,"internalType":"address","name":"sender","type":"address"}],"name":"RoleRevoked","type":"event"},{"anonymous":false,"inputs":[{"indexed":true,"internalType":"uint256","name":"strategyId","type":"uint256"},{"indexed":false,"internalType":"address","name":"strategyContract","type":"address"},{"indexed":false,"internalType":"string","name":"name","type":"string"}],"name":"StrategyAdded","type":"event"},{"anonymous":false,"inputs":[{"indexed":true,"internalType":"uint256","name":"strategyId","type":"uint256"},{"indexed":false,"internalType":"bool","name":"isActive","type":"bool"},{"indexed":false,"internalType":"uint256","name":"newAPY","type":"uint256"}],"name":"StrategyUpdated","type":"event"},{"anonymous":false,"inputs":[{"indexed":false,"internalType":"address","name":"account","type":"address"}],"name":"Unpaused","type":"event"},{"anonymous":false,"inputs":[{"indexed":true,"internalType":"address","name":"user","type":"address"},{"indexed":false,"internalType":"uint256","name":"amount","type":"uint256"},{"indexed":false,"internalType":"uint256","name":"strategyId","type":"uint256"}],"name":"YieldOptimized","type":"event"},{"inputs":[],"name":"ADMIN_ROLE","outputs":[{"internalType":"bytes32","name":"","type":"bytes32"}],"stateMutability":"view","type":"function"},{"inputs":[],"name":"DEFAULT_ADMIN_ROLE","outputs":[{"internalType":"bytes32","name":"","type":"bytes32"}],"stateMutability":"view","type":"function"},{"inputs":[],"name":"EMERGENCY_ROLE","outputs":[{"internalType":"bytes32","name":"","type":"bytes32"}],"stateMutability":"view","type":"function"},{"inputs":[],"name":"OPERATOR_ROLE","outputs":[{"internalType":"bytes32","name":"","type":"bytes32"}],"stateMutability":"view","type":"function"},{"inputs":[],"name":"STRATEGY_ROLE","outputs":[{"internalType":"bytes32","name":"","type":"bytes32"}],"stateMutability":"view","type":"function"},{"inputs":[{"internalType":"address","name":"strategyContract","type":"address"},{"internalType":"string","name":"name","type":"string"},{"internalType":"uint256","name":"minDeposit","type":"uint256"},{"internalType":"uint256","name":"maxDeposit","type":"uint256"},{"internalType":"uint256","name":"initialAPY","type":"uint256"}],"name":"addYieldStrategy","outputs":[],"stateMutability":"nonpayable","type":"function"},{"inputs":[{"internalType":"address","name":"user","type":"address"},{"internalType":"uint256","name":"portfolioValue","type":"uint256"},{"internalType":"uint256","name":"performanceGain","type":"uint256"}],"name":"collectFees","outputs":[],"stateMutability":"nonpayable","type":"function"},{"inputs":[{"internalType":"address","name":"user","type":"address"},{"internalType":"uint256","name":"initialValue","type":"uint256"}],"name":"createPortfolio","outputs":[],"stateMutability":"nonpayable","type":"function"},{"inputs":[{"internalType":"address","name":"user","type":"address"},{"internalType":"uint256","name":"amount","type":"uint256"},{"internalType":"string","name":"reason","type":"string"}],"name":"emergencyWithdrawal","outputs":[],"stateMutability":"nonpayable","type":"function"},{"inputs":[],"name":"feeRecipient","outputs":[{"internalType":"address","name":"","type":"address"}],"stateMutability":"view","type":"function"},{"inputs":[{"internalType":"bytes32","name":"role","type":"bytes32"}],"name":"getRoleAdmin","outputs":[{"internalType":"bytes32","name":"","type":"bytes32"}],"stateMutability":"view","type":"function"},{"inputs":[],"name":"getSupportedTokens","outputs":[{"internalType":"address[]","name":"","type":"address[]"}],"stateMutability":"view","type":"function"},{"inputs":[],"name":"getTotalStrategies","outputs":[{"internalType":"uint256","name":"","type":"uint256"}],"stateMutability":"view","type":"function"},{"inputs":[{"internalType":"address","name":"user","type":"address"}],"name":"getUserStrategies","outputs":[{"internalType":"uint256[]","name":"","type":"uint256[]"}],"stateMutability":"view","type":"function"},{"inputs":[{"internalType":"bytes32","name":"role","type":"bytes32"},{"internalType":"address","name":"account","type":"address"}],"name":"grantRole","outputs":[],"stateMutability":"nonpayable","type":"function"},{"inputs":[{"internalType":"bytes32","name":"role","type":"bytes32"},{"internalType":"address","name":"account","type":"address"}],"name":"hasRole","outputs":[{"internalType":"bool","name":"","type":"bool"}],"stateMutability":"view","type":"function"},{"inputs":[],"name":"managementFeePercentage","outputs":[{"internalType":"uint256","name":"","type":"uint256"}],"stateMutability":"view","type":"function"},{"inputs":[],"name":"nexusToken","outputs":[{"internalType":"contract IERC20","name":"","type":"address"}],"stateMutability":"view","type":"function"},{"inputs":[{"internalType":"address","name":"user","type":"address"},{"internalType":"uint256","name":"amount","type":"uint256"},{"internalType":"uint256","name":"strategyId","type":"uint256"}],"name":"optimizeYield","outputs":[],"stateMutability":"nonpayable","type":"function"},{"inputs":[],"name":"pause","outputs":[],"stateMutability":"nonpayable","type":"function"},{"inputs":[],"name":"paused","outputs":[{"internalType":"bool","name":"","type":"bool"}],"stateMutability":"view","type":"function"},{"inputs":[],"name":"performanceFeePercentage","outputs":[{"internalType":"uint256","name":"","type":"uint256"}],"stateMutability":"view","type":"function"},{"inputs":[{"internalType":"address","name":"","type":"address"},{"internalType":"uint256","name":"","type":"uint256"}],"name":"portfolioSupportedTokens","outputs":[{"internalType":"address","name":"","type":"address"}],"stateMutability":"view","type":"function"},{"inputs":[{"internalType":"address","name":"","type":"address"},{"internalType":"address","name":"","type":"address"}],"name":"portfolioTokenBalances","outputs":[{"internalType":"uint256","name":"","type":"uint256"}],"stateMutability":"view","type":"function"},{"inputs":[{"internalType":"address","name":"","type":"address"}],"name":"portfolios","outputs":[{"internalType":"address","name":"owner","type":"address"},{"internalType":"uint256","name":"totalValue","type":"uint256"},{"internalType":"uint256","name":"lastRebalance","type":"uint256"},{"internalType":"bool","name":"isActive","type":"bool"}],"stateMutability":"view","type":"function"},{"inputs":[],"name":"potToken","outputs":[{"internalType":"contract IERC20","name":"","type":"address"}],"stateMutability":"view","type":"function"},{"inputs":[{"internalType":"address","name":"user","type":"address"}],"name":"rebalancePortfolio","outputs":[],"stateMutability":"nonpayable","type":"function"},{"inputs":[{"internalType":"bytes32","name":"role","type":"bytes32"},{"internalType":"address","name":"callerConfirmation","type":"address"}],"name":"renounceRole","outputs":[],"stateMutability":"nonpayable","type":"function"},{"inputs":[{"internalType":"bytes32","name":"role","type":"bytes32"},{"internalType":"address","name":"account","type":"address"}],"name":"revokeRole","outputs":[],"stateMutability":"nonpayable","type":"function"},{"inputs":[{"internalType":"address","name":"","type":"address"}],"name":"riskProfiles","outputs":[{"internalType":"uint256","name":"riskScore","type":"uint256"},{"internalType":"uint256","name":"maxLeverage","type":"uint256"},{"internalType":"uint256","name":"maxSinglePosition","type":"uint256"},{"internalType":"bool","name":"isApproved","type":"bool"}],"stateMutability":"view","type":"function"},{"inputs":[{"internalType":"address","name":"","type":"address"}],"name":"supportedTokens","outputs":[{"internalType":"bool","name":"","type":"bool"}],"stateMutability":"view","type":"function"},{"inputs":[{"internalType":"bytes4","name":"interfaceId","type":"bytes4"}],"name":"supportsInterface","outputs":[{"internalType":"bool","name":"","type":"bool"}],"stateMutability":"view","type":"function"},{"inputs":[{"internalType":"uint256","name":"","type":"uint256"}],"name":"tokenList","outputs":[{"internalType":"address","name":"","type":"address"}],"stateMutability":"view","type":"function"},{"inputs":[],"name":"unpause","outputs":[],"stateMutability":"nonpayable","type":"function"},{"inputs":[{"internalType":"address","name":"user","type":"address"},{"internalType":"uint256","name":"riskScore","type":"uint256"},{"internalType":"uint256","name":"maxLeverage","type":"uint256"},{"internalType":"uint256","name":"maxSinglePosition","type":"uint256"},{"internalType":"bool","name":"isApproved","type":"bool"}],"name":"updateRiskProfile","outputs":[],"stateMutability":"nonpayable","type":"function"},{"inputs":[{"internalType":"uint256","name":"strategyId","type":"uint256"},{"internalType":"bool","name":"isActive","type":"bool"},{"internalType":"uint256","name":"newAPY","type":"uint256"}],"name":"updateStrategy","outputs":[],"stateMutability":"nonpayable","type":"function"},{"inputs":[{"internalType":"address","name":"","type":"address"},{"internalType":"uint256","name":"","type":"uint256"}],"name":"userStrategies","outputs":[{"internalType":"uint256","name":"","type":"uint256"}],"stateMutability":"view","type":"function"},{"inputs":[{"internalType":"address","name":"","type":"address"}],"name":"userYield","outputs":[{"internalType":"uint256","name":"","type":"uint256"}],"stateMutability":"view","type":"function"},{"inputs":[{"internalType":"uint256","name":"","type":"uint256"}],"name":"yieldStrategies","outputs":[{"internalType":"address","name":"strategyContract","type":"address"},{"internalType":"string","name":"name","type":"string"},{"internalType":"bool","name":"isActive","type":"bool"},{"internalType":"uint256","name":"minDeposit","type":"uint256"},{"internalType":"uint256","name":"maxDeposit","type":"uint256"},{"internalType":"uint256","name":"currentAPY","type":"uint256"},{"internalType":"uint256","name":"totalDeposited","type":"uint256"}],"stateMutability":"view","type":"function"}],"evm":{"bytecode":{"linkReferences":{},"object":"60c060405260c8600d556103e8600e553480156200001c57600080fd5b5060405162002993380380620029938339810160408190526200003f91620003f3565b600180556001600160a01b038316620000b85760405162461bcd60e51b815260206004820152603060248201527f44654641494d616e616765723a206e6578757320746f6b656e2063616e6e6f7460448201526f206265207a65726f206164647265737360801b60648201526084015b60405180910390fd5b6001600160a01b038216620001275760405162461bcd60e51b815260206004820152602e60248201527f44654641494d616e616765723a20706f7420746f6b656e2063616e6e6f74206260448201526d65207a65726f206164647265737360901b6064820152608401620000af565b6001600160a01b0381166200019a5760405162461bcd60e51b815260206004820152603260248201527f44654641494d616e616765723a2066656520726563697069656e742063616e6e6044820152716f74206265207a65726f206164647265737360701b6064820152608401620000af565b6001600160a01b0383811660805282811660a052600f80546001600160a01b031916918316919091179055620001d260003362000327565b50620001ff7fa49807205ce4d355092ef5a8a18f56e8913cf4a201fbe287825b095693c217753362000327565b506200022c7f97667070c54ef182b0f5858b034beac1b6f3089aa2d3188bb1e8929f4fa9b9293362000327565b50620002597f928286c473ded01ff8bf61a1986f14a0579066072fa8261442d9fea514d93a4c3362000327565b50620002867fbf233dd2aafeb4d50879c4aa5c81e96d92f6e6945c906a58f9f2d1c1631b4b263362000327565b5050600160098190556001600160a01b03928316600081815260066020526040808220805460ff1990811686179091559490951680825294812080549094168317909355600780548084018255938190527fa66cc928b5edb82af9bd49922954155ab7b0942694bea4ce44661d9a8736c68893840180546001600160a01b03199081169093179055805492830190559101805490911690911790556200043d565b6000828152602081815260408083206001600160a01b038516845290915281205460ff16620003cc576000838152602081815260408083206001600160a01b03861684529091529020805460ff19166001179055620003833390565b6001600160a01b0316826001600160a01b0316847f2f8788117e7eff1d82e926ec794901d17c78024a50270940304540a733656f0d60405160405180910390a4506001620003d0565b5060005b92915050565b80516001600160a01b0381168114620003ee57600080fd5b919050565b6000806000606084860312156200040957600080fd5b6200041484620003d6565b92506200042460208501620003d6565b91506200043460408501620003d6565b90509250925092565b60805160a0516125146200047f600039600061060001526000818161042901528181610eda015281816112040152818161141801526114fa01526125146000f3fe608060405234801561001057600080fd5b506004361061023d5760003560e01c80637baab3da1161013b578063a3714c2d116100b8578063d3c7c2c71161007c578063d3c7c2c714610622578063d547741f14610637578063ec6fec1f1461064a578063f4457fab1461065d578063f5b541a61461066657600080fd5b8063a3714c2d146105b9578063b256b833146105c2578063baef4169146105d5578063c9a61362146105e8578063ce33de7f146105fb57600080fd5b806399fe7396116100ff57806399fe7396146105705780639c81744a146105785780639ead72221461058b578063a217fddf1461059e578063a234143a146105a657600080fd5b80637baab3da1461046b5780637e562904146104db5780638456cb59146104fb57806391d14854146105035780639948b18d1461051657600080fd5b806336568abe116101c95780635c975abb1161018d5780635c975abb146103e157806368c4ac26146103ec57806375b238fc1461040f57806378f337e71461042457806379f02fd41461044b57600080fd5b806336568abe146103615780633e9f9e49146103745780633f4ba83a14610387578063469048401461038f578063580b7c2e146103ba57600080fd5b80631a3075cc116102105780631a3075cc146102de57806320df4359146102f157806322d9bc6f14610318578063248a9ca31461032b5780632f2ff15d1461034e57600080fd5b806301ffc9a714610242578063062711721461026a5780630ccb091d146102a357806312cd2297146102c9575b600080fd5b610255610250366004611cba565b61067b565b60405190151581526020015b60405180910390f35b610295610278366004611d07565b600460209081526000928352604080842090915290825290205481565b604051908152602001610261565b6102b66102b1366004611d3a565b6106b2565b6040516102619796959493929190611d99565b6102dc6102d7366004611df7565b610784565b005b6102dc6102ec366004611e47565b6108f1565b6102957fbf233dd2aafeb4d50879c4aa5c81e96d92f6e6945c906a58f9f2d1c1631b4b2681565b6102dc610326366004611e62565b6109e0565b610295610339366004611d3a565b60009081526020819052604090206001015490565b6102dc61035c366004611e8c565b610c64565b6102dc61036f366004611e8c565b610c8f565b610295610382366004611e62565b610cc7565b6102dc610cf8565b600f546103a2906001600160a01b031681565b6040516001600160a01b039091168152602001610261565b6102957f928286c473ded01ff8bf61a1986f14a0579066072fa8261442d9fea514d93a4c81565b60025460ff16610255565b6102556103fa366004611e47565b60066020526000908152604090205460ff1681565b6102956000805160206124bf83398151915281565b6103a27f000000000000000000000000000000000000000000000000000000000000000081565b61045e610459366004611e47565b610d36565b6040516102619190611eaf565b6104af610479366004611e47565b600360208190526000918252604090912080546001820154600283015492909301546001600160a01b0390911692919060ff1684565b604080516001600160a01b03909516855260208501939093529183015215156060820152608001610261565b6102956104e9366004611e47565b600a6020526000908152604090205481565b6102dc610da2565b610255610511366004611e8c565b610dde565b61054e610524366004611e47565b600c6020526000908152604090208054600182015460028301546003909301549192909160ff1684565b6040805194855260208501939093529183015215156060820152608001610261565b610295610e07565b6102dc610586366004611ef3565b610e1d565b6103a2610599366004611d3a565b610f51565b610295600081565b6102dc6105b4366004611ef3565b610f7b565b610295600d5481565b6103a26105d0366004611e62565b6112f6565b6102dc6105e3366004611fc9565b61132e565b6102dc6105f6366004612020565b61155c565b6103a27f000000000000000000000000000000000000000000000000000000000000000081565b61062a6117de565b6040516102619190612089565b6102dc610645366004611e8c565b611840565b6102dc6106583660046120ca565b611865565b610295600e5481565b61029560008051602061249f83398151915281565b60006001600160e01b03198216637965db0b60e01b14806106ac57506301ffc9a760e01b6001600160e01b03198316145b92915050565b600860205260009081526040902080546001820180546001600160a01b0390921692916106de906120ff565b80601f016020809104026020016040519081016040528092919081815260200182805461070a906120ff565b80156107575780601f1061072c57610100808354040283529160200191610757565b820191906000526020600020905b81548152906001019060200180831161073a57829003601f168201915b5050506002840154600385015460048601546005870154600690970154959660ff90931695919450925087565b61079c6000805160206124bf83398151915233610dde565b6107c15760405162461bcd60e51b81526004016107b890612139565b60405180910390fd5b6001600160a01b0385166107e75760405162461bcd60e51b81526004016107b89061217b565b6103e884111561084d5760405162461bcd60e51b815260206004820152602b60248201527f44654641494d616e616765723a207269736b2073636f72652063616e6e6f742060448201526a065786365656420313030360ac1b60648201526084016107b8565b604080516080810182528581526020808201868152828401868152851515606085018181526001600160a01b038c166000818152600c875288902096518755935160018701559151600286015590516003909401805460ff19169415159490941790935583518881529182019290925290917fa08b95696ac629da068aedfe6f4ddd1a308d2aee8fc27d7f8ed847650632fbd2910160405180910390a25050505050565b61090960008051602061249f83398151915233610dde565b6109255760405162461bcd60e51b81526004016107b8906121c4565b6001600160a01b03811661094b5760405162461bcd60e51b81526004016107b89061217b565b6001600160a01b0381166000908152600360208190526040909120015460ff166109875760405162461bcd60e51b81526004016107b890612209565b6001600160a01b0381166000818152600360209081526040918290204260028201556001015491519182527f7b7db695efac79a7835fef04a4a5ee6daa683e9cc5d1bfe4293619969d04066f910160405180910390a250565b6109f860008051602061249f83398151915233610dde565b610a145760405162461bcd60e51b81526004016107b8906121c4565b6001600160a01b038216610a3a5760405162461bcd60e51b81526004016107b89061217b565b6001600160a01b0382166000908152600360208190526040909120015460ff1615610ab65760405162461bcd60e51b815260206004820152602660248201527f44654641494d616e616765723a20706f7274666f6c696f20616c72656164792060448201526565786973747360d01b60648201526084016107b8565b60008111610b215760405162461bcd60e51b815260206004820152603260248201527f44654641494d616e616765723a20696e697469616c2076616c7565206d75737460448201527102062652067726561746572207468616e20360741b60648201526084016107b8565b604080516080810182526001600160a01b038481168083526020808401868152428587019081526001606087018181526000958652600394859052978520965187546001600160a01b03191696169590951786559051938501939093559151600284015592519101805460ff19169115159190911790555b600754811015610c1c576001600160a01b03831660009081526005602052604090206007805483908110610bcf57610bcf61224b565b60009182526020808320909101548354600181018555938352912090910180546001600160a01b0319166001600160a01b0390921691909117905580610c1481612277565b915050610b99565b50816001600160a01b03167f67fb572dde9f80bfb3f0454266d9258cf72d569e4ef809f9301b9ee757dd78d082604051610c5891815260200190565b60405180910390a25050565b600082815260208190526040902060010154610c7f8161196a565b610c898383611977565b50505050565b6001600160a01b0381163314610cb85760405163334bd91960e11b815260040160405180910390fd5b610cc28282611a09565b505050565b600b6020528160005260406000208181548110610ce357600080fd5b90600052602060002001600091509150505481565b610d106000805160206124bf83398151915233610dde565b610d2c5760405162461bcd60e51b81526004016107b890612139565b610d34611a74565b565b6001600160a01b0381166000908152600b6020908152604091829020805483518184028101840190945280845260609392830182828015610d9657602002820191906000526020600020905b815481526020019060010190808311610d82575b50505050509050919050565b610dba6000805160206124bf83398151915233610dde565b610dd65760405162461bcd60e51b81526004016107b890612139565b610d34611ac6565b6000918252602082815260408084206001600160a01b0393909316845291905290205460ff1690565b60006001600954610e189190612290565b905090565b610e3560008051602061249f83398151915233610dde565b610e515760405162461bcd60e51b81526004016107b8906121c4565b6001600160a01b038316610e775760405162461bcd60e51b81526004016107b89061217b565b6000612710600d5484610e8a91906122a3565b610e9491906122ba565b90506000612710600e5484610ea991906122a3565b610eb391906122ba565b90506000610ec182846122dc565b90508015610f4957600f54610f03906001600160a01b037f00000000000000000000000000000000000000000000000000000000000000008116911683611b03565b60408051848152602081018490526001600160a01b038816917f2e4fb6077d4acf86e12bb7411fb82b2b3eaa6a49787f4b1e17b423e7ea84116991015b60405180910390a25b505050505050565b60078181548110610f6157600080fd5b6000918252602090912001546001600160a01b0316905081565b610f9360008051602061249f83398151915233610dde565b610faf5760405162461bcd60e51b81526004016107b8906121c4565b610fb7611b62565b6001600160a01b038316610fdd5760405162461bcd60e51b81526004016107b89061217b565b60008211610ffd5760405162461bcd60e51b81526004016107b8906122ef565b6001600160a01b0383166000908152600360208190526040909120015460ff166110395760405162461bcd60e51b81526004016107b890612209565b60008181526008602052604090206002015460ff166110a45760405162461bcd60e51b815260206004820152602160248201527f44654641494d616e616765723a207374726174656779206e6f742061637469766044820152606560f81b60648201526084016107b8565b6000818152600860205260409020600301548210156111105760405162461bcd60e51b815260206004820152602260248201527f44654641494d616e616765723a20616d6f756e742062656c6f77206d696e696d604482015261756d60f01b60648201526084016107b8565b60008181526008602052604090206004015482111561117c5760405162461bcd60e51b815260206004820152602260248201527f44654641494d616e616765723a20616d6f756e742061626f7665206d6178696d604482015261756d60f01b60648201526084016107b8565b6001600160a01b0383166000908152600c602052604090206003015460ff166111f75760405162461bcd60e51b815260206004820152602760248201527f44654641494d616e616765723a207269736b2070726f66696c65206e6f7420616044820152661c1c1c9bdd995960ca1b60648201526084016107b8565b61122c6001600160a01b037f000000000000000000000000000000000000000000000000000000000000000016843085611b8c565b6001600160a01b0383166000908152600a6020526040812080548492906112549084906122dc565b90915550506001600160a01b0383166000908152600b602090815260408083208054600181018255908452828420018490558383526008909152812060060180548492906112a39084906122dc565b909155505060408051838152602081018390526001600160a01b038516917f38a5e6ac377a059dca5f96c7ee7447cba9e3725c07c9998a1f05696506e3e97291015b60405180910390a2610cc260018055565b6005602052816000526040600020818154811061131257600080fd5b6000918252602090912001546001600160a01b03169150829050565b6113587fbf233dd2aafeb4d50879c4aa5c81e96d92f6e6945c906a58f9f2d1c1631b4b2633610dde565b6113b35760405162461bcd60e51b815260206004820152602660248201527f44654641494d616e616765723a206d757374206861766520656d657267656e636044820152657920726f6c6560d01b60648201526084016107b8565b6113bb611b62565b6001600160a01b0383166113e15760405162461bcd60e51b81526004016107b89061217b565b600082116114015760405162461bcd60e51b81526004016107b8906122ef565b6040516370a0823160e01b815230600482015282907f00000000000000000000000000000000000000000000000000000000000000006001600160a01b0316906370a0823190602401602060405180830381865afa158015611467573d6000803e3d6000fd5b505050506040513d601f19601f8201168201806040525081019061148b919061233a565b10156114ed5760405162461bcd60e51b815260206004820152602b60248201527f44654641494d616e616765723a20696e73756666696369656e7420636f6e747260448201526a6163742062616c616e636560a81b60648201526084016107b8565b6115216001600160a01b037f0000000000000000000000000000000000000000000000000000000000000000168484611b03565b826001600160a01b03167f0b6611f2b90ce7e47b1f8bfc81e38fb1a210f6766c91b8c8d5ee36305d75206083836040516112e5929190612353565b6115746000805160206124bf83398151915233610dde565b6115905760405162461bcd60e51b81526004016107b890612139565b6001600160a01b0385166116055760405162461bcd60e51b815260206004820152603660248201527f44654641494d616e616765723a20737472617465677920636f6e74726163742060448201527563616e6e6f74206265207a65726f206164647265737360501b60648201526084016107b8565b6000831161166e5760405162461bcd60e51b815260206004820152603060248201527f44654641494d616e616765723a206d696e206465706f736974206d757374206260448201526f0652067726561746572207468616e20360841b60648201526084016107b8565b828210156116d75760405162461bcd60e51b815260206004820152603060248201527f44654641494d616e616765723a206d6178206465706f736974206d757374206260448201526f19480f8f481b5a5b8819195c1bdcda5d60821b60648201526084016107b8565b6009805490819060006116e983612277565b90915550506040805160e0810182526001600160a01b03888116825260208083018981526001848601819052606085018a90526080850189905260a08501889052600060c08601819052878152600890935294909120835181546001600160a01b031916931692909217825551919290919082019061176890826123ba565b5060408281015160028301805460ff1916911515919091179055606083015160038301556080830151600483015560a0830151600583015560c0909201516006909101555181907f28472260c90c2f93f2c58a4c03f182f08a283b3acb81d6edfea601790b06c55e90610f40908990899061247a565b6060600780548060200260200160405190810160405280929190818152602001828054801561183657602002820191906000526020600020905b81546001600160a01b03168152600190910190602001808311611818575b5050505050905090565b60008281526020819052604090206001015461185b8161196a565b610c898383611a09565b61187d6000805160206124bf83398151915233610dde565b6118995760405162461bcd60e51b81526004016107b890612139565b6000831180156118aa575060095483105b6119005760405162461bcd60e51b815260206004820152602160248201527f44654641494d616e616765723a20696e76616c696420737472617465677920496044820152601160fa1b60648201526084016107b8565b60008381526008602090815260409182902060028101805460ff19168615159081179091556005909101849055825190815290810183905284917f0204293490d5096ef7de2395a6d2359f0a9475b97b636f6b699725fc4a0e78fb910160405180910390a2505050565b6119748133611bc5565b50565b60006119838383610dde565b611a01576000838152602081815260408083206001600160a01b03861684529091529020805460ff191660011790556119b93390565b6001600160a01b0316826001600160a01b0316847f2f8788117e7eff1d82e926ec794901d17c78024a50270940304540a733656f0d60405160405180910390a45060016106ac565b5060006106ac565b6000611a158383610dde565b15611a01576000838152602081815260408083206001600160a01b0386168085529252808320805460ff1916905551339286917ff6391f5c32d9c69d2a47ea670b442974b53935d1edc7fd64eb21e047a839171b9190a45060016106ac565b611a7c611c02565b6002805460ff191690557f5db9ee0a495bf2e6ff9c91a7834c1ba4fdd244a5e8aa4e537bd38aeae4b073aa335b6040516001600160a01b03909116815260200160405180910390a1565b611ace611c25565b6002805460ff191660011790557f62e78cea01bee320cd4e420270b5ea74000d11b0c9f74754ebdbfc544b05a258611aa93390565b6040516001600160a01b03838116602483015260448201839052610cc291859182169063a9059cbb906064015b604051602081830303815290604052915060e01b6020820180516001600160e01b038381831617835250505050611c49565b600260015403611b8557604051633ee5aeb560e01b815260040160405180910390fd5b6002600155565b6040516001600160a01b038481166024830152838116604483015260648201839052610c899186918216906323b872dd90608401611b30565b611bcf8282610dde565b611bfe5760405163e2517d3f60e01b81526001600160a01b0382166004820152602481018390526044016107b8565b5050565b60025460ff16610d3457604051638dfc202b60e01b815260040160405180910390fd5b60025460ff1615610d345760405163d93c066560e01b815260040160405180910390fd5b600080602060008451602086016000885af180611c6c576040513d6000823e3d81fd5b50506000513d91508115611c84578060011415611c91565b6001600160a01b0384163b155b15610c8957604051635274afe760e01b81526001600160a01b03851660048201526024016107b8565b600060208284031215611ccc57600080fd5b81356001600160e01b031981168114611ce457600080fd5b9392505050565b80356001600160a01b0381168114611d0257600080fd5b919050565b60008060408385031215611d1a57600080fd5b611d2383611ceb565b9150611d3160208401611ceb565b90509250929050565b600060208284031215611d4c57600080fd5b5035919050565b6000815180845260005b81811015611d7957602081850181015186830182015201611d5d565b506000602082860101526020601f19601f83011685010191505092915050565b6001600160a01b038816815260e060208201819052600090611dbd90830189611d53565b9615156040830152506060810194909452608084019290925260a083015260c09091015292915050565b80358015158114611d0257600080fd5b600080600080600060a08688031215611e0f57600080fd5b611e1886611ceb565b9450602086013593506040860135925060608601359150611e3b60808701611de7565b90509295509295909350565b600060208284031215611e5957600080fd5b611ce482611ceb565b60008060408385031215611e7557600080fd5b611e7e83611ceb565b946020939093013593505050565b60008060408385031215611e9f57600080fd5b82359150611d3160208401611ceb565b6020808252825182820181905260009190848201906040850190845b81811015611ee757835183529284019291840191600101611ecb565b50909695505050505050565b600080600060608486031215611f0857600080fd5b611f1184611ceb565b95602085013595506040909401359392505050565b634e487b7160e01b600052604160045260246000fd5b600082601f830112611f4d57600080fd5b813567ffffffffffffffff80821115611f6857611f68611f26565b604051601f8301601f19908116603f01168101908282118183101715611f9057611f90611f26565b81604052838152866020858801011115611fa957600080fd5b836020870160208301376000602085830101528094505050505092915050565b600080600060608486031215611fde57600080fd5b611fe784611ceb565b925060208401359150604084013567ffffffffffffffff81111561200a57600080fd5b61201686828701611f3c565b9150509250925092565b600080600080600060a0868803121561203857600080fd5b61204186611ceb565b9450602086013567ffffffffffffffff81111561205d57600080fd5b61206988828901611f3c565b959895975050505060408401359360608101359360809091013592509050565b6020808252825182820181905260009190848201906040850190845b81811015611ee75783516001600160a01b0316835292840192918401916001016120a5565b6000806000606084860312156120df57600080fd5b833592506120ef60208501611de7565b9150604084013590509250925092565b600181811c9082168061211357607f821691505b60208210810361213357634e487b7160e01b600052602260045260246000fd5b50919050565b60208082526022908201527f44654641494d616e616765723a206d75737420686176652061646d696e20726f6040820152616c6560f01b606082015260800190565b60208082526029908201527f44654641494d616e616765723a20757365722063616e6e6f74206265207a65726040820152686f206164647265737360b81b606082015260800190565b60208082526025908201527f44654641494d616e616765723a206d7573742068617665206f70657261746f7260408201526420726f6c6560d81b606082015260800190565b60208082526022908201527f44654641494d616e616765723a20706f7274666f6c696f206e6f742061637469604082015261766560f01b606082015260800190565b634e487b7160e01b600052603260045260246000fd5b634e487b7160e01b600052601160045260246000fd5b60006001820161228957612289612261565b5060010190565b818103818111156106ac576106ac612261565b80820281158282048414176106ac576106ac612261565b6000826122d757634e487b7160e01b600052601260045260246000fd5b500490565b808201808211156106ac576106ac612261565b6020808252602b908201527f44654641494d616e616765723a20616d6f756e74206d7573742062652067726560408201526a061746572207468616e20360ac1b606082015260800190565b60006020828403121561234c57600080fd5b5051919050565b82815260406020820152600061236c6040830184611d53565b949350505050565b601f821115610cc257600081815260208120601f850160051c8101602086101561239b5750805b601f850160051c820191505b81811015610f49578281556001016123a7565b815167ffffffffffffffff8111156123d4576123d4611f26565b6123e8816123e284546120ff565b84612374565b602080601f83116001811461241d57600084156124055750858301515b600019600386901b1c1916600185901b178555610f49565b600085815260208120601f198616915b8281101561244c5788860151825594840194600190910190840161242d565b508582101561246a5787850151600019600388901b60f8161c191681555b5050505050600190811b01905550565b6001600160a01b038316815260406020820181905260009061236c90830184611d5356fe97667070c54ef182b0f5858b034beac1b6f3089aa2d3188bb1e8929f4fa9b929a49807205ce4d355092ef5a8a18f56e8913cf4a201fbe287825b095693c21775a2646970667358221220e7bf482d76c99394c3ddd80272fec3e7baa6cc2f401381b47709c502242384c464736f6c63430008140033","opcodes":"PUSH1 0xC0 PUSH1 0x40 MSTORE PUSH1 0xC8 PUSH1 0xD SSTORE PUSH2 0x3E8 PUSH1 0xE SSTORE CALLVALUE DUP1 ISZERO PUSH3 0x1C JUMPI PUSH1 0x0 DUP1 REVERT JUMPDEST POP PUSH1 0x40 MLOAD PUSH3 0x2993 CODESIZE SUB DUP1 PUSH3 0x2993 DUP4 CODECOPY DUP2 ADD PUSH1 0x40 DUP2 SWAP1 MSTORE PUSH3 0x3F SWAP2 PUSH3 0x3F3 JUMP JUMPDEST PUSH1 0x1 DUP1 SSTORE PUSH1 0x1 PUSH1 0x1 PUSH1 0xA0 SHL SUB DUP4 AND PUSH3 0xB8 JUMPI PUSH1 0x40 MLOAD PUSH3 0x461BCD PUSH1 0xE5 SHL DUP2 MSTORE PUSH1 0x20 PUSH1 0x4 DUP3 ADD MSTORE PUSH1 0x30 PUSH1 0x24 DUP3 ADD MSTORE PUSH32 0x44654641494D616E616765723A206E6578757320746F6B656E2063616E6E6F74 PUSH1 0x44 DUP3 ADD MSTORE PUSH16 0x206265207A65726F2061646472657373 PUSH1 0x80 SHL PUSH1 0x64 DUP3 ADD MSTORE PUSH1 0x84 ADD JUMPDEST PUSH1 0x40 MLOAD DUP1 SWAP2 SUB SWAP1 REVERT JUMPDEST PUSH1 0x1 PUSH1 0x1 PUSH1 0xA0 SHL SUB DUP3 AND PUSH3 0x127 JUMPI PUSH1 0x40 MLOAD PUSH3 0x461BCD PUSH1 0xE5 SHL DUP2 MSTORE PUSH1 0x20 PUSH1 0x4 DUP3 ADD MSTORE PUSH1 0x2E PUSH1 0x24 DUP3 ADD MSTORE PUSH32 0x44654641494D616E616765723A20706F7420746F6B656E2063616E6E6F742062 PUSH1 0x44 DUP3 ADD MSTORE PUSH14 0x65207A65726F2061646472657373 PUSH1 0x90 SHL PUSH1 0x64 DUP3 ADD MSTORE PUSH1 0x84 ADD PUSH3 0xAF JUMP JUMPDEST PUSH1 0x1 PUSH1 0x1 PUSH1 0xA0 SHL SUB DUP2 AND PUSH3 0x19A JUMPI PUSH1 0x40 MLOAD PUSH3 0x461BCD PUSH1 0xE5 SHL DUP2 MSTORE PUSH1 0x20 PUSH1 0x4 DUP3 ADD MSTORE PUSH1 0x32 PUSH1 0x24 DUP3 ADD MSTORE PUSH32 0x44654641494D616E616765723A2066656520726563697069656E742063616E6E PUSH1 0x44 DUP3 ADD MSTORE PUSH18 0x6F74206265207A65726F2061646472657373 PUSH1 0x70 SHL PUSH1 0x64 DUP3 ADD MSTORE PUSH1 0x84 ADD PUSH3 0xAF JUMP JUMPDEST PUSH1 0x1 PUSH1 0x1 PUSH1 0xA0 SHL SUB DUP4 DUP2 AND PUSH1 0x80 MSTORE DUP3 DUP2 AND PUSH1 0xA0 MSTORE PUSH1 0xF DUP1 SLOAD PUSH1 0x1 PUSH1 0x1 PUSH1 0xA0 SHL SUB NOT AND SWAP2 DUP4 AND SWAP2 SWAP1 SWAP2 OR SWAP1 SSTORE PUSH3 0x1D2 PUSH1 0x0 CALLER PUSH3 0x327 JUMP JUMPDEST POP PUSH3 0x1FF PUSH32 0xA49807205CE4D355092EF5A8A18F56E8913CF4A201FBE287825B095693C21775 CALLER PUSH3 0x327 JUMP JUMPDEST POP PUSH3 0x22C PUSH32 0x97667070C54EF182B0F5858B034BEAC1B6F3089AA2D3188BB1E8929F4FA9B929 CALLER PUSH3 0x327 JUMP JUMPDEST POP PUSH3 0x259 PUSH32 0x928286C473DED01FF8BF61A1986F14A0579066072FA8261442D9FEA514D93A4C CALLER PUSH3 0x327 JUMP JUMPDEST POP PUSH3 0x286 PUSH32 0xBF233DD2AAFEB4D50879C4AA5C81E96D92F6E6945C906A58F9F2D1C1631B4B26 CALLER PUSH3 0x327 JUMP JUMPDEST POP POP PUSH1 0x1 PUSH1 0x9 DUP2 SWAP1 SSTORE PUSH1 0x1 PUSH1 0x1 PUSH1 0xA0 SHL SUB SWAP3 DUP4 AND PUSH1 0x0 DUP2 DUP2 MSTORE PUSH1 0x6 PUSH1 0x20 MSTORE PUSH1 0x40 DUP1 DUP3 KECCAK256 DUP1 SLOAD PUSH1 0xFF NOT SWAP1 DUP2 AND DUP7 OR SWAP1 SWAP2 SSTORE SWAP5 SWAP1 SWAP6 AND DUP1 DUP3 MSTORE SWAP5 DUP2 KECCAK256 DUP1 SLOAD SWAP1 SWAP5 AND DUP4 OR SWAP1 SWAP4 SSTORE PUSH1 0x7 DUP1 SLOAD DUP1 DUP5 ADD DUP3 SSTORE SWAP4 DUP2 SWAP1 MSTORE PUSH32 0xA66CC928B5EDB82AF9BD49922954155AB7B0942694BEA4CE44661D9A8736C688 SWAP4 DUP5 ADD DUP1 SLOAD PUSH1 0x1 PUSH1 0x1 PUSH1 0xA0 SHL SUB NOT SWAP1 DUP2 AND SWAP1 SWAP4 OR SWAP1 SSTORE DUP1 SLOAD SWAP3 DUP4 ADD SWAP1 SSTORE SWAP2 ADD DUP1 SLOAD SWAP1 SWAP2 AND SWAP1 SWAP2 OR SWAP1 SSTORE PUSH3 0x43D JUMP JUMPDEST PUSH1 0x0 DUP3 DUP2 MSTORE PUSH1 0x20 DUP2 DUP2 MSTORE PUSH1 0x40 DUP1 DUP4 KECCAK256 PUSH1 0x1 PUSH1 0x1 PUSH1 0xA0 SHL SUB DUP6 AND DUP5 MSTORE SWAP1 SWAP2 MSTORE DUP2 KECCAK256 SLOAD PUSH1 0xFF AND PUSH3 0x3CC JUMPI PUSH1 0x0 DUP4 DUP2 MSTORE PUSH1 0x20 DUP2 DUP2 MSTORE PUSH1 0x40 DUP1 DUP4 KECCAK256 PUSH1 0x1 PUSH1 0x1 PUSH1 0xA0 SHL SUB DUP7 AND DUP5 MSTORE SWAP1 SWAP2 MSTORE SWAP1 KECCAK256 DUP1 SLOAD PUSH1 0xFF NOT AND PUSH1 0x1 OR SWAP1 SSTORE PUSH3 0x383 CALLER SWAP1 JUMP JUMPDEST PUSH1 0x1 PUSH1 0x1 PUSH1 0xA0 SHL SUB AND DUP3 PUSH1 0x1 PUSH1 0x1 PUSH1 0xA0 SHL SUB AND DUP5 PUSH32 0x2F8788117E7EFF1D82E926EC794901D17C78024A50270940304540A733656F0D PUSH1 0x40 MLOAD PUSH1 0x40 MLOAD DUP1 SWAP2 SUB SWAP1 LOG4 POP PUSH1 0x1 PUSH3 0x3D0 JUMP JUMPDEST POP PUSH1 0x0 JUMPDEST SWAP3 SWAP2 POP POP JUMP JUMPDEST DUP1 MLOAD PUSH1 0x1 PUSH1 0x1 PUSH1 0xA0 SHL SUB DUP2 AND DUP2 EQ PUSH3 0x3EE JUMPI PUSH1 0x0 DUP1 REVERT JUMPDEST SWAP2 SWAP1 POP JUMP JUMPDEST PUSH1 0x0 DUP1 PUSH1 0x0 PUSH1 0x60 DUP5 DUP7 SUB SLT ISZERO PUSH3 0x409 JUMPI PUSH1 0x0 DUP1 REVERT JUMPDEST PUSH3 0x414 DUP5 PUSH3 0x3D6 JUMP JUMPDEST SWAP3 POP PUSH3 0x424 PUSH1 0x20 DUP6 ADD PUSH3 0x3D6 JUMP JUMPDEST SWAP2 POP PUSH3 0x434 PUSH1 0x40 DUP6 ADD PUSH3 0x3D6 JUMP JUMPDEST SWAP1 POP SWAP3 POP SWAP3 POP SWAP3 JUMP JUMPDEST PUSH1 0x80 MLOAD PUSH1 0xA0 MLOAD PUSH2 0x2514 PUSH3 0x47F PUSH1 0x0 CODECOPY PUSH1 0x0 PUSH2 0x600 ADD MSTORE PUSH1 0x0 DUP2 DUP2 PUSH2 0x429 ADD MSTORE DUP2 DUP2 PUSH2 0xEDA ADD MSTORE DUP2 DUP2 PUSH2 0x1204 ADD MSTORE DUP2 DUP2 PUSH2 0x1418 ADD MSTORE PUSH2 0x14FA ADD MSTORE PUSH2 0x2514 PUSH1 0x0 RETURN INVALID PUSH1 0x80 PUSH1 0x40 MSTORE CALLVALUE DUP1 ISZERO PUSH2 0x10 JUMPI PUSH1 0x0 DUP1 REVERT JUMPDEST POP PUSH1 0x4 CALLDATASIZE LT PUSH2 0x23D JUMPI PUSH1 0x0 CALLDATALOAD PUSH1 0xE0 SHR DUP1 PUSH4 0x7BAAB3DA GT PUSH2 0x13B JUMPI DUP1 PUSH4 0xA3714C2D GT PUSH2 0xB8 JUMPI DUP1 PUSH4 0xD3C7C2C7 GT PUSH2 0x7C JUMPI DUP1 PUSH4 0xD3C7C2C7 EQ PUSH2 0x622 JUMPI DUP1 PUSH4 0xD547741F EQ PUSH2 0x637 JUMPI DUP1 PUSH4 0xEC6FEC1F EQ PUSH2 0x64A JUMPI DUP1 PUSH4 0xF4457FAB EQ PUSH2 0x65D JUMPI DUP1 PUSH4 0xF5B541A6 EQ PUSH2 0x666 JUMPI PUSH1 0x0 DUP1 REVERT JUMPDEST DUP1 PUSH4 0xA3714C2D EQ PUSH2 0x5B9 JUMPI DUP1 PUSH4 0xB256B833 EQ PUSH2 0x5C2 JUMPI DUP1 PUSH4 0xBAEF4169 EQ PUSH2 0x5D5 JUMPI DUP1 PUSH4 0xC9A61362 EQ PUSH2 0x5E8 JUMPI DUP1 PUSH4 0xCE33DE7F EQ PUSH2 0x5FB JUMPI PUSH1 0x0 DUP1 REVERT JUMPDEST DUP1 PUSH4 0x99FE7396 GT PUSH2 0xFF JUMPI DUP1 PUSH4 0x99FE7396 EQ PUSH2 0x570 JUMPI DUP1 PUSH4 0x9C81744A EQ PUSH2 0x578 JUMPI DUP1 PUSH4 0x9EAD7222 EQ PUSH2 0x58B JUMPI DUP1 PUSH4 0xA217FDDF EQ PUSH2 0x59E JUMPI DUP1 PUSH4 0xA234143A EQ PUSH2 0x5A6 JUMPI PUSH1 0x0 DUP1 REVERT JUMPDEST DUP1 PUSH4 0x7BAAB3DA EQ PUSH2 0x46B JUMPI DUP1 PUSH4 0x7E562904 EQ PUSH2 0x4DB JUMPI DUP1 PUSH4 0x8456CB59 EQ PUSH2 0x4FB JUMPI DUP1 PUSH4 0x91D14854 EQ PUSH2 0x503 JUMPI DUP1 PUSH4 0x9948B18D EQ PUSH2 0x516 JUMPI PUSH1 0x0 DUP1 REVERT JUMPDEST DUP1 PUSH4 0x36568ABE GT PUSH2 0x1C9 JUMPI DUP1 PUSH4 0x5C975ABB GT PUSH2 0x18D JUMPI DUP1 PUSH4 0x5C975ABB EQ PUSH2 0x3E1 JUMPI DUP1 PUSH4 0x68C4AC26 EQ PUSH2 0x3EC JUMPI DUP1 PUSH4 0x75B238FC EQ PUSH2 0x40F JUMPI DUP1 PUSH4 0x78F337E7 EQ PUSH2 0x424 JUMPI DUP1 PUSH4 0x79F02FD4 EQ PUSH2 0x44B JUMPI PUSH1 0x0 DUP1 REVERT JUMPDEST DUP1 PUSH4 0x36568ABE EQ PUSH2 0x361 JUMPI DUP1 PUSH4 0x3E9F9E49 EQ PUSH2 0x374 JUMPI DUP1 PUSH4 0x3F4BA83A EQ PUSH2 0x387 JUMPI DUP1 PUSH4 0x46904840 EQ PUSH2 0x38F JUMPI DUP1 PUSH4 0x580B7C2E EQ PUSH2 0x3BA JUMPI PUSH1 0x0 DUP1 REVERT JUMPDEST DUP1 PUSH4 0x1A3075CC GT PUSH2 0x210 JUMPI DUP1 PUSH4 0x1A3075CC EQ PUSH2 0x2DE JUMPI DUP1 PUSH4 0x20DF4359 EQ PUSH2 0x2F1 JUMPI DUP1 PUSH4 0x22D9BC6F EQ PUSH2 0x318 JUMPI DUP1 PUSH4 0x248A9CA3 EQ PUSH2 0x32B JUMPI DUP1 PUSH4 0x2F2FF15D EQ PUSH2 0x34E JUMPI PUSH1 0x0 DUP1 REVERT JUMPDEST DUP1 PUSH4 0x1FFC9A7 EQ PUSH2 0x242 JUMPI DUP1 PUSH4 0x6271172 EQ PUSH2 0x26A JUMPI DUP1 PUSH4 0xCCB091D EQ PUSH2 0x2A3 JUMPI DUP1 PUSH4 0x12CD2297 EQ PUSH2 0x2C9 JUMPI JUMPDEST PUSH1 0x0 DUP1 REVERT JUMPDEST PUSH2 0x255 PUSH2 0x250 CALLDATASIZE PUSH1 0x4 PUSH2 0x1CBA JUMP JUMPDEST PUSH2 0x67B JUMP JUMPDEST PUSH1 0x40 MLOAD SWAP1 ISZERO ISZERO DUP2 MSTORE PUSH1 0x20 ADD JUMPDEST PUSH1 0x40 MLOAD DUP1 SWAP2 SUB SWAP1 RETURN JUMPDEST PUSH2 0x295 PUSH2 0x278 CALLDATASIZE PUSH1 0x4 PUSH2 0x1D07 JUMP JUMPDEST PUSH1 0x4 PUSH1 0x20 SWAP1 DUP2 MSTORE PUSH1 0x0 SWAP3 DUP4 MSTORE PUSH1 0x40 DUP1 DUP5 KECCAK256 SWAP1 SWAP2 MSTORE SWAP1 DUP3 MSTORE SWAP1 KECCAK256 SLOAD DUP2 JUMP JUMPDEST PUSH1 0x40 MLOAD SWAP1 DUP2 MSTORE PUSH1 0x20 ADD PUSH2 0x261 JUMP JUMPDEST PUSH2 0x2B6 PUSH2 0x2B1 CALLDATASIZE PUSH1 0x4 PUSH2 0x1D3A JUMP JUMPDEST PUSH2 0x6B2 JUMP JUMPDEST PUSH1 0x40 MLOAD PUSH2 0x261 SWAP8 SWAP7 SWAP6 SWAP5 SWAP4 SWAP3 SWAP2 SWAP1 PUSH2 0x1D99 JUMP JUMPDEST PUSH2 0x2DC PUSH2 0x2D7 CALLDATASIZE PUSH1 0x4 PUSH2 0x1DF7 JUMP JUMPDEST PUSH2 0x784 JUMP JUMPDEST STOP JUMPDEST PUSH2 0x2DC PUSH2 0x2EC CALLDATASIZE PUSH1 0x4 PUSH2 0x1E47 JUMP JUMPDEST PUSH2 0x8F1 JUMP JUMPDEST PUSH2 0x295 PUSH32 0xBF233DD2AAFEB4D50879C4AA5C81E96D92F6E6945C906A58F9F2D1C1631B4B26 DUP2 JUMP JUMPDEST PUSH2 0x2DC PUSH2 0x326 CALLDATASIZE PUSH1 0x4 PUSH2 0x1E62 JUMP JUMPDEST PUSH2 0x9E0 JUMP JUMPDEST PUSH2 0x295 PUSH2 0x339 CALLDATASIZE PUSH1 0x4 PUSH2 0x1D3A JUMP JUMPDEST PUSH1 0x0 SWAP1 DUP2 MSTORE PUSH1 0x20 DUP2 SWAP1 MSTORE PUSH1 0x40 SWAP1 KECCAK256 PUSH1 0x1 ADD SLOAD SWAP1 JUMP JUMPDEST PUSH2 0x2DC PUSH2 0x35C CALLDATASIZE PUSH1 0x4 PUSH2 0x1E8C JUMP JUMPDEST PUSH2 0xC64 JUMP JUMPDEST PUSH2 0x2DC PUSH2 0x36F CALLDATASIZE PUSH1 0x4 PUSH2 0x1E8C JUMP JUMPDEST PUSH2 0xC8F JUMP JUMPDEST PUSH2 0x295 PUSH2 0x382 CALLDATASIZE PUSH1 0x4 PUSH2 0x1E62 JUMP JUMPDEST PUSH2 0xCC7 JUMP JUMPDEST PUSH2 0x2DC PUSH2 0xCF8 JUMP JUMPDEST PUSH1 0xF SLOAD PUSH2 0x3A2 SWAP1 PUSH1 0x1 PUSH1 0x1 PUSH1 0xA0 SHL SUB AND DUP2 JUMP JUMPDEST PUSH1 0x40 MLOAD PUSH1 0x1 PUSH1 0x1 PUSH1 0xA0 SHL SUB SWAP1 SWAP2 AND DUP2 MSTORE PUSH1 0x20 ADD PUSH2 0x261 JUMP JUMPDEST PUSH2 0x295 PUSH32 0x928286C473DED01FF8BF61A1986F14A0579066072FA8261442D9FEA514D93A4C DUP2 JUMP JUMPDEST PUSH1 0x2 SLOAD PUSH1 0xFF AND PUSH2 0x255 JUMP JUMPDEST PUSH2 0x255 PUSH2 0x3FA CALLDATASIZE PUSH1 0x4 PUSH2 0x1E47 JUMP JUMPDEST PUSH1 0x6 PUSH1 0x20 MSTORE PUSH1 0x0 SWAP1 DUP2 MSTORE PUSH1 0x40 SWAP1 KECCAK256 SLOAD PUSH1 0xFF AND DUP2 JUMP JUMPDEST PUSH2 0x295 PUSH1 0x0 DUP1 MLOAD PUSH1 0x20 PUSH2 0x24BF DUP4 CODECOPY DUP2 MLOAD SWAP2 MSTORE DUP2 JUMP JUMPDEST PUSH2 0x3A2 PUSH32 0x0 DUP2 JUMP JUMPDEST PUSH2 0x45E PUSH2 0x459 CALLDATASIZE PUSH1 0x4 PUSH2 0x1E47 JUMP JUMPDEST PUSH2 0xD36 JUMP JUMPDEST PUSH1 0x40 MLOAD PUSH2 0x261 SWAP2 SWAP1 PUSH2 0x1EAF JUMP JUMPDEST PUSH2 0x4AF PUSH2 0x479 CALLDATASIZE PUSH1 0x4 PUSH2 0x1E47 JUMP JUMPDEST PUSH1 0x3 PUSH1 0x20 DUP2 SWAP1 MSTORE PUSH1 0x0 SWAP2 DUP3 MSTORE PUSH1 0x40 SWAP1 SWAP2 KECCAK256 DUP1 SLOAD PUSH1 0x1 DUP3 ADD SLOAD PUSH1 0x2 DUP4 ADD SLOAD SWAP3 SWAP1 SWAP4 ADD SLOAD PUSH1 0x1 PUSH1 0x1 PUSH1 0xA0 SHL SUB SWAP1 SWAP2 AND SWAP3 SWAP2 SWAP1 PUSH1 0xFF AND DUP5 JUMP JUMPDEST PUSH1 0x40 DUP1 MLOAD PUSH1 0x1 PUSH1 0x1 PUSH1 0xA0 SHL SUB SWAP1 SWAP6 AND DUP6 MSTORE PUSH1 0x20 DUP6 ADD SWAP4 SWAP1 SWAP4 MSTORE SWAP2 DUP4 ADD MSTORE ISZERO ISZERO PUSH1 0x60 DUP3 ADD MSTORE PUSH1 0x80 ADD PUSH2 0x261 JUMP JUMPDEST PUSH2 0x295 PUSH2 0x4E9 CALLDATASIZE PUSH1 0x4 PUSH2 0x1E47 JUMP JUMPDEST PUSH1 0xA PUSH1 0x20 MSTORE PUSH1 0x0 SWAP1 DUP2 MSTORE PUSH1 0x40 SWAP1 KECCAK256 SLOAD DUP2 JUMP JUMPDEST PUSH2 0x2DC PUSH2 0xDA2 JUMP JUMPDEST PUSH2 0x255 PUSH2 0x511 CALLDATASIZE PUSH1 0x4 PUSH2 0x1E8C JUMP JUMPDEST PUSH2 0xDDE JUMP JUMPDEST PUSH2 0x54E PUSH2 0x524 CALLDATASIZE PUSH1 0x4 PUSH2 0x1E47 JUMP JUMPDEST PUSH1 0xC PUSH1 0x20 MSTORE PUSH1 0x0 SWAP1 DUP2 MSTORE PUSH1 0x40 SWAP1 KECCAK256 DUP1 SLOAD PUSH1 0x1 DUP3 ADD SLOAD PUSH1 0x2 DUP4 ADD SLOAD PUSH1 0x3 SWAP1 SWAP4 ADD SLOAD SWAP2 SWAP3 SWAP1 SWAP2 PUSH1 0xFF AND DUP5 JUMP JUMPDEST PUSH1 0x40 DUP1 MLOAD SWAP5 DUP6 MSTORE PUSH1 0x20 DUP6 ADD SWAP4 SWAP1 SWAP4 MSTORE SWAP2 DUP4 ADD MSTORE ISZERO ISZERO PUSH1 0x60 DUP3 ADD MSTORE PUSH1 0x80 ADD PUSH2 0x261 JUMP JUMPDEST PUSH2 0x295 PUSH2 0xE07 JUMP JUMPDEST PUSH2 0x2DC PUSH2 0x586 CALLDATASIZE PUSH1 0x4 PUSH2 0x1EF3 JUMP JUMPDEST PUSH2 0xE1D JUMP JUMPDEST PUSH2 0x3A2 PUSH2 0x599 CALLDATASIZE PUSH1 0x4 PUSH2 0x1D3A JUMP JUMPDEST PUSH2 0xF51 JUMP JUMPDEST PUSH2 0x295 PUSH1 0x0 DUP2 JUMP JUMPDEST PUSH2 0x2DC PUSH2 0x5B4 CALLDATASIZE PUSH1 0x4 PUSH2 0x1EF3 JUMP JUMPDEST PUSH2 0xF7B JUMP JUMPDEST PUSH2 0x295 PUSH1 0xD SLOAD DUP2 JUMP JUMPDEST PUSH2 0x3A2 PUSH2 0x5D0 CALLDATASIZE PUSH1 0x4 PUSH2 0x1E62 JUMP JUMPDEST PUSH2 0x12F6 JUMP JUMPDEST PUSH2 0x2DC PUSH2 0x5E3 CALLDATASIZE PUSH1 0x4 PUSH2 0x1FC9 JUMP JUMPDEST PUSH2 0x132E JUMP JUMPDEST PUSH2 0x2DC PUSH2 0x5F6 CALLDATASIZE PUSH1 0x4 PUSH2 0x2020 JUMP JUMPDEST PUSH2 0x155C JUMP JUMPDEST PUSH2 0x3A2 PUSH32 0x0 DUP2 JUMP JUMPDEST PUSH2 0x62A PUSH2 0x17DE JUMP JUMPDEST PUSH1 0x40 MLOAD PUSH2 0x261 SWAP2 SWAP1 PUSH2 0x2089 JUMP JUMPDEST PUSH2 0x2DC PUSH2 0x645 CALLDATASIZE PUSH1 0x4 PUSH2 0x1E8C JUMP JUMPDEST PUSH2 0x1840 JUMP JUMPDEST PUSH2 0x2DC PUSH2 0x658 CALLDATASIZE PUSH1 0x4 PUSH2 0x20CA JUMP JUMPDEST PUSH2 0x1865 JUMP JUMPDEST PUSH2 0x295 PUSH1 0xE SLOAD DUP2 JUMP JUMPDEST PUSH2 0x295 PUSH1 0x0 DUP1 MLOAD PUSH1 0x20 PUSH2 0x249F DUP4 CODECOPY DUP2 MLOAD SWAP2 MSTORE DUP2 JUMP JUMPDEST PUSH1 0x0 PUSH1 0x1 PUSH1 0x1 PUSH1 0xE0 SHL SUB NOT DUP3 AND PUSH4 0x7965DB0B PUSH1 0xE0 SHL EQ DUP1 PUSH2 0x6AC JUMPI POP PUSH4 0x1FFC9A7 PUSH1 0xE0 SHL PUSH1 0x1 PUSH1 0x1 PUSH1 0xE0 SHL SUB NOT DUP4 AND EQ JUMPDEST SWAP3 SWAP2 POP POP JUMP JUMPDEST PUSH1 0x8 PUSH1 0x20 MSTORE PUSH1 0x0 SWAP1 DUP2 MSTORE PUSH1 0x40 SWAP1 KECCAK256 DUP1 SLOAD PUSH1 0x1 DUP3 ADD DUP1 SLOAD PUSH1 0x1 PUSH1 0x1 PUSH1 0xA0 SHL SUB SWAP1 SWAP3 AND SWAP3 SWAP2 PUSH2 0x6DE SWAP1 PUSH2 0x20FF JUMP JUMPDEST DUP1 PUSH1 0x1F ADD PUSH1 0x20 DUP1 SWAP2 DIV MUL PUSH1 0x20 ADD PUSH1 0x40 MLOAD SWAP1 DUP2 ADD PUSH1 0x40 MSTORE DUP1 SWAP3 SWAP2 SWAP1 DUP2 DUP2 MSTORE PUSH1 0x20 ADD DUP3 DUP1 SLOAD PUSH2 0x70A SWAP1 PUSH2 0x20FF JUMP JUMPDEST DUP1 ISZERO PUSH2 0x757 JUMPI DUP1 PUSH1 0x1F LT PUSH2 0x72C JUMPI PUSH2 0x100 DUP1 DUP4 SLOAD DIV MUL DUP4 MSTORE SWAP2 PUSH1 0x20 ADD SWAP2 PUSH2 0x757 JUMP JUMPDEST DUP3 ADD SWAP2 SWAP1 PUSH1 0x0 MSTORE PUSH1 0x20 PUSH1 0x0 KECCAK256 SWAP1 JUMPDEST DUP2 SLOAD DUP2 MSTORE SWAP1 PUSH1 0x1 ADD SWAP1 PUSH1 0x20 ADD DUP1 DUP4 GT PUSH2 0x73A JUMPI DUP3 SWAP1 SUB PUSH1 0x1F AND DUP3 ADD SWAP2 JUMPDEST POP POP POP PUSH1 0x2 DUP5 ADD SLOAD PUSH1 0x3 DUP6 ADD SLOAD PUSH1 0x4 DUP7 ADD SLOAD PUSH1 0x5 DUP8 ADD SLOAD PUSH1 0x6 SWAP1 SWAP8 ADD SLOAD SWAP6 SWAP7 PUSH1 0xFF SWAP1 SWAP4 AND SWAP6 SWAP2 SWAP5 POP SWAP3 POP DUP8 JUMP JUMPDEST PUSH2 0x79C PUSH1 0x0 DUP1 MLOAD PUSH1 0x20 PUSH2 0x24BF DUP4 CODECOPY DUP2 MLOAD SWAP2 MSTORE CALLER PUSH2 0xDDE JUMP JUMPDEST PUSH2 0x7C1 JUMPI PUSH1 0x40 MLOAD PUSH3 0x461BCD PUSH1 0xE5 SHL DUP2 MSTORE PUSH1 0x4 ADD PUSH2 0x7B8 SWAP1 PUSH2 0x2139 JUMP JUMPDEST PUSH1 0x40 MLOAD DUP1 SWAP2 SUB SWAP1 REVERT JUMPDEST PUSH1 0x1 PUSH1 0x1 PUSH1 0xA0 SHL SUB DUP6 AND PUSH2 0x7E7 JUMPI PUSH1 0x40 MLOAD PUSH3 0x461BCD PUSH1 0xE5 SHL DUP2 MSTORE PUSH1 0x4 ADD PUSH2 0x7B8 SWAP1 PUSH2 0x217B JUMP JUMPDEST PUSH2 0x3E8 DUP5 GT ISZERO PUSH2 0x84D JUMPI PUSH1 0x40 MLOAD PUSH3 0x461BCD PUSH1 0xE5 SHL DUP2 MSTORE PUSH1 0x20 PUSH1 0x4 DUP3 ADD MSTORE PUSH1 0x2B PUSH1 0x24 DUP3 ADD MSTORE PUSH32 0x44654641494D616E616765723A207269736B2073636F72652063616E6E6F7420 PUSH1 0x44 DUP3 ADD MSTORE PUSH11 0x657863656564203130303 PUSH1 0xAC SHL PUSH1 0x64 DUP3 ADD MSTORE PUSH1 0x84 ADD PUSH2 0x7B8 JUMP JUMPDEST PUSH1 0x40 DUP1 MLOAD PUSH1 0x80 DUP2 ADD DUP3 MSTORE DUP6 DUP2 MSTORE PUSH1 0x20 DUP1 DUP3 ADD DUP7 DUP2 MSTORE DUP3 DUP5 ADD DUP7 DUP2 MSTORE DUP6 ISZERO ISZERO PUSH1 0x60 DUP6 ADD DUP2 DUP2 MSTORE PUSH1 0x1 PUSH1 0x1 PUSH1 0xA0 SHL SUB DUP13 AND PUSH1 0x0 DUP2 DUP2 MSTORE PUSH1 0xC DUP8 MSTORE DUP9 SWAP1 KECCAK256 SWAP7 MLOAD DUP8 SSTORE SWAP4 MLOAD PUSH1 0x1 DUP8 ADD SSTORE SWAP2 MLOAD PUSH1 0x2 DUP7 ADD SSTORE SWAP1 MLOAD PUSH1 0x3 SWAP1 SWAP5 ADD DUP1 SLOAD PUSH1 0xFF NOT AND SWAP5 ISZERO ISZERO SWAP5 SWAP1 SWAP5 OR SWAP1 SWAP4 SSTORE DUP4 MLOAD DUP9 DUP2 MSTORE SWAP2 DUP3 ADD SWAP3 SWAP1 SWAP3 MSTORE SWAP1 SWAP2 PUSH32 0xA08B95696AC629DA068AEDFE6F4DDD1A308D2AEE8FC27D7F8ED847650632FBD2 SWAP2 ADD PUSH1 0x40 MLOAD DUP1 SWAP2 SUB SWAP1 LOG2 POP POP POP POP POP JUMP JUMPDEST PUSH2 0x909 PUSH1 0x0 DUP1 MLOAD PUSH1 0x20 PUSH2 0x249F DUP4 CODECOPY DUP2 MLOAD SWAP2 MSTORE CALLER PUSH2 0xDDE JUMP JUMPDEST PUSH2 0x925 JUMPI PUSH1 0x40 MLOAD PUSH3 0x461BCD PUSH1 0xE5 SHL DUP2 MSTORE PUSH1 0x4 ADD PUSH2 0x7B8 SWAP1 PUSH2 0x21C4 JUMP JUMPDEST PUSH1 0x1 PUSH1 0x1 PUSH1 0xA0 SHL SUB DUP2 AND PUSH2 0x94B JUMPI PUSH1 0x40 MLOAD PUSH3 0x461BCD PUSH1 0xE5 SHL DUP2 MSTORE PUSH1 0x4 ADD PUSH2 0x7B8 SWAP1 PUSH2 0x217B JUMP JUMPDEST PUSH1 0x1 PUSH1 0x1 PUSH1 0xA0 SHL SUB DUP2 AND PUSH1 0x0 SWAP1 DUP2 MSTORE PUSH1 0x3 PUSH1 0x20 DUP2 SWAP1 MSTORE PUSH1 0x40 SWAP1 SWAP2 KECCAK256 ADD SLOAD PUSH1 0xFF AND PUSH2 0x987 JUMPI PUSH1 0x40 MLOAD PUSH3 0x461BCD PUSH1 0xE5 SHL DUP2 MSTORE PUSH1 0x4 ADD PUSH2 0x7B8 SWAP1 PUSH2 0x2209 JUMP JUMPDEST PUSH1 0x1 PUSH1 0x1 PUSH1 0xA0 SHL SUB DUP2 AND PUSH1 0x0 DUP2 DUP2 MSTORE PUSH1 0x3 PUSH1 0x20 SWAP1 DUP2 MSTORE PUSH1 0x40 SWAP2 DUP3 SWAP1 KECCAK256 TIMESTAMP PUSH1 0x2 DUP3 ADD SSTORE PUSH1 0x1 ADD SLOAD SWAP2 MLOAD SWAP2 DUP3 MSTORE PUSH32 0x7B7DB695EFAC79A7835FEF04A4A5EE6DAA683E9CC5D1BFE4293619969D04066F SWAP2 ADD PUSH1 0x40 MLOAD DUP1 SWAP2 SUB SWAP1 LOG2 POP JUMP JUMPDEST PUSH2 0x9F8 PUSH1 0x0 DUP1 MLOAD PUSH1 0x20 PUSH2 0x249F DUP4 CODECOPY DUP2 MLOAD SWAP2 MSTORE CALLER PUSH2 0xDDE JUMP JUMPDEST PUSH2 0xA14 JUMPI PUSH1 0x40 MLOAD PUSH3 0x461BCD PUSH1 0xE5 SHL DUP2 MSTORE PUSH1 0x4 ADD PUSH2 0x7B8 SWAP1 PUSH2 0x21C4 JUMP JUMPDEST PUSH1 0x1 PUSH1 0x1 PUSH1 0xA0 SHL SUB DUP3 AND PUSH2 0xA3A JUMPI PUSH1 0x40 MLOAD PUSH3 0x461BCD PUSH1 0xE5 SHL DUP2 MSTORE PUSH1 0x4 ADD PUSH2 0x7B8 SWAP1 PUSH2 0x217B JUMP JUMPDEST PUSH1 0x1 PUSH1 0x1 PUSH1 0xA0 SHL SUB DUP3 AND PUSH1 0x0 SWAP1 DUP2 MSTORE PUSH1 0x3 PUSH1 0x20 DUP2 SWAP1 MSTORE PUSH1 0x40 SWAP1 SWAP2 KECCAK256 ADD SLOAD PUSH1 0xFF AND ISZERO PUSH2 0xAB6 JUMPI PUSH1 0x40 MLOAD PUSH3 0x461BCD PUSH1 0xE5 SHL DUP2 MSTORE PUSH1 0x20 PUSH1 0x4 DUP3 ADD MSTORE PUSH1 0x26 PUSH1 0x24 DUP3 ADD MSTORE PUSH32 0x44654641494D616E616765723A20706F7274666F6C696F20616C726561647920 PUSH1 0x44 DUP3 ADD MSTORE PUSH6 0x657869737473 PUSH1 0xD0 SHL PUSH1 0x64 DUP3 ADD MSTORE PUSH1 0x84 ADD PUSH2 0x7B8 JUMP JUMPDEST PUSH1 0x0 DUP2 GT PUSH2 0xB21 JUMPI PUSH1 0x40 MLOAD PUSH3 0x461BCD PUSH1 0xE5 SHL DUP2 MSTORE PUSH1 0x20 PUSH1 0x4 DUP3 ADD MSTORE PUSH1 0x32 PUSH1 0x24 DUP3 ADD MSTORE PUSH32 0x44654641494D616E616765723A20696E697469616C2076616C7565206D757374 PUSH1 0x44 DUP3 ADD MSTORE PUSH18 0x2062652067726561746572207468616E203 PUSH1 0x74 SHL PUSH1 0x64 DUP3 ADD MSTORE PUSH1 0x84 ADD PUSH2 0x7B8 JUMP JUMPDEST PUSH1 0x40 DUP1 MLOAD PUSH1 0x80 DUP2 ADD DUP3 MSTORE PUSH1 0x1 PUSH1 0x1 PUSH1 0xA0 SHL SUB DUP5 DUP2 AND DUP1 DUP4 MSTORE PUSH1 0x20 DUP1 DUP5 ADD DUP7 DUP2 MSTORE TIMESTAMP DUP6 DUP8 ADD SWAP1 DUP2 MSTORE PUSH1 0x1 PUSH1 0x60 DUP8 ADD DUP2 DUP2 MSTORE PUSH1 0x0 SWAP6 DUP7 MSTORE PUSH1 0x3 SWAP5 DUP6 SWAP1 MSTORE SWAP8 DUP6 KECCAK256 SWAP7 MLOAD DUP8 SLOAD PUSH1 0x1 PUSH1 0x1 PUSH1 0xA0 SHL SUB NOT AND SWAP7 AND SWAP6 SWAP1 SWAP6 OR DUP7 SSTORE SWAP1 MLOAD SWAP4 DUP6 ADD SWAP4 SWAP1 SWAP4 SSTORE SWAP2 MLOAD PUSH1 0x2 DUP5 ADD SSTORE SWAP3 MLOAD SWAP2 ADD DUP1 SLOAD PUSH1 0xFF NOT AND SWAP2 ISZERO ISZERO SWAP2 SWAP1 SWAP2 OR SWAP1 SSTORE JUMPDEST PUSH1 0x7 SLOAD DUP2 LT ISZERO PUSH2 0xC1C JUMPI PUSH1 0x1 PUSH1 0x1 PUSH1 0xA0 SHL SUB DUP4 AND PUSH1 0x0 SWAP1 DUP2 MSTORE PUSH1 0x5 PUSH1 0x20 MSTORE PUSH1 0x40 SWAP1 KECCAK256 PUSH1 0x7 DUP1 SLOAD DUP4 SWAP1 DUP2 LT PUSH2 0xBCF JUMPI PUSH2 0xBCF PUSH2 0x224B JUMP JUMPDEST PUSH1 0x0 SWAP2 DUP3 MSTORE PUSH1 0x20 DUP1 DUP4 KECCAK256 SWAP1 SWAP2 ADD SLOAD DUP4 SLOAD PUSH1 0x1 DUP2 ADD DUP6 SSTORE SWAP4 DUP4 MSTORE SWAP2 KECCAK256 SWAP1 SWAP2 ADD DUP1 SLOAD PUSH1 0x1 PUSH1 0x1 PUSH1 0xA0 SHL SUB NOT AND PUSH1 0x1 PUSH1 0x1 PUSH1 0xA0 SHL SUB SWAP1 SWAP3 AND SWAP2 SWAP1 SWAP2 OR SWAP1 SSTORE DUP1 PUSH2 0xC14 DUP2 PUSH2 0x2277 JUMP JUMPDEST SWAP2 POP POP PUSH2 0xB99 JUMP JUMPDEST POP DUP2 PUSH1 0x1 PUSH1 0x1 PUSH1 0xA0 SHL SUB AND PUSH32 0x67FB572DDE9F80BFB3F0454266D9258CF72D569E4EF809F9301B9EE757DD78D0 DUP3 PUSH1 0x40 MLOAD PUSH2 0xC58 SWAP2 DUP2 MSTORE PUSH1 0x20 ADD SWAP1 JUMP JUMPDEST PUSH1 0x40 MLOAD DUP1 SWAP2 SUB SWAP1 LOG2 POP POP JUMP JUMPDEST PUSH1 0x0 DUP3 DUP2 MSTORE PUSH1 0x20 DUP2 SWAP1 MSTORE PUSH1 0x40 SWAP1 KECCAK256 PUSH1 0x1 ADD SLOAD PUSH2 0xC7F DUP2 PUSH2 0x196A JUMP JUMPDEST PUSH2 0xC89 DUP4 DUP4 PUSH2 0x1977 JUMP JUMPDEST POP POP POP POP JUMP JUMPDEST PUSH1 0x1 PUSH1 0x1 PUSH1 0xA0 SHL SUB DUP2 AND CALLER EQ PUSH2 0xCB8 JUMPI PUSH1 0x40 MLOAD PUSH4 0x334BD919 PUSH1 0xE1 SHL DUP2 MSTORE PUSH1 0x4 ADD PUSH1 0x40 MLOAD DUP1 SWAP2 SUB SWAP1 REVERT JUMPDEST PUSH2 0xCC2 DUP3 DUP3 PUSH2 0x1A09 JUMP JUMPDEST POP POP POP JUMP JUMPDEST PUSH1 0xB PUSH1 0x20 MSTORE DUP2 PUSH1 0x0 MSTORE PUSH1 0x40 PUSH1 0x0 KECCAK256 DUP2 DUP2 SLOAD DUP2 LT PUSH2 0xCE3 JUMPI PUSH1 0x0 DUP1 REVERT JUMPDEST SWAP1 PUSH1 0x0 MSTORE PUSH1 0x20 PUSH1 0x0 KECCAK256 ADD PUSH1 0x0 SWAP2 POP SWAP2 POP POP SLOAD DUP2 JUMP JUMPDEST PUSH2 0xD10 PUSH1 0x0 DUP1 MLOAD PUSH1 0x20 PUSH2 0x24BF DUP4 CODECOPY DUP2 MLOAD SWAP2 MSTORE CALLER PUSH2 0xDDE JUMP JUMPDEST PUSH2 0xD2C JUMPI PUSH1 0x40 MLOAD PUSH3 0x461BCD PUSH1 0xE5 SHL DUP2 MSTORE PUSH1 0x4 ADD PUSH2 0x7B8 SWAP1 PUSH2 0x2139 JUMP JUMPDEST PUSH2 0xD34 PUSH2 0x1A74 JUMP JUMPDEST JUMP JUMPDEST PUSH1 0x1 PUSH1 0x1 PUSH1 0xA0 SHL SUB DUP2 AND PUSH1 0x0 SWAP1 DUP2 MSTORE PUSH1 0xB PUSH1 0x20 SWAP1 DUP2 MSTORE PUSH1 0x40 SWAP2 DUP3 SWAP1 KECCAK256 DUP1 SLOAD DUP4 MLOAD DUP2 DUP5 MUL DUP2 ADD DUP5 ADD SWAP1 SWAP5 MSTORE DUP1 DUP5 MSTORE PUSH1 0x60 SWAP4 SWAP3 DUP4 ADD DUP3 DUP3 DUP1 ISZERO PUSH2 0xD96 JUMPI PUSH1 0x20 MUL DUP3 ADD SWAP2 SWAP1 PUSH1 0x0 MSTORE PUSH1 0x20 PUSH1 0x0 KECCAK256 SWAP1 JUMPDEST DUP2 SLOAD DUP2 MSTORE PUSH1 0x20 ADD SWAP1 PUSH1 0x1 ADD SWAP1 DUP1 DUP4 GT PUSH2 0xD82 JUMPI JUMPDEST POP POP POP POP POP SWAP1 POP SWAP2 SWAP1 POP JUMP JUMPDEST PUSH2 0xDBA PUSH1 0x0 DUP1 MLOAD PUSH1 0x20 PUSH2 0x24BF DUP4 CODECOPY DUP2 MLOAD SWAP2 MSTORE CALLER PUSH2 0xDDE JUMP JUMPDEST PUSH2 0xDD6 JUMPI PUSH1 0x40 MLOAD PUSH3 0x461BCD PUSH1 0xE5 SHL DUP2 MSTORE PUSH1 0x4 ADD PUSH2 0x7B8 SWAP1 PUSH2 0x2139 JUMP JUMPDEST PUSH2 0xD34 PUSH2 0x1AC6 JUMP JUMPDEST PUSH1 0x0 SWAP2 DUP3 MSTORE PUSH1 0x20 DUP3 DUP2 MSTORE PUSH1 0x40 DUP1 DUP5 KECCAK256 PUSH1 0x1 PUSH1 0x1 PUSH1 0xA0 SHL SUB SWAP4 SWAP1 SWAP4 AND DUP5 MSTORE SWAP2 SWAP1 MSTORE SWAP1 KECCAK256 SLOAD PUSH1 0xFF AND SWAP1 JUMP JUMPDEST PUSH1 0x0 PUSH1 0x1 PUSH1 0x9 SLOAD PUSH2 0xE18 SWAP2 SWAP1 PUSH2 0x2290 JUMP JUMPDEST SWAP1 POP SWAP1 JUMP JUMPDEST PUSH2 0xE35 PUSH1 0x0 DUP1 MLOAD PUSH1 0x20 PUSH2 0x249F DUP4 CODECOPY DUP2 MLOAD SWAP2 MSTORE CALLER PUSH2 0xDDE JUMP JUMPDEST PUSH2 0xE51 JUMPI PUSH1 0x40 MLOAD PUSH3 0x461BCD PUSH1 0xE5 SHL DUP2 MSTORE PUSH1 0x4 ADD PUSH2 0x7B8 SWAP1 PUSH2 0x21C4 JUMP JUMPDEST PUSH1 0x1 PUSH1 0x1 PUSH1 0xA0 SHL SUB DUP4 AND PUSH2 0xE77 JUMPI PUSH1 0x40 MLOAD PUSH3 0x461BCD PUSH1 0xE5 SHL DUP2 MSTORE PUSH1 0x4 ADD PUSH2 0x7B8 SWAP1 PUSH2 0x217B JUMP JUMPDEST PUSH1 0x0 PUSH2 0x2710 PUSH1 0xD SLOAD DUP5 PUSH2 0xE8A SWAP2 SWAP1 PUSH2 0x22A3 JUMP JUMPDEST PUSH2 0xE94 SWAP2 SWAP1 PUSH2 0x22BA JUMP JUMPDEST SWAP1 POP PUSH1 0x0 PUSH2 0x2710 PUSH1 0xE SLOAD DUP5 PUSH2 0xEA9 SWAP2 SWAP1 PUSH2 0x22A3 JUMP JUMPDEST PUSH2 0xEB3 SWAP2 SWAP1 PUSH2 0x22BA JUMP JUMPDEST SWAP1 POP PUSH1 0x0 PUSH2 0xEC1 DUP3 DUP5 PUSH2 0x22DC JUMP JUMPDEST SWAP1 POP DUP1 ISZERO PUSH2 0xF49 JUMPI PUSH1 0xF SLOAD PUSH2 0xF03 SWAP1 PUSH1 0x1 PUSH1 0x1 PUSH1 0xA0 SHL SUB PUSH32 0x0 DUP2 AND SWAP2 AND DUP4 PUSH2 0x1B03 JUMP JUMPDEST PUSH1 0x40 DUP1 MLOAD DUP5 DUP2 MSTORE PUSH1 0x20 DUP2 ADD DUP5 SWAP1 MSTORE PUSH1 0x1 PUSH1 0x1 PUSH1 0xA0 SHL SUB DUP9 AND SWAP2 PUSH32 0x2E4FB6077D4ACF86E12BB7411FB82B2B3EAA6A49787F4B1E17B423E7EA841169 SWAP2 ADD JUMPDEST PUSH1 0x40 MLOAD DUP1 SWAP2 SUB SWAP1 LOG2 JUMPDEST POP POP POP POP POP POP JUMP JUMPDEST PUSH1 0x7 DUP2 DUP2 SLOAD DUP2 LT PUSH2 0xF61 JUMPI PUSH1 0x0 DUP1 REVERT JUMPDEST PUSH1 0x0 SWAP2 DUP3 MSTORE PUSH1 0x20 SWAP1 SWAP2 KECCAK256 ADD SLOAD PUSH1 0x1 PUSH1 0x1 PUSH1 0xA0 SHL SUB AND SWAP1 POP DUP2 JUMP JUMPDEST PUSH2 0xF93 PUSH1 0x0 DUP1 MLOAD PUSH1 0x20 PUSH2 0x249F DUP4 CODECOPY DUP2 MLOAD SWAP2 MSTORE CALLER PUSH2 0xDDE JUMP JUMPDEST PUSH2 0xFAF JUMPI PUSH1 0x40 MLOAD PUSH3 0x461BCD PUSH1 0xE5 SHL DUP2 MSTORE PUSH1 0x4 ADD PUSH2 0x7B8 SWAP1 PUSH2 0x21C4 JUMP JUMPDEST PUSH2 0xFB7 PUSH2 0x1B62 JUMP JUMPDEST PUSH1 0x1 PUSH1 0x1 PUSH1 0xA0 SHL SUB DUP4 AND PUSH2 0xFDD JUMPI PUSH1 0x40 MLOAD PUSH3 0x461BCD PUSH1 0xE5 SHL DUP2 MSTORE PUSH1 0x4 ADD PUSH2 0x7B8 SWAP1 PUSH2 0x217B JUMP JUMPDEST PUSH1 0x0 DUP3 GT PUSH2 0xFFD JUMPI PUSH1 0x40 MLOAD PUSH3 0x461BCD PUSH1 0xE5 SHL DUP2 MSTORE PUSH1 0x4 ADD PUSH2 0x7B8 SWAP1 PUSH2 0x22EF JUMP JUMPDEST PUSH1 0x1 PUSH1 0x1 PUSH1 0xA0 SHL SUB DUP4 AND PUSH1 0x0 SWAP1 DUP2 MSTORE PUSH1 0x3 PUSH1 0x20 DUP2 SWAP1 MSTORE PUSH1 0x40 SWAP1 SWAP2 KECCAK256 ADD SLOAD PUSH1 0xFF AND PUSH2 0x1039 JUMPI PUSH1 0x40 MLOAD PUSH3 0x461BCD PUSH1 0xE5 SHL DUP2 MSTORE PUSH1 0x4 ADD PUSH2 0x7B8 SWAP1 PUSH2 0x2209 JUMP JUMPDEST PUSH1 0x0 DUP2 DUP2 MSTORE PUSH1 0x8 PUSH1 0x20 MSTORE PUSH1 0x40 SWAP1 KECCAK256 PUSH1 0x2 ADD SLOAD PUSH1 0xFF AND PUSH2 0x10A4 JUMPI PUSH1 0x40 MLOAD PUSH3 0x461BCD PUSH1 0xE5 SHL DUP2 MSTORE PUSH1 0x20 PUSH1 0x4 DUP3 ADD MSTORE PUSH1 0x21 PUSH1 0x24 DUP3 ADD MSTORE PUSH32 0x44654641494D616E616765723A207374726174656779206E6F74206163746976 PUSH1 0x44 DUP3 ADD MSTORE PUSH1 0x65 PUSH1 0xF8 SHL PUSH1 0x64 DUP3 ADD MSTORE PUSH1 0x84 ADD PUSH2 0x7B8 JUMP JUMPDEST PUSH1 0x0 DUP2 DUP2 MSTORE PUSH1 0x8 PUSH1 0x20 MSTORE PUSH1 0x40 SWAP1 KECCAK256 PUSH1 0x3 ADD SLOAD DUP3 LT ISZERO PUSH2 0x1110 JUMPI PUSH1 0x40 MLOAD PUSH3 0x461BCD PUSH1 0xE5 SHL DUP2 MSTORE PUSH1 0x20 PUSH1 0x4 DUP3 ADD MSTORE PUSH1 0x22 PUSH1 0x24 DUP3 ADD MSTORE PUSH32 0x44654641494D616E616765723A20616D6F756E742062656C6F77206D696E696D PUSH1 0x44 DUP3 ADD MSTORE PUSH2 0x756D PUSH1 0xF0 SHL PUSH1 0x64 DUP3 ADD MSTORE PUSH1 0x84 ADD PUSH2 0x7B8 JUMP JUMPDEST PUSH1 0x0 DUP2 DUP2 MSTORE PUSH1 0x8 PUSH1 0x20 MSTORE PUSH1 0x40 SWAP1 KECCAK256 PUSH1 0x4 ADD SLOAD DUP3 GT ISZERO PUSH2 0x117C JUMPI PUSH1 0x40 MLOAD PUSH3 0x461BCD PUSH1 0xE5 SHL DUP2 MSTORE PUSH1 0x20 PUSH1 0x4 DUP3 ADD MSTORE PUSH1 0x22 PUSH1 0x24 DUP3 ADD MSTORE PUSH32 0x44654641494D616E616765723A20616D6F756E742061626F7665206D6178696D PUSH1 0x44 DUP3 ADD MSTORE PUSH2 0x756D PUSH1 0xF0 SHL PUSH1 0x64 DUP3 ADD MSTORE PUSH1 0x84 ADD PUSH2 0x7B8 JUMP JUMPDEST PUSH1 0x1 PUSH1 0x1 PUSH1 0xA0 SHL SUB DUP4 AND PUSH1 0x0 SWAP1 DUP2 MSTORE PUSH1 0xC PUSH1 0x20 MSTORE PUSH1 0x40 SWAP1 KECCAK256 PUSH1 0x3 ADD SLOAD PUSH1 0xFF AND PUSH2 0x11F7 JUMPI PUSH1 0x40 MLOAD PUSH3 0x461BCD PUSH1 0xE5 SHL DUP2 MSTORE PUSH1 0x20 PUSH1 0x4 DUP3 ADD MSTORE PUSH1 0x27 PUSH1 0x24 DUP3 ADD MSTORE PUSH32 0x44654641494D616E616765723A207269736B2070726F66696C65206E6F742061 PUSH1 0x44 DUP3 ADD MSTORE PUSH7 0x1C1C1C9BDD9959 PUSH1 0xCA SHL PUSH1 0x64 DUP3 ADD MSTORE PUSH1 0x84 ADD PUSH2 0x7B8 JUMP JUMPDEST PUSH2 0x122C PUSH1 0x1 PUSH1 0x1 PUSH1 0xA0 SHL SUB PUSH32 0x0 AND DUP5 ADDRESS DUP6 PUSH2 0x1B8C JUMP JUMPDEST PUSH1 0x1 PUSH1 0x1 PUSH1 0xA0 SHL SUB DUP4 AND PUSH1 0x0 SWAP1 DUP2 MSTORE PUSH1 0xA PUSH1 0x20 MSTORE PUSH1 0x40 DUP2 KECCAK256 DUP1 SLOAD DUP5 SWAP3 SWAP1 PUSH2 0x1254 SWAP1 DUP5 SWAP1 PUSH2 0x22DC JUMP JUMPDEST SWAP1 SWAP2 SSTORE POP POP PUSH1 0x1 PUSH1 0x1 PUSH1 0xA0 SHL SUB DUP4 AND PUSH1 0x0 SWAP1 DUP2 MSTORE PUSH1 0xB PUSH1 0x20 SWAP1 DUP2 MSTORE PUSH1 0x40 DUP1 DUP4 KECCAK256 DUP1 SLOAD PUSH1 0x1 DUP2 ADD DUP3 SSTORE SWAP1 DUP5 MSTORE DUP3 DUP5 KECCAK256 ADD DUP5 SWAP1 SSTORE DUP4 DUP4 MSTORE PUSH1 0x8 SWAP1 SWAP2 MSTORE DUP2 KECCAK256 PUSH1 0x6 ADD DUP1 SLOAD DUP5 SWAP3 SWAP1 PUSH2 0x12A3 SWAP1 DUP5 SWAP1 PUSH2 0x22DC JUMP JUMPDEST SWAP1 SWAP2 SSTORE POP POP PUSH1 0x40 DUP1 MLOAD DUP4 DUP2 MSTORE PUSH1 0x20 DUP2 ADD DUP4 SWAP1 MSTORE PUSH1 0x1 PUSH1 0x1 PUSH1 0xA0 SHL SUB DUP6 AND SWAP2 PUSH32 0x38A5E6AC377A059DCA5F96C7EE7447CBA9E3725C07C9998A1F05696506E3E972 SWAP2 ADD JUMPDEST PUSH1 0x40 MLOAD DUP1 SWAP2 SUB SWAP1 LOG2 PUSH2 0xCC2 PUSH1 0x1 DUP1 SSTORE JUMP JUMPDEST PUSH1 0x5 PUSH1 0x20 MSTORE DUP2 PUSH1 0x0 MSTORE PUSH1 0x40 PUSH1 0x0 KECCAK256 DUP2 DUP2 SLOAD DUP2 LT PUSH2 0x1312 JUMPI PUSH1 0x0 DUP1 REVERT JUMPDEST PUSH1 0x0 SWAP2 DUP3 MSTORE PUSH1 0x20 SWAP1 SWAP2 KECCAK256 ADD SLOAD PUSH1 0x1 PUSH1 0x1 PUSH1 0xA0 SHL SUB AND SWAP2 POP DUP3 SWAP1 POP JUMP JUMPDEST PUSH2 0x1358 PUSH32 0xBF233DD2AAFEB4D50879C4AA5C81E96D92F6E6945C906A58F9F2D1C1631B4B26 CALLER PUSH2 0xDDE JUMP JUMPDEST PUSH2 0x13B3 JUMPI PUSH1 0x40 MLOAD PUSH3 0x461BCD PUSH1 0xE5 SHL DUP2 MSTORE PUSH1 0x20 PUSH1 0x4 DUP3 ADD MSTORE PUSH1 0x26 PUSH1 0x24 DUP3 ADD MSTORE PUSH32 0x44654641494D616E616765723A206D757374206861766520656D657267656E63 PUSH1 0x44 DUP3 ADD MSTORE PUSH6 0x7920726F6C65 PUSH1 0xD0 SHL PUSH1 0x64 DUP3 ADD MSTORE PUSH1 0x84 ADD PUSH2 0x7B8 JUMP JUMPDEST PUSH2 0x13BB PUSH2 0x1B62 JUMP JUMPDEST PUSH1 0x1 PUSH1 0x1 PUSH1 0xA0 SHL SUB DUP4 AND PUSH2 0x13E1 JUMPI PUSH1 0x40 MLOAD PUSH3 0x461BCD PUSH1 0xE5 SHL DUP2 MSTORE PUSH1 0x4 ADD PUSH2 0x7B8 SWAP1 PUSH2 0x217B JUMP JUMPDEST PUSH1 0x0 DUP3 GT PUSH2 0x1401 JUMPI PUSH1 0x40 MLOAD PUSH3 0x461BCD PUSH1 0xE5 SHL DUP2 MSTORE PUSH1 0x4 ADD PUSH2 0x7B8 SWAP1 PUSH2 0x22EF JUMP JUMPDEST PUSH1 0x40 MLOAD PUSH4 0x70A08231 PUSH1 0xE0 SHL DUP2 MSTORE ADDRESS PUSH1 0x4 DUP3 ADD MSTORE DUP3 SWAP1 PUSH32 0x0 PUSH1 0x1 PUSH1 0x1 PUSH1 0xA0 SHL SUB AND SWAP1 PUSH4 0x70A08231 SWAP1 PUSH1 0x24 ADD PUSH1 0x20 PUSH1 0x40 MLOAD DUP1 DUP4 SUB DUP2 DUP7 GAS STATICCALL ISZERO DUP1 ISZERO PUSH2 0x1467 JUMPI RETURNDATASIZE PUSH1 0x0 DUP1 RETURNDATACOPY RETURNDATASIZE PUSH1 0x0 REVERT JUMPDEST POP POP POP POP PUSH1 0x40 MLOAD RETURNDATASIZE PUSH1 0x1F NOT PUSH1 0x1F DUP3 ADD AND DUP3 ADD DUP1 PUSH1 0x40 MSTORE POP DUP2 ADD SWAP1 PUSH2 0x148B SWAP2 SWAP1 PUSH2 0x233A JUMP JUMPDEST LT ISZERO PUSH2 0x14ED JUMPI PUSH1 0x40 MLOAD PUSH3 0x461BCD PUSH1 0xE5 SHL DUP2 MSTORE PUSH1 0x20 PUSH1 0x4 DUP3 ADD MSTORE PUSH1 0x2B PUSH1 0x24 DUP3 ADD MSTORE PUSH32 0x44654641494D616E616765723A20696E73756666696369656E7420636F6E7472 PUSH1 0x44 DUP3 ADD MSTORE PUSH11 0x6163742062616C616E6365 PUSH1 0xA8 SHL PUSH1 0x64 DUP3 ADD MSTORE PUSH1 0x84 ADD PUSH2 0x7B8 JUMP JUMPDEST PUSH2 0x1521 PUSH1 0x1 PUSH1 0x1 PUSH1 0xA0 SHL SUB PUSH32 0x0 AND DUP5 DUP5 PUSH2 0x1B03 JUMP JUMPDEST DUP3 PUSH1 0x1 PUSH1 0x1 PUSH1 0xA0 SHL SUB AND PUSH32 0xB6611F2B90CE7E47B1F8BFC81E38FB1A210F6766C91B8C8D5EE36305D752060 DUP4 DUP4 PUSH1 0x40 MLOAD PUSH2 0x12E5 SWAP3 SWAP2 SWAP1 PUSH2 0x2353 JUMP JUMPDEST PUSH2 0x1574 PUSH1 0x0 DUP1 MLOAD PUSH1 0x20 PUSH2 0x24BF DUP4 CODECOPY DUP2 MLOAD SWAP2 MSTORE CALLER PUSH2 0xDDE JUMP JUMPDEST PUSH2 0x1590 JUMPI PUSH1 0x40 MLOAD PUSH3 0x461BCD PUSH1 0xE5 SHL DUP2 MSTORE PUSH1 0x4 ADD PUSH2 0x7B8 SWAP1 PUSH2 0x2139 JUMP JUMPDEST PUSH1 0x1 PUSH1 0x1 PUSH1 0xA0 SHL SUB DUP6 AND PUSH2 0x1605 JUMPI PUSH1 0x40 MLOAD PUSH3 0x461BCD PUSH1 0xE5 SHL DUP2 MSTORE PUSH1 0x20 PUSH1 0x4 DUP3 ADD MSTORE PUSH1 0x36 PUSH1 0x24 DUP3 ADD MSTORE PUSH32 0x44654641494D616E616765723A20737472617465677920636F6E747261637420 PUSH1 0x44 DUP3 ADD MSTORE PUSH22 0x63616E6E6F74206265207A65726F2061646472657373 PUSH1 0x50 SHL PUSH1 0x64 DUP3 ADD MSTORE PUSH1 0x84 ADD PUSH2 0x7B8 JUMP JUMPDEST PUSH1 0x0 DUP4 GT PUSH2 0x166E JUMPI PUSH1 0x40 MLOAD PUSH3 0x461BCD PUSH1 0xE5 SHL DUP2 MSTORE PUSH1 0x20 PUSH1 0x4 DUP3 ADD MSTORE PUSH1 0x30 PUSH1 0x24 DUP3 ADD MSTORE PUSH32 0x44654641494D616E616765723A206D696E206465706F736974206D7573742062 PUSH1 0x44 DUP3 ADD MSTORE PUSH16 0x652067726561746572207468616E203 PUSH1 0x84 SHL PUSH1 0x64 DUP3 ADD MSTORE PUSH1 0x84 ADD PUSH2 0x7B8 JUMP JUMPDEST DUP3 DUP3 LT ISZERO PUSH2 0x16D7 JUMPI PUSH1 0x40 MLOAD PUSH3 0x461BCD PUSH1 0xE5 SHL DUP2 MSTORE PUSH1 0x20 PUSH1 0x4 DUP3 ADD MSTORE PUSH1 0x30 PUSH1 0x24 DUP3 ADD MSTORE PUSH32 0x44654641494D616E616765723A206D6178206465706F736974206D7573742062 PUSH1 0x44 DUP3 ADD MSTORE PUSH16 0x19480F8F481B5A5B8819195C1BDCDA5D PUSH1 0x82 SHL PUSH1 0x64 DUP3 ADD MSTORE PUSH1 0x84 ADD PUSH2 0x7B8 JUMP JUMPDEST PUSH1 0x9 DUP1 SLOAD SWAP1 DUP2 SWAP1 PUSH1 0x0 PUSH2 0x16E9 DUP4 PUSH2 0x2277 JUMP JUMPDEST SWAP1 SWAP2 SSTORE POP POP PUSH1 0x40 DUP1 MLOAD PUSH1 0xE0 DUP2 ADD DUP3 MSTORE PUSH1 0x1 PUSH1 0x1 PUSH1 0xA0 SHL SUB DUP9 DUP2 AND DUP3 MSTORE PUSH1 0x20 DUP1 DUP4 ADD DUP10 DUP2 MSTORE PUSH1 0x1 DUP5 DUP7 ADD DUP2 SWAP1 MSTORE PUSH1 0x60 DUP6 ADD DUP11 SWAP1 MSTORE PUSH1 0x80 DUP6 ADD DUP10 SWAP1 MSTORE PUSH1 0xA0 DUP6 ADD DUP9 SWAP1 MSTORE PUSH1 0x0 PUSH1 0xC0 DUP7 ADD DUP2 SWAP1 MSTORE DUP8 DUP2 MSTORE PUSH1 0x8 SWAP1 SWAP4 MSTORE SWAP5 SWAP1 SWAP2 KECCAK256 DUP4 MLOAD DUP2 SLOAD PUSH1 0x1 PUSH1 0x1 PUSH1 0xA0 SHL SUB NOT AND SWAP4 AND SWAP3 SWAP1 SWAP3 OR DUP3 SSTORE MLOAD SWAP2 SWAP3 SWAP1 SWAP2 SWAP1 DUP3 ADD SWAP1 PUSH2 0x1768 SWAP1 DUP3 PUSH2 0x23BA JUMP JUMPDEST POP PUSH1 0x40 DUP3 DUP2 ADD MLOAD PUSH1 0x2 DUP4 ADD DUP1 SLOAD PUSH1 0xFF NOT AND SWAP2 ISZERO ISZERO SWAP2 SWAP1 SWAP2 OR SWAP1 SSTORE PUSH1 0x60 DUP4 ADD MLOAD PUSH1 0x3 DUP4 ADD SSTORE PUSH1 0x80 DUP4 ADD MLOAD PUSH1 0x4 DUP4 ADD SSTORE PUSH1 0xA0 DUP4 ADD MLOAD PUSH1 0x5 DUP4 ADD SSTORE PUSH1 0xC0 SWAP1 SWAP3 ADD MLOAD PUSH1 0x6 SWAP1 SWAP2 ADD SSTORE MLOAD DUP2 SWAP1 PUSH32 0x28472260C90C2F93F2C58A4C03F182F08A283B3ACB81D6EDFEA601790B06C55E SWAP1 PUSH2 0xF40 SWAP1 DUP10 SWAP1 DUP10 SWAP1 PUSH2 0x247A JUMP JUMPDEST PUSH1 0x60 PUSH1 0x7 DUP1 SLOAD DUP1 PUSH1 0x20 MUL PUSH1 0x20 ADD PUSH1 0x40 MLOAD SWAP1 DUP2 ADD PUSH1 0x40 MSTORE DUP1 SWAP3 SWAP2 SWAP1 DUP2 DUP2 MSTORE PUSH1 0x20 ADD DUP3 DUP1 SLOAD DUP1 ISZERO PUSH2 0x1836 JUMPI PUSH1 0x20 MUL DUP3 ADD SWAP2 SWAP1 PUSH1 0x0 MSTORE PUSH1 0x20 PUSH1 0x0 KECCAK256 SWAP1 JUMPDEST DUP2 SLOAD PUSH1 0x1 PUSH1 0x1 PUSH1 0xA0 SHL SUB AND DUP2 MSTORE PUSH1 0x1 SWAP1 SWAP2 ADD SWAP1 PUSH1 0x20 ADD DUP1 DUP4 GT PUSH2 0x1818 JUMPI JUMPDEST POP POP POP POP POP SWAP1 POP SWAP1 JUMP JUMPDEST PUSH1 0x0 DUP3 DUP2 MSTORE PUSH1 0x20 DUP2 SWAP1 MSTORE PUSH1 0x40 SWAP1 KECCAK256 PUSH1 0x1 ADD SLOAD PUSH2 0x185B DUP2 PUSH2 0x196A JUMP JUMPDEST PUSH2 0xC89 DUP4 DUP4 PUSH2 0x1A09 JUMP JUMPDEST PUSH2 0x187D PUSH1 0x0 DUP1 MLOAD PUSH1 0x20 PUSH2 0x24BF DUP4 CODECOPY DUP2 MLOAD SWAP2 MSTORE CALLER PUSH2 0xDDE JUMP JUMPDEST PUSH2 0x1899 JUMPI PUSH1 0x40 MLOAD PUSH3 0x461BCD PUSH1 0xE5 SHL DUP2 MSTORE PUSH1 0x4 ADD PUSH2 0x7B8 SWAP1 PUSH2 0x2139 JUMP JUMPDEST PUSH1 0x0 DUP4 GT DUP1 ISZERO PUSH2 0x18AA JUMPI POP PUSH1 0x9 SLOAD DUP4 LT JUMPDEST PUSH2 0x1900 JUMPI PUSH1 0x40 MLOAD PUSH3 0x461BCD PUSH1 0xE5 SHL DUP2 MSTORE PUSH1 0x20 PUSH1 0x4 DUP3 ADD MSTORE PUSH1 0x21 PUSH1 0x24 DUP3 ADD MSTORE PUSH32 0x44654641494D616E616765723A20696E76616C69642073747261746567792049 PUSH1 0x44 DUP3 ADD MSTORE PUSH1 0x11 PUSH1 0xFA SHL PUSH1 0x64 DUP3 ADD MSTORE PUSH1 0x84 ADD PUSH2 0x7B8 JUMP JUMPDEST PUSH1 0x0 DUP4 DUP2 MSTORE PUSH1 0x8 PUSH1 0x20 SWAP1 DUP2 MSTORE PUSH1 0x40 SWAP2 DUP3 SWAP1 KECCAK256 PUSH1 0x2 DUP2 ADD DUP1 SLOAD PUSH1 0xFF NOT AND DUP7 ISZERO ISZERO SWAP1 DUP2 OR SWAP1 SWAP2 SSTORE PUSH1 0x5 SWAP1 SWAP2 ADD DUP5 SWAP1 SSTORE DUP3 MLOAD SWAP1 DUP2 MSTORE SWAP1 DUP2 ADD DUP4 SWAP1 MSTORE DUP5 SWAP2 PUSH32 0x204293490D5096EF7DE2395A6D2359F0A9475B97B636F6B699725FC4A0E78FB SWAP2 ADD PUSH1 0x40 MLOAD DUP1 SWAP2 SUB SWAP1 LOG2 POP POP POP JUMP JUMPDEST PUSH2 0x1974 DUP2 CALLER PUSH2 0x1BC5 JUMP JUMPDEST POP JUMP JUMPDEST PUSH1 0x0 PUSH2 0x1983 DUP4 DUP4 PUSH2 0xDDE JUMP JUMPDEST PUSH2 0x1A01 JUMPI PUSH1 0x0 DUP4 DUP2 MSTORE PUSH1 0x20 DUP2 DUP2 MSTORE PUSH1 0x40 DUP1 DUP4 KECCAK256 PUSH1 0x1 PUSH1 0x1 PUSH1 0xA0 SHL SUB DUP7 AND DUP5 MSTORE SWAP1 SWAP2 MSTORE SWAP1 KECCAK256 DUP1 SLOAD PUSH1 0xFF NOT AND PUSH1 0x1 OR SWAP1 SSTORE PUSH2 0x19B9 CALLER SWAP1 JUMP JUMPDEST PUSH1 0x1 PUSH1 0x1 PUSH1 0xA0 SHL SUB AND DUP3 PUSH1 0x1 PUSH1 0x1 PUSH1 0xA0 SHL SUB AND DUP5 PUSH32 0x2F8788117E7EFF1D82E926EC794901D17C78024A50270940304540A733656F0D PUSH1 0x40 MLOAD PUSH1 0x40 MLOAD DUP1 SWAP2 SUB SWAP1 LOG4 POP PUSH1 0x1 PUSH2 0x6AC JUMP JUMPDEST POP PUSH1 0x0 PUSH2 0x6AC JUMP JUMPDEST PUSH1 0x0 PUSH2 0x1A15 DUP4 DUP4 PUSH2 0xDDE JUMP JUMPDEST ISZERO PUSH2 0x1A01 JUMPI PUSH1 0x0 DUP4 DUP2 MSTORE PUSH1 0x20 DUP2 DUP2 MSTORE PUSH1 0x40 DUP1 DUP4 KECCAK256 PUSH1 0x1 PUSH1 0x1 PUSH1 0xA0 SHL SUB DUP7 AND DUP1 DUP6 MSTORE SWAP3 MSTORE DUP1 DUP4 KECCAK256 DUP1 SLOAD PUSH1 0xFF NOT AND SWAP1 SSTORE MLOAD CALLER SWAP3 DUP7 SWAP2 PUSH32 0xF6391F5C32D9C69D2A47EA670B442974B53935D1EDC7FD64EB21E047A839171B SWAP2 SWAP1 LOG4 POP PUSH1 0x1 PUSH2 0x6AC JUMP JUMPDEST PUSH2 0x1A7C PUSH2 0x1C02 JUMP JUMPDEST PUSH1 0x2 DUP1 SLOAD PUSH1 0xFF NOT AND SWAP1 SSTORE PUSH32 0x5DB9EE0A495BF2E6FF9C91A7834C1BA4FDD244A5E8AA4E537BD38AEAE4B073AA CALLER JUMPDEST PUSH1 0x40 MLOAD PUSH1 0x1 PUSH1 0x1 PUSH1 0xA0 SHL SUB SWAP1 SWAP2 AND DUP2 MSTORE PUSH1 0x20 ADD PUSH1 0x40 MLOAD DUP1 SWAP2 SUB SWAP1 LOG1 JUMP JUMPDEST PUSH2 0x1ACE PUSH2 0x1C25 JUMP JUMPDEST PUSH1 0x2 DUP1 SLOAD PUSH1 0xFF NOT AND PUSH1 0x1 OR SWAP1 SSTORE PUSH32 0x62E78CEA01BEE320CD4E420270B5EA74000D11B0C9F74754EBDBFC544B05A258 PUSH2 0x1AA9 CALLER SWAP1 JUMP JUMPDEST PUSH1 0x40 MLOAD PUSH1 0x1 PUSH1 0x1 PUSH1 0xA0 SHL SUB DUP4 DUP2 AND PUSH1 0x24 DUP4 ADD MSTORE PUSH1 0x44 DUP3 ADD DUP4 SWAP1 MSTORE PUSH2 0xCC2 SWAP2 DUP6 SWAP2 DUP3 AND SWAP1 PUSH4 0xA9059CBB SWAP1 PUSH1 0x64 ADD JUMPDEST PUSH1 0x40 MLOAD PUSH1 0x20 DUP2 DUP4 SUB SUB DUP2 MSTORE SWAP1 PUSH1 0x40 MSTORE SWAP2 POP PUSH1 0xE0 SHL PUSH1 0x20 DUP3 ADD DUP1 MLOAD PUSH1 0x1 PUSH1 0x1 PUSH1 0xE0 SHL SUB DUP4 DUP2 DUP4 AND OR DUP4 MSTORE POP POP POP POP PUSH2 0x1C49 JUMP JUMPDEST PUSH1 0x2 PUSH1 0x1 SLOAD SUB PUSH2 0x1B85 JUMPI PUSH1 0x40 MLOAD PUSH4 0x3EE5AEB5 PUSH1 0xE0 SHL DUP2 MSTORE PUSH1 0x4 ADD PUSH1 0x40 MLOAD DUP1 SWAP2 SUB SWAP1 REVERT JUMPDEST PUSH1 0x2 PUSH1 0x1 SSTORE JUMP JUMPDEST PUSH1 0x40 MLOAD PUSH1 0x1 PUSH1 0x1 PUSH1 0xA0 SHL SUB DUP5 DUP2 AND PUSH1 0x24 DUP4 ADD MSTORE DUP4 DUP2 AND PUSH1 0x44 DUP4 ADD MSTORE PUSH1 0x64 DUP3 ADD DUP4 SWAP1 MSTORE PUSH2 0xC89 SWAP2 DUP7 SWAP2 DUP3 AND SWAP1 PUSH4 0x23B872DD SWAP1 PUSH1 0x84 ADD PUSH2 0x1B30 JUMP JUMPDEST PUSH2 0x1BCF DUP3 DUP3 PUSH2 0xDDE JUMP JUMPDEST PUSH2 0x1BFE JUMPI PUSH1 0x40 MLOAD PUSH4 0xE2517D3F PUSH1 0xE0 SHL DUP2 MSTORE PUSH1 0x1 PUSH1 0x1 PUSH1 0xA0 SHL SUB DUP3 AND PUSH1 0x4 DUP3 ADD MSTORE PUSH1 0x24 DUP2 ADD DUP4 SWAP1 MSTORE PUSH1 0x44 ADD PUSH2 0x7B8 JUMP JUMPDEST POP POP JUMP JUMPDEST PUSH1 0x2 SLOAD PUSH1 0xFF AND PUSH2 0xD34 JUMPI PUSH1 0x40 MLOAD PUSH4 0x8DFC202B PUSH1 0xE0 SHL DUP2 MSTORE PUSH1 0x4 ADD PUSH1 0x40 MLOAD DUP1 SWAP2 SUB SWAP1 REVERT JUMPDEST PUSH1 0x2 SLOAD PUSH1 0xFF AND ISZERO PUSH2 0xD34 JUMPI PUSH1 0x40 MLOAD PUSH4 0xD93C0665 PUSH1 0xE0 SHL DUP2 MSTORE PUSH1 0x4 ADD PUSH1 0x40 MLOAD DUP1 SWAP2 SUB SWAP1 REVERT JUMPDEST PUSH1 0x0 DUP1 PUSH1 0x20 PUSH1 0x0 DUP5 MLOAD PUSH1 0x20 DUP7 ADD PUSH1 0x0 DUP9 GAS CALL DUP1 PUSH2 0x1C6C JUMPI PUSH1 0x40 MLOAD RETURNDATASIZE PUSH1 0x0 DUP3 RETURNDATACOPY RETURNDATASIZE DUP2 REVERT JUMPDEST POP POP PUSH1 0x0 MLOAD RETURNDATASIZE SWAP2 POP DUP2 ISZERO PUSH2 0x1C84 JUMPI DUP1 PUSH1 0x1 EQ ISZERO PUSH2 0x1C91 JUMP JUMPDEST PUSH1 0x1 PUSH1 0x1 PUSH1 0xA0 SHL SUB DUP5 AND EXTCODESIZE ISZERO JUMPDEST ISZERO PUSH2 0xC89 JUMPI PUSH1 0x40 MLOAD PUSH4 0x5274AFE7 PUSH1 0xE0 SHL DUP2 MSTORE PUSH1 0x1 PUSH1 0x1 PUSH1 0xA0 SHL SUB DUP6 AND PUSH1 0x4 DUP3 ADD MSTORE PUSH1 0x24 ADD PUSH2 0x7B8 JUMP JUMPDEST PUSH1 0x0 PUSH1 0x20 DUP3 DUP5 SUB SLT ISZERO PUSH2 0x1CCC JUMPI PUSH1 0x0 DUP1 REVERT JUMPDEST DUP2 CALLDATALOAD PUSH1 0x1 PUSH1 0x1 PUSH1 0xE0 SHL SUB NOT DUP2 AND DUP2 EQ PUSH2 0x1CE4 JUMPI PUSH1 0x0 DUP1 REVERT JUMPDEST SWAP4 SWAP3 POP POP POP JUMP JUMPDEST DUP1 CALLDATALOAD PUSH1 0x1 PUSH1 0x1 PUSH1 0xA0 SHL SUB DUP2 AND DUP2 EQ PUSH2 0x1D02 JUMPI PUSH1 0x0 DUP1 REVERT JUMPDEST SWAP2 SWAP1 POP JUMP JUMPDEST PUSH1 0x0 DUP1 PUSH1 0x40 DUP4 DUP6 SUB SLT ISZERO PUSH2 0x1D1A JUMPI PUSH1 0x0 DUP1 REVERT JUMPDEST PUSH2 0x1D23 DUP4 PUSH2 0x1CEB JUMP JUMPDEST SWAP2 POP PUSH2 0x1D31 PUSH1 0x20 DUP5 ADD PUSH2 0x1CEB JUMP JUMPDEST SWAP1 POP SWAP3 POP SWAP3 SWAP1 POP JUMP JUMPDEST PUSH1 0x0 PUSH1 0x20 DUP3 DUP5 SUB SLT ISZERO PUSH2 0x1D4C JUMPI PUSH1 0x0 DUP1 REVERT JUMPDEST POP CALLDATALOAD SWAP2 SWAP1 POP JUMP JUMPDEST PUSH1 0x0 DUP2 MLOAD DUP1 DUP5 MSTORE PUSH1 0x0 JUMPDEST DUP2 DUP2 LT ISZERO PUSH2 0x1D79 JUMPI PUSH1 0x20 DUP2 DUP6 ADD DUP2 ADD MLOAD DUP7 DUP4 ADD DUP3 ADD MSTORE ADD PUSH2 0x1D5D JUMP JUMPDEST POP PUSH1 0x0 PUSH1 0x20 DUP3 DUP7 ADD ADD MSTORE PUSH1 0x20 PUSH1 0x1F NOT PUSH1 0x1F DUP4 ADD AND DUP6 ADD ADD SWAP2 POP POP SWAP3 SWAP2 POP POP JUMP JUMPDEST PUSH1 0x1 PUSH1 0x1 PUSH1 0xA0 SHL SUB DUP9 AND DUP2 MSTORE PUSH1 0xE0 PUSH1 0x20 DUP3 ADD DUP2 SWAP1 MSTORE PUSH1 0x0 SWAP1 PUSH2 0x1DBD SWAP1 DUP4 ADD DUP10 PUSH2 0x1D53 JUMP JUMPDEST SWAP7 ISZERO ISZERO PUSH1 0x40 DUP4 ADD MSTORE POP PUSH1 0x60 DUP2 ADD SWAP5 SWAP1 SWAP5 MSTORE PUSH1 0x80 DUP5 ADD SWAP3 SWAP1 SWAP3 MSTORE PUSH1 0xA0 DUP4 ADD MSTORE PUSH1 0xC0 SWAP1 SWAP2 ADD MSTORE SWAP3 SWAP2 POP POP JUMP JUMPDEST DUP1 CALLDATALOAD DUP1 ISZERO ISZERO DUP2 EQ PUSH2 0x1D02 JUMPI PUSH1 0x0 DUP1 REVERT JUMPDEST PUSH1 0x0 DUP1 PUSH1 0x0 DUP1 PUSH1 0x0 PUSH1 0xA0 DUP7 DUP9 SUB SLT ISZERO PUSH2 0x1E0F JUMPI PUSH1 0x0 DUP1 REVERT JUMPDEST PUSH2 0x1E18 DUP7 PUSH2 0x1CEB JUMP JUMPDEST SWAP5 POP PUSH1 0x20 DUP7 ADD CALLDATALOAD SWAP4 POP PUSH1 0x40 DUP7 ADD CALLDATALOAD SWAP3 POP PUSH1 0x60 DUP7 ADD CALLDATALOAD SWAP2 POP PUSH2 0x1E3B PUSH1 0x80 DUP8 ADD PUSH2 0x1DE7 JUMP JUMPDEST SWAP1 POP SWAP3 SWAP6 POP SWAP3 SWAP6 SWAP1 SWAP4 POP JUMP JUMPDEST PUSH1 0x0 PUSH1 0x20 DUP3 DUP5 SUB SLT ISZERO PUSH2 0x1E59 JUMPI PUSH1 0x0 DUP1 REVERT JUMPDEST PUSH2 0x1CE4 DUP3 PUSH2 0x1CEB JUMP JUMPDEST PUSH1 0x0 DUP1 PUSH1 0x40 DUP4 DUP6 SUB SLT ISZERO PUSH2 0x1E75 JUMPI PUSH1 0x0 DUP1 REVERT JUMPDEST PUSH2 0x1E7E DUP4 PUSH2 0x1CEB JUMP JUMPDEST SWAP5 PUSH1 0x20 SWAP4 SWAP1 SWAP4 ADD CALLDATALOAD SWAP4 POP POP POP JUMP JUMPDEST PUSH1 0x0 DUP1 PUSH1 0x40 DUP4 DUP6 SUB SLT ISZERO PUSH2 0x1E9F JUMPI PUSH1 0x0 DUP1 REVERT JUMPDEST DUP3 CALLDATALOAD SWAP2 POP PUSH2 0x1D31 PUSH1 0x20 DUP5 ADD PUSH2 0x1CEB JUMP JUMPDEST PUSH1 0x20 DUP1 DUP3 MSTORE DUP3 MLOAD DUP3 DUP3 ADD DUP2 SWAP1 MSTORE PUSH1 0x0 SWAP2 SWAP1 DUP5 DUP3 ADD SWAP1 PUSH1 0x40 DUP6 ADD SWAP1 DUP5 JUMPDEST DUP2 DUP2 LT ISZERO PUSH2 0x1EE7 JUMPI DUP4 MLOAD DUP4 MSTORE SWAP3 DUP5 ADD SWAP3 SWAP2 DUP5 ADD SWAP2 PUSH1 0x1 ADD PUSH2 0x1ECB JUMP JUMPDEST POP SWAP1 SWAP7 SWAP6 POP POP POP POP POP POP JUMP JUMPDEST PUSH1 0x0 DUP1 PUSH1 0x0 PUSH1 0x60 DUP5 DUP7 SUB SLT ISZERO PUSH2 0x1F08 JUMPI PUSH1 0x0 DUP1 REVERT JUMPDEST PUSH2 0x1F11 DUP5 PUSH2 0x1CEB JUMP JUMPDEST SWAP6 PUSH1 0x20 DUP6 ADD CALLDATALOAD SWAP6 POP PUSH1 0x40 SWAP1 SWAP5 ADD CALLDATALOAD SWAP4 SWAP3 POP POP POP JUMP JUMPDEST PUSH4 0x4E487B71 PUSH1 0xE0 SHL PUSH1 0x0 MSTORE PUSH1 0x41 PUSH1 0x4 MSTORE PUSH1 0x24 PUSH1 0x0 REVERT JUMPDEST PUSH1 0x0 DUP3 PUSH1 0x1F DUP4 ADD SLT PUSH2 0x1F4D JUMPI PUSH1 0x0 DUP1 REVERT JUMPDEST DUP2 CALLDATALOAD PUSH8 0xFFFFFFFFFFFFFFFF DUP1 DUP3 GT ISZERO PUSH2 0x1F68 JUMPI PUSH2 0x1F68 PUSH2 0x1F26 JUMP JUMPDEST PUSH1 0x40 MLOAD PUSH1 0x1F DUP4 ADD PUSH1 0x1F NOT SWAP1 DUP2 AND PUSH1 0x3F ADD AND DUP2 ADD SWAP1 DUP3 DUP3 GT DUP2 DUP4 LT OR ISZERO PUSH2 0x1F90 JUMPI PUSH2 0x1F90 PUSH2 0x1F26 JUMP JUMPDEST DUP2 PUSH1 0x40 MSTORE DUP4 DUP2 MSTORE DUP7 PUSH1 0x20 DUP6 DUP9 ADD ADD GT ISZERO PUSH2 0x1FA9 JUMPI PUSH1 0x0 DUP1 REVERT JUMPDEST DUP4 PUSH1 0x20 DUP8 ADD PUSH1 0x20 DUP4 ADD CALLDATACOPY PUSH1 0x0 PUSH1 0x20 DUP6 DUP4 ADD ADD MSTORE DUP1 SWAP5 POP POP POP POP POP SWAP3 SWAP2 POP POP JUMP JUMPDEST PUSH1 0x0 DUP1 PUSH1 0x0 PUSH1 0x60 DUP5 DUP7 SUB SLT ISZERO PUSH2 0x1FDE JUMPI PUSH1 0x0 DUP1 REVERT JUMPDEST PUSH2 0x1FE7 DUP5 PUSH2 0x1CEB JUMP JUMPDEST SWAP3 POP PUSH1 0x20 DUP5 ADD CALLDATALOAD SWAP2 POP PUSH1 0x40 DUP5 ADD CALLDATALOAD PUSH8 0xFFFFFFFFFFFFFFFF DUP2 GT ISZERO PUSH2 0x200A JUMPI PUSH1 0x0 DUP1 REVERT JUMPDEST PUSH2 0x2016 DUP7 DUP3 DUP8 ADD PUSH2 0x1F3C JUMP JUMPDEST SWAP2 POP POP SWAP3 POP SWAP3 POP SWAP3 JUMP JUMPDEST PUSH1 0x0 DUP1 PUSH1 0x0 DUP1 PUSH1 0x0 PUSH1 0xA0 DUP7 DUP9 SUB SLT ISZERO PUSH2 0x2038 JUMPI PUSH1 0x0 DUP1 REVERT JUMPDEST PUSH2 0x2041 DUP7 PUSH2 0x1CEB JUMP JUMPDEST SWAP5 POP PUSH1 0x20 DUP7 ADD CALLDATALOAD PUSH8 0xFFFFFFFFFFFFFFFF DUP2 GT ISZERO PUSH2 0x205D JUMPI PUSH1 0x0 DUP1 REVERT JUMPDEST PUSH2 0x2069 DUP9 DUP3 DUP10 ADD PUSH2 0x1F3C JUMP JUMPDEST SWAP6 SWAP9 SWAP6 SWAP8 POP POP POP POP PUSH1 0x40 DUP5 ADD CALLDATALOAD SWAP4 PUSH1 0x60 DUP2 ADD CALLDATALOAD SWAP4 PUSH1 0x80 SWAP1 SWAP2 ADD CALLDATALOAD SWAP3 POP SWAP1 POP JUMP JUMPDEST PUSH1 0x20 DUP1 DUP3 MSTORE DUP3 MLOAD DUP3 DUP3 ADD DUP2 SWAP1 MSTORE PUSH1 0x0 SWAP2 SWAP1 DUP5 DUP3 ADD SWAP1 PUSH1 0x40 DUP6 ADD SWAP1 DUP5 JUMPDEST DUP2 DUP2 LT ISZERO PUSH2 0x1EE7 JUMPI DUP4 MLOAD PUSH1 0x1 PUSH1 0x1 PUSH1 0xA0 SHL SUB AND DUP4 MSTORE SWAP3 DUP5 ADD SWAP3 SWAP2 DUP5 ADD SWAP2 PUSH1 0x1 ADD PUSH2 0x20A5 JUMP JUMPDEST PUSH1 0x0 DUP1 PUSH1 0x0 PUSH1 0x60 DUP5 DUP7 SUB SLT ISZERO PUSH2 0x20DF JUMPI PUSH1 0x0 DUP1 REVERT JUMPDEST DUP4 CALLDATALOAD SWAP3 POP PUSH2 0x20EF PUSH1 0x20 DUP6 ADD PUSH2 0x1DE7 JUMP JUMPDEST SWAP2 POP PUSH1 0x40 DUP5 ADD CALLDATALOAD SWAP1 POP SWAP3 POP SWAP3 POP SWAP3 JUMP JUMPDEST PUSH1 0x1 DUP2 DUP2 SHR SWAP1 DUP3 AND DUP1 PUSH2 0x2113 JUMPI PUSH1 0x7F DUP3 AND SWAP2 POP JUMPDEST PUSH1 0x20 DUP3 LT DUP2 SUB PUSH2 0x2133 JUMPI PUSH4 0x4E487B71 PUSH1 0xE0 SHL PUSH1 0x0 MSTORE PUSH1 0x22 PUSH1 0x4 MSTORE PUSH1 0x24 PUSH1 0x0 REVERT JUMPDEST POP SWAP2 SWAP1 POP JUMP JUMPDEST PUSH1 0x20 DUP1 DUP3 MSTORE PUSH1 0x22 SWAP1 DUP3 ADD MSTORE PUSH32 0x44654641494D616E616765723A206D75737420686176652061646D696E20726F PUSH1 0x40 DUP3 ADD MSTORE PUSH2 0x6C65 PUSH1 0xF0 SHL PUSH1 0x60 DUP3 ADD MSTORE PUSH1 0x80 ADD SWAP1 JUMP JUMPDEST PUSH1 0x20 DUP1 DUP3 MSTORE PUSH1 0x29 SWAP1 DUP3 ADD MSTORE PUSH32 0x44654641494D616E616765723A20757365722063616E6E6F74206265207A6572 PUSH1 0x40 DUP3 ADD MSTORE PUSH9 0x6F2061646472657373 PUSH1 0xB8 SHL PUSH1 0x60 DUP3 ADD MSTORE PUSH1 0x80 ADD SWAP1 JUMP JUMPDEST PUSH1 0x20 DUP1 DUP3 MSTORE PUSH1 0x25 SWAP1 DUP3 ADD MSTORE PUSH32 0x44654641494D616E616765723A206D7573742068617665206F70657261746F72 PUSH1 0x40 DUP3 ADD MSTORE PUSH5 0x20726F6C65 PUSH1 0xD8 SHL PUSH1 0x60 DUP3 ADD MSTORE PUSH1 0x80 ADD SWAP1 JUMP JUMPDEST PUSH1 0x20 DUP1 DUP3 MSTORE PUSH1 0x22 SWAP1 DUP3 ADD MSTORE PUSH32 0x44654641494D616E616765723A20706F7274666F6C696F206E6F742061637469 PUSH1 0x40 DUP3 ADD MSTORE PUSH2 0x7665 PUSH1 0xF0 SHL PUSH1 0x60 DUP3 ADD MSTORE PUSH1 0x80 ADD SWAP1 JUMP JUMPDEST PUSH4 0x4E487B71 PUSH1 0xE0 SHL PUSH1 0x0 MSTORE PUSH1 0x32 PUSH1 0x4 MSTORE PUSH1 0x24 PUSH1 0x0 REVERT JUMPDEST PUSH4 0x4E487B71 PUSH1 0xE0 SHL PUSH1 0x0 MSTORE PUSH1 0x11 PUSH1 0x4 MSTORE PUSH1 0x24 PUSH1 0x0 REVERT JUMPDEST PUSH1 0x0 PUSH1 0x1 DUP3 ADD PUSH2 0x2289 JUMPI PUSH2 0x2289 PUSH2 0x2261 JUMP JUMPDEST POP PUSH1 0x1 ADD SWAP1 JUMP JUMPDEST DUP2 DUP2 SUB DUP2 DUP2 GT ISZERO PUSH2 0x6AC JUMPI PUSH2 0x6AC PUSH2 0x2261 JUMP JUMPDEST DUP1 DUP3 MUL DUP2 ISZERO DUP3 DUP3 DIV DUP5 EQ OR PUSH2 0x6AC JUMPI PUSH2 0x6AC PUSH2 0x2261 JUMP JUMPDEST PUSH1 0x0 DUP3 PUSH2 0x22D7 JUMPI PUSH4 0x4E487B71 PUSH1 0xE0 SHL PUSH1 0x0 MSTORE PUSH1 0x12 PUSH1 0x4 MSTORE PUSH1 0x24 PUSH1 0x0 REVERT JUMPDEST POP DIV SWAP1 JUMP JUMPDEST DUP1 DUP3 ADD DUP1 DUP3 GT ISZERO PUSH2 0x6AC JUMPI PUSH2 0x6AC PUSH2 0x2261 JUMP JUMPDEST PUSH1 0x20 DUP1 DUP3 MSTORE PUSH1 0x2B SWAP1 DUP3 ADD MSTORE PUSH32 0x44654641494D616E616765723A20616D6F756E74206D75737420626520677265 PUSH1 0x40 DUP3 ADD MSTORE PUSH11 0x61746572207468616E203 PUSH1 0xAC SHL PUSH1 0x60 DUP3 ADD MSTORE PUSH1 0x80 ADD SWAP1 JUMP JUMPDEST PUSH1 0x0 PUSH1 0x20 DUP3 DUP5 SUB SLT ISZERO PUSH2 0x234C JUMPI PUSH1 0x0 DUP1 REVERT JUMPDEST POP MLOAD SWAP2 SWAP1 POP JUMP JUMPDEST DUP3 DUP2 MSTORE PUSH1 0x40 PUSH1 0x20 DUP3 ADD MSTORE PUSH1 0x0 PUSH2 0x236C PUSH1 0x40 DUP4 ADD DUP5 PUSH2 0x1D53 JUMP JUMPDEST SWAP5 SWAP4 POP POP POP POP JUMP JUMPDEST PUSH1 0x1F DUP3 GT ISZERO PUSH2 0xCC2 JUMPI PUSH1 0x0 DUP2 DUP2 MSTORE PUSH1 0x20 DUP2 KECCAK256 PUSH1 0x1F DUP6 ADD PUSH1 0x5 SHR DUP2 ADD PUSH1 0x20 DUP7 LT ISZERO PUSH2 0x239B JUMPI POP DUP1 JUMPDEST PUSH1 0x1F DUP6 ADD PUSH1 0x5 SHR DUP3 ADD SWAP2 POP JUMPDEST DUP2 DUP2 LT ISZERO PUSH2 0xF49 JUMPI DUP3 DUP2 SSTORE PUSH1 0x1 ADD PUSH2 0x23A7 JUMP JUMPDEST DUP2 MLOAD PUSH8 0xFFFFFFFFFFFFFFFF DUP2 GT ISZERO PUSH2 0x23D4 JUMPI PUSH2 0x23D4 PUSH2 0x1F26 JUMP JUMPDEST PUSH2 0x23E8 DUP2 PUSH2 0x23E2 DUP5 SLOAD PUSH2 0x20FF JUMP JUMPDEST DUP5 PUSH2 0x2374 JUMP JUMPDEST PUSH1 0x20 DUP1 PUSH1 0x1F DUP4 GT PUSH1 0x1 DUP2 EQ PUSH2 0x241D JUMPI PUSH1 0x0 DUP5 ISZERO PUSH2 0x2405 JUMPI POP DUP6 DUP4 ADD MLOAD JUMPDEST PUSH1 0x0 NOT PUSH1 0x3 DUP7 SWAP1 SHL SHR NOT AND PUSH1 0x1 DUP6 SWAP1 SHL OR DUP6 SSTORE PUSH2 0xF49 JUMP JUMPDEST PUSH1 0x0 DUP6 DUP2 MSTORE PUSH1 0x20 DUP2 KECCAK256 PUSH1 0x1F NOT DUP7 AND SWAP2 JUMPDEST DUP3 DUP2 LT ISZERO PUSH2 0x244C JUMPI DUP9 DUP7 ADD MLOAD DUP3 SSTORE SWAP5 DUP5 ADD SWAP5 PUSH1 0x1 SWAP1 SWAP2 ADD SWAP1 DUP5 ADD PUSH2 0x242D JUMP JUMPDEST POP DUP6 DUP3 LT ISZERO PUSH2 0x246A JUMPI DUP8 DUP6 ADD MLOAD PUSH1 0x0 NOT PUSH1 0x3 DUP9 SWAP1 SHL PUSH1 0xF8 AND SHR NOT AND DUP2 SSTORE JUMPDEST POP POP POP POP POP PUSH1 0x1 SWAP1 DUP2 SHL ADD SWAP1 SSTORE POP JUMP JUMPDEST PUSH1 0x1 PUSH1 0x1 PUSH1 0xA0 SHL SUB DUP4 AND DUP2 MSTORE PUSH1 0x40 PUSH1 0x20 DUP3 ADD DUP2 SWAP1 MSTORE PUSH1 0x0 SWAP1 PUSH2 0x236C SWAP1 DUP4 ADD DUP5 PUSH2 0x1D53 JUMP INVALID SWAP8 PUSH7 0x7070C54EF182B0 CREATE2 DUP6 DUP12 SUB 0x4B 0xEA 0xC1 0xB6 RETURN ADDMOD SWAP11 LOG2 0xD3 XOR DUP12 0xB1 0xE8 SWAP3 SWAP16 0x4F 0xA9 0xB9 0x29 LOG4 SWAP9 SMOD KECCAK256 0x5C 0xE4 0xD3 SSTORE MULMOD 0x2E CREATE2 0xA8 LOG1 DUP16 JUMP 0xE8 SWAP2 EXTCODECOPY DELEGATECALL LOG2 ADD 0xFB 0xE2 DUP8 DUP3 JUMPDEST MULMOD JUMP SWAP4 0xC2 OR PUSH22 0xA2646970667358221220E7BF482D76C99394C3DDD802 PUSH19 0xFEC3E7BAA6CC2F401381B47709C502242384C4 PUSH5 0x736F6C6343 STOP ADDMOD EQ STOP CALLER "},"methodIdentifiers":{"ADMIN_ROLE()":"75b238fc","DEFAULT_ADMIN_ROLE()":"a217fddf","EMERGENCY_ROLE()":"20df4359","OPERATOR_ROLE()":"f5b541a6","STRATEGY_ROLE()":"580b7c2e","addYieldStrategy(address,string,uint256,uint256,uint256)":"c9a61362","collectFees(address,uint256,uint256)":"9c81744a","createPortfolio(address,uint256)":"22d9bc6f","emergencyWithdrawal(address,uint256,string)":"baef4169","feeRecipient()":"46904840","getRoleAdmin(bytes32)":"248a9ca3","getSupportedTokens()":"d3c7c2c7","getTotalStrategies()":"99fe7396","getUserStrategies(address)":"79f02fd4","grantRole(bytes32,address)":"2f2ff15d","hasRole(bytes32,address)":"91d14854","managementFeePercentage()":"a3714c2d","nexusToken()":"78f337e7","optimizeYield(address,uint256,uint256)":"a234143a","pause()":"8456cb59","paused()":"5c975abb","performanceFeePercentage()":"f4457fab","portfolioSupportedTokens(address,uint256)":"b256b833","portfolioTokenBalances(address,address)":"06271172","portfolios(address)":"7baab3da","potToken()":"ce33de7f","rebalancePortfolio(address)":"1a3075cc","renounceRole(bytes32,address)":"36568abe","revokeRole(bytes32,address)":"d547741f","riskProfiles(address)":"9948b18d","supportedTokens(address)":"68c4ac26","supportsInterface(bytes4)":"01ffc9a7","tokenList(uint256)":"9ead7222","unpause()":"3f4ba83a","updateRiskProfile(address,uint256,uint256,uint256,bool)":"12cd2297","updateStrategy(uint256,bool,uint256)":"ec6fec1f","userStrategies(address,uint256)":"3e9f9e49","userYield(address)":"7e562904","yieldStrategies(uint256)":"0ccb091d"}}}}}