{"contracts/PoTToken.sol":{"PoTToken":{"abi":[{"inputs":[],"stateMutability":"nonpayable","type":"constructor"},{"inputs":[],"name":"AccessControlBadConfirmation","type":"error"},{"inputs":[{"internalType":"address","name":"account","type":"address"},{"internalType":"bytes32","name":"neededRole","type":"bytes32"}],"name":"AccessControlUnauthorizedAccount","type":"error"},{"inputs":[{"internalType":"address","name":"spender","type":"address"},{"internalType":"uint256","name":"allowance","type":"uint256"},{"internalType":"uint256","name":"needed","type":"uint256"}],"name":"ERC20InsufficientAllowance","type":"error"},{"inputs":[{"internalType":"address","name":"sender","type":"address"},{"internalType":"uint256","name":"balance","type":"uint256"},{"internalType":"uint256","name":"needed","type":"uint256"}],"name":"ERC20InsufficientBalance","type":"error"},{"inputs":[{"internalType":"address","name":"approver","type":"address"}],"name":"ERC20InvalidApprover","type":"error"},{"inputs":[{"internalType":"address","name":"receiver","type":"address"}],"name":"ERC20InvalidReceiver","type":"error"},{"inputs":[{"internalType":"address","name":"sender","type":"address"}],"name":"ERC20InvalidSender","type":"error"},{"inputs":[{"internalType":"address","name":"spender","type":"address"}],"name":"ERC20InvalidSpender","type":"error"},{"inputs":[],"name":"EnforcedPause","type":"error"},{"inputs":[],"name":"ExpectedPause","type":"error"},{"inputs":[],"name":"ReentrancyGuardReentrantCall","type":"error"},{"anonymous":false,"inputs":[{"indexed":true,"internalType":"address","name":"owner","type":"address"},{"indexed":true,"internalType":"address","name":"spender","type":"address"},{"indexed":false,"internalType":"uint256","name":"value","type":"uint256"}],"name":"Approval","type":"event"},{"anonymous":false,"inputs":[{"indexed":false,"internalType":"address","name":"account","type":"address"}],"name":"Paused","type":"event"},{"anonymous":false,"inputs":[{"indexed":true,"internalType":"address","name":"user","type":"address"},{"indexed":false,"internalType":"uint256","name":"amount","type":"uint256"},{"indexed":false,"internalType":"string","name":"reason","type":"string"}],"name":"PenaltyApplied","type":"event"},{"anonymous":false,"inputs":[{"indexed":true,"internalType":"address","name":"user","type":"address"},{"indexed":false,"internalType":"uint256","name":"amount","type":"uint256"},{"indexed":false,"internalType":"enum PoTToken.RewardCategory","name":"category","type":"uint8"},{"indexed":false,"internalType":"string","name":"reason","type":"string"},{"indexed":false,"internalType":"uint256","name":"trustScore","type":"uint256"}],"name":"RewardMinted","type":"event"},{"anonymous":false,"inputs":[{"indexed":true,"internalType":"bytes32","name":"role","type":"bytes32"},{"indexed":true,"internalType":"bytes32","name":"previousAdminRole","type":"bytes32"},{"indexed":true,"internalType":"bytes32","name":"newAdminRole","type":"bytes32"}],"name":"RoleAdminChanged","type":"event"},{"anonymous":false,"inputs":[{"indexed":true,"internalType":"bytes32","name":"role","type":"bytes32"},{"indexed":true,"internalType":"address","name":"account","type":"address"},{"indexed":true,"internalType":"address","name":"sender","type":"address"}],"name":"RoleGranted","type":"event"},{"anonymous":false,"inputs":[{"indexed":true,"internalType":"bytes32","name":"role","type":"bytes32"},{"indexed":true,"internalType":"address","name":"account","type":"address"},{"indexed":true,"internalType":"address","name":"sender","type":"address"}],"name":"RoleRevoked","type":"event"},{"anonymous":false,"inputs":[{"indexed":true,"internalType":"address","name":"from","type":"address"},{"indexed":true,"internalType":"address","name":"to","type":"address"},{"indexed":false,"internalType":"uint256","name":"value","type":"uint256"}],"name":"Transfer","type":"event"},{"anonymous":false,"inputs":[{"indexed":true,"internalType":"address","name":"user","type":"address"},{"indexed":false,"internalType":"uint256","name":"newScore","type":"uint256"},{"indexed":false,"internalType":"string","name":"reason","type":"string"}],"name":"TrustScoreUpdated","type":"event"},{"anonymous":false,"inputs":[{"indexed":false,"internalType":"address","name":"account","type":"address"}],"name":"Unpaused","type":"event"},{"inputs":[],"name":"ADMIN_ROLE","outputs":[{"internalType":"bytes32","name":"","type":"bytes32"}],"stateMutability":"view","type":"function"},{"inputs":[],"name":"BURNER_ROLE","outputs":[{"internalType":"bytes32","name":"","type":"bytes32"}],"stateMutability":"view","type":"function"},{"inputs":[],"name":"DEFAULT_ADMIN_ROLE","outputs":[{"internalType":"bytes32","name":"","type":"bytes32"}],"stateMutability":"view","type":"function"},{"inputs":[],"name":"MAX_SUPPLY","outputs":[{"internalType":"uint256","name":"","type":"uint256"}],"stateMutability":"view","type":"function"},{"inputs":[],"name":"MINTER_ROLE","outputs":[{"internalType":"bytes32","name":"","type":"bytes32"}],"stateMutability":"view","type":"function"},{"inputs":[],"name":"PAUSER_ROLE","outputs":[{"internalType":"bytes32","name":"","type":"bytes32"}],"stateMutability":"view","type":"function"},{"inputs":[{"internalType":"address","name":"owner","type":"address"},{"internalType":"address","name":"spender","type":"address"}],"name":"allowance","outputs":[{"internalType":"uint256","name":"","type":"uint256"}],"stateMutability":"view","type":"function"},{"inputs":[{"internalType":"address","name":"from","type":"address"},{"internalType":"uint256","name":"amount","type":"uint256"},{"internalType":"string","name":"reason","type":"string"}],"name":"applyPenalty","outputs":[],"stateMutability":"nonpayable","type":"function"},{"inputs":[{"internalType":"address","name":"spender","type":"address"},{"internalType":"uint256","name":"value","type":"uint256"}],"name":"approve","outputs":[{"internalType":"bool","name":"","type":"bool"}],"stateMutability":"nonpayable","type":"function"},{"inputs":[{"internalType":"address","name":"account","type":"address"}],"name":"balanceOf","outputs":[{"internalType":"uint256","name":"","type":"uint256"}],"stateMutability":"view","type":"function"},{"inputs":[{"internalType":"uint256","name":"value","type":"uint256"}],"name":"burn","outputs":[],"stateMutability":"nonpayable","type":"function"},{"inputs":[{"internalType":"address","name":"account","type":"address"},{"internalType":"uint256","name":"value","type":"uint256"}],"name":"burnFrom","outputs":[],"stateMutability":"nonpayable","type":"function"},{"inputs":[],"name":"decimals","outputs":[{"internalType":"uint8","name":"","type":"uint8"}],"stateMutability":"view","type":"function"},{"inputs":[{"internalType":"bytes32","name":"role","type":"bytes32"}],"name":"getRoleAdmin","outputs":[{"internalType":"bytes32","name":"","type":"bytes32"}],"stateMutability":"view","type":"function"},{"inputs":[{"internalType":"bytes32","name":"role","type":"bytes32"},{"internalType":"address","name":"account","type":"address"}],"name":"grantRole","outputs":[],"stateMutability":"nonpayable","type":"function"},{"inputs":[{"internalType":"bytes32","name":"role","type":"bytes32"},{"internalType":"address","name":"account","type":"address"}],"name":"hasRole","outputs":[{"internalType":"bool","name":"","type":"bool"}],"stateMutability":"view","type":"function"},{"inputs":[{"internalType":"address","name":"","type":"address"}],"name":"isWhitelisted","outputs":[{"internalType":"bool","name":"","type":"bool"}],"stateMutability":"view","type":"function"},{"inputs":[{"internalType":"address","name":"to","type":"address"},{"internalType":"uint256","name":"baseAmount","type":"uint256"},{"internalType":"enum PoTToken.RewardCategory","name":"category","type":"uint8"},{"internalType":"string","name":"reason","type":"string"}],"name":"mintReward","outputs":[],"stateMutability":"nonpayable","type":"function"},{"inputs":[],"name":"name","outputs":[{"internalType":"string","name":"","type":"string"}],"stateMutability":"view","type":"function"},{"inputs":[],"name":"pause","outputs":[],"stateMutability":"nonpayable","type":"function"},{"inputs":[],"name":"paused","outputs":[{"internalType":"bool","name":"","type":"bool"}],"stateMutability":"view","type":"function"},{"inputs":[{"internalType":"bytes32","name":"role","type":"bytes32"},{"internalType":"address","name":"callerConfirmation","type":"address"}],"name":"renounceRole","outputs":[],"stateMutability":"nonpayable","type":"function"},{"inputs":[{"internalType":"bytes32","name":"role","type":"bytes32"},{"internalType":"address","name":"account","type":"address"}],"name":"revokeRole","outputs":[],"stateMutability":"nonpayable","type":"function"},{"inputs":[{"internalType":"enum PoTToken.RewardCategory","name":"","type":"uint8"}],"name":"rewardMultipliers","outputs":[{"internalType":"uint256","name":"","type":"uint256"}],"stateMutability":"view","type":"function"},{"inputs":[{"internalType":"bytes4","name":"interfaceId","type":"bytes4"}],"name":"supportsInterface","outputs":[{"internalType":"bool","name":"","type":"bool"}],"stateMutability":"view","type":"function"},{"inputs":[],"name":"symbol","outputs":[{"internalType":"string","name":"","type":"string"}],"stateMutability":"view","type":"function"},{"inputs":[],"name":"totalBurned","outputs":[{"internalType":"uint256","name":"","type":"uint256"}],"stateMutability":"view","type":"function"},{"inputs":[],"name":"totalMinted","outputs":[{"internalType":"uint256","name":"","type":"uint256"}],"stateMutability":"view","type":"function"},{"inputs":[],"name":"totalSupply","outputs":[{"internalType":"uint256","name":"","type":"uint256"}],"stateMutability":"view","type":"function"},{"inputs":[{"internalType":"address","name":"to","type":"address"},{"internalType":"uint256","name":"value","type":"uint256"}],"name":"transfer","outputs":[{"internalType":"bool","name":"","type":"bool"}],"stateMutability":"nonpayable","type":"function"},{"inputs":[{"internalType":"address","name":"from","type":"address"},{"internalType":"address","name":"to","type":"address"},{"internalType":"uint256","name":"value","type":"uint256"}],"name":"transferFrom","outputs":[{"internalType":"bool","name":"","type":"bool"}],"stateMutability":"nonpayable","type":"function"},{"inputs":[{"internalType":"address","name":"","type":"address"}],"name":"trustScores","outputs":[{"internalType":"uint256","name":"score","type":"uint256"},{"internalType":"uint256","name":"lastUpdated","type":"uint256"},{"internalType":"string","name":"reason","type":"string"}],"stateMutability":"view","type":"function"},{"inputs":[],"name":"unpause","outputs":[],"stateMutability":"nonpayable","type":"function"},{"inputs":[{"internalType":"address","name":"user","type":"address"},{"internalType":"uint256","name":"newScore","type":"uint256"},{"internalType":"string","name":"reason","type":"string"}],"name":"updateTrustScore","outputs":[],"stateMutability":"nonpayable","type":"function"}],"evm":{"bytecode":{"linkReferences":{},"object":"60806040523480156200001157600080fd5b506040518060400160405280601481526020017f50726f6f66206f6620547275737420546f6b656e000000000000000000000000815250604051806040016040528060038152602001621413d560ea1b81525081600390816200007591906200036b565b5060046200008482826200036b565b50506001600755506200009960003362000213565b50620000c67fa49807205ce4d355092ef5a8a18f56e8913cf4a201fbe287825b095693c217753362000213565b50620000f37f9f2df0fed2c77648de5860a4cc508cd0818c85b8b8a1ab4ceeef8d981c8956a63362000213565b50620001207f65d7a28e3265b37a6474929f336521b332c1681b933f6cb9f3376673440d862a3362000213565b506200014d7f3c11d16cbaffd01df69ce1c404f6340ee057498f5f00246190ea54220576a8483362000213565b50600c60205260647f13649b2456f1b42fef0f0040b3aaeabcd21a76a0f3f5defd4f583839455116e85560787fd421a5181c571bba3f01190c922c3b2a896fc1d84e86c9f17ac10e67ebef8b5c5560967f5d6016397a73f5e079297ac5a36fef17b4d9c3831618e63ab105738020ddd7205560c87fc0da782485e77ae272268ae0a3ff44c1552ecb60b3743924de17a815e0a3cfd755600460005261012c7f5b84bb9e0f5aa9cc45a8bb66468db5d4816d1e75ff86b5e1f1dd8d144dab80975562000437565b60008281526006602090815260408083206001600160a01b038516845290915281205460ff16620002bc5760008381526006602090815260408083206001600160a01b03861684529091529020805460ff19166001179055620002733390565b6001600160a01b0316826001600160a01b0316847f2f8788117e7eff1d82e926ec794901d17c78024a50270940304540a733656f0d60405160405180910390a4506001620002c0565b5060005b92915050565b634e487b7160e01b600052604160045260246000fd5b600181811c90821680620002f157607f821691505b6020821081036200031257634e487b7160e01b600052602260045260246000fd5b50919050565b601f8211156200036657600081815260208120601f850160051c81016020861015620003415750805b601f850160051c820191505b8181101562000362578281556001016200034d565b5050505b505050565b81516001600160401b03811115620003875762000387620002c6565b6200039f81620003988454620002dc565b8462000318565b602080601f831160018114620003d75760008415620003be5750858301515b600019600386901b1c1916600185901b17855562000362565b600085815260208120601f198616915b828110156200040857888601518255948401946001909101908401620003e7565b5085821015620004275787850151600019600388901b60f8161c191681555b5050505050600190811b01905550565b611a7380620004476000396000f3fe608060405234801561001057600080fd5b50600436106102065760003560e01c80635c975abb1161011a578063a2309ff8116100ad578063d547741f1161007c578063d547741f14610488578063d89135cd1461049b578063dd62ed3e146104a4578063e63ab1e9146104dd578063f88da5761461050457600080fd5b8063a2309ff814610432578063a9059cbb1461043b578063c274326d1461044e578063d53913931461046157600080fd5b80638456cb59116100e95780638456cb591461040757806391d148541461040f57806395d89b4114610422578063a217fddf1461042a57600080fd5b80635c975abb1461039957806370a08231146103a457806375b238fc146103cd57806379cc6790146103f457600080fd5b8063282c51f31161019d57806336568abe1161016c57806336568abe146103355780633af32abf146103485780633f4ba83a1461036b57806342966c68146103735780634750421e1461038657600080fd5b8063282c51f3146102da5780632f2ff15d14610301578063313ce5671461031457806332cb6b0c1461032357600080fd5b806313be81d6116101d957806313be81d61461027d57806318160ddd1461029257806323b872dd146102a4578063248a9ca3146102b757600080fd5b806301ffc9a71461020b57806306fdde0314610233578063095ea7b31461024857806312df0fc41461025b575b600080fd5b61021e61021936600461147d565b610524565b60405190151581526020015b60405180910390f35b61023b61055b565b60405161022a91906114f4565b61021e610256366004611523565b6105ed565b61026e61026936600461154d565b610605565b60405161022a93929190611568565b61029061028b366004611642565b6106b0565b005b6002545b60405190815260200161022a565b61021e6102b23660046116aa565b61092d565b6102966102c53660046116e6565b60009081526006602052604090206001015490565b6102967f3c11d16cbaffd01df69ce1c404f6340ee057498f5f00246190ea54220576a84881565b61029061030f3660046116ff565b610951565b6040516012815260200161022a565b6102966a52b7d2dcc80cd2e400000081565b6102906103433660046116ff565b61097c565b61021e61035636600461154d565b600b6020526000908152604090205460ff1681565b6102906109b4565b6102906103813660046116e6565b610a34565b61029061039436600461172b565b610a41565b60055460ff1661021e565b6102966103b236600461154d565b6001600160a01b031660009081526020819052604090205490565b6102967fa49807205ce4d355092ef5a8a18f56e8913cf4a201fbe287825b095693c2177581565b610290610402366004611523565b610c1c565b610290610c35565b61021e61041d3660046116ff565b610cb3565b61023b610cde565b610296600081565b61029660085481565b61021e610449366004611523565b610ced565b61029061045c36600461172b565b610cfb565b6102967f9f2df0fed2c77648de5860a4cc508cd0818c85b8b8a1ab4ceeef8d981c8956a681565b6102906104963660046116ff565b610ed5565b61029660095481565b6102966104b2366004611782565b6001600160a01b03918216600090815260016020908152604080832093909416825291909152205490565b6102967f65d7a28e3265b37a6474929f336521b332c1681b933f6cb9f3376673440d862a81565b6102966105123660046117ac565b600c6020526000908152604090205481565b60006001600160e01b03198216637965db0b60e01b148061055557506301ffc9a760e01b6001600160e01b03198316145b92915050565b60606003805461056a906117c7565b80601f0160208091040260200160405190810160405280929190818152602001828054610596906117c7565b80156105e35780601f106105b8576101008083540402835291602001916105e3565b820191906000526020600020905b8154815290600101906020018083116105c657829003601f168201915b5050505050905090565b6000336105fb818585610efa565b5060019392505050565b600a602052600090815260409020805460018201546002830180549293919261062d906117c7565b80601f0160208091040260200160405190810160405280929190818152602001828054610659906117c7565b80156106a65780601f1061067b576101008083540402835291602001916106a6565b820191906000526020600020905b81548152906001019060200180831161068957829003601f168201915b5050505050905083565b6106da7f9f2df0fed2c77648de5860a4cc508cd0818c85b8b8a1ab4ceeef8d981c8956a633610cb3565b61072b5760405162461bcd60e51b815260206004820152601f60248201527f506f54546f6b656e3a206d7573742068617665206d696e74657220726f6c650060448201526064015b60405180910390fd5b6001600160a01b03841661078f5760405162461bcd60e51b815260206004820152602560248201527f506f54546f6b656e3a2063616e6e6f74206d696e7420746f207a65726f206164604482015264647265737360d81b6064820152608401610722565b600083116107af5760405162461bcd60e51b815260040161072290611801565b6000600c60008460048111156107c7576107c7611848565b60048111156107d8576107d8611848565b815260208082019290925260409081016000908120546001600160a01b0389168252600a909352908120549192506127106108138385611874565b61081d919061188b565b9050600061082b82856118ad565b90506000606461083b838a611874565b610845919061188b565b90506a52b7d2dcc80cd2e40000008160085461086191906118ad565b11156108b95760405162461bcd60e51b815260206004820152602160248201527f506f54546f6b656e3a20776f756c6420657863656564206d617820737570706c6044820152607960f81b6064820152608401610722565b80600860008282546108cb91906118ad565b909155506108db90508982610f07565b886001600160a01b03167fa3fba0d291771b819d77c6e5fb08d58be912f2b01b2519ced9a404c58395edc78289898860405161091a94939291906118c0565b60405180910390a2505050505050505050565b60003361093b858285610f3d565b610946858585610fb6565b506001949350505050565b60008281526006602052604090206001015461096c81611015565b610976838361101f565b50505050565b6001600160a01b03811633146109a55760405163334bd91960e11b815260040160405180910390fd5b6109af82826110b3565b505050565b6109de7f65d7a28e3265b37a6474929f336521b332c1681b933f6cb9f3376673440d862a33610cb3565b610a2a5760405162461bcd60e51b815260206004820152601f60248201527f506f54546f6b656e3a206d75737420686176652070617573657220726f6c65006044820152606401610722565b610a32611120565b565b610a3e3382611172565b50565b610a6b7fa49807205ce4d355092ef5a8a18f56e8913cf4a201fbe287825b095693c2177533610cb3565b610ab75760405162461bcd60e51b815260206004820152601e60248201527f506f54546f6b656e3a206d75737420686176652061646d696e20726f6c6500006044820152606401610722565b6001600160a01b038316610b1b5760405162461bcd60e51b815260206004820152602560248201527f506f54546f6b656e3a20757365722063616e6e6f74206265207a65726f206164604482015264647265737360d81b6064820152608401610722565b6103e8821115610b7e5760405162461bcd60e51b815260206004820152602860248201527f506f54546f6b656e3a2074727573742073636f72652063616e6e6f7420657863604482015267065656420313030360c41b6064820152608401610722565b604080516060810182528381524260208083019182528284018581526001600160a01b0388166000908152600a909252939020825181559051600182015591519091906002820190610bd0908261195c565b50905050826001600160a01b03167f80fd1bfe6decdaebe12f66d28031eded82576e3348f6ddc7df67214a351d11a08383604051610c0f929190611a1c565b60405180910390a2505050565b610c27823383610f3d565b610c318282611172565b5050565b610c5f7f65d7a28e3265b37a6474929f336521b332c1681b933f6cb9f3376673440d862a33610cb3565b610cab5760405162461bcd60e51b815260206004820152601f60248201527f506f54546f6b656e3a206d75737420686176652070617573657220726f6c65006044820152606401610722565b610a326111a8565b60009182526006602090815260408084206001600160a01b0393909316845291905290205460ff1690565b60606004805461056a906117c7565b6000336105fb818585610fb6565b610d257f3c11d16cbaffd01df69ce1c404f6340ee057498f5f00246190ea54220576a84833610cb3565b610d715760405162461bcd60e51b815260206004820152601f60248201527f506f54546f6b656e3a206d7573742068617665206275726e657220726f6c65006044820152606401610722565b6001600160a01b038316610dd75760405162461bcd60e51b815260206004820152602760248201527f506f54546f6b656e3a2063616e6e6f74206275726e2066726f6d207a65726f206044820152666164647265737360c81b6064820152608401610722565b60008211610df75760405162461bcd60e51b815260040161072290611801565b81610e17846001600160a01b031660009081526020819052604090205490565b1015610e785760405162461bcd60e51b815260206004820152602a60248201527f506f54546f6b656e3a20696e73756666696369656e742062616c616e636520666044820152696f722070656e616c747960b01b6064820152608401610722565b8160096000828254610e8a91906118ad565b90915550610e9a90508383611172565b826001600160a01b03167f09843be59cdbf0d671efa609c2c4f0105f3ba87e2a489719e8b19792a21162e38383604051610c0f929190611a1c565b600082815260066020526040902060010154610ef081611015565b61097683836110b3565b6109af83838360016111e5565b6001600160a01b038216610f315760405163ec442f0560e01b815260006004820152602401610722565b610c31600083836112ba565b6001600160a01b038381166000908152600160209081526040808320938616835292905220546000198110156109765781811015610fa757604051637dc7a0d960e11b81526001600160a01b03841660048201526024810182905260448101839052606401610722565b610976848484840360006111e5565b6001600160a01b038316610fe057604051634b637e8f60e11b815260006004820152602401610722565b6001600160a01b03821661100a5760405163ec442f0560e01b815260006004820152602401610722565b6109af8383836112ba565b610a3e81336112c5565b600061102b8383610cb3565b6110ab5760008381526006602090815260408083206001600160a01b03861684529091529020805460ff191660011790556110633390565b6001600160a01b0316826001600160a01b0316847f2f8788117e7eff1d82e926ec794901d17c78024a50270940304540a733656f0d60405160405180910390a4506001610555565b506000610555565b60006110bf8383610cb3565b156110ab5760008381526006602090815260408083206001600160a01b0386168085529252808320805460ff1916905551339286917ff6391f5c32d9c69d2a47ea670b442974b53935d1edc7fd64eb21e047a839171b9190a4506001610555565b6111286112fe565b6005805460ff191690557f5db9ee0a495bf2e6ff9c91a7834c1ba4fdd244a5e8aa4e537bd38aeae4b073aa335b6040516001600160a01b03909116815260200160405180910390a1565b6001600160a01b03821661119c57604051634b637e8f60e11b815260006004820152602401610722565b610c31826000836112ba565b6111b0611321565b6005805460ff191660011790557f62e78cea01bee320cd4e420270b5ea74000d11b0c9f74754ebdbfc544b05a2586111553390565b6001600160a01b03841661120f5760405163e602df0560e01b815260006004820152602401610722565b6001600160a01b03831661123957604051634a1406b160e11b815260006004820152602401610722565b6001600160a01b038085166000908152600160209081526040808320938716835292905220829055801561097657826001600160a01b0316846001600160a01b03167f8c5be1e5ebec7d5bd14f71427d1e84f3dd0314c0f7b2291e5b200ac8c7c3b925846040516112ac91815260200190565b60405180910390a350505050565b6109af838383611345565b6112cf8282610cb3565b610c315760405163e2517d3f60e01b81526001600160a01b038216600482015260248101839052604401610722565b60055460ff16610a3257604051638dfc202b60e01b815260040160405180910390fd5b60055460ff1615610a325760405163d93c066560e01b815260040160405180910390fd5b61134d611321565b6109af8383836001600160a01b03831661137e57806002600082825461137391906118ad565b909155506113f09050565b6001600160a01b038316600090815260208190526040902054818110156113d15760405163391434e360e21b81526001600160a01b03851660048201526024810182905260448101839052606401610722565b6001600160a01b03841660009081526020819052604090209082900390555b6001600160a01b03821661140c5760028054829003905561142b565b6001600160a01b03821660009081526020819052604090208054820190555b816001600160a01b0316836001600160a01b03167fddf252ad1be2c89b69c2b068fc378daa952ba7f163c4a11628f55a4df523b3ef8360405161147091815260200190565b60405180910390a3505050565b60006020828403121561148f57600080fd5b81356001600160e01b0319811681146114a757600080fd5b9392505050565b6000815180845260005b818110156114d4576020818501810151868301820152016114b8565b506000602082860101526020601f19601f83011685010191505092915050565b6020815260006114a760208301846114ae565b80356001600160a01b038116811461151e57600080fd5b919050565b6000806040838503121561153657600080fd5b61153f83611507565b946020939093013593505050565b60006020828403121561155f57600080fd5b6114a782611507565b83815282602082015260606040820152600061158760608301846114ae565b95945050505050565b80356005811061151e57600080fd5b634e487b7160e01b600052604160045260246000fd5b600082601f8301126115c657600080fd5b813567ffffffffffffffff808211156115e1576115e161159f565b604051601f8301601f19908116603f011681019082821181831017156116095761160961159f565b8160405283815286602085880101111561162257600080fd5b836020870160208301376000602085830101528094505050505092915050565b6000806000806080858703121561165857600080fd5b61166185611507565b93506020850135925061167660408601611590565b9150606085013567ffffffffffffffff81111561169257600080fd5b61169e878288016115b5565b91505092959194509250565b6000806000606084860312156116bf57600080fd5b6116c884611507565b92506116d660208501611507565b9150604084013590509250925092565b6000602082840312156116f857600080fd5b5035919050565b6000806040838503121561171257600080fd5b8235915061172260208401611507565b90509250929050565b60008060006060848603121561174057600080fd5b61174984611507565b925060208401359150604084013567ffffffffffffffff81111561176c57600080fd5b611778868287016115b5565b9150509250925092565b6000806040838503121561179557600080fd5b61179e83611507565b915061172260208401611507565b6000602082840312156117be57600080fd5b6114a782611590565b600181811c908216806117db57607f821691505b6020821081036117fb57634e487b7160e01b600052602260045260246000fd5b50919050565b60208082526027908201527f506f54546f6b656e3a20616d6f756e74206d75737420626520677265617465726040820152660207468616e20360cc1b606082015260800190565b634e487b7160e01b600052602160045260246000fd5b634e487b7160e01b600052601160045260246000fd5b80820281158282048414176105555761055561185e565b6000826118a857634e487b7160e01b600052601260045260246000fd5b500490565b808201808211156105555761055561185e565b8481526000600585106118e357634e487b7160e01b600052602160045260246000fd5b846020830152608060408301526118fd60808301856114ae565b905082606083015295945050505050565b601f8211156109af57600081815260208120601f850160051c810160208610156119355750805b601f850160051c820191505b8181101561195457828155600101611941565b505050505050565b815167ffffffffffffffff8111156119765761197661159f565b61198a8161198484546117c7565b8461190e565b602080601f8311600181146119bf57600084156119a75750858301515b600019600386901b1c1916600185901b178555611954565b600085815260208120601f198616915b828110156119ee578886015182559484019460019091019084016119cf565b5085821015611a0c5787850151600019600388901b60f8161c191681555b5050505050600190811b01905550565b828152604060208201526000611a3560408301846114ae565b94935050505056fea264697066735822122073c7ac542e454cf238a0f60682a94095230a7d71639da0b4cf275c8108d7d2f164736f6c63430008140033","opcodes":"PUSH1 0x80 PUSH1 0x40 MSTORE CALLVALUE DUP1 ISZERO PUSH3 0x11 JUMPI PUSH1 0x0 DUP1 REVERT JUMPDEST POP PUSH1 0x40 MLOAD DUP1 PUSH1 0x40 ADD PUSH1 0x40 MSTORE DUP1 PUSH1 0x14 DUP2 MSTORE PUSH1 0x20 ADD PUSH32 0x50726F6F66206F6620547275737420546F6B656E000000000000000000000000 DUP2 MSTORE POP PUSH1 0x40 MLOAD DUP1 PUSH1 0x40 ADD PUSH1 0x40 MSTORE DUP1 PUSH1 0x3 DUP2 MSTORE PUSH1 0x20 ADD PUSH3 0x1413D5 PUSH1 0xEA SHL DUP2 MSTORE POP DUP2 PUSH1 0x3 SWAP1 DUP2 PUSH3 0x75 SWAP2 SWAP1 PUSH3 0x36B JUMP JUMPDEST POP PUSH1 0x4 PUSH3 0x84 DUP3 DUP3 PUSH3 0x36B JUMP JUMPDEST POP POP PUSH1 0x1 PUSH1 0x7 SSTORE POP PUSH3 0x99 PUSH1 0x0 CALLER PUSH3 0x213 JUMP JUMPDEST POP PUSH3 0xC6 PUSH32 0xA49807205CE4D355092EF5A8A18F56E8913CF4A201FBE287825B095693C21775 CALLER PUSH3 0x213 JUMP JUMPDEST POP PUSH3 0xF3 PUSH32 0x9F2DF0FED2C77648DE5860A4CC508CD0818C85B8B8A1AB4CEEEF8D981C8956A6 CALLER PUSH3 0x213 JUMP JUMPDEST POP PUSH3 0x120 PUSH32 0x65D7A28E3265B37A6474929F336521B332C1681B933F6CB9F3376673440D862A CALLER PUSH3 0x213 JUMP JUMPDEST POP PUSH3 0x14D PUSH32 0x3C11D16CBAFFD01DF69CE1C404F6340EE057498F5F00246190EA54220576A848 CALLER PUSH3 0x213 JUMP JUMPDEST POP PUSH1 0xC PUSH1 0x20 MSTORE PUSH1 0x64 PUSH32 0x13649B2456F1B42FEF0F0040B3AAEABCD21A76A0F3F5DEFD4F583839455116E8 SSTORE PUSH1 0x78 PUSH32 0xD421A5181C571BBA3F01190C922C3B2A896FC1D84E86C9F17AC10E67EBEF8B5C SSTORE PUSH1 0x96 PUSH32 0x5D6016397A73F5E079297AC5A36FEF17B4D9C3831618E63AB105738020DDD720 SSTORE PUSH1 0xC8 PUSH32 0xC0DA782485E77AE272268AE0A3FF44C1552ECB60B3743924DE17A815E0A3CFD7 SSTORE PUSH1 0x4 PUSH1 0x0 MSTORE PUSH2 0x12C PUSH32 0x5B84BB9E0F5AA9CC45A8BB66468DB5D4816D1E75FF86B5E1F1DD8D144DAB8097 SSTORE PUSH3 0x437 JUMP JUMPDEST PUSH1 0x0 DUP3 DUP2 MSTORE PUSH1 0x6 PUSH1 0x20 SWAP1 DUP2 MSTORE PUSH1 0x40 DUP1 DUP4 KECCAK256 PUSH1 0x1 PUSH1 0x1 PUSH1 0xA0 SHL SUB DUP6 AND DUP5 MSTORE SWAP1 SWAP2 MSTORE DUP2 KECCAK256 SLOAD PUSH1 0xFF AND PUSH3 0x2BC JUMPI PUSH1 0x0 DUP4 DUP2 MSTORE PUSH1 0x6 PUSH1 0x20 SWAP1 DUP2 MSTORE PUSH1 0x40 DUP1 DUP4 KECCAK256 PUSH1 0x1 PUSH1 0x1 PUSH1 0xA0 SHL SUB DUP7 AND DUP5 MSTORE SWAP1 SWAP2 MSTORE SWAP1 KECCAK256 DUP1 SLOAD PUSH1 0xFF NOT AND PUSH1 0x1 OR SWAP1 SSTORE PUSH3 0x273 CALLER SWAP1 JUMP JUMPDEST PUSH1 0x1 PUSH1 0x1 PUSH1 0xA0 SHL SUB AND DUP3 PUSH1 0x1 PUSH1 0x1 PUSH1 0xA0 SHL SUB AND DUP5 PUSH32 0x2F8788117E7EFF1D82E926EC794901D17C78024A50270940304540A733656F0D PUSH1 0x40 MLOAD PUSH1 0x40 MLOAD DUP1 SWAP2 SUB SWAP1 LOG4 POP PUSH1 0x1 PUSH3 0x2C0 JUMP JUMPDEST POP PUSH1 0x0 JUMPDEST SWAP3 SWAP2 POP POP JUMP JUMPDEST PUSH4 0x4E487B71 PUSH1 0xE0 SHL PUSH1 0x0 MSTORE PUSH1 0x41 PUSH1 0x4 MSTORE PUSH1 0x24 PUSH1 0x0 REVERT JUMPDEST PUSH1 0x1 DUP2 DUP2 SHR SWAP1 DUP3 AND DUP1 PUSH3 0x2F1 JUMPI PUSH1 0x7F DUP3 AND SWAP2 POP JUMPDEST PUSH1 0x20 DUP3 LT DUP2 SUB PUSH3 0x312 JUMPI PUSH4 0x4E487B71 PUSH1 0xE0 SHL PUSH1 0x0 MSTORE PUSH1 0x22 PUSH1 0x4 MSTORE PUSH1 0x24 PUSH1 0x0 REVERT JUMPDEST POP SWAP2 SWAP1 POP JUMP JUMPDEST PUSH1 0x1F DUP3 GT ISZERO PUSH3 0x366 JUMPI PUSH1 0x0 DUP2 DUP2 MSTORE PUSH1 0x20 DUP2 KECCAK256 PUSH1 0x1F DUP6 ADD PUSH1 0x5 SHR DUP2 ADD PUSH1 0x20 DUP7 LT ISZERO PUSH3 0x341 JUMPI POP DUP1 JUMPDEST PUSH1 0x1F DUP6 ADD PUSH1 0x5 SHR DUP3 ADD SWAP2 POP JUMPDEST DUP2 DUP2 LT ISZERO PUSH3 0x362 JUMPI DUP3 DUP2 SSTORE PUSH1 0x1 ADD PUSH3 0x34D JUMP JUMPDEST POP POP POP JUMPDEST POP POP POP JUMP JUMPDEST DUP2 MLOAD PUSH1 0x1 PUSH1 0x1 PUSH1 0x40 SHL SUB DUP2 GT ISZERO PUSH3 0x387 JUMPI PUSH3 0x387 PUSH3 0x2C6 JUMP JUMPDEST PUSH3 0x39F DUP2 PUSH3 0x398 DUP5 SLOAD PUSH3 0x2DC JUMP JUMPDEST DUP5 PUSH3 0x318 JUMP JUMPDEST PUSH1 0x20 DUP1 PUSH1 0x1F DUP4 GT PUSH1 0x1 DUP2 EQ PUSH3 0x3D7 JUMPI PUSH1 0x0 DUP5 ISZERO PUSH3 0x3BE JUMPI POP DUP6 DUP4 ADD MLOAD JUMPDEST PUSH1 0x0 NOT PUSH1 0x3 DUP7 SWAP1 SHL SHR NOT AND PUSH1 0x1 DUP6 SWAP1 SHL OR DUP6 SSTORE PUSH3 0x362 JUMP JUMPDEST PUSH1 0x0 DUP6 DUP2 MSTORE PUSH1 0x20 DUP2 KECCAK256 PUSH1 0x1F NOT DUP7 AND SWAP2 JUMPDEST DUP3 DUP2 LT ISZERO PUSH3 0x408 JUMPI DUP9 DUP7 ADD MLOAD DUP3 SSTORE SWAP5 DUP5 ADD SWAP5 PUSH1 0x1 SWAP1 SWAP2 ADD SWAP1 DUP5 ADD PUSH3 0x3E7 JUMP JUMPDEST POP DUP6 DUP3 LT ISZERO PUSH3 0x427 JUMPI DUP8 DUP6 ADD MLOAD PUSH1 0x0 NOT PUSH1 0x3 DUP9 SWAP1 SHL PUSH1 0xF8 AND SHR NOT AND DUP2 SSTORE JUMPDEST POP POP POP POP POP PUSH1 0x1 SWAP1 DUP2 SHL ADD SWAP1 SSTORE POP JUMP JUMPDEST PUSH2 0x1A73 DUP1 PUSH3 0x447 PUSH1 0x0 CODECOPY PUSH1 0x0 RETURN INVALID PUSH1 0x80 PUSH1 0x40 MSTORE CALLVALUE DUP1 ISZERO PUSH2 0x10 JUMPI PUSH1 0x0 DUP1 REVERT JUMPDEST POP PUSH1 0x4 CALLDATASIZE LT PUSH2 0x206 JUMPI PUSH1 0x0 CALLDATALOAD PUSH1 0xE0 SHR DUP1 PUSH4 0x5C975ABB GT PUSH2 0x11A JUMPI DUP1 PUSH4 0xA2309FF8 GT PUSH2 0xAD JUMPI DUP1 PUSH4 0xD547741F GT PUSH2 0x7C JUMPI DUP1 PUSH4 0xD547741F EQ PUSH2 0x488 JUMPI DUP1 PUSH4 0xD89135CD EQ PUSH2 0x49B JUMPI DUP1 PUSH4 0xDD62ED3E EQ PUSH2 0x4A4 JUMPI DUP1 PUSH4 0xE63AB1E9 EQ PUSH2 0x4DD JUMPI DUP1 PUSH4 0xF88DA576 EQ PUSH2 0x504 JUMPI PUSH1 0x0 DUP1 REVERT JUMPDEST DUP1 PUSH4 0xA2309FF8 EQ PUSH2 0x432 JUMPI DUP1 PUSH4 0xA9059CBB EQ PUSH2 0x43B JUMPI DUP1 PUSH4 0xC274326D EQ PUSH2 0x44E JUMPI DUP1 PUSH4 0xD5391393 EQ PUSH2 0x461 JUMPI PUSH1 0x0 DUP1 REVERT JUMPDEST DUP1 PUSH4 0x8456CB59 GT PUSH2 0xE9 JUMPI DUP1 PUSH4 0x8456CB59 EQ PUSH2 0x407 JUMPI DUP1 PUSH4 0x91D14854 EQ PUSH2 0x40F JUMPI DUP1 PUSH4 0x95D89B41 EQ PUSH2 0x422 JUMPI DUP1 PUSH4 0xA217FDDF EQ PUSH2 0x42A JUMPI PUSH1 0x0 DUP1 REVERT JUMPDEST DUP1 PUSH4 0x5C975ABB EQ PUSH2 0x399 JUMPI DUP1 PUSH4 0x70A08231 EQ PUSH2 0x3A4 JUMPI DUP1 PUSH4 0x75B238FC EQ PUSH2 0x3CD JUMPI DUP1 PUSH4 0x79CC6790 EQ PUSH2 0x3F4 JUMPI PUSH1 0x0 DUP1 REVERT JUMPDEST DUP1 PUSH4 0x282C51F3 GT PUSH2 0x19D JUMPI DUP1 PUSH4 0x36568ABE GT PUSH2 0x16C JUMPI DUP1 PUSH4 0x36568ABE EQ PUSH2 0x335 JUMPI DUP1 PUSH4 0x3AF32ABF EQ PUSH2 0x348 JUMPI DUP1 PUSH4 0x3F4BA83A EQ PUSH2 0x36B JUMPI DUP1 PUSH4 0x42966C68 EQ PUSH2 0x373 JUMPI DUP1 PUSH4 0x4750421E EQ PUSH2 0x386 JUMPI PUSH1 0x0 DUP1 REVERT JUMPDEST DUP1 PUSH4 0x282C51F3 EQ PUSH2 0x2DA JUMPI DUP1 PUSH4 0x2F2FF15D EQ PUSH2 0x301 JUMPI DUP1 PUSH4 0x313CE567 EQ PUSH2 0x314 JUMPI DUP1 PUSH4 0x32CB6B0C EQ PUSH2 0x323 JUMPI PUSH1 0x0 DUP1 REVERT JUMPDEST DUP1 PUSH4 0x13BE81D6 GT PUSH2 0x1D9 JUMPI DUP1 PUSH4 0x13BE81D6 EQ PUSH2 0x27D JUMPI DUP1 PUSH4 0x18160DDD EQ PUSH2 0x292 JUMPI DUP1 PUSH4 0x23B872DD EQ PUSH2 0x2A4 JUMPI DUP1 PUSH4 0x248A9CA3 EQ PUSH2 0x2B7 JUMPI PUSH1 0x0 DUP1 REVERT JUMPDEST DUP1 PUSH4 0x1FFC9A7 EQ PUSH2 0x20B JUMPI DUP1 PUSH4 0x6FDDE03 EQ PUSH2 0x233 JUMPI DUP1 PUSH4 0x95EA7B3 EQ PUSH2 0x248 JUMPI DUP1 PUSH4 0x12DF0FC4 EQ PUSH2 0x25B JUMPI JUMPDEST PUSH1 0x0 DUP1 REVERT JUMPDEST PUSH2 0x21E PUSH2 0x219 CALLDATASIZE PUSH1 0x4 PUSH2 0x147D JUMP JUMPDEST PUSH2 0x524 JUMP JUMPDEST PUSH1 0x40 MLOAD SWAP1 ISZERO ISZERO DUP2 MSTORE PUSH1 0x20 ADD JUMPDEST PUSH1 0x40 MLOAD DUP1 SWAP2 SUB SWAP1 RETURN JUMPDEST PUSH2 0x23B PUSH2 0x55B JUMP JUMPDEST PUSH1 0x40 MLOAD PUSH2 0x22A SWAP2 SWAP1 PUSH2 0x14F4 JUMP JUMPDEST PUSH2 0x21E PUSH2 0x256 CALLDATASIZE PUSH1 0x4 PUSH2 0x1523 JUMP JUMPDEST PUSH2 0x5ED JUMP JUMPDEST PUSH2 0x26E PUSH2 0x269 CALLDATASIZE PUSH1 0x4 PUSH2 0x154D JUMP JUMPDEST PUSH2 0x605 JUMP JUMPDEST PUSH1 0x40 MLOAD PUSH2 0x22A SWAP4 SWAP3 SWAP2 SWAP1 PUSH2 0x1568 JUMP JUMPDEST PUSH2 0x290 PUSH2 0x28B CALLDATASIZE PUSH1 0x4 PUSH2 0x1642 JUMP JUMPDEST PUSH2 0x6B0 JUMP JUMPDEST STOP JUMPDEST PUSH1 0x2 SLOAD JUMPDEST PUSH1 0x40 MLOAD SWAP1 DUP2 MSTORE PUSH1 0x20 ADD PUSH2 0x22A JUMP JUMPDEST PUSH2 0x21E PUSH2 0x2B2 CALLDATASIZE PUSH1 0x4 PUSH2 0x16AA JUMP JUMPDEST PUSH2 0x92D JUMP JUMPDEST PUSH2 0x296 PUSH2 0x2C5 CALLDATASIZE PUSH1 0x4 PUSH2 0x16E6 JUMP JUMPDEST PUSH1 0x0 SWAP1 DUP2 MSTORE PUSH1 0x6 PUSH1 0x20 MSTORE PUSH1 0x40 SWAP1 KECCAK256 PUSH1 0x1 ADD SLOAD SWAP1 JUMP JUMPDEST PUSH2 0x296 PUSH32 0x3C11D16CBAFFD01DF69CE1C404F6340EE057498F5F00246190EA54220576A848 DUP2 JUMP JUMPDEST PUSH2 0x290 PUSH2 0x30F CALLDATASIZE PUSH1 0x4 PUSH2 0x16FF JUMP JUMPDEST PUSH2 0x951 JUMP JUMPDEST PUSH1 0x40 MLOAD PUSH1 0x12 DUP2 MSTORE PUSH1 0x20 ADD PUSH2 0x22A JUMP JUMPDEST PUSH2 0x296 PUSH11 0x52B7D2DCC80CD2E4000000 DUP2 JUMP JUMPDEST PUSH2 0x290 PUSH2 0x343 CALLDATASIZE PUSH1 0x4 PUSH2 0x16FF JUMP JUMPDEST PUSH2 0x97C JUMP JUMPDEST PUSH2 0x21E PUSH2 0x356 CALLDATASIZE PUSH1 0x4 PUSH2 0x154D JUMP JUMPDEST PUSH1 0xB PUSH1 0x20 MSTORE PUSH1 0x0 SWAP1 DUP2 MSTORE PUSH1 0x40 SWAP1 KECCAK256 SLOAD PUSH1 0xFF AND DUP2 JUMP JUMPDEST PUSH2 0x290 PUSH2 0x9B4 JUMP JUMPDEST PUSH2 0x290 PUSH2 0x381 CALLDATASIZE PUSH1 0x4 PUSH2 0x16E6 JUMP JUMPDEST PUSH2 0xA34 JUMP JUMPDEST PUSH2 0x290 PUSH2 0x394 CALLDATASIZE PUSH1 0x4 PUSH2 0x172B JUMP JUMPDEST PUSH2 0xA41 JUMP JUMPDEST PUSH1 0x5 SLOAD PUSH1 0xFF AND PUSH2 0x21E JUMP JUMPDEST PUSH2 0x296 PUSH2 0x3B2 CALLDATASIZE PUSH1 0x4 PUSH2 0x154D JUMP JUMPDEST PUSH1 0x1 PUSH1 0x1 PUSH1 0xA0 SHL SUB AND PUSH1 0x0 SWAP1 DUP2 MSTORE PUSH1 0x20 DUP2 SWAP1 MSTORE PUSH1 0x40 SWAP1 KECCAK256 SLOAD SWAP1 JUMP JUMPDEST PUSH2 0x296 PUSH32 0xA49807205CE4D355092EF5A8A18F56E8913CF4A201FBE287825B095693C21775 DUP2 JUMP JUMPDEST PUSH2 0x290 PUSH2 0x402 CALLDATASIZE PUSH1 0x4 PUSH2 0x1523 JUMP JUMPDEST PUSH2 0xC1C JUMP JUMPDEST PUSH2 0x290 PUSH2 0xC35 JUMP JUMPDEST PUSH2 0x21E PUSH2 0x41D CALLDATASIZE PUSH1 0x4 PUSH2 0x16FF JUMP JUMPDEST PUSH2 0xCB3 JUMP JUMPDEST PUSH2 0x23B PUSH2 0xCDE JUMP JUMPDEST PUSH2 0x296 PUSH1 0x0 DUP2 JUMP JUMPDEST PUSH2 0x296 PUSH1 0x8 SLOAD DUP2 JUMP JUMPDEST PUSH2 0x21E PUSH2 0x449 CALLDATASIZE PUSH1 0x4 PUSH2 0x1523 JUMP JUMPDEST PUSH2 0xCED JUMP JUMPDEST PUSH2 0x290 PUSH2 0x45C CALLDATASIZE PUSH1 0x4 PUSH2 0x172B JUMP JUMPDEST PUSH2 0xCFB JUMP JUMPDEST PUSH2 0x296 PUSH32 0x9F2DF0FED2C77648DE5860A4CC508CD0818C85B8B8A1AB4CEEEF8D981C8956A6 DUP2 JUMP JUMPDEST PUSH2 0x290 PUSH2 0x496 CALLDATASIZE PUSH1 0x4 PUSH2 0x16FF JUMP JUMPDEST PUSH2 0xED5 JUMP JUMPDEST PUSH2 0x296 PUSH1 0x9 SLOAD DUP2 JUMP JUMPDEST PUSH2 0x296 PUSH2 0x4B2 CALLDATASIZE PUSH1 0x4 PUSH2 0x1782 JUMP JUMPDEST PUSH1 0x1 PUSH1 0x1 PUSH1 0xA0 SHL SUB SWAP2 DUP3 AND PUSH1 0x0 SWAP1 DUP2 MSTORE PUSH1 0x1 PUSH1 0x20 SWAP1 DUP2 MSTORE PUSH1 0x40 DUP1 DUP4 KECCAK256 SWAP4 SWAP1 SWAP5 AND DUP3 MSTORE SWAP2 SWAP1 SWAP2 MSTORE KECCAK256 SLOAD SWAP1 JUMP JUMPDEST PUSH2 0x296 PUSH32 0x65D7A28E3265B37A6474929F336521B332C1681B933F6CB9F3376673440D862A DUP2 JUMP JUMPDEST PUSH2 0x296 PUSH2 0x512 CALLDATASIZE PUSH1 0x4 PUSH2 0x17AC JUMP JUMPDEST PUSH1 0xC PUSH1 0x20 MSTORE PUSH1 0x0 SWAP1 DUP2 MSTORE PUSH1 0x40 SWAP1 KECCAK256 SLOAD DUP2 JUMP JUMPDEST PUSH1 0x0 PUSH1 0x1 PUSH1 0x1 PUSH1 0xE0 SHL SUB NOT DUP3 AND PUSH4 0x7965DB0B PUSH1 0xE0 SHL EQ DUP1 PUSH2 0x555 JUMPI POP PUSH4 0x1FFC9A7 PUSH1 0xE0 SHL PUSH1 0x1 PUSH1 0x1 PUSH1 0xE0 SHL SUB NOT DUP4 AND EQ JUMPDEST SWAP3 SWAP2 POP POP JUMP JUMPDEST PUSH1 0x60 PUSH1 0x3 DUP1 SLOAD PUSH2 0x56A SWAP1 PUSH2 0x17C7 JUMP JUMPDEST DUP1 PUSH1 0x1F ADD PUSH1 0x20 DUP1 SWAP2 DIV MUL PUSH1 0x20 ADD PUSH1 0x40 MLOAD SWAP1 DUP2 ADD PUSH1 0x40 MSTORE DUP1 SWAP3 SWAP2 SWAP1 DUP2 DUP2 MSTORE PUSH1 0x20 ADD DUP3 DUP1 SLOAD PUSH2 0x596 SWAP1 PUSH2 0x17C7 JUMP JUMPDEST DUP1 ISZERO PUSH2 0x5E3 JUMPI DUP1 PUSH1 0x1F LT PUSH2 0x5B8 JUMPI PUSH2 0x100 DUP1 DUP4 SLOAD DIV MUL DUP4 MSTORE SWAP2 PUSH1 0x20 ADD SWAP2 PUSH2 0x5E3 JUMP JUMPDEST DUP3 ADD SWAP2 SWAP1 PUSH1 0x0 MSTORE PUSH1 0x20 PUSH1 0x0 KECCAK256 SWAP1 JUMPDEST DUP2 SLOAD DUP2 MSTORE SWAP1 PUSH1 0x1 ADD SWAP1 PUSH1 0x20 ADD DUP1 DUP4 GT PUSH2 0x5C6 JUMPI DUP3 SWAP1 SUB PUSH1 0x1F AND DUP3 ADD SWAP2 JUMPDEST POP POP POP POP POP SWAP1 POP SWAP1 JUMP JUMPDEST PUSH1 0x0 CALLER PUSH2 0x5FB DUP2 DUP6 DUP6 PUSH2 0xEFA JUMP JUMPDEST POP PUSH1 0x1 SWAP4 SWAP3 POP POP POP JUMP JUMPDEST PUSH1 0xA PUSH1 0x20 MSTORE PUSH1 0x0 SWAP1 DUP2 MSTORE PUSH1 0x40 SWAP1 KECCAK256 DUP1 SLOAD PUSH1 0x1 DUP3 ADD SLOAD PUSH1 0x2 DUP4 ADD DUP1 SLOAD SWAP3 SWAP4 SWAP2 SWAP3 PUSH2 0x62D SWAP1 PUSH2 0x17C7 JUMP JUMPDEST DUP1 PUSH1 0x1F ADD PUSH1 0x20 DUP1 SWAP2 DIV MUL PUSH1 0x20 ADD PUSH1 0x40 MLOAD SWAP1 DUP2 ADD PUSH1 0x40 MSTORE DUP1 SWAP3 SWAP2 SWAP1 DUP2 DUP2 MSTORE PUSH1 0x20 ADD DUP3 DUP1 SLOAD PUSH2 0x659 SWAP1 PUSH2 0x17C7 JUMP JUMPDEST DUP1 ISZERO PUSH2 0x6A6 JUMPI DUP1 PUSH1 0x1F LT PUSH2 0x67B JUMPI PUSH2 0x100 DUP1 DUP4 SLOAD DIV MUL DUP4 MSTORE SWAP2 PUSH1 0x20 ADD SWAP2 PUSH2 0x6A6 JUMP JUMPDEST DUP3 ADD SWAP2 SWAP1 PUSH1 0x0 MSTORE PUSH1 0x20 PUSH1 0x0 KECCAK256 SWAP1 JUMPDEST DUP2 SLOAD DUP2 MSTORE SWAP1 PUSH1 0x1 ADD SWAP1 PUSH1 0x20 ADD DUP1 DUP4 GT PUSH2 0x689 JUMPI DUP3 SWAP1 SUB PUSH1 0x1F AND DUP3 ADD SWAP2 JUMPDEST POP POP POP POP POP SWAP1 POP DUP4 JUMP JUMPDEST PUSH2 0x6DA PUSH32 0x9F2DF0FED2C77648DE5860A4CC508CD0818C85B8B8A1AB4CEEEF8D981C8956A6 CALLER PUSH2 0xCB3 JUMP JUMPDEST PUSH2 0x72B JUMPI PUSH1 0x40 MLOAD PUSH3 0x461BCD PUSH1 0xE5 SHL DUP2 MSTORE PUSH1 0x20 PUSH1 0x4 DUP3 ADD MSTORE PUSH1 0x1F PUSH1 0x24 DUP3 ADD MSTORE PUSH32 0x506F54546F6B656E3A206D7573742068617665206D696E74657220726F6C6500 PUSH1 0x44 DUP3 ADD MSTORE PUSH1 0x64 ADD JUMPDEST PUSH1 0x40 MLOAD DUP1 SWAP2 SUB SWAP1 REVERT JUMPDEST PUSH1 0x1 PUSH1 0x1 PUSH1 0xA0 SHL SUB DUP5 AND PUSH2 0x78F JUMPI PUSH1 0x40 MLOAD PUSH3 0x461BCD PUSH1 0xE5 SHL DUP2 MSTORE PUSH1 0x20 PUSH1 0x4 DUP3 ADD MSTORE PUSH1 0x25 PUSH1 0x24 DUP3 ADD MSTORE PUSH32 0x506F54546F6B656E3A2063616E6E6F74206D696E7420746F207A65726F206164 PUSH1 0x44 DUP3 ADD MSTORE PUSH5 0x6472657373 PUSH1 0xD8 SHL PUSH1 0x64 DUP3 ADD MSTORE PUSH1 0x84 ADD PUSH2 0x722 JUMP JUMPDEST PUSH1 0x0 DUP4 GT PUSH2 0x7AF JUMPI PUSH1 0x40 MLOAD PUSH3 0x461BCD PUSH1 0xE5 SHL DUP2 MSTORE PUSH1 0x4 ADD PUSH2 0x722 SWAP1 PUSH2 0x1801 JUMP JUMPDEST PUSH1 0x0 PUSH1 0xC PUSH1 0x0 DUP5 PUSH1 0x4 DUP2 GT ISZERO PUSH2 0x7C7 JUMPI PUSH2 0x7C7 PUSH2 0x1848 JUMP JUMPDEST PUSH1 0x4 DUP2 GT ISZERO PUSH2 0x7D8 JUMPI PUSH2 0x7D8 PUSH2 0x1848 JUMP JUMPDEST DUP2 MSTORE PUSH1 0x20 DUP1 DUP3 ADD SWAP3 SWAP1 SWAP3 MSTORE PUSH1 0x40 SWAP1 DUP2 ADD PUSH1 0x0 SWAP1 DUP2 KECCAK256 SLOAD PUSH1 0x1 PUSH1 0x1 PUSH1 0xA0 SHL SUB DUP10 AND DUP3 MSTORE PUSH1 0xA SWAP1 SWAP4 MSTORE SWAP1 DUP2 KECCAK256 SLOAD SWAP2 SWAP3 POP PUSH2 0x2710 PUSH2 0x813 DUP4 DUP6 PUSH2 0x1874 JUMP JUMPDEST PUSH2 0x81D SWAP2 SWAP1 PUSH2 0x188B JUMP JUMPDEST SWAP1 POP PUSH1 0x0 PUSH2 0x82B DUP3 DUP6 PUSH2 0x18AD JUMP JUMPDEST SWAP1 POP PUSH1 0x0 PUSH1 0x64 PUSH2 0x83B DUP4 DUP11 PUSH2 0x1874 JUMP JUMPDEST PUSH2 0x845 SWAP2 SWAP1 PUSH2 0x188B JUMP JUMPDEST SWAP1 POP PUSH11 0x52B7D2DCC80CD2E4000000 DUP2 PUSH1 0x8 SLOAD PUSH2 0x861 SWAP2 SWAP1 PUSH2 0x18AD JUMP JUMPDEST GT ISZERO PUSH2 0x8B9 JUMPI PUSH1 0x40 MLOAD PUSH3 0x461BCD PUSH1 0xE5 SHL DUP2 MSTORE PUSH1 0x20 PUSH1 0x4 DUP3 ADD MSTORE PUSH1 0x21 PUSH1 0x24 DUP3 ADD MSTORE PUSH32 0x506F54546F6B656E3A20776F756C6420657863656564206D617820737570706C PUSH1 0x44 DUP3 ADD MSTORE PUSH1 0x79 PUSH1 0xF8 SHL PUSH1 0x64 DUP3 ADD MSTORE PUSH1 0x84 ADD PUSH2 0x722 JUMP JUMPDEST DUP1 PUSH1 0x8 PUSH1 0x0 DUP3 DUP3 SLOAD PUSH2 0x8CB SWAP2 SWAP1 PUSH2 0x18AD JUMP JUMPDEST SWAP1 SWAP2 SSTORE POP PUSH2 0x8DB SWAP1 POP DUP10 DUP3 PUSH2 0xF07 JUMP JUMPDEST DUP9 PUSH1 0x1 PUSH1 0x1 PUSH1 0xA0 SHL SUB AND PUSH32 0xA3FBA0D291771B819D77C6E5FB08D58BE912F2B01B2519CED9A404C58395EDC7 DUP3 DUP10 DUP10 DUP9 PUSH1 0x40 MLOAD PUSH2 0x91A SWAP5 SWAP4 SWAP3 SWAP2 SWAP1 PUSH2 0x18C0 JUMP JUMPDEST PUSH1 0x40 MLOAD DUP1 SWAP2 SUB SWAP1 LOG2 POP POP POP POP POP POP POP POP POP JUMP JUMPDEST PUSH1 0x0 CALLER PUSH2 0x93B DUP6 DUP3 DUP6 PUSH2 0xF3D JUMP JUMPDEST PUSH2 0x946 DUP6 DUP6 DUP6 PUSH2 0xFB6 JUMP JUMPDEST POP PUSH1 0x1 SWAP5 SWAP4 POP POP POP POP JUMP JUMPDEST PUSH1 0x0 DUP3 DUP2 MSTORE PUSH1 0x6 PUSH1 0x20 MSTORE PUSH1 0x40 SWAP1 KECCAK256 PUSH1 0x1 ADD SLOAD PUSH2 0x96C DUP2 PUSH2 0x1015 JUMP JUMPDEST PUSH2 0x976 DUP4 DUP4 PUSH2 0x101F JUMP JUMPDEST POP POP POP POP JUMP JUMPDEST PUSH1 0x1 PUSH1 0x1 PUSH1 0xA0 SHL SUB DUP2 AND CALLER EQ PUSH2 0x9A5 JUMPI PUSH1 0x40 MLOAD PUSH4 0x334BD919 PUSH1 0xE1 SHL DUP2 MSTORE PUSH1 0x4 ADD PUSH1 0x40 MLOAD DUP1 SWAP2 SUB SWAP1 REVERT JUMPDEST PUSH2 0x9AF DUP3 DUP3 PUSH2 0x10B3 JUMP JUMPDEST POP POP POP JUMP JUMPDEST PUSH2 0x9DE PUSH32 0x65D7A28E3265B37A6474929F336521B332C1681B933F6CB9F3376673440D862A CALLER PUSH2 0xCB3 JUMP JUMPDEST PUSH2 0xA2A JUMPI PUSH1 0x40 MLOAD PUSH3 0x461BCD PUSH1 0xE5 SHL DUP2 MSTORE PUSH1 0x20 PUSH1 0x4 DUP3 ADD MSTORE PUSH1 0x1F PUSH1 0x24 DUP3 ADD MSTORE PUSH32 0x506F54546F6B656E3A206D75737420686176652070617573657220726F6C6500 PUSH1 0x44 DUP3 ADD MSTORE PUSH1 0x64 ADD PUSH2 0x722 JUMP JUMPDEST PUSH2 0xA32 PUSH2 0x1120 JUMP JUMPDEST JUMP JUMPDEST PUSH2 0xA3E CALLER DUP3 PUSH2 0x1172 JUMP JUMPDEST POP JUMP JUMPDEST PUSH2 0xA6B PUSH32 0xA49807205CE4D355092EF5A8A18F56E8913CF4A201FBE287825B095693C21775 CALLER PUSH2 0xCB3 JUMP JUMPDEST PUSH2 0xAB7 JUMPI PUSH1 0x40 MLOAD PUSH3 0x461BCD PUSH1 0xE5 SHL DUP2 MSTORE PUSH1 0x20 PUSH1 0x4 DUP3 ADD MSTORE PUSH1 0x1E PUSH1 0x24 DUP3 ADD MSTORE PUSH32 0x506F54546F6B656E3A206D75737420686176652061646D696E20726F6C650000 PUSH1 0x44 DUP3 ADD MSTORE PUSH1 0x64 ADD PUSH2 0x722 JUMP JUMPDEST PUSH1 0x1 PUSH1 0x1 PUSH1 0xA0 SHL SUB DUP4 AND PUSH2 0xB1B JUMPI PUSH1 0x40 MLOAD PUSH3 0x461BCD PUSH1 0xE5 SHL DUP2 MSTORE PUSH1 0x20 PUSH1 0x4 DUP3 ADD MSTORE PUSH1 0x25 PUSH1 0x24 DUP3 ADD MSTORE PUSH32 0x506F54546F6B656E3A20757365722063616E6E6F74206265207A65726F206164 PUSH1 0x44 DUP3 ADD MSTORE PUSH5 0x6472657373 PUSH1 0xD8 SHL PUSH1 0x64 DUP3 ADD MSTORE PUSH1 0x84 ADD PUSH2 0x722 JUMP JUMPDEST PUSH2 0x3E8 DUP3 GT ISZERO PUSH2 0xB7E JUMPI PUSH1 0x40 MLOAD PUSH3 0x461BCD PUSH1 0xE5 SHL DUP2 MSTORE PUSH1 0x20 PUSH1 0x4 DUP3 ADD MSTORE PUSH1 0x28 PUSH1 0x24 DUP3 ADD MSTORE PUSH32 0x506F54546F6B656E3A2074727573742073636F72652063616E6E6F7420657863 PUSH1 0x44 DUP3 ADD MSTORE PUSH8 0x656564203130303 PUSH1 0xC4 SHL PUSH1 0x64 DUP3 ADD MSTORE PUSH1 0x84 ADD PUSH2 0x722 JUMP JUMPDEST PUSH1 0x40 DUP1 MLOAD PUSH1 0x60 DUP2 ADD DUP3 MSTORE DUP4 DUP2 MSTORE TIMESTAMP PUSH1 0x20 DUP1 DUP4 ADD SWAP2 DUP3 MSTORE DUP3 DUP5 ADD DUP6 DUP2 MSTORE PUSH1 0x1 PUSH1 0x1 PUSH1 0xA0 SHL SUB DUP9 AND PUSH1 0x0 SWAP1 DUP2 MSTORE PUSH1 0xA SWAP1 SWAP3 MSTORE SWAP4 SWAP1 KECCAK256 DUP3 MLOAD DUP2 SSTORE SWAP1 MLOAD PUSH1 0x1 DUP3 ADD SSTORE SWAP2 MLOAD SWAP1 SWAP2 SWAP1 PUSH1 0x2 DUP3 ADD SWAP1 PUSH2 0xBD0 SWAP1 DUP3 PUSH2 0x195C JUMP JUMPDEST POP SWAP1 POP POP DUP3 PUSH1 0x1 PUSH1 0x1 PUSH1 0xA0 SHL SUB AND PUSH32 0x80FD1BFE6DECDAEBE12F66D28031EDED82576E3348F6DDC7DF67214A351D11A0 DUP4 DUP4 PUSH1 0x40 MLOAD PUSH2 0xC0F SWAP3 SWAP2 SWAP1 PUSH2 0x1A1C JUMP JUMPDEST PUSH1 0x40 MLOAD DUP1 SWAP2 SUB SWAP1 LOG2 POP POP POP JUMP JUMPDEST PUSH2 0xC27 DUP3 CALLER DUP4 PUSH2 0xF3D JUMP JUMPDEST PUSH2 0xC31 DUP3 DUP3 PUSH2 0x1172 JUMP JUMPDEST POP POP JUMP JUMPDEST PUSH2 0xC5F PUSH32 0x65D7A28E3265B37A6474929F336521B332C1681B933F6CB9F3376673440D862A CALLER PUSH2 0xCB3 JUMP JUMPDEST PUSH2 0xCAB JUMPI PUSH1 0x40 MLOAD PUSH3 0x461BCD PUSH1 0xE5 SHL DUP2 MSTORE PUSH1 0x20 PUSH1 0x4 DUP3 ADD MSTORE PUSH1 0x1F PUSH1 0x24 DUP3 ADD MSTORE PUSH32 0x506F54546F6B656E3A206D75737420686176652070617573657220726F6C6500 PUSH1 0x44 DUP3 ADD MSTORE PUSH1 0x64 ADD PUSH2 0x722 JUMP JUMPDEST PUSH2 0xA32 PUSH2 0x11A8 JUMP JUMPDEST PUSH1 0x0 SWAP2 DUP3 MSTORE PUSH1 0x6 PUSH1 0x20 SWAP1 DUP2 MSTORE PUSH1 0x40 DUP1 DUP5 KECCAK256 PUSH1 0x1 PUSH1 0x1 PUSH1 0xA0 SHL SUB SWAP4 SWAP1 SWAP4 AND DUP5 MSTORE SWAP2 SWAP1 MSTORE SWAP1 KECCAK256 SLOAD PUSH1 0xFF AND SWAP1 JUMP JUMPDEST PUSH1 0x60 PUSH1 0x4 DUP1 SLOAD PUSH2 0x56A SWAP1 PUSH2 0x17C7 JUMP JUMPDEST PUSH1 0x0 CALLER PUSH2 0x5FB DUP2 DUP6 DUP6 PUSH2 0xFB6 JUMP JUMPDEST PUSH2 0xD25 PUSH32 0x3C11D16CBAFFD01DF69CE1C404F6340EE057498F5F00246190EA54220576A848 CALLER PUSH2 0xCB3 JUMP JUMPDEST PUSH2 0xD71 JUMPI PUSH1 0x40 MLOAD PUSH3 0x461BCD PUSH1 0xE5 SHL DUP2 MSTORE PUSH1 0x20 PUSH1 0x4 DUP3 ADD MSTORE PUSH1 0x1F PUSH1 0x24 DUP3 ADD MSTORE PUSH32 0x506F54546F6B656E3A206D7573742068617665206275726E657220726F6C6500 PUSH1 0x44 DUP3 ADD MSTORE PUSH1 0x64 ADD PUSH2 0x722 JUMP JUMPDEST PUSH1 0x1 PUSH1 0x1 PUSH1 0xA0 SHL SUB DUP4 AND PUSH2 0xDD7 JUMPI PUSH1 0x40 MLOAD PUSH3 0x461BCD PUSH1 0xE5 SHL DUP2 MSTORE PUSH1 0x20 PUSH1 0x4 DUP3 ADD MSTORE PUSH1 0x27 PUSH1 0x24 DUP3 ADD MSTORE PUSH32 0x506F54546F6B656E3A2063616E6E6F74206275726E2066726F6D207A65726F20 PUSH1 0x44 DUP3 ADD MSTORE PUSH7 0x61646472657373 PUSH1 0xC8 SHL PUSH1 0x64 DUP3 ADD MSTORE PUSH1 0x84 ADD PUSH2 0x722 JUMP JUMPDEST PUSH1 0x0 DUP3 GT PUSH2 0xDF7 JUMPI PUSH1 0x40 MLOAD PUSH3 0x461BCD PUSH1 0xE5 SHL DUP2 MSTORE PUSH1 0x4 ADD PUSH2 0x722 SWAP1 PUSH2 0x1801 JUMP JUMPDEST DUP2 PUSH2 0xE17 DUP5 PUSH1 0x1 PUSH1 0x1 PUSH1 0xA0 SHL SUB AND PUSH1 0x0 SWAP1 DUP2 MSTORE PUSH1 0x20 DUP2 SWAP1 MSTORE PUSH1 0x40 SWAP1 KECCAK256 SLOAD SWAP1 JUMP JUMPDEST LT ISZERO PUSH2 0xE78 JUMPI PUSH1 0x40 MLOAD PUSH3 0x461BCD PUSH1 0xE5 SHL DUP2 MSTORE PUSH1 0x20 PUSH1 0x4 DUP3 ADD MSTORE PUSH1 0x2A PUSH1 0x24 DUP3 ADD MSTORE PUSH32 0x506F54546F6B656E3A20696E73756666696369656E742062616C616E63652066 PUSH1 0x44 DUP3 ADD MSTORE PUSH10 0x6F722070656E616C7479 PUSH1 0xB0 SHL PUSH1 0x64 DUP3 ADD MSTORE PUSH1 0x84 ADD PUSH2 0x722 JUMP JUMPDEST DUP2 PUSH1 0x9 PUSH1 0x0 DUP3 DUP3 SLOAD PUSH2 0xE8A SWAP2 SWAP1 PUSH2 0x18AD JUMP JUMPDEST SWAP1 SWAP2 SSTORE POP PUSH2 0xE9A SWAP1 POP DUP4 DUP4 PUSH2 0x1172 JUMP JUMPDEST DUP3 PUSH1 0x1 PUSH1 0x1 PUSH1 0xA0 SHL SUB AND PUSH32 0x9843BE59CDBF0D671EFA609C2C4F0105F3BA87E2A489719E8B19792A21162E3 DUP4 DUP4 PUSH1 0x40 MLOAD PUSH2 0xC0F SWAP3 SWAP2 SWAP1 PUSH2 0x1A1C JUMP JUMPDEST PUSH1 0x0 DUP3 DUP2 MSTORE PUSH1 0x6 PUSH1 0x20 MSTORE PUSH1 0x40 SWAP1 KECCAK256 PUSH1 0x1 ADD SLOAD PUSH2 0xEF0 DUP2 PUSH2 0x1015 JUMP JUMPDEST PUSH2 0x976 DUP4 DUP4 PUSH2 0x10B3 JUMP JUMPDEST PUSH2 0x9AF DUP4 DUP4 DUP4 PUSH1 0x1 PUSH2 0x11E5 JUMP JUMPDEST PUSH1 0x1 PUSH1 0x1 PUSH1 0xA0 SHL SUB DUP3 AND PUSH2 0xF31 JUMPI PUSH1 0x40 MLOAD PUSH4 0xEC442F05 PUSH1 0xE0 SHL DUP2 MSTORE PUSH1 0x0 PUSH1 0x4 DUP3 ADD MSTORE PUSH1 0x24 ADD PUSH2 0x722 JUMP JUMPDEST PUSH2 0xC31 PUSH1 0x0 DUP4 DUP4 PUSH2 0x12BA JUMP JUMPDEST PUSH1 0x1 PUSH1 0x1 PUSH1 0xA0 SHL SUB DUP4 DUP2 AND PUSH1 0x0 SWAP1 DUP2 MSTORE PUSH1 0x1 PUSH1 0x20 SWAP1 DUP2 MSTORE PUSH1 0x40 DUP1 DUP4 KECCAK256 SWAP4 DUP7 AND DUP4 MSTORE SWAP3 SWAP1 MSTORE KECCAK256 SLOAD PUSH1 0x0 NOT DUP2 LT ISZERO PUSH2 0x976 JUMPI DUP2 DUP2 LT ISZERO PUSH2 0xFA7 JUMPI PUSH1 0x40 MLOAD PUSH4 0x7DC7A0D9 PUSH1 0xE1 SHL DUP2 MSTORE PUSH1 0x1 PUSH1 0x1 PUSH1 0xA0 SHL SUB DUP5 AND PUSH1 0x4 DUP3 ADD MSTORE PUSH1 0x24 DUP2 ADD DUP3 SWAP1 MSTORE PUSH1 0x44 DUP2 ADD DUP4 SWAP1 MSTORE PUSH1 0x64 ADD PUSH2 0x722 JUMP JUMPDEST PUSH2 0x976 DUP5 DUP5 DUP5 DUP5 SUB PUSH1 0x0 PUSH2 0x11E5 JUMP JUMPDEST PUSH1 0x1 PUSH1 0x1 PUSH1 0xA0 SHL SUB DUP4 AND PUSH2 0xFE0 JUMPI PUSH1 0x40 MLOAD PUSH4 0x4B637E8F PUSH1 0xE1 SHL DUP2 MSTORE PUSH1 0x0 PUSH1 0x4 DUP3 ADD MSTORE PUSH1 0x24 ADD PUSH2 0x722 JUMP JUMPDEST PUSH1 0x1 PUSH1 0x1 PUSH1 0xA0 SHL SUB DUP3 AND PUSH2 0x100A JUMPI PUSH1 0x40 MLOAD PUSH4 0xEC442F05 PUSH1 0xE0 SHL DUP2 MSTORE PUSH1 0x0 PUSH1 0x4 DUP3 ADD MSTORE PUSH1 0x24 ADD PUSH2 0x722 JUMP JUMPDEST PUSH2 0x9AF DUP4 DUP4 DUP4 PUSH2 0x12BA JUMP JUMPDEST PUSH2 0xA3E DUP2 CALLER PUSH2 0x12C5 JUMP JUMPDEST PUSH1 0x0 PUSH2 0x102B DUP4 DUP4 PUSH2 0xCB3 JUMP JUMPDEST PUSH2 0x10AB JUMPI PUSH1 0x0 DUP4 DUP2 MSTORE PUSH1 0x6 PUSH1 0x20 SWAP1 DUP2 MSTORE PUSH1 0x40 DUP1 DUP4 KECCAK256 PUSH1 0x1 PUSH1 0x1 PUSH1 0xA0 SHL SUB DUP7 AND DUP5 MSTORE SWAP1 SWAP2 MSTORE SWAP1 KECCAK256 DUP1 SLOAD PUSH1 0xFF NOT AND PUSH1 0x1 OR SWAP1 SSTORE PUSH2 0x1063 CALLER SWAP1 JUMP JUMPDEST PUSH1 0x1 PUSH1 0x1 PUSH1 0xA0 SHL SUB AND DUP3 PUSH1 0x1 PUSH1 0x1 PUSH1 0xA0 SHL SUB AND DUP5 PUSH32 0x2F8788117E7EFF1D82E926EC794901D17C78024A50270940304540A733656F0D PUSH1 0x40 MLOAD PUSH1 0x40 MLOAD DUP1 SWAP2 SUB SWAP1 LOG4 POP PUSH1 0x1 PUSH2 0x555 JUMP JUMPDEST POP PUSH1 0x0 PUSH2 0x555 JUMP JUMPDEST PUSH1 0x0 PUSH2 0x10BF DUP4 DUP4 PUSH2 0xCB3 JUMP JUMPDEST ISZERO PUSH2 0x10AB JUMPI PUSH1 0x0 DUP4 DUP2 MSTORE PUSH1 0x6 PUSH1 0x20 SWAP1 DUP2 MSTORE PUSH1 0x40 DUP1 DUP4 KECCAK256 PUSH1 0x1 PUSH1 0x1 PUSH1 0xA0 SHL SUB DUP7 AND DUP1 DUP6 MSTORE SWAP3 MSTORE DUP1 DUP4 KECCAK256 DUP1 SLOAD PUSH1 0xFF NOT AND SWAP1 SSTORE MLOAD CALLER SWAP3 DUP7 SWAP2 PUSH32 0xF6391F5C32D9C69D2A47EA670B442974B53935D1EDC7FD64EB21E047A839171B SWAP2 SWAP1 LOG4 POP PUSH1 0x1 PUSH2 0x555 JUMP JUMPDEST PUSH2 0x1128 PUSH2 0x12FE JUMP JUMPDEST PUSH1 0x5 DUP1 SLOAD PUSH1 0xFF NOT AND SWAP1 SSTORE PUSH32 0x5DB9EE0A495BF2E6FF9C91A7834C1BA4FDD244A5E8AA4E537BD38AEAE4B073AA CALLER JUMPDEST PUSH1 0x40 MLOAD PUSH1 0x1 PUSH1 0x1 PUSH1 0xA0 SHL SUB SWAP1 SWAP2 AND DUP2 MSTORE PUSH1 0x20 ADD PUSH1 0x40 MLOAD DUP1 SWAP2 SUB SWAP1 LOG1 JUMP JUMPDEST PUSH1 0x1 PUSH1 0x1 PUSH1 0xA0 SHL SUB DUP3 AND PUSH2 0x119C JUMPI PUSH1 0x40 MLOAD PUSH4 0x4B637E8F PUSH1 0xE1 SHL DUP2 MSTORE PUSH1 0x0 PUSH1 0x4 DUP3 ADD MSTORE PUSH1 0x24 ADD PUSH2 0x722 JUMP JUMPDEST PUSH2 0xC31 DUP3 PUSH1 0x0 DUP4 PUSH2 0x12BA JUMP JUMPDEST PUSH2 0x11B0 PUSH2 0x1321 JUMP JUMPDEST PUSH1 0x5 DUP1 SLOAD PUSH1 0xFF NOT AND PUSH1 0x1 OR SWAP1 SSTORE PUSH32 0x62E78CEA01BEE320CD4E420270B5EA74000D11B0C9F74754EBDBFC544B05A258 PUSH2 0x1155 CALLER SWAP1 JUMP JUMPDEST PUSH1 0x1 PUSH1 0x1 PUSH1 0xA0 SHL SUB DUP5 AND PUSH2 0x120F JUMPI PUSH1 0x40 MLOAD PUSH4 0xE602DF05 PUSH1 0xE0 SHL DUP2 MSTORE PUSH1 0x0 PUSH1 0x4 DUP3 ADD MSTORE PUSH1 0x24 ADD PUSH2 0x722 JUMP JUMPDEST PUSH1 0x1 PUSH1 0x1 PUSH1 0xA0 SHL SUB DUP4 AND PUSH2 0x1239 JUMPI PUSH1 0x40 MLOAD PUSH4 0x4A1406B1 PUSH1 0xE1 SHL DUP2 MSTORE PUSH1 0x0 PUSH1 0x4 DUP3 ADD MSTORE PUSH1 0x24 ADD PUSH2 0x722 JUMP JUMPDEST PUSH1 0x1 PUSH1 0x1 PUSH1 0xA0 SHL SUB DUP1 DUP6 AND PUSH1 0x0 SWAP1 DUP2 MSTORE PUSH1 0x1 PUSH1 0x20 SWAP1 DUP2 MSTORE PUSH1 0x40 DUP1 DUP4 KECCAK256 SWAP4 DUP8 AND DUP4 MSTORE SWAP3 SWAP1 MSTORE KECCAK256 DUP3 SWAP1 SSTORE DUP1 ISZERO PUSH2 0x976 JUMPI DUP3 PUSH1 0x1 PUSH1 0x1 PUSH1 0xA0 SHL SUB AND DUP5 PUSH1 0x1 PUSH1 0x1 PUSH1 0xA0 SHL SUB AND PUSH32 0x8C5BE1E5EBEC7D5BD14F71427D1E84F3DD0314C0F7B2291E5B200AC8C7C3B925 DUP5 PUSH1 0x40 MLOAD PUSH2 0x12AC SWAP2 DUP2 MSTORE PUSH1 0x20 ADD SWAP1 JUMP JUMPDEST PUSH1 0x40 MLOAD DUP1 SWAP2 SUB SWAP1 LOG3 POP POP POP POP JUMP JUMPDEST PUSH2 0x9AF DUP4 DUP4 DUP4 PUSH2 0x1345 JUMP JUMPDEST PUSH2 0x12CF DUP3 DUP3 PUSH2 0xCB3 JUMP JUMPDEST PUSH2 0xC31 JUMPI PUSH1 0x40 MLOAD PUSH4 0xE2517D3F PUSH1 0xE0 SHL DUP2 MSTORE PUSH1 0x1 PUSH1 0x1 PUSH1 0xA0 SHL SUB DUP3 AND PUSH1 0x4 DUP3 ADD MSTORE PUSH1 0x24 DUP2 ADD DUP4 SWAP1 MSTORE PUSH1 0x44 ADD PUSH2 0x722 JUMP JUMPDEST PUSH1 0x5 SLOAD PUSH1 0xFF AND PUSH2 0xA32 JUMPI PUSH1 0x40 MLOAD PUSH4 0x8DFC202B PUSH1 0xE0 SHL DUP2 MSTORE PUSH1 0x4 ADD PUSH1 0x40 MLOAD DUP1 SWAP2 SUB SWAP1 REVERT JUMPDEST PUSH1 0x5 SLOAD PUSH1 0xFF AND ISZERO PUSH2 0xA32 JUMPI PUSH1 0x40 MLOAD PUSH4 0xD93C0665 PUSH1 0xE0 SHL DUP2 MSTORE PUSH1 0x4 ADD PUSH1 0x40 MLOAD DUP1 SWAP2 SUB SWAP1 REVERT JUMPDEST PUSH2 0x134D PUSH2 0x1321 JUMP JUMPDEST PUSH2 0x9AF DUP4 DUP4 DUP4 PUSH1 0x1 PUSH1 0x1 PUSH1 0xA0 SHL SUB DUP4 AND PUSH2 0x137E JUMPI DUP1 PUSH1 0x2 PUSH1 0x0 DUP3 DUP3 SLOAD PUSH2 0x1373 SWAP2 SWAP1 PUSH2 0x18AD JUMP JUMPDEST SWAP1 SWAP2 SSTORE POP PUSH2 0x13F0 SWAP1 POP JUMP JUMPDEST PUSH1 0x1 PUSH1 0x1 PUSH1 0xA0 SHL SUB DUP4 AND PUSH1 0x0 SWAP1 DUP2 MSTORE PUSH1 0x20 DUP2 SWAP1 MSTORE PUSH1 0x40 SWAP1 KECCAK256 SLOAD DUP2 DUP2 LT ISZERO PUSH2 0x13D1 JUMPI PUSH1 0x40 MLOAD PUSH4 0x391434E3 PUSH1 0xE2 SHL DUP2 MSTORE PUSH1 0x1 PUSH1 0x1 PUSH1 0xA0 SHL SUB DUP6 AND PUSH1 0x4 DUP3 ADD MSTORE PUSH1 0x24 DUP2 ADD DUP3 SWAP1 MSTORE PUSH1 0x44 DUP2 ADD DUP4 SWAP1 MSTORE PUSH1 0x64 ADD PUSH2 0x722 JUMP JUMPDEST PUSH1 0x1 PUSH1 0x1 PUSH1 0xA0 SHL SUB DUP5 AND PUSH1 0x0 SWAP1 DUP2 MSTORE PUSH1 0x20 DUP2 SWAP1 MSTORE PUSH1 0x40 SWAP1 KECCAK256 SWAP1 DUP3 SWAP1 SUB SWAP1 SSTORE JUMPDEST PUSH1 0x1 PUSH1 0x1 PUSH1 0xA0 SHL SUB DUP3 AND PUSH2 0x140C JUMPI PUSH1 0x2 DUP1 SLOAD DUP3 SWAP1 SUB SWAP1 SSTORE PUSH2 0x142B JUMP JUMPDEST PUSH1 0x1 PUSH1 0x1 PUSH1 0xA0 SHL SUB DUP3 AND PUSH1 0x0 SWAP1 DUP2 MSTORE PUSH1 0x20 DUP2 SWAP1 MSTORE PUSH1 0x40 SWAP1 KECCAK256 DUP1 SLOAD DUP3 ADD SWAP1 SSTORE JUMPDEST DUP2 PUSH1 0x1 PUSH1 0x1 PUSH1 0xA0 SHL SUB AND DUP4 PUSH1 0x1 PUSH1 0x1 PUSH1 0xA0 SHL SUB AND PUSH32 0xDDF252AD1BE2C89B69C2B068FC378DAA952BA7F163C4A11628F55A4DF523B3EF DUP4 PUSH1 0x40 MLOAD PUSH2 0x1470 SWAP2 DUP2 MSTORE PUSH1 0x20 ADD SWAP1 JUMP JUMPDEST PUSH1 0x40 MLOAD DUP1 SWAP2 SUB SWAP1 LOG3 POP POP POP JUMP JUMPDEST PUSH1 0x0 PUSH1 0x20 DUP3 DUP5 SUB SLT ISZERO PUSH2 0x148F JUMPI PUSH1 0x0 DUP1 REVERT JUMPDEST DUP2 CALLDATALOAD PUSH1 0x1 PUSH1 0x1 PUSH1 0xE0 SHL SUB NOT DUP2 AND DUP2 EQ PUSH2 0x14A7 JUMPI PUSH1 0x0 DUP1 REVERT JUMPDEST SWAP4 SWAP3 POP POP POP JUMP JUMPDEST PUSH1 0x0 DUP2 MLOAD DUP1 DUP5 MSTORE PUSH1 0x0 JUMPDEST DUP2 DUP2 LT ISZERO PUSH2 0x14D4 JUMPI PUSH1 0x20 DUP2 DUP6 ADD DUP2 ADD MLOAD DUP7 DUP4 ADD DUP3 ADD MSTORE ADD PUSH2 0x14B8 JUMP JUMPDEST POP PUSH1 0x0 PUSH1 0x20 DUP3 DUP7 ADD ADD MSTORE PUSH1 0x20 PUSH1 0x1F NOT PUSH1 0x1F DUP4 ADD AND DUP6 ADD ADD SWAP2 POP POP SWAP3 SWAP2 POP POP JUMP JUMPDEST PUSH1 0x20 DUP2 MSTORE PUSH1 0x0 PUSH2 0x14A7 PUSH1 0x20 DUP4 ADD DUP5 PUSH2 0x14AE JUMP JUMPDEST DUP1 CALLDATALOAD PUSH1 0x1 PUSH1 0x1 PUSH1 0xA0 SHL SUB DUP2 AND DUP2 EQ PUSH2 0x151E JUMPI PUSH1 0x0 DUP1 REVERT JUMPDEST SWAP2 SWAP1 POP JUMP JUMPDEST PUSH1 0x0 DUP1 PUSH1 0x40 DUP4 DUP6 SUB SLT ISZERO PUSH2 0x1536 JUMPI PUSH1 0x0 DUP1 REVERT JUMPDEST PUSH2 0x153F DUP4 PUSH2 0x1507 JUMP JUMPDEST SWAP5 PUSH1 0x20 SWAP4 SWAP1 SWAP4 ADD CALLDATALOAD SWAP4 POP POP POP JUMP JUMPDEST PUSH1 0x0 PUSH1 0x20 DUP3 DUP5 SUB SLT ISZERO PUSH2 0x155F JUMPI PUSH1 0x0 DUP1 REVERT JUMPDEST PUSH2 0x14A7 DUP3 PUSH2 0x1507 JUMP JUMPDEST DUP4 DUP2 MSTORE DUP3 PUSH1 0x20 DUP3 ADD MSTORE PUSH1 0x60 PUSH1 0x40 DUP3 ADD MSTORE PUSH1 0x0 PUSH2 0x1587 PUSH1 0x60 DUP4 ADD DUP5 PUSH2 0x14AE JUMP JUMPDEST SWAP6 SWAP5 POP POP POP POP POP JUMP JUMPDEST DUP1 CALLDATALOAD PUSH1 0x5 DUP2 LT PUSH2 0x151E JUMPI PUSH1 0x0 DUP1 REVERT JUMPDEST PUSH4 0x4E487B71 PUSH1 0xE0 SHL PUSH1 0x0 MSTORE PUSH1 0x41 PUSH1 0x4 MSTORE PUSH1 0x24 PUSH1 0x0 REVERT JUMPDEST PUSH1 0x0 DUP3 PUSH1 0x1F DUP4 ADD SLT PUSH2 0x15C6 JUMPI PUSH1 0x0 DUP1 REVERT JUMPDEST DUP2 CALLDATALOAD PUSH8 0xFFFFFFFFFFFFFFFF DUP1 DUP3 GT ISZERO PUSH2 0x15E1 JUMPI PUSH2 0x15E1 PUSH2 0x159F JUMP JUMPDEST PUSH1 0x40 MLOAD PUSH1 0x1F DUP4 ADD PUSH1 0x1F NOT SWAP1 DUP2 AND PUSH1 0x3F ADD AND DUP2 ADD SWAP1 DUP3 DUP3 GT DUP2 DUP4 LT OR ISZERO PUSH2 0x1609 JUMPI PUSH2 0x1609 PUSH2 0x159F JUMP JUMPDEST DUP2 PUSH1 0x40 MSTORE DUP4 DUP2 MSTORE DUP7 PUSH1 0x20 DUP6 DUP9 ADD ADD GT ISZERO PUSH2 0x1622 JUMPI PUSH1 0x0 DUP1 REVERT JUMPDEST DUP4 PUSH1 0x20 DUP8 ADD PUSH1 0x20 DUP4 ADD CALLDATACOPY PUSH1 0x0 PUSH1 0x20 DUP6 DUP4 ADD ADD MSTORE DUP1 SWAP5 POP POP POP POP POP SWAP3 SWAP2 POP POP JUMP JUMPDEST PUSH1 0x0 DUP1 PUSH1 0x0 DUP1 PUSH1 0x80 DUP6 DUP8 SUB SLT ISZERO PUSH2 0x1658 JUMPI PUSH1 0x0 DUP1 REVERT JUMPDEST PUSH2 0x1661 DUP6 PUSH2 0x1507 JUMP JUMPDEST SWAP4 POP PUSH1 0x20 DUP6 ADD CALLDATALOAD SWAP3 POP PUSH2 0x1676 PUSH1 0x40 DUP7 ADD PUSH2 0x1590 JUMP JUMPDEST SWAP2 POP PUSH1 0x60 DUP6 ADD CALLDATALOAD PUSH8 0xFFFFFFFFFFFFFFFF DUP2 GT ISZERO PUSH2 0x1692 JUMPI PUSH1 0x0 DUP1 REVERT JUMPDEST PUSH2 0x169E DUP8 DUP3 DUP9 ADD PUSH2 0x15B5 JUMP JUMPDEST SWAP2 POP POP SWAP3 SWAP6 SWAP2 SWAP5 POP SWAP3 POP JUMP JUMPDEST PUSH1 0x0 DUP1 PUSH1 0x0 PUSH1 0x60 DUP5 DUP7 SUB SLT ISZERO PUSH2 0x16BF JUMPI PUSH1 0x0 DUP1 REVERT JUMPDEST PUSH2 0x16C8 DUP5 PUSH2 0x1507 JUMP JUMPDEST SWAP3 POP PUSH2 0x16D6 PUSH1 0x20 DUP6 ADD PUSH2 0x1507 JUMP JUMPDEST SWAP2 POP PUSH1 0x40 DUP5 ADD CALLDATALOAD SWAP1 POP SWAP3 POP SWAP3 POP SWAP3 JUMP JUMPDEST PUSH1 0x0 PUSH1 0x20 DUP3 DUP5 SUB SLT ISZERO PUSH2 0x16F8 JUMPI PUSH1 0x0 DUP1 REVERT JUMPDEST POP CALLDATALOAD SWAP2 SWAP1 POP JUMP JUMPDEST PUSH1 0x0 DUP1 PUSH1 0x40 DUP4 DUP6 SUB SLT ISZERO PUSH2 0x1712 JUMPI PUSH1 0x0 DUP1 REVERT JUMPDEST DUP3 CALLDATALOAD SWAP2 POP PUSH2 0x1722 PUSH1 0x20 DUP5 ADD PUSH2 0x1507 JUMP JUMPDEST SWAP1 POP SWAP3 POP SWAP3 SWAP1 POP JUMP JUMPDEST PUSH1 0x0 DUP1 PUSH1 0x0 PUSH1 0x60 DUP5 DUP7 SUB SLT ISZERO PUSH2 0x1740 JUMPI PUSH1 0x0 DUP1 REVERT JUMPDEST PUSH2 0x1749 DUP5 PUSH2 0x1507 JUMP JUMPDEST SWAP3 POP PUSH1 0x20 DUP5 ADD CALLDATALOAD SWAP2 POP PUSH1 0x40 DUP5 ADD CALLDATALOAD PUSH8 0xFFFFFFFFFFFFFFFF DUP2 GT ISZERO PUSH2 0x176C JUMPI PUSH1 0x0 DUP1 REVERT JUMPDEST PUSH2 0x1778 DUP7 DUP3 DUP8 ADD PUSH2 0x15B5 JUMP JUMPDEST SWAP2 POP POP SWAP3 POP SWAP3 POP SWAP3 JUMP JUMPDEST PUSH1 0x0 DUP1 PUSH1 0x40 DUP4 DUP6 SUB SLT ISZERO PUSH2 0x1795 JUMPI PUSH1 0x0 DUP1 REVERT JUMPDEST PUSH2 0x179E DUP4 PUSH2 0x1507 JUMP JUMPDEST SWAP2 POP PUSH2 0x1722 PUSH1 0x20 DUP5 ADD PUSH2 0x1507 JUMP JUMPDEST PUSH1 0x0 PUSH1 0x20 DUP3 DUP5 SUB SLT ISZERO PUSH2 0x17BE JUMPI PUSH1 0x0 DUP1 REVERT JUMPDEST PUSH2 0x14A7 DUP3 PUSH2 0x1590 JUMP JUMPDEST PUSH1 0x1 DUP2 DUP2 SHR SWAP1 DUP3 AND DUP1 PUSH2 0x17DB JUMPI PUSH1 0x7F DUP3 AND SWAP2 POP JUMPDEST PUSH1 0x20 DUP3 LT DUP2 SUB PUSH2 0x17FB JUMPI PUSH4 0x4E487B71 PUSH1 0xE0 SHL PUSH1 0x0 MSTORE PUSH1 0x22 PUSH1 0x4 MSTORE PUSH1 0x24 PUSH1 0x0 REVERT JUMPDEST POP SWAP2 SWAP1 POP JUMP JUMPDEST PUSH1 0x20 DUP1 DUP3 MSTORE PUSH1 0x27 SWAP1 DUP3 ADD MSTORE PUSH32 0x506F54546F6B656E3A20616D6F756E74206D7573742062652067726561746572 PUSH1 0x40 DUP3 ADD MSTORE PUSH7 0x207468616E203 PUSH1 0xCC SHL PUSH1 0x60 DUP3 ADD MSTORE PUSH1 0x80 ADD SWAP1 JUMP JUMPDEST PUSH4 0x4E487B71 PUSH1 0xE0 SHL PUSH1 0x0 MSTORE PUSH1 0x21 PUSH1 0x4 MSTORE PUSH1 0x24 PUSH1 0x0 REVERT JUMPDEST PUSH4 0x4E487B71 PUSH1 0xE0 SHL PUSH1 0x0 MSTORE PUSH1 0x11 PUSH1 0x4 MSTORE PUSH1 0x24 PUSH1 0x0 REVERT JUMPDEST DUP1 DUP3 MUL DUP2 ISZERO DUP3 DUP3 DIV DUP5 EQ OR PUSH2 0x555 JUMPI PUSH2 0x555 PUSH2 0x185E JUMP JUMPDEST PUSH1 0x0 DUP3 PUSH2 0x18A8 JUMPI PUSH4 0x4E487B71 PUSH1 0xE0 SHL PUSH1 0x0 MSTORE PUSH1 0x12 PUSH1 0x4 MSTORE PUSH1 0x24 PUSH1 0x0 REVERT JUMPDEST POP DIV SWAP1 JUMP JUMPDEST DUP1 DUP3 ADD DUP1 DUP3 GT ISZERO PUSH2 0x555 JUMPI PUSH2 0x555 PUSH2 0x185E JUMP JUMPDEST DUP5 DUP2 MSTORE PUSH1 0x0 PUSH1 0x5 DUP6 LT PUSH2 0x18E3 JUMPI PUSH4 0x4E487B71 PUSH1 0xE0 SHL PUSH1 0x0 MSTORE PUSH1 0x21 PUSH1 0x4 MSTORE PUSH1 0x24 PUSH1 0x0 REVERT JUMPDEST DUP5 PUSH1 0x20 DUP4 ADD MSTORE PUSH1 0x80 PUSH1 0x40 DUP4 ADD MSTORE PUSH2 0x18FD PUSH1 0x80 DUP4 ADD DUP6 PUSH2 0x14AE JUMP JUMPDEST SWAP1 POP DUP3 PUSH1 0x60 DUP4 ADD MSTORE SWAP6 SWAP5 POP POP POP POP POP JUMP JUMPDEST PUSH1 0x1F DUP3 GT ISZERO PUSH2 0x9AF JUMPI PUSH1 0x0 DUP2 DUP2 MSTORE PUSH1 0x20 DUP2 KECCAK256 PUSH1 0x1F DUP6 ADD PUSH1 0x5 SHR DUP2 ADD PUSH1 0x20 DUP7 LT ISZERO PUSH2 0x1935 JUMPI POP DUP1 JUMPDEST PUSH1 0x1F DUP6 ADD PUSH1 0x5 SHR DUP3 ADD SWAP2 POP JUMPDEST DUP2 DUP2 LT ISZERO PUSH2 0x1954 JUMPI DUP3 DUP2 SSTORE PUSH1 0x1 ADD PUSH2 0x1941 JUMP JUMPDEST POP POP POP POP POP POP JUMP JUMPDEST DUP2 MLOAD PUSH8 0xFFFFFFFFFFFFFFFF DUP2 GT ISZERO PUSH2 0x1976 JUMPI PUSH2 0x1976 PUSH2 0x159F JUMP JUMPDEST PUSH2 0x198A DUP2 PUSH2 0x1984 DUP5 SLOAD PUSH2 0x17C7 JUMP JUMPDEST DUP5 PUSH2 0x190E JUMP JUMPDEST PUSH1 0x20 DUP1 PUSH1 0x1F DUP4 GT PUSH1 0x1 DUP2 EQ PUSH2 0x19BF JUMPI PUSH1 0x0 DUP5 ISZERO PUSH2 0x19A7 JUMPI POP DUP6 DUP4 ADD MLOAD JUMPDEST PUSH1 0x0 NOT PUSH1 0x3 DUP7 SWAP1 SHL SHR NOT AND PUSH1 0x1 DUP6 SWAP1 SHL OR DUP6 SSTORE PUSH2 0x1954 JUMP JUMPDEST PUSH1 0x0 DUP6 DUP2 MSTORE PUSH1 0x20 DUP2 KECCAK256 PUSH1 0x1F NOT DUP7 AND SWAP2 JUMPDEST DUP3 DUP2 LT ISZERO PUSH2 0x19EE JUMPI DUP9 DUP7 ADD MLOAD DUP3 SSTORE SWAP5 DUP5 ADD SWAP5 PUSH1 0x1 SWAP1 SWAP2 ADD SWAP1 DUP5 ADD PUSH2 0x19CF JUMP JUMPDEST POP DUP6 DUP3 LT ISZERO PUSH2 0x1A0C JUMPI DUP8 DUP6 ADD MLOAD PUSH1 0x0 NOT PUSH1 0x3 DUP9 SWAP1 SHL PUSH1 0xF8 AND SHR NOT AND DUP2 SSTORE JUMPDEST POP POP POP POP POP PUSH1 0x1 SWAP1 DUP2 SHL ADD SWAP1 SSTORE POP JUMP JUMPDEST DUP3 DUP2 MSTORE PUSH1 0x40 PUSH1 0x20 DUP3 ADD MSTORE PUSH1 0x0 PUSH2 0x1A35 PUSH1 0x40 DUP4 ADD DUP5 PUSH2 0x14AE JUMP JUMPDEST SWAP5 SWAP4 POP POP POP POP JUMP INVALID LOG2 PUSH5 0x6970667358 0x22 SLT KECCAK256 PUSH20 0xC7AC542E454CF238A0F60682A94095230A7D7163 SWAP14 LOG0 0xB4 0xCF 0x27 0x5C DUP2 ADDMOD 0xD7 0xD2 CALL PUSH5 0x736F6C6343 STOP ADDMOD EQ STOP CALLER "},"methodIdentifiers":{"ADMIN_ROLE()":"75b238fc","BURNER_ROLE()":"282c51f3","DEFAULT_ADMIN_ROLE()":"a217fddf","MAX_SUPPLY()":"32cb6b0c","MINTER_ROLE()":"d5391393","PAUSER_ROLE()":"e63ab1e9","allowance(address,address)":"dd62ed3e","applyPenalty(address,uint256,string)":"c274326d","approve(address,uint256)":"095ea7b3","balanceOf(address)":"70a08231","burn(uint256)":"42966c68","burnFrom(address,uint256)":"79cc6790","decimals()":"313ce567","getRoleAdmin(bytes32)":"248a9ca3","grantRole(bytes32,address)":"2f2ff15d","hasRole(bytes32,address)":"91d14854","isWhitelisted(address)":"3af32abf","mintReward(address,uint256,uint8,string)":"13be81d6","name()":"06fdde03","pause()":"8456cb59","paused()":"5c975abb","renounceRole(bytes32,address)":"36568abe","revokeRole(bytes32,address)":"d547741f","rewardMultipliers(uint8)":"f88da576","supportsInterface(bytes4)":"01ffc9a7","symbol()":"95d89b41","totalBurned()":"d89135cd","totalMinted()":"a2309ff8","totalSupply()":"18160ddd","transfer(address,uint256)":"a9059cbb","transferFrom(address,address,uint256)":"23b872dd","trustScores(address)":"12df0fc4","unpause()":"3f4ba83a","updateTrustScore(address,uint256,string)":"4750421e"}}}}}