{
  "_format": "hh-sol-artifact-1",
  "contractName": "PoTToken",
  "sourceName": "contracts/PoTToken.sol",
  "abi": [
    {
      "inputs": [],
      "stateMutability": "nonpayable",
      "type": "constructor"
    },
    {
      "inputs": [],
      "name": "AccessControlBadConfirmation",
      "type": "error"
    },
    {
      "inputs": [
        {
          "internalType": "address",
          "name": "account",
          "type": "address"
        },
        {
          "internalType": "bytes32",
          "name": "neededRole",
          "type": "bytes32"
        }
      ],
      "name": "AccessControlUnauthorizedAccount",
      "type": "error"
    },
    {
      "inputs": [
        {
          "internalType": "address",
          "name": "spender",
          "type": "address"
        },
        {
          "internalType": "uint256",
          "name": "allowance",
          "type": "uint256"
        },
        {
          "internalType": "uint256",
          "name": "needed",
          "type": "uint256"
        }
      ],
      "name": "ERC20InsufficientAllowance",
      "type": "error"
    },
    {
      "inputs": [
        {
          "internalType": "address",
          "name": "sender",
          "type": "address"
        },
        {
          "internalType": "uint256",
          "name": "balance",
          "type": "uint256"
        },
        {
          "internalType": "uint256",
          "name": "needed",
          "type": "uint256"
        }
      ],
      "name": "ERC20InsufficientBalance",
      "type": "error"
    },
    {
      "inputs": [
        {
          "internalType": "address",
          "name": "approver",
          "type": "address"
        }
      ],
      "name": "ERC20InvalidApprover",
      "type": "error"
    },
    {
      "inputs": [
        {
          "internalType": "address",
          "name": "receiver",
          "type": "address"
        }
      ],
      "name": "ERC20InvalidReceiver",
      "type": "error"
    },
    {
      "inputs": [
        {
          "internalType": "address",
          "name": "sender",
          "type": "address"
        }
      ],
      "name": "ERC20InvalidSender",
      "type": "error"
    },
    {
      "inputs": [
        {
          "internalType": "address",
          "name": "spender",
          "type": "address"
        }
      ],
      "name": "ERC20InvalidSpender",
      "type": "error"
    },
    {
      "inputs": [],
      "name": "EnforcedPause",
      "type": "error"
    },
    {
      "inputs": [],
      "name": "ExpectedPause",
      "type": "error"
    },
    {
      "inputs": [],
      "name": "ReentrancyGuardReentrantCall",
      "type": "error"
    },
    {
      "anonymous": false,
      "inputs": [
        {
          "indexed": true,
          "internalType": "address",
          "name": "owner",
          "type": "address"
        },
        {
          "indexed": true,
          "internalType": "address",
          "name": "spender",
          "type": "address"
        },
        {
          "indexed": false,
          "internalType": "uint256",
          "name": "value",
          "type": "uint256"
        }
      ],
      "name": "Approval",
      "type": "event"
    },
    {
      "anonymous": false,
      "inputs": [
        {
          "indexed": false,
          "internalType": "address",
          "name": "account",
          "type": "address"
        }
      ],
      "name": "Paused",
      "type": "event"
    },
    {
      "anonymous": false,
      "inputs": [
        {
          "indexed": true,
          "internalType": "address",
          "name": "user",
          "type": "address"
        },
        {
          "indexed": false,
          "internalType": "uint256",
          "name": "amount",
          "type": "uint256"
        },
        {
          "indexed": false,
          "internalType": "string",
          "name": "reason",
          "type": "string"
        }
      ],
      "name": "PenaltyApplied",
      "type": "event"
    },
    {
      "anonymous": false,
      "inputs": [
        {
          "indexed": true,
          "internalType": "address",
          "name": "user",
          "type": "address"
        },
        {
          "indexed": false,
          "internalType": "uint256",
          "name": "amount",
          "type": "uint256"
        },
        {
          "indexed": false,
          "internalType": "enum PoTToken.RewardCategory",
          "name": "category",
          "type": "uint8"
        },
        {
          "indexed": false,
          "internalType": "string",
          "name": "reason",
          "type": "string"
        },
        {
          "indexed": false,
          "internalType": "uint256",
          "name": "trustScore",
          "type": "uint256"
        }
      ],
      "name": "RewardMinted",
      "type": "event"
    },
    {
      "anonymous": false,
      "inputs": [
        {
          "indexed": true,
          "internalType": "bytes32",
          "name": "role",
          "type": "bytes32"
        },
        {
          "indexed": true,
          "internalType": "bytes32",
          "name": "previousAdminRole",
          "type": "bytes32"
        },
        {
          "indexed": true,
          "internalType": "bytes32",
          "name": "newAdminRole",
          "type": "bytes32"
        }
      ],
      "name": "RoleAdminChanged",
      "type": "event"
    },
    {
      "anonymous": false,
      "inputs": [
        {
          "indexed": true,
          "internalType": "bytes32",
          "name": "role",
          "type": "bytes32"
        },
        {
          "indexed": true,
          "internalType": "address",
          "name": "account",
          "type": "address"
        },
        {
          "indexed": true,
          "internalType": "address",
          "name": "sender",
          "type": "address"
        }
      ],
      "name": "RoleGranted",
      "type": "event"
    },
    {
      "anonymous": false,
      "inputs": [
        {
          "indexed": true,
          "internalType": "bytes32",
          "name": "role",
          "type": "bytes32"
        },
        {
          "indexed": true,
          "internalType": "address",
          "name": "account",
          "type": "address"
        },
        {
          "indexed": true,
          "internalType": "address",
          "name": "sender",
          "type": "address"
        }
      ],
      "name": "RoleRevoked",
      "type": "event"
    },
    {
      "anonymous": false,
      "inputs": [
        {
          "indexed": true,
          "internalType": "address",
          "name": "from",
          "type": "address"
        },
        {
          "indexed": true,
          "internalType": "address",
          "name": "to",
          "type": "address"
        },
        {
          "indexed": false,
          "internalType": "uint256",
          "name": "value",
          "type": "uint256"
        }
      ],
      "name": "Transfer",
      "type": "event"
    },
    {
      "anonymous": false,
      "inputs": [
        {
          "indexed": true,
          "internalType": "address",
          "name": "user",
          "type": "address"
        },
        {
          "indexed": false,
          "internalType": "uint256",
          "name": "newScore",
          "type": "uint256"
        },
        {
          "indexed": false,
          "internalType": "string",
          "name": "reason",
          "type": "string"
        }
      ],
      "name": "TrustScoreUpdated",
      "type": "event"
    },
    {
      "anonymous": false,
      "inputs": [
        {
          "indexed": false,
          "internalType": "address",
          "name": "account",
          "type": "address"
        }
      ],
      "name": "Unpaused",
      "type": "event"
    },
    {
      "inputs": [],
      "name": "ADMIN_ROLE",
      "outputs": [
        {
          "internalType": "bytes32",
          "name": "",
          "type": "bytes32"
        }
      ],
      "stateMutability": "view",
      "type": "function"
    },
    {
      "inputs": [],
      "name": "BURNER_ROLE",
      "outputs": [
        {
          "internalType": "bytes32",
          "name": "",
          "type": "bytes32"
        }
      ],
      "stateMutability": "view",
      "type": "function"
    },
    {
      "inputs": [],
      "name": "DEFAULT_ADMIN_ROLE",
      "outputs": [
        {
          "internalType": "bytes32",
          "name": "",
          "type": "bytes32"
        }
      ],
      "stateMutability": "view",
      "type": "function"
    },
    {
      "inputs": [],
      "name": "MAX_SUPPLY",
      "outputs": [
        {
          "internalType": "uint256",
          "name": "",
          "type": "uint256"
        }
      ],
      "stateMutability": "view",
      "type": "function"
    },
    {
      "inputs": [],
      "name": "MINTER_ROLE",
      "outputs": [
        {
          "internalType": "bytes32",
          "name": "",
          "type": "bytes32"
        }
      ],
      "stateMutability": "view",
      "type": "function"
    },
    {
      "inputs": [],
      "name": "PAUSER_ROLE",
      "outputs": [
        {
          "internalType": "bytes32",
          "name": "",
          "type": "bytes32"
        }
      ],
      "stateMutability": "view",
      "type": "function"
    },
    {
      "inputs": [
        {
          "internalType": "address",
          "name": "owner",
          "type": "address"
        },
        {
          "internalType": "address",
          "name": "spender",
          "type": "address"
        }
      ],
      "name": "allowance",
      "outputs": [
        {
          "internalType": "uint256",
          "name": "",
          "type": "uint256"
        }
      ],
      "stateMutability": "view",
      "type": "function"
    },
    {
      "inputs": [
        {
          "internalType": "address",
          "name": "from",
          "type": "address"
        },
        {
          "internalType": "uint256",
          "name": "amount",
          "type": "uint256"
        },
        {
          "internalType": "string",
          "name": "reason",
          "type": "string"
        }
      ],
      "name": "applyPenalty",
      "outputs": [],
      "stateMutability": "nonpayable",
      "type": "function"
    },
    {
      "inputs": [
        {
          "internalType": "address",
          "name": "spender",
          "type": "address"
        },
        {
          "internalType": "uint256",
          "name": "value",
          "type": "uint256"
        }
      ],
      "name": "approve",
      "outputs": [
        {
          "internalType": "bool",
          "name": "",
          "type": "bool"
        }
      ],
      "stateMutability": "nonpayable",
      "type": "function"
    },
    {
      "inputs": [
        {
          "internalType": "address",
          "name": "account",
          "type": "address"
        }
      ],
      "name": "balanceOf",
      "outputs": [
        {
          "internalType": "uint256",
          "name": "",
          "type": "uint256"
        }
      ],
      "stateMutability": "view",
      "type": "function"
    },
    {
      "inputs": [
        {
          "internalType": "uint256",
          "name": "value",
          "type": "uint256"
        }
      ],
      "name": "burn",
      "outputs": [],
      "stateMutability": "nonpayable",
      "type": "function"
    },
    {
      "inputs": [
        {
          "internalType": "address",
          "name": "account",
          "type": "address"
        },
        {
          "internalType": "uint256",
          "name": "value",
          "type": "uint256"
        }
      ],
      "name": "burnFrom",
      "outputs": [],
      "stateMutability": "nonpayable",
      "type": "function"
    },
    {
      "inputs": [],
      "name": "decimals",
      "outputs": [
        {
          "internalType": "uint8",
          "name": "",
          "type": "uint8"
        }
      ],
      "stateMutability": "view",
      "type": "function"
    },
    {
      "inputs": [
        {
          "internalType": "bytes32",
          "name": "role",
          "type": "bytes32"
        }
      ],
      "name": "getRoleAdmin",
      "outputs": [
        {
          "internalType": "bytes32",
          "name": "",
          "type": "bytes32"
        }
      ],
      "stateMutability": "view",
      "type": "function"
    },
    {
      "inputs": [
        {
          "internalType": "bytes32",
          "name": "role",
          "type": "bytes32"
        },
        {
          "internalType": "address",
          "name": "account",
          "type": "address"
        }
      ],
      "name": "grantRole",
      "outputs": [],
      "stateMutability": "nonpayable",
      "type": "function"
    },
    {
      "inputs": [
        {
          "internalType": "bytes32",
          "name": "role",
          "type": "bytes32"
        },
        {
          "internalType": "address",
          "name": "account",
          "type": "address"
        }
      ],
      "name": "hasRole",
      "outputs": [
        {
          "internalType": "bool",
          "name": "",
          "type": "bool"
        }
      ],
      "stateMutability": "view",
      "type": "function"
    },
    {
      "inputs": [
        {
          "internalType": "address",
          "name": "",
          "type": "address"
        }
      ],
      "name": "isWhitelisted",
      "outputs": [
        {
          "internalType": "bool",
          "name": "",
          "type": "bool"
        }
      ],
      "stateMutability": "view",
      "type": "function"
    },
    {
      "inputs": [
        {
          "internalType": "address",
          "name": "to",
          "type": "address"
        },
        {
          "internalType": "uint256",
          "name": "baseAmount",
          "type": "uint256"
        },
        {
          "internalType": "enum PoTToken.RewardCategory",
          "name": "category",
          "type": "uint8"
        },
        {
          "internalType": "string",
          "name": "reason",
          "type": "string"
        }
      ],
      "name": "mintReward",
      "outputs": [],
      "stateMutability": "nonpayable",
      "type": "function"
    },
    {
      "inputs": [],
      "name": "name",
      "outputs": [
        {
          "internalType": "string",
          "name": "",
          "type": "string"
        }
      ],
      "stateMutability": "view",
      "type": "function"
    },
    {
      "inputs": [],
      "name": "pause",
      "outputs": [],
      "stateMutability": "nonpayable",
      "type": "function"
    },
    {
      "inputs": [],
      "name": "paused",
      "outputs": [
        {
          "internalType": "bool",
          "name": "",
          "type": "bool"
        }
      ],
      "stateMutability": "view",
      "type": "function"
    },
    {
      "inputs": [
        {
          "internalType": "bytes32",
          "name": "role",
          "type": "bytes32"
        },
        {
          "internalType": "address",
          "name": "callerConfirmation",
          "type": "address"
        }
      ],
      "name": "renounceRole",
      "outputs": [],
      "stateMutability": "nonpayable",
      "type": "function"
    },
    {
      "inputs": [
        {
          "internalType": "bytes32",
          "name": "role",
          "type": "bytes32"
        },
        {
          "internalType": "address",
          "name": "account",
          "type": "address"
        }
      ],
      "name": "revokeRole",
      "outputs": [],
      "stateMutability": "nonpayable",
      "type": "function"
    },
    {
      "inputs": [
        {
          "internalType": "enum PoTToken.RewardCategory",
          "name": "",
          "type": "uint8"
        }
      ],
      "name": "rewardMultipliers",
      "outputs": [
        {
          "internalType": "uint256",
          "name": "",
          "type": "uint256"
        }
      ],
      "stateMutability": "view",
      "type": "function"
    },
    {
      "inputs": [
        {
          "internalType": "bytes4",
          "name": "interfaceId",
          "type": "bytes4"
        }
      ],
      "name": "supportsInterface",
      "outputs": [
        {
          "internalType": "bool",
          "name": "",
          "type": "bool"
        }
      ],
      "stateMutability": "view",
      "type": "function"
    },
    {
      "inputs": [],
      "name": "symbol",
      "outputs": [
        {
          "internalType": "string",
          "name": "",
          "type": "string"
        }
      ],
      "stateMutability": "view",
      "type": "function"
    },
    {
      "inputs": [],
      "name": "totalBurned",
      "outputs": [
        {
          "internalType": "uint256",
          "name": "",
          "type": "uint256"
        }
      ],
      "stateMutability": "view",
      "type": "function"
    },
    {
      "inputs": [],
      "name": "totalMinted",
      "outputs": [
        {
          "internalType": "uint256",
          "name": "",
          "type": "uint256"
        }
      ],
      "stateMutability": "view",
      "type": "function"
    },
    {
      "inputs": [],
      "name": "totalSupply",
      "outputs": [
        {
          "internalType": "uint256",
          "name": "",
          "type": "uint256"
        }
      ],
      "stateMutability": "view",
      "type": "function"
    },
    {
      "inputs": [
        {
          "internalType": "address",
          "name": "to",
          "type": "address"
        },
        {
          "internalType": "uint256",
          "name": "value",
          "type": "uint256"
        }
      ],
      "name": "transfer",
      "outputs": [
        {
          "internalType": "bool",
          "name": "",
          "type": "bool"
        }
      ],
      "stateMutability": "nonpayable",
      "type": "function"
    },
    {
      "inputs": [
        {
          "internalType": "address",
          "name": "from",
          "type": "address"
        },
        {
          "internalType": "address",
          "name": "to",
          "type": "address"
        },
        {
          "internalType": "uint256",
          "name": "value",
          "type": "uint256"
        }
      ],
      "name": "transferFrom",
      "outputs": [
        {
          "internalType": "bool",
          "name": "",
          "type": "bool"
        }
      ],
      "stateMutability": "nonpayable",
      "type": "function"
    },
    {
      "inputs": [
        {
          "internalType": "address",
          "name": "",
          "type": "address"
        }
      ],
      "name": "trustScores",
      "outputs": [
        {
          "internalType": "uint256",
          "name": "score",
          "type": "uint256"
        },
        {
          "internalType": "uint256",
          "name": "lastUpdated",
          "type": "uint256"
        },
        {
          "internalType": "string",
          "name": "reason",
          "type": "string"
        }
      ],
      "stateMutability": "view",
      "type": "function"
    },
    {
      "inputs": [],
      "name": "unpause",
      "outputs": [],
      "stateMutability": "nonpayable",
      "type": "function"
    },
    {
      "inputs": [
        {
          "internalType": "address",
          "name": "user",
          "type": "address"
        },
        {
          "internalType": "uint256",
          "name": "newScore",
          "type": "uint256"
        },
        {
          "internalType": "string",
          "name": "reason",
          "type": "string"
        }
      ],
      "name": "updateTrustScore",
      "outputs": [],
      "stateMutability": "nonpayable",
      "type": "function"
    }
  ],
  "bytecode": "0x60806040523480156200001157600080fd5b506040518060400160405280601481526020017f50726f6f66206f6620547275737420546f6b656e000000000000000000000000815250604051806040016040528060038152602001621413d560ea1b81525081600390816200007591906200036b565b5060046200008482826200036b565b50506001600755506200009960003362000213565b50620000c67fa49807205ce4d355092ef5a8a18f56e8913cf4a201fbe287825b095693c217753362000213565b50620000f37f9f2df0fed2c77648de5860a4cc508cd0818c85b8b8a1ab4ceeef8d981c8956a63362000213565b50620001207f65d7a28e3265b37a6474929f336521b332c1681b933f6cb9f3376673440d862a3362000213565b506200014d7f3c11d16cbaffd01df69ce1c404f6340ee057498f5f00246190ea54220576a8483362000213565b50600c60205260647f13649b2456f1b42fef0f0040b3aaeabcd21a76a0f3f5defd4f583839455116e85560787fd421a5181c571bba3f01190c922c3b2a896fc1d84e86c9f17ac10e67ebef8b5c5560967f5d6016397a73f5e079297ac5a36fef17b4d9c3831618e63ab105738020ddd7205560c87fc0da782485e77ae272268ae0a3ff44c1552ecb60b3743924de17a815e0a3cfd755600460005261012c7f5b84bb9e0f5aa9cc45a8bb66468db5d4816d1e75ff86b5e1f1dd8d144dab80975562000437565b60008281526006602090815260408083206001600160a01b038516845290915281205460ff16620002bc5760008381526006602090815260408083206001600160a01b03861684529091529020805460ff19166001179055620002733390565b6001600160a01b0316826001600160a01b0316847f2f8788117e7eff1d82e926ec794901d17c78024a50270940304540a733656f0d60405160405180910390a4506001620002c0565b5060005b92915050565b634e487b7160e01b600052604160045260246000fd5b600181811c90821680620002f157607f821691505b6020821081036200031257634e487b7160e01b600052602260045260246000fd5b50919050565b601f8211156200036657600081815260208120601f850160051c81016020861015620003415750805b601f850160051c820191505b8181101562000362578281556001016200034d565b5050505b505050565b81516001600160401b03811115620003875762000387620002c6565b6200039f81620003988454620002dc565b8462000318565b602080601f831160018114620003d75760008415620003be5750858301515b600019600386901b1c1916600185901b17855562000362565b600085815260208120601f198616915b828110156200040857888601518255948401946001909101908401620003e7565b5085821015620004275787850151600019600388901b60f8161c191681555b5050505050600190811b01905550565b611a7380620004476000396000f3fe608060405234801561001057600080fd5b50600436106102065760003560e01c80635c975abb1161011a578063a2309ff8116100ad578063d547741f1161007c578063d547741f14610488578063d89135cd1461049b578063dd62ed3e146104a4578063e63ab1e9146104dd578063f88da5761461050457600080fd5b8063a2309ff814610432578063a9059cbb1461043b578063c274326d1461044e578063d53913931461046157600080fd5b80638456cb59116100e95780638456cb591461040757806391d148541461040f57806395d89b4114610422578063a217fddf1461042a57600080fd5b80635c975abb1461039957806370a08231146103a457806375b238fc146103cd57806379cc6790146103f457600080fd5b8063282c51f31161019d57806336568abe1161016c57806336568abe146103355780633af32abf146103485780633f4ba83a1461036b57806342966c68146103735780634750421e1461038657600080fd5b8063282c51f3146102da5780632f2ff15d14610301578063313ce5671461031457806332cb6b0c1461032357600080fd5b806313be81d6116101d957806313be81d61461027d57806318160ddd1461029257806323b872dd146102a4578063248a9ca3146102b757600080fd5b806301ffc9a71461020b57806306fdde0314610233578063095ea7b31461024857806312df0fc41461025b575b600080fd5b61021e61021936600461147d565b610524565b60405190151581526020015b60405180910390f35b61023b61055b565b60405161022a91906114f4565b61021e610256366004611523565b6105ed565b61026e61026936600461154d565b610605565b60405161022a93929190611568565b61029061028b366004611642565b6106b0565b005b6002545b60405190815260200161022a565b61021e6102b23660046116aa565b61092d565b6102966102c53660046116e6565b60009081526006602052604090206001015490565b6102967f3c11d16cbaffd01df69ce1c404f6340ee057498f5f00246190ea54220576a84881565b61029061030f3660046116ff565b610951565b6040516012815260200161022a565b6102966a52b7d2dcc80cd2e400000081565b6102906103433660046116ff565b61097c565b61021e61035636600461154d565b600b6020526000908152604090205460ff1681565b6102906109b4565b6102906103813660046116e6565b610a34565b61029061039436600461172b565b610a41565b60055460ff1661021e565b6102966103b236600461154d565b6001600160a01b031660009081526020819052604090205490565b6102967fa49807205ce4d355092ef5a8a18f56e8913cf4a201fbe287825b095693c2177581565b610290610402366004611523565b610c1c565b610290610c35565b61021e61041d3660046116ff565b610cb3565b61023b610cde565b610296600081565b61029660085481565b61021e610449366004611523565b610ced565b61029061045c36600461172b565b610cfb565b6102967f9f2df0fed2c77648de5860a4cc508cd0818c85b8b8a1ab4ceeef8d981c8956a681565b6102906104963660046116ff565b610ed5565b61029660095481565b6102966104b2366004611782565b6001600160a01b03918216600090815260016020908152604080832093909416825291909152205490565b6102967f65d7a28e3265b37a6474929f336521b332c1681b933f6cb9f3376673440d862a81565b6102966105123660046117ac565b600c6020526000908152604090205481565b60006001600160e01b03198216637965db0b60e01b148061055557506301ffc9a760e01b6001600160e01b03198316145b92915050565b60606003805461056a906117c7565b80601f0160208091040260200160405190810160405280929190818152602001828054610596906117c7565b80156105e35780601f106105b8576101008083540402835291602001916105e3565b820191906000526020600020905b8154815290600101906020018083116105c657829003601f168201915b5050505050905090565b6000336105fb818585610efa565b5060019392505050565b600a602052600090815260409020805460018201546002830180549293919261062d906117c7565b80601f0160208091040260200160405190810160405280929190818152602001828054610659906117c7565b80156106a65780601f1061067b576101008083540402835291602001916106a6565b820191906000526020600020905b81548152906001019060200180831161068957829003601f168201915b5050505050905083565b6106da7f9f2df0fed2c77648de5860a4cc508cd0818c85b8b8a1ab4ceeef8d981c8956a633610cb3565b61072b5760405162461bcd60e51b815260206004820152601f60248201527f506f54546f6b656e3a206d7573742068617665206d696e74657220726f6c650060448201526064015b60405180910390fd5b6001600160a01b03841661078f5760405162461bcd60e51b815260206004820152602560248201527f506f54546f6b656e3a2063616e6e6f74206d696e7420746f207a65726f206164604482015264647265737360d81b6064820152608401610722565b600083116107af5760405162461bcd60e51b815260040161072290611801565b6000600c60008460048111156107c7576107c7611848565b60048111156107d8576107d8611848565b815260208082019290925260409081016000908120546001600160a01b0389168252600a909352908120549192506127106108138385611874565b61081d919061188b565b9050600061082b82856118ad565b90506000606461083b838a611874565b610845919061188b565b90506a52b7d2dcc80cd2e40000008160085461086191906118ad565b11156108b95760405162461bcd60e51b815260206004820152602160248201527f506f54546f6b656e3a20776f756c6420657863656564206d617820737570706c6044820152607960f81b6064820152608401610722565b80600860008282546108cb91906118ad565b909155506108db90508982610f07565b886001600160a01b03167fa3fba0d291771b819d77c6e5fb08d58be912f2b01b2519ced9a404c58395edc78289898860405161091a94939291906118c0565b60405180910390a2505050505050505050565b60003361093b858285610f3d565b610946858585610fb6565b506001949350505050565b60008281526006602052604090206001015461096c81611015565b610976838361101f565b50505050565b6001600160a01b03811633146109a55760405163334bd91960e11b815260040160405180910390fd5b6109af82826110b3565b505050565b6109de7f65d7a28e3265b37a6474929f336521b332c1681b933f6cb9f3376673440d862a33610cb3565b610a2a5760405162461bcd60e51b815260206004820152601f60248201527f506f54546f6b656e3a206d75737420686176652070617573657220726f6c65006044820152606401610722565b610a32611120565b565b610a3e3382611172565b50565b610a6b7fa49807205ce4d355092ef5a8a18f56e8913cf4a201fbe287825b095693c2177533610cb3565b610ab75760405162461bcd60e51b815260206004820152601e60248201527f506f54546f6b656e3a206d75737420686176652061646d696e20726f6c6500006044820152606401610722565b6001600160a01b038316610b1b5760405162461bcd60e51b815260206004820152602560248201527f506f54546f6b656e3a20757365722063616e6e6f74206265207a65726f206164604482015264647265737360d81b6064820152608401610722565b6103e8821115610b7e5760405162461bcd60e51b815260206004820152602860248201527f506f54546f6b656e3a2074727573742073636f72652063616e6e6f7420657863604482015267065656420313030360c41b6064820152608401610722565b604080516060810182528381524260208083019182528284018581526001600160a01b0388166000908152600a909252939020825181559051600182015591519091906002820190610bd0908261195c565b50905050826001600160a01b03167f80fd1bfe6decdaebe12f66d28031eded82576e3348f6ddc7df67214a351d11a08383604051610c0f929190611a1c565b60405180910390a2505050565b610c27823383610f3d565b610c318282611172565b5050565b610c5f7f65d7a28e3265b37a6474929f336521b332c1681b933f6cb9f3376673440d862a33610cb3565b610cab5760405162461bcd60e51b815260206004820152601f60248201527f506f54546f6b656e3a206d75737420686176652070617573657220726f6c65006044820152606401610722565b610a326111a8565b60009182526006602090815260408084206001600160a01b0393909316845291905290205460ff1690565b60606004805461056a906117c7565b6000336105fb818585610fb6565b610d257f3c11d16cbaffd01df69ce1c404f6340ee057498f5f00246190ea54220576a84833610cb3565b610d715760405162461bcd60e51b815260206004820152601f60248201527f506f54546f6b656e3a206d7573742068617665206275726e657220726f6c65006044820152606401610722565b6001600160a01b038316610dd75760405162461bcd60e51b815260206004820152602760248201527f506f54546f6b656e3a2063616e6e6f74206275726e2066726f6d207a65726f206044820152666164647265737360c81b6064820152608401610722565b60008211610df75760405162461bcd60e51b815260040161072290611801565b81610e17846001600160a01b031660009081526020819052604090205490565b1015610e785760405162461bcd60e51b815260206004820152602a60248201527f506f54546f6b656e3a20696e73756666696369656e742062616c616e636520666044820152696f722070656e616c747960b01b6064820152608401610722565b8160096000828254610e8a91906118ad565b90915550610e9a90508383611172565b826001600160a01b03167f09843be59cdbf0d671efa609c2c4f0105f3ba87e2a489719e8b19792a21162e38383604051610c0f929190611a1c565b600082815260066020526040902060010154610ef081611015565b61097683836110b3565b6109af83838360016111e5565b6001600160a01b038216610f315760405163ec442f0560e01b815260006004820152602401610722565b610c31600083836112ba565b6001600160a01b038381166000908152600160209081526040808320938616835292905220546000198110156109765781811015610fa757604051637dc7a0d960e11b81526001600160a01b03841660048201526024810182905260448101839052606401610722565b610976848484840360006111e5565b6001600160a01b038316610fe057604051634b637e8f60e11b815260006004820152602401610722565b6001600160a01b03821661100a5760405163ec442f0560e01b815260006004820152602401610722565b6109af8383836112ba565b610a3e81336112c5565b600061102b8383610cb3565b6110ab5760008381526006602090815260408083206001600160a01b03861684529091529020805460ff191660011790556110633390565b6001600160a01b0316826001600160a01b0316847f2f8788117e7eff1d82e926ec794901d17c78024a50270940304540a733656f0d60405160405180910390a4506001610555565b506000610555565b60006110bf8383610cb3565b156110ab5760008381526006602090815260408083206001600160a01b0386168085529252808320805460ff1916905551339286917ff6391f5c32d9c69d2a47ea670b442974b53935d1edc7fd64eb21e047a839171b9190a4506001610555565b6111286112fe565b6005805460ff191690557f5db9ee0a495bf2e6ff9c91a7834c1ba4fdd244a5e8aa4e537bd38aeae4b073aa335b6040516001600160a01b03909116815260200160405180910390a1565b6001600160a01b03821661119c57604051634b637e8f60e11b815260006004820152602401610722565b610c31826000836112ba565b6111b0611321565b6005805460ff191660011790557f62e78cea01bee320cd4e420270b5ea74000d11b0c9f74754ebdbfc544b05a2586111553390565b6001600160a01b03841661120f5760405163e602df0560e01b815260006004820152602401610722565b6001600160a01b03831661123957604051634a1406b160e11b815260006004820152602401610722565b6001600160a01b038085166000908152600160209081526040808320938716835292905220829055801561097657826001600160a01b0316846001600160a01b03167f8c5be1e5ebec7d5bd14f71427d1e84f3dd0314c0f7b2291e5b200ac8c7c3b925846040516112ac91815260200190565b60405180910390a350505050565b6109af838383611345565b6112cf8282610cb3565b610c315760405163e2517d3f60e01b81526001600160a01b038216600482015260248101839052604401610722565b60055460ff16610a3257604051638dfc202b60e01b815260040160405180910390fd5b60055460ff1615610a325760405163d93c066560e01b815260040160405180910390fd5b61134d611321565b6109af8383836001600160a01b03831661137e57806002600082825461137391906118ad565b909155506113f09050565b6001600160a01b038316600090815260208190526040902054818110156113d15760405163391434e360e21b81526001600160a01b03851660048201526024810182905260448101839052606401610722565b6001600160a01b03841660009081526020819052604090209082900390555b6001600160a01b03821661140c5760028054829003905561142b565b6001600160a01b03821660009081526020819052604090208054820190555b816001600160a01b0316836001600160a01b03167fddf252ad1be2c89b69c2b068fc378daa952ba7f163c4a11628f55a4df523b3ef8360405161147091815260200190565b60405180910390a3505050565b60006020828403121561148f57600080fd5b81356001600160e01b0319811681146114a757600080fd5b9392505050565b6000815180845260005b818110156114d4576020818501810151868301820152016114b8565b506000602082860101526020601f19601f83011685010191505092915050565b6020815260006114a760208301846114ae565b80356001600160a01b038116811461151e57600080fd5b919050565b6000806040838503121561153657600080fd5b61153f83611507565b946020939093013593505050565b60006020828403121561155f57600080fd5b6114a782611507565b83815282602082015260606040820152600061158760608301846114ae565b95945050505050565b80356005811061151e57600080fd5b634e487b7160e01b600052604160045260246000fd5b600082601f8301126115c657600080fd5b813567ffffffffffffffff808211156115e1576115e161159f565b604051601f8301601f19908116603f011681019082821181831017156116095761160961159f565b8160405283815286602085880101111561162257600080fd5b836020870160208301376000602085830101528094505050505092915050565b6000806000806080858703121561165857600080fd5b61166185611507565b93506020850135925061167660408601611590565b9150606085013567ffffffffffffffff81111561169257600080fd5b61169e878288016115b5565b91505092959194509250565b6000806000606084860312156116bf57600080fd5b6116c884611507565b92506116d660208501611507565b9150604084013590509250925092565b6000602082840312156116f857600080fd5b5035919050565b6000806040838503121561171257600080fd5b8235915061172260208401611507565b90509250929050565b60008060006060848603121561174057600080fd5b61174984611507565b925060208401359150604084013567ffffffffffffffff81111561176c57600080fd5b611778868287016115b5565b9150509250925092565b6000806040838503121561179557600080fd5b61179e83611507565b915061172260208401611507565b6000602082840312156117be57600080fd5b6114a782611590565b600181811c908216806117db57607f821691505b6020821081036117fb57634e487b7160e01b600052602260045260246000fd5b50919050565b60208082526027908201527f506f54546f6b656e3a20616d6f756e74206d75737420626520677265617465726040820152660207468616e20360cc1b606082015260800190565b634e487b7160e01b600052602160045260246000fd5b634e487b7160e01b600052601160045260246000fd5b80820281158282048414176105555761055561185e565b6000826118a857634e487b7160e01b600052601260045260246000fd5b500490565b808201808211156105555761055561185e565b8481526000600585106118e357634e487b7160e01b600052602160045260246000fd5b846020830152608060408301526118fd60808301856114ae565b905082606083015295945050505050565b601f8211156109af57600081815260208120601f850160051c810160208610156119355750805b601f850160051c820191505b8181101561195457828155600101611941565b505050505050565b815167ffffffffffffffff8111156119765761197661159f565b61198a8161198484546117c7565b8461190e565b602080601f8311600181146119bf57600084156119a75750858301515b600019600386901b1c1916600185901b178555611954565b600085815260208120601f198616915b828110156119ee578886015182559484019460019091019084016119cf565b5085821015611a0c5787850151600019600388901b60f8161c191681555b5050505050600190811b01905550565b828152604060208201526000611a3560408301846114ae565b94935050505056fea264697066735822122073c7ac542e454cf238a0f60682a94095230a7d71639da0b4cf275c8108d7d2f164736f6c63430008140033",
  "linkReferences": {},
  "deployedLinkReferences": {}
}