{
  "_format": "hh-sol-artifact-1",
  "contractName": "DeFAIManager",
  "sourceName": "contracts/DeFAIManager.sol",
  "abi": [
    {
      "inputs": [
        {
          "internalType": "address",
          "name": "_nexusToken",
          "type": "address"
        },
        {
          "internalType": "address",
          "name": "_potToken",
          "type": "address"
        },
        {
          "internalType": "address",
          "name": "_feeRecipient",
          "type": "address"
        }
      ],
      "stateMutability": "nonpayable",
      "type": "constructor"
    },
    {
      "inputs": [],
      "name": "AccessControlBadConfirmation",
      "type": "error"
    },
    {
      "inputs": [
        {
          "internalType": "address",
          "name": "account",
          "type": "address"
        },
        {
          "internalType": "bytes32",
          "name": "neededRole",
          "type": "bytes32"
        }
      ],
      "name": "AccessControlUnauthorizedAccount",
      "type": "error"
    },
    {
      "inputs": [],
      "name": "EnforcedPause",
      "type": "error"
    },
    {
      "inputs": [],
      "name": "ExpectedPause",
      "type": "error"
    },
    {
      "inputs": [],
      "name": "ReentrancyGuardReentrantCall",
      "type": "error"
    },
    {
      "inputs": [
        {
          "internalType": "address",
          "name": "token",
          "type": "address"
        }
      ],
      "name": "SafeERC20FailedOperation",
      "type": "error"
    },
    {
      "anonymous": false,
      "inputs": [
        {
          "indexed": true,
          "internalType": "address",
          "name": "user",
          "type": "address"
        },
        {
          "indexed": false,
          "internalType": "uint256",
          "name": "amount",
          "type": "uint256"
        },
        {
          "indexed": false,
          "internalType": "string",
          "name": "reason",
          "type": "string"
        }
      ],
      "name": "EmergencyWithdrawal",
      "type": "event"
    },
    {
      "anonymous": false,
      "inputs": [
        {
          "indexed": true,
          "internalType": "address",
          "name": "user",
          "type": "address"
        },
        {
          "indexed": false,
          "internalType": "uint256",
          "name": "managementFee",
          "type": "uint256"
        },
        {
          "indexed": false,
          "internalType": "uint256",
          "name": "performanceFee",
          "type": "uint256"
        }
      ],
      "name": "FeesCollected",
      "type": "event"
    },
    {
      "anonymous": false,
      "inputs": [
        {
          "indexed": false,
          "internalType": "address",
          "name": "account",
          "type": "address"
        }
      ],
      "name": "Paused",
      "type": "event"
    },
    {
      "anonymous": false,
      "inputs": [
        {
          "indexed": true,
          "internalType": "address",
          "name": "owner",
          "type": "address"
        },
        {
          "indexed": false,
          "internalType": "uint256",
          "name": "initialValue",
          "type": "uint256"
        }
      ],
      "name": "PortfolioCreated",
      "type": "event"
    },
    {
      "anonymous": false,
      "inputs": [
        {
          "indexed": true,
          "internalType": "address",
          "name": "owner",
          "type": "address"
        },
        {
          "indexed": false,
          "internalType": "uint256",
          "name": "newValue",
          "type": "uint256"
        }
      ],
      "name": "PortfolioRebalanced",
      "type": "event"
    },
    {
      "anonymous": false,
      "inputs": [
        {
          "indexed": true,
          "internalType": "address",
          "name": "user",
          "type": "address"
        },
        {
          "indexed": false,
          "internalType": "uint256",
          "name": "riskScore",
          "type": "uint256"
        },
        {
          "indexed": false,
          "internalType": "bool",
          "name": "isApproved",
          "type": "bool"
        }
      ],
      "name": "RiskProfileUpdated",
      "type": "event"
    },
    {
      "anonymous": false,
      "inputs": [
        {
          "indexed": true,
          "internalType": "bytes32",
          "name": "role",
          "type": "bytes32"
        },
        {
          "indexed": true,
          "internalType": "bytes32",
          "name": "previousAdminRole",
          "type": "bytes32"
        },
        {
          "indexed": true,
          "internalType": "bytes32",
          "name": "newAdminRole",
          "type": "bytes32"
        }
      ],
      "name": "RoleAdminChanged",
      "type": "event"
    },
    {
      "anonymous": false,
      "inputs": [
        {
          "indexed": true,
          "internalType": "bytes32",
          "name": "role",
          "type": "bytes32"
        },
        {
          "indexed": true,
          "internalType": "address",
          "name": "account",
          "type": "address"
        },
        {
          "indexed": true,
          "internalType": "address",
          "name": "sender",
          "type": "address"
        }
      ],
      "name": "RoleGranted",
      "type": "event"
    },
    {
      "anonymous": false,
      "inputs": [
        {
          "indexed": true,
          "internalType": "bytes32",
          "name": "role",
          "type": "bytes32"
        },
        {
          "indexed": true,
          "internalType": "address",
          "name": "account",
          "type": "address"
        },
        {
          "indexed": true,
          "internalType": "address",
          "name": "sender",
          "type": "address"
        }
      ],
      "name": "RoleRevoked",
      "type": "event"
    },
    {
      "anonymous": false,
      "inputs": [
        {
          "indexed": true,
          "internalType": "uint256",
          "name": "strategyId",
          "type": "uint256"
        },
        {
          "indexed": false,
          "internalType": "address",
          "name": "strategyContract",
          "type": "address"
        },
        {
          "indexed": false,
          "internalType": "string",
          "name": "name",
          "type": "string"
        }
      ],
      "name": "StrategyAdded",
      "type": "event"
    },
    {
      "anonymous": false,
      "inputs": [
        {
          "indexed": true,
          "internalType": "uint256",
          "name": "strategyId",
          "type": "uint256"
        },
        {
          "indexed": false,
          "internalType": "bool",
          "name": "isActive",
          "type": "bool"
        },
        {
          "indexed": false,
          "internalType": "uint256",
          "name": "newAPY",
          "type": "uint256"
        }
      ],
      "name": "StrategyUpdated",
      "type": "event"
    },
    {
      "anonymous": false,
      "inputs": [
        {
          "indexed": false,
          "internalType": "address",
          "name": "account",
          "type": "address"
        }
      ],
      "name": "Unpaused",
      "type": "event"
    },
    {
      "anonymous": false,
      "inputs": [
        {
          "indexed": true,
          "internalType": "address",
          "name": "user",
          "type": "address"
        },
        {
          "indexed": false,
          "internalType": "uint256",
          "name": "amount",
          "type": "uint256"
        },
        {
          "indexed": false,
          "internalType": "uint256",
          "name": "strategyId",
          "type": "uint256"
        }
      ],
      "name": "YieldOptimized",
      "type": "event"
    },
    {
      "inputs": [],
      "name": "ADMIN_ROLE",
      "outputs": [
        {
          "internalType": "bytes32",
          "name": "",
          "type": "bytes32"
        }
      ],
      "stateMutability": "view",
      "type": "function"
    },
    {
      "inputs": [],
      "name": "DEFAULT_ADMIN_ROLE",
      "outputs": [
        {
          "internalType": "bytes32",
          "name": "",
          "type": "bytes32"
        }
      ],
      "stateMutability": "view",
      "type": "function"
    },
    {
      "inputs": [],
      "name": "EMERGENCY_ROLE",
      "outputs": [
        {
          "internalType": "bytes32",
          "name": "",
          "type": "bytes32"
        }
      ],
      "stateMutability": "view",
      "type": "function"
    },
    {
      "inputs": [],
      "name": "OPERATOR_ROLE",
      "outputs": [
        {
          "internalType": "bytes32",
          "name": "",
          "type": "bytes32"
        }
      ],
      "stateMutability": "view",
      "type": "function"
    },
    {
      "inputs": [],
      "name": "STRATEGY_ROLE",
      "outputs": [
        {
          "internalType": "bytes32",
          "name": "",
          "type": "bytes32"
        }
      ],
      "stateMutability": "view",
      "type": "function"
    },
    {
      "inputs": [
        {
          "internalType": "address",
          "name": "strategyContract",
          "type": "address"
        },
        {
          "internalType": "string",
          "name": "name",
          "type": "string"
        },
        {
          "internalType": "uint256",
          "name": "minDeposit",
          "type": "uint256"
        },
        {
          "internalType": "uint256",
          "name": "maxDeposit",
          "type": "uint256"
        },
        {
          "internalType": "uint256",
          "name": "initialAPY",
          "type": "uint256"
        }
      ],
      "name": "addYieldStrategy",
      "outputs": [],
      "stateMutability": "nonpayable",
      "type": "function"
    },
    {
      "inputs": [
        {
          "internalType": "address",
          "name": "user",
          "type": "address"
        },
        {
          "internalType": "uint256",
          "name": "portfolioValue",
          "type": "uint256"
        },
        {
          "internalType": "uint256",
          "name": "performanceGain",
          "type": "uint256"
        }
      ],
      "name": "collectFees",
      "outputs": [],
      "stateMutability": "nonpayable",
      "type": "function"
    },
    {
      "inputs": [
        {
          "internalType": "address",
          "name": "user",
          "type": "address"
        },
        {
          "internalType": "uint256",
          "name": "initialValue",
          "type": "uint256"
        }
      ],
      "name": "createPortfolio",
      "outputs": [],
      "stateMutability": "nonpayable",
      "type": "function"
    },
    {
      "inputs": [
        {
          "internalType": "address",
          "name": "user",
          "type": "address"
        },
        {
          "internalType": "uint256",
          "name": "amount",
          "type": "uint256"
        },
        {
          "internalType": "string",
          "name": "reason",
          "type": "string"
        }
      ],
      "name": "emergencyWithdrawal",
      "outputs": [],
      "stateMutability": "nonpayable",
      "type": "function"
    },
    {
      "inputs": [],
      "name": "feeRecipient",
      "outputs": [
        {
          "internalType": "address",
          "name": "",
          "type": "address"
        }
      ],
      "stateMutability": "view",
      "type": "function"
    },
    {
      "inputs": [
        {
          "internalType": "bytes32",
          "name": "role",
          "type": "bytes32"
        }
      ],
      "name": "getRoleAdmin",
      "outputs": [
        {
          "internalType": "bytes32",
          "name": "",
          "type": "bytes32"
        }
      ],
      "stateMutability": "view",
      "type": "function"
    },
    {
      "inputs": [],
      "name": "getSupportedTokens",
      "outputs": [
        {
          "internalType": "address[]",
          "name": "",
          "type": "address[]"
        }
      ],
      "stateMutability": "view",
      "type": "function"
    },
    {
      "inputs": [],
      "name": "getTotalStrategies",
      "outputs": [
        {
          "internalType": "uint256",
          "name": "",
          "type": "uint256"
        }
      ],
      "stateMutability": "view",
      "type": "function"
    },
    {
      "inputs": [
        {
          "internalType": "address",
          "name": "user",
          "type": "address"
        }
      ],
      "name": "getUserStrategies",
      "outputs": [
        {
          "internalType": "uint256[]",
          "name": "",
          "type": "uint256[]"
        }
      ],
      "stateMutability": "view",
      "type": "function"
    },
    {
      "inputs": [
        {
          "internalType": "bytes32",
          "name": "role",
          "type": "bytes32"
        },
        {
          "internalType": "address",
          "name": "account",
          "type": "address"
        }
      ],
      "name": "grantRole",
      "outputs": [],
      "stateMutability": "nonpayable",
      "type": "function"
    },
    {
      "inputs": [
        {
          "internalType": "bytes32",
          "name": "role",
          "type": "bytes32"
        },
        {
          "internalType": "address",
          "name": "account",
          "type": "address"
        }
      ],
      "name": "hasRole",
      "outputs": [
        {
          "internalType": "bool",
          "name": "",
          "type": "bool"
        }
      ],
      "stateMutability": "view",
      "type": "function"
    },
    {
      "inputs": [],
      "name": "managementFeePercentage",
      "outputs": [
        {
          "internalType": "uint256",
          "name": "",
          "type": "uint256"
        }
      ],
      "stateMutability": "view",
      "type": "function"
    },
    {
      "inputs": [],
      "name": "nexusToken",
      "outputs": [
        {
          "internalType": "contract IERC20",
          "name": "",
          "type": "address"
        }
      ],
      "stateMutability": "view",
      "type": "function"
    },
    {
      "inputs": [
        {
          "internalType": "address",
          "name": "user",
          "type": "address"
        },
        {
          "internalType": "uint256",
          "name": "amount",
          "type": "uint256"
        },
        {
          "internalType": "uint256",
          "name": "strategyId",
          "type": "uint256"
        }
      ],
      "name": "optimizeYield",
      "outputs": [],
      "stateMutability": "nonpayable",
      "type": "function"
    },
    {
      "inputs": [],
      "name": "pause",
      "outputs": [],
      "stateMutability": "nonpayable",
      "type": "function"
    },
    {
      "inputs": [],
      "name": "paused",
      "outputs": [
        {
          "internalType": "bool",
          "name": "",
          "type": "bool"
        }
      ],
      "stateMutability": "view",
      "type": "function"
    },
    {
      "inputs": [],
      "name": "performanceFeePercentage",
      "outputs": [
        {
          "internalType": "uint256",
          "name": "",
          "type": "uint256"
        }
      ],
      "stateMutability": "view",
      "type": "function"
    },
    {
      "inputs": [
        {
          "internalType": "address",
          "name": "",
          "type": "address"
        },
        {
          "internalType": "uint256",
          "name": "",
          "type": "uint256"
        }
      ],
      "name": "portfolioSupportedTokens",
      "outputs": [
        {
          "internalType": "address",
          "name": "",
          "type": "address"
        }
      ],
      "stateMutability": "view",
      "type": "function"
    },
    {
      "inputs": [
        {
          "internalType": "address",
          "name": "",
          "type": "address"
        },
        {
          "internalType": "address",
          "name": "",
          "type": "address"
        }
      ],
      "name": "portfolioTokenBalances",
      "outputs": [
        {
          "internalType": "uint256",
          "name": "",
          "type": "uint256"
        }
      ],
      "stateMutability": "view",
      "type": "function"
    },
    {
      "inputs": [
        {
          "internalType": "address",
          "name": "",
          "type": "address"
        }
      ],
      "name": "portfolios",
      "outputs": [
        {
          "internalType": "address",
          "name": "owner",
          "type": "address"
        },
        {
          "internalType": "uint256",
          "name": "totalValue",
          "type": "uint256"
        },
        {
          "internalType": "uint256",
          "name": "lastRebalance",
          "type": "uint256"
        },
        {
          "internalType": "bool",
          "name": "isActive",
          "type": "bool"
        }
      ],
      "stateMutability": "view",
      "type": "function"
    },
    {
      "inputs": [],
      "name": "potToken",
      "outputs": [
        {
          "internalType": "contract IERC20",
          "name": "",
          "type": "address"
        }
      ],
      "stateMutability": "view",
      "type": "function"
    },
    {
      "inputs": [
        {
          "internalType": "address",
          "name": "user",
          "type": "address"
        }
      ],
      "name": "rebalancePortfolio",
      "outputs": [],
      "stateMutability": "nonpayable",
      "type": "function"
    },
    {
      "inputs": [
        {
          "internalType": "bytes32",
          "name": "role",
          "type": "bytes32"
        },
        {
          "internalType": "address",
          "name": "callerConfirmation",
          "type": "address"
        }
      ],
      "name": "renounceRole",
      "outputs": [],
      "stateMutability": "nonpayable",
      "type": "function"
    },
    {
      "inputs": [
        {
          "internalType": "bytes32",
          "name": "role",
          "type": "bytes32"
        },
        {
          "internalType": "address",
          "name": "account",
          "type": "address"
        }
      ],
      "name": "revokeRole",
      "outputs": [],
      "stateMutability": "nonpayable",
      "type": "function"
    },
    {
      "inputs": [
        {
          "internalType": "address",
          "name": "",
          "type": "address"
        }
      ],
      "name": "riskProfiles",
      "outputs": [
        {
          "internalType": "uint256",
          "name": "riskScore",
          "type": "uint256"
        },
        {
          "internalType": "uint256",
          "name": "maxLeverage",
          "type": "uint256"
        },
        {
          "internalType": "uint256",
          "name": "maxSinglePosition",
          "type": "uint256"
        },
        {
          "internalType": "bool",
          "name": "isApproved",
          "type": "bool"
        }
      ],
      "stateMutability": "view",
      "type": "function"
    },
    {
      "inputs": [
        {
          "internalType": "address",
          "name": "",
          "type": "address"
        }
      ],
      "name": "supportedTokens",
      "outputs": [
        {
          "internalType": "bool",
          "name": "",
          "type": "bool"
        }
      ],
      "stateMutability": "view",
      "type": "function"
    },
    {
      "inputs": [
        {
          "internalType": "bytes4",
          "name": "interfaceId",
          "type": "bytes4"
        }
      ],
      "name": "supportsInterface",
      "outputs": [
        {
          "internalType": "bool",
          "name": "",
          "type": "bool"
        }
      ],
      "stateMutability": "view",
      "type": "function"
    },
    {
      "inputs": [
        {
          "internalType": "uint256",
          "name": "",
          "type": "uint256"
        }
      ],
      "name": "tokenList",
      "outputs": [
        {
          "internalType": "address",
          "name": "",
          "type": "address"
        }
      ],
      "stateMutability": "view",
      "type": "function"
    },
    {
      "inputs": [],
      "name": "unpause",
      "outputs": [],
      "stateMutability": "nonpayable",
      "type": "function"
    },
    {
      "inputs": [
        {
          "internalType": "address",
          "name": "user",
          "type": "address"
        },
        {
          "internalType": "uint256",
          "name": "riskScore",
          "type": "uint256"
        },
        {
          "internalType": "uint256",
          "name": "maxLeverage",
          "type": "uint256"
        },
        {
          "internalType": "uint256",
          "name": "maxSinglePosition",
          "type": "uint256"
        },
        {
          "internalType": "bool",
          "name": "isApproved",
          "type": "bool"
        }
      ],
      "name": "updateRiskProfile",
      "outputs": [],
      "stateMutability": "nonpayable",
      "type": "function"
    },
    {
      "inputs": [
        {
          "internalType": "uint256",
          "name": "strategyId",
          "type": "uint256"
        },
        {
          "internalType": "bool",
          "name": "isActive",
          "type": "bool"
        },
        {
          "internalType": "uint256",
          "name": "newAPY",
          "type": "uint256"
        }
      ],
      "name": "updateStrategy",
      "outputs": [],
      "stateMutability": "nonpayable",
      "type": "function"
    },
    {
      "inputs": [
        {
          "internalType": "address",
          "name": "",
          "type": "address"
        },
        {
          "internalType": "uint256",
          "name": "",
          "type": "uint256"
        }
      ],
      "name": "userStrategies",
      "outputs": [
        {
          "internalType": "uint256",
          "name": "",
          "type": "uint256"
        }
      ],
      "stateMutability": "view",
      "type": "function"
    },
    {
      "inputs": [
        {
          "internalType": "address",
          "name": "",
          "type": "address"
        }
      ],
      "name": "userYield",
      "outputs": [
        {
          "internalType": "uint256",
          "name": "",
          "type": "uint256"
        }
      ],
      "stateMutability": "view",
      "type": "function"
    },
    {
      "inputs": [
        {
          "internalType": "uint256",
          "name": "",
          "type": "uint256"
        }
      ],
      "name": "yieldStrategies",
      "outputs": [
        {
          "internalType": "address",
          "name": "strategyContract",
          "type": "address"
        },
        {
          "internalType": "string",
          "name": "name",
          "type": "string"
        },
        {
          "internalType": "bool",
          "name": "isActive",
          "type": "bool"
        },
        {
          "internalType": "uint256",
          "name": "minDeposit",
          "type": "uint256"
        },
        {
          "internalType": "uint256",
          "name": "maxDeposit",
          "type": "uint256"
        },
        {
          "internalType": "uint256",
          "name": "currentAPY",
          "type": "uint256"
        },
        {
          "internalType": "uint256",
          "name": "totalDeposited",
          "type": "uint256"
        }
      ],
      "stateMutability": "view",
      "type": "function"
    }
  ],
  "bytecode": "0x60c060405260c8600d556103e8600e553480156200001c57600080fd5b5060405162002993380380620029938339810160408190526200003f91620003f3565b600180556001600160a01b038316620000b85760405162461bcd60e51b815260206004820152603060248201527f44654641494d616e616765723a206e6578757320746f6b656e2063616e6e6f7460448201526f206265207a65726f206164647265737360801b60648201526084015b60405180910390fd5b6001600160a01b038216620001275760405162461bcd60e51b815260206004820152602e60248201527f44654641494d616e616765723a20706f7420746f6b656e2063616e6e6f74206260448201526d65207a65726f206164647265737360901b6064820152608401620000af565b6001600160a01b0381166200019a5760405162461bcd60e51b815260206004820152603260248201527f44654641494d616e616765723a2066656520726563697069656e742063616e6e6044820152716f74206265207a65726f206164647265737360701b6064820152608401620000af565b6001600160a01b0383811660805282811660a052600f80546001600160a01b031916918316919091179055620001d260003362000327565b50620001ff7fa49807205ce4d355092ef5a8a18f56e8913cf4a201fbe287825b095693c217753362000327565b506200022c7f97667070c54ef182b0f5858b034beac1b6f3089aa2d3188bb1e8929f4fa9b9293362000327565b50620002597f928286c473ded01ff8bf61a1986f14a0579066072fa8261442d9fea514d93a4c3362000327565b50620002867fbf233dd2aafeb4d50879c4aa5c81e96d92f6e6945c906a58f9f2d1c1631b4b263362000327565b5050600160098190556001600160a01b03928316600081815260066020526040808220805460ff1990811686179091559490951680825294812080549094168317909355600780548084018255938190527fa66cc928b5edb82af9bd49922954155ab7b0942694bea4ce44661d9a8736c68893840180546001600160a01b03199081169093179055805492830190559101805490911690911790556200043d565b6000828152602081815260408083206001600160a01b038516845290915281205460ff16620003cc576000838152602081815260408083206001600160a01b03861684529091529020805460ff19166001179055620003833390565b6001600160a01b0316826001600160a01b0316847f2f8788117e7eff1d82e926ec794901d17c78024a50270940304540a733656f0d60405160405180910390a4506001620003d0565b5060005b92915050565b80516001600160a01b0381168114620003ee57600080fd5b919050565b6000806000606084860312156200040957600080fd5b6200041484620003d6565b92506200042460208501620003d6565b91506200043460408501620003d6565b90509250925092565b60805160a0516125146200047f600039600061060001526000818161042901528181610eda015281816112040152818161141801526114fa01526125146000f3fe608060405234801561001057600080fd5b506004361061023d5760003560e01c80637baab3da1161013b578063a3714c2d116100b8578063d3c7c2c71161007c578063d3c7c2c714610622578063d547741f14610637578063ec6fec1f1461064a578063f4457fab1461065d578063f5b541a61461066657600080fd5b8063a3714c2d146105b9578063b256b833146105c2578063baef4169146105d5578063c9a61362146105e8578063ce33de7f146105fb57600080fd5b806399fe7396116100ff57806399fe7396146105705780639c81744a146105785780639ead72221461058b578063a217fddf1461059e578063a234143a146105a657600080fd5b80637baab3da1461046b5780637e562904146104db5780638456cb59146104fb57806391d14854146105035780639948b18d1461051657600080fd5b806336568abe116101c95780635c975abb1161018d5780635c975abb146103e157806368c4ac26146103ec57806375b238fc1461040f57806378f337e71461042457806379f02fd41461044b57600080fd5b806336568abe146103615780633e9f9e49146103745780633f4ba83a14610387578063469048401461038f578063580b7c2e146103ba57600080fd5b80631a3075cc116102105780631a3075cc146102de57806320df4359146102f157806322d9bc6f14610318578063248a9ca31461032b5780632f2ff15d1461034e57600080fd5b806301ffc9a714610242578063062711721461026a5780630ccb091d146102a357806312cd2297146102c9575b600080fd5b610255610250366004611cba565b61067b565b60405190151581526020015b60405180910390f35b610295610278366004611d07565b600460209081526000928352604080842090915290825290205481565b604051908152602001610261565b6102b66102b1366004611d3a565b6106b2565b6040516102619796959493929190611d99565b6102dc6102d7366004611df7565b610784565b005b6102dc6102ec366004611e47565b6108f1565b6102957fbf233dd2aafeb4d50879c4aa5c81e96d92f6e6945c906a58f9f2d1c1631b4b2681565b6102dc610326366004611e62565b6109e0565b610295610339366004611d3a565b60009081526020819052604090206001015490565b6102dc61035c366004611e8c565b610c64565b6102dc61036f366004611e8c565b610c8f565b610295610382366004611e62565b610cc7565b6102dc610cf8565b600f546103a2906001600160a01b031681565b6040516001600160a01b039091168152602001610261565b6102957f928286c473ded01ff8bf61a1986f14a0579066072fa8261442d9fea514d93a4c81565b60025460ff16610255565b6102556103fa366004611e47565b60066020526000908152604090205460ff1681565b6102956000805160206124bf83398151915281565b6103a27f000000000000000000000000000000000000000000000000000000000000000081565b61045e610459366004611e47565b610d36565b6040516102619190611eaf565b6104af610479366004611e47565b600360208190526000918252604090912080546001820154600283015492909301546001600160a01b0390911692919060ff1684565b604080516001600160a01b03909516855260208501939093529183015215156060820152608001610261565b6102956104e9366004611e47565b600a6020526000908152604090205481565b6102dc610da2565b610255610511366004611e8c565b610dde565b61054e610524366004611e47565b600c6020526000908152604090208054600182015460028301546003909301549192909160ff1684565b6040805194855260208501939093529183015215156060820152608001610261565b610295610e07565b6102dc610586366004611ef3565b610e1d565b6103a2610599366004611d3a565b610f51565b610295600081565b6102dc6105b4366004611ef3565b610f7b565b610295600d5481565b6103a26105d0366004611e62565b6112f6565b6102dc6105e3366004611fc9565b61132e565b6102dc6105f6366004612020565b61155c565b6103a27f000000000000000000000000000000000000000000000000000000000000000081565b61062a6117de565b6040516102619190612089565b6102dc610645366004611e8c565b611840565b6102dc6106583660046120ca565b611865565b610295600e5481565b61029560008051602061249f83398151915281565b60006001600160e01b03198216637965db0b60e01b14806106ac57506301ffc9a760e01b6001600160e01b03198316145b92915050565b600860205260009081526040902080546001820180546001600160a01b0390921692916106de906120ff565b80601f016020809104026020016040519081016040528092919081815260200182805461070a906120ff565b80156107575780601f1061072c57610100808354040283529160200191610757565b820191906000526020600020905b81548152906001019060200180831161073a57829003601f168201915b5050506002840154600385015460048601546005870154600690970154959660ff90931695919450925087565b61079c6000805160206124bf83398151915233610dde565b6107c15760405162461bcd60e51b81526004016107b890612139565b60405180910390fd5b6001600160a01b0385166107e75760405162461bcd60e51b81526004016107b89061217b565b6103e884111561084d5760405162461bcd60e51b815260206004820152602b60248201527f44654641494d616e616765723a207269736b2073636f72652063616e6e6f742060448201526a065786365656420313030360ac1b60648201526084016107b8565b604080516080810182528581526020808201868152828401868152851515606085018181526001600160a01b038c166000818152600c875288902096518755935160018701559151600286015590516003909401805460ff19169415159490941790935583518881529182019290925290917fa08b95696ac629da068aedfe6f4ddd1a308d2aee8fc27d7f8ed847650632fbd2910160405180910390a25050505050565b61090960008051602061249f83398151915233610dde565b6109255760405162461bcd60e51b81526004016107b8906121c4565b6001600160a01b03811661094b5760405162461bcd60e51b81526004016107b89061217b565b6001600160a01b0381166000908152600360208190526040909120015460ff166109875760405162461bcd60e51b81526004016107b890612209565b6001600160a01b0381166000818152600360209081526040918290204260028201556001015491519182527f7b7db695efac79a7835fef04a4a5ee6daa683e9cc5d1bfe4293619969d04066f910160405180910390a250565b6109f860008051602061249f83398151915233610dde565b610a145760405162461bcd60e51b81526004016107b8906121c4565b6001600160a01b038216610a3a5760405162461bcd60e51b81526004016107b89061217b565b6001600160a01b0382166000908152600360208190526040909120015460ff1615610ab65760405162461bcd60e51b815260206004820152602660248201527f44654641494d616e616765723a20706f7274666f6c696f20616c72656164792060448201526565786973747360d01b60648201526084016107b8565b60008111610b215760405162461bcd60e51b815260206004820152603260248201527f44654641494d616e616765723a20696e697469616c2076616c7565206d75737460448201527102062652067726561746572207468616e20360741b60648201526084016107b8565b604080516080810182526001600160a01b038481168083526020808401868152428587019081526001606087018181526000958652600394859052978520965187546001600160a01b03191696169590951786559051938501939093559151600284015592519101805460ff19169115159190911790555b600754811015610c1c576001600160a01b03831660009081526005602052604090206007805483908110610bcf57610bcf61224b565b60009182526020808320909101548354600181018555938352912090910180546001600160a01b0319166001600160a01b0390921691909117905580610c1481612277565b915050610b99565b50816001600160a01b03167f67fb572dde9f80bfb3f0454266d9258cf72d569e4ef809f9301b9ee757dd78d082604051610c5891815260200190565b60405180910390a25050565b600082815260208190526040902060010154610c7f8161196a565b610c898383611977565b50505050565b6001600160a01b0381163314610cb85760405163334bd91960e11b815260040160405180910390fd5b610cc28282611a09565b505050565b600b6020528160005260406000208181548110610ce357600080fd5b90600052602060002001600091509150505481565b610d106000805160206124bf83398151915233610dde565b610d2c5760405162461bcd60e51b81526004016107b890612139565b610d34611a74565b565b6001600160a01b0381166000908152600b6020908152604091829020805483518184028101840190945280845260609392830182828015610d9657602002820191906000526020600020905b815481526020019060010190808311610d82575b50505050509050919050565b610dba6000805160206124bf83398151915233610dde565b610dd65760405162461bcd60e51b81526004016107b890612139565b610d34611ac6565b6000918252602082815260408084206001600160a01b0393909316845291905290205460ff1690565b60006001600954610e189190612290565b905090565b610e3560008051602061249f83398151915233610dde565b610e515760405162461bcd60e51b81526004016107b8906121c4565b6001600160a01b038316610e775760405162461bcd60e51b81526004016107b89061217b565b6000612710600d5484610e8a91906122a3565b610e9491906122ba565b90506000612710600e5484610ea991906122a3565b610eb391906122ba565b90506000610ec182846122dc565b90508015610f4957600f54610f03906001600160a01b037f00000000000000000000000000000000000000000000000000000000000000008116911683611b03565b60408051848152602081018490526001600160a01b038816917f2e4fb6077d4acf86e12bb7411fb82b2b3eaa6a49787f4b1e17b423e7ea84116991015b60405180910390a25b505050505050565b60078181548110610f6157600080fd5b6000918252602090912001546001600160a01b0316905081565b610f9360008051602061249f83398151915233610dde565b610faf5760405162461bcd60e51b81526004016107b8906121c4565b610fb7611b62565b6001600160a01b038316610fdd5760405162461bcd60e51b81526004016107b89061217b565b60008211610ffd5760405162461bcd60e51b81526004016107b8906122ef565b6001600160a01b0383166000908152600360208190526040909120015460ff166110395760405162461bcd60e51b81526004016107b890612209565b60008181526008602052604090206002015460ff166110a45760405162461bcd60e51b815260206004820152602160248201527f44654641494d616e616765723a207374726174656779206e6f742061637469766044820152606560f81b60648201526084016107b8565b6000818152600860205260409020600301548210156111105760405162461bcd60e51b815260206004820152602260248201527f44654641494d616e616765723a20616d6f756e742062656c6f77206d696e696d604482015261756d60f01b60648201526084016107b8565b60008181526008602052604090206004015482111561117c5760405162461bcd60e51b815260206004820152602260248201527f44654641494d616e616765723a20616d6f756e742061626f7665206d6178696d604482015261756d60f01b60648201526084016107b8565b6001600160a01b0383166000908152600c602052604090206003015460ff166111f75760405162461bcd60e51b815260206004820152602760248201527f44654641494d616e616765723a207269736b2070726f66696c65206e6f7420616044820152661c1c1c9bdd995960ca1b60648201526084016107b8565b61122c6001600160a01b037f000000000000000000000000000000000000000000000000000000000000000016843085611b8c565b6001600160a01b0383166000908152600a6020526040812080548492906112549084906122dc565b90915550506001600160a01b0383166000908152600b602090815260408083208054600181018255908452828420018490558383526008909152812060060180548492906112a39084906122dc565b909155505060408051838152602081018390526001600160a01b038516917f38a5e6ac377a059dca5f96c7ee7447cba9e3725c07c9998a1f05696506e3e97291015b60405180910390a2610cc260018055565b6005602052816000526040600020818154811061131257600080fd5b6000918252602090912001546001600160a01b03169150829050565b6113587fbf233dd2aafeb4d50879c4aa5c81e96d92f6e6945c906a58f9f2d1c1631b4b2633610dde565b6113b35760405162461bcd60e51b815260206004820152602660248201527f44654641494d616e616765723a206d757374206861766520656d657267656e636044820152657920726f6c6560d01b60648201526084016107b8565b6113bb611b62565b6001600160a01b0383166113e15760405162461bcd60e51b81526004016107b89061217b565b600082116114015760405162461bcd60e51b81526004016107b8906122ef565b6040516370a0823160e01b815230600482015282907f00000000000000000000000000000000000000000000000000000000000000006001600160a01b0316906370a0823190602401602060405180830381865afa158015611467573d6000803e3d6000fd5b505050506040513d601f19601f8201168201806040525081019061148b919061233a565b10156114ed5760405162461bcd60e51b815260206004820152602b60248201527f44654641494d616e616765723a20696e73756666696369656e7420636f6e747260448201526a6163742062616c616e636560a81b60648201526084016107b8565b6115216001600160a01b037f0000000000000000000000000000000000000000000000000000000000000000168484611b03565b826001600160a01b03167f0b6611f2b90ce7e47b1f8bfc81e38fb1a210f6766c91b8c8d5ee36305d75206083836040516112e5929190612353565b6115746000805160206124bf83398151915233610dde565b6115905760405162461bcd60e51b81526004016107b890612139565b6001600160a01b0385166116055760405162461bcd60e51b815260206004820152603660248201527f44654641494d616e616765723a20737472617465677920636f6e74726163742060448201527563616e6e6f74206265207a65726f206164647265737360501b60648201526084016107b8565b6000831161166e5760405162461bcd60e51b815260206004820152603060248201527f44654641494d616e616765723a206d696e206465706f736974206d757374206260448201526f0652067726561746572207468616e20360841b60648201526084016107b8565b828210156116d75760405162461bcd60e51b815260206004820152603060248201527f44654641494d616e616765723a206d6178206465706f736974206d757374206260448201526f19480f8f481b5a5b8819195c1bdcda5d60821b60648201526084016107b8565b6009805490819060006116e983612277565b90915550506040805160e0810182526001600160a01b03888116825260208083018981526001848601819052606085018a90526080850189905260a08501889052600060c08601819052878152600890935294909120835181546001600160a01b031916931692909217825551919290919082019061176890826123ba565b5060408281015160028301805460ff1916911515919091179055606083015160038301556080830151600483015560a0830151600583015560c0909201516006909101555181907f28472260c90c2f93f2c58a4c03f182f08a283b3acb81d6edfea601790b06c55e90610f40908990899061247a565b6060600780548060200260200160405190810160405280929190818152602001828054801561183657602002820191906000526020600020905b81546001600160a01b03168152600190910190602001808311611818575b5050505050905090565b60008281526020819052604090206001015461185b8161196a565b610c898383611a09565b61187d6000805160206124bf83398151915233610dde565b6118995760405162461bcd60e51b81526004016107b890612139565b6000831180156118aa575060095483105b6119005760405162461bcd60e51b815260206004820152602160248201527f44654641494d616e616765723a20696e76616c696420737472617465677920496044820152601160fa1b60648201526084016107b8565b60008381526008602090815260409182902060028101805460ff19168615159081179091556005909101849055825190815290810183905284917f0204293490d5096ef7de2395a6d2359f0a9475b97b636f6b699725fc4a0e78fb910160405180910390a2505050565b6119748133611bc5565b50565b60006119838383610dde565b611a01576000838152602081815260408083206001600160a01b03861684529091529020805460ff191660011790556119b93390565b6001600160a01b0316826001600160a01b0316847f2f8788117e7eff1d82e926ec794901d17c78024a50270940304540a733656f0d60405160405180910390a45060016106ac565b5060006106ac565b6000611a158383610dde565b15611a01576000838152602081815260408083206001600160a01b0386168085529252808320805460ff1916905551339286917ff6391f5c32d9c69d2a47ea670b442974b53935d1edc7fd64eb21e047a839171b9190a45060016106ac565b611a7c611c02565b6002805460ff191690557f5db9ee0a495bf2e6ff9c91a7834c1ba4fdd244a5e8aa4e537bd38aeae4b073aa335b6040516001600160a01b03909116815260200160405180910390a1565b611ace611c25565b6002805460ff191660011790557f62e78cea01bee320cd4e420270b5ea74000d11b0c9f74754ebdbfc544b05a258611aa93390565b6040516001600160a01b03838116602483015260448201839052610cc291859182169063a9059cbb906064015b604051602081830303815290604052915060e01b6020820180516001600160e01b038381831617835250505050611c49565b600260015403611b8557604051633ee5aeb560e01b815260040160405180910390fd5b6002600155565b6040516001600160a01b038481166024830152838116604483015260648201839052610c899186918216906323b872dd90608401611b30565b611bcf8282610dde565b611bfe5760405163e2517d3f60e01b81526001600160a01b0382166004820152602481018390526044016107b8565b5050565b60025460ff16610d3457604051638dfc202b60e01b815260040160405180910390fd5b60025460ff1615610d345760405163d93c066560e01b815260040160405180910390fd5b600080602060008451602086016000885af180611c6c576040513d6000823e3d81fd5b50506000513d91508115611c84578060011415611c91565b6001600160a01b0384163b155b15610c8957604051635274afe760e01b81526001600160a01b03851660048201526024016107b8565b600060208284031215611ccc57600080fd5b81356001600160e01b031981168114611ce457600080fd5b9392505050565b80356001600160a01b0381168114611d0257600080fd5b919050565b60008060408385031215611d1a57600080fd5b611d2383611ceb565b9150611d3160208401611ceb565b90509250929050565b600060208284031215611d4c57600080fd5b5035919050565b6000815180845260005b81811015611d7957602081850181015186830182015201611d5d565b506000602082860101526020601f19601f83011685010191505092915050565b6001600160a01b038816815260e060208201819052600090611dbd90830189611d53565b9615156040830152506060810194909452608084019290925260a083015260c09091015292915050565b80358015158114611d0257600080fd5b600080600080600060a08688031215611e0f57600080fd5b611e1886611ceb565b9450602086013593506040860135925060608601359150611e3b60808701611de7565b90509295509295909350565b600060208284031215611e5957600080fd5b611ce482611ceb565b60008060408385031215611e7557600080fd5b611e7e83611ceb565b946020939093013593505050565b60008060408385031215611e9f57600080fd5b82359150611d3160208401611ceb565b6020808252825182820181905260009190848201906040850190845b81811015611ee757835183529284019291840191600101611ecb565b50909695505050505050565b600080600060608486031215611f0857600080fd5b611f1184611ceb565b95602085013595506040909401359392505050565b634e487b7160e01b600052604160045260246000fd5b600082601f830112611f4d57600080fd5b813567ffffffffffffffff80821115611f6857611f68611f26565b604051601f8301601f19908116603f01168101908282118183101715611f9057611f90611f26565b81604052838152866020858801011115611fa957600080fd5b836020870160208301376000602085830101528094505050505092915050565b600080600060608486031215611fde57600080fd5b611fe784611ceb565b925060208401359150604084013567ffffffffffffffff81111561200a57600080fd5b61201686828701611f3c565b9150509250925092565b600080600080600060a0868803121561203857600080fd5b61204186611ceb565b9450602086013567ffffffffffffffff81111561205d57600080fd5b61206988828901611f3c565b959895975050505060408401359360608101359360809091013592509050565b6020808252825182820181905260009190848201906040850190845b81811015611ee75783516001600160a01b0316835292840192918401916001016120a5565b6000806000606084860312156120df57600080fd5b833592506120ef60208501611de7565b9150604084013590509250925092565b600181811c9082168061211357607f821691505b60208210810361213357634e487b7160e01b600052602260045260246000fd5b50919050565b60208082526022908201527f44654641494d616e616765723a206d75737420686176652061646d696e20726f6040820152616c6560f01b606082015260800190565b60208082526029908201527f44654641494d616e616765723a20757365722063616e6e6f74206265207a65726040820152686f206164647265737360b81b606082015260800190565b60208082526025908201527f44654641494d616e616765723a206d7573742068617665206f70657261746f7260408201526420726f6c6560d81b606082015260800190565b60208082526022908201527f44654641494d616e616765723a20706f7274666f6c696f206e6f742061637469604082015261766560f01b606082015260800190565b634e487b7160e01b600052603260045260246000fd5b634e487b7160e01b600052601160045260246000fd5b60006001820161228957612289612261565b5060010190565b818103818111156106ac576106ac612261565b80820281158282048414176106ac576106ac612261565b6000826122d757634e487b7160e01b600052601260045260246000fd5b500490565b808201808211156106ac576106ac612261565b6020808252602b908201527f44654641494d616e616765723a20616d6f756e74206d7573742062652067726560408201526a061746572207468616e20360ac1b606082015260800190565b60006020828403121561234c57600080fd5b5051919050565b82815260406020820152600061236c6040830184611d53565b949350505050565b601f821115610cc257600081815260208120601f850160051c8101602086101561239b5750805b601f850160051c820191505b81811015610f49578281556001016123a7565b815167ffffffffffffffff8111156123d4576123d4611f26565b6123e8816123e284546120ff565b84612374565b602080601f83116001811461241d57600084156124055750858301515b600019600386901b1c1916600185901b178555610f49565b600085815260208120601f198616915b8281101561244c5788860151825594840194600190910190840161242d565b508582101561246a5787850151600019600388901b60f8161c191681555b5050505050600190811b01905550565b6001600160a01b038316815260406020820181905260009061236c90830184611d5356fe97667070c54ef182b0f5858b034beac1b6f3089aa2d3188bb1e8929f4fa9b929a49807205ce4d355092ef5a8a18f56e8913cf4a201fbe287825b095693c21775a2646970667358221220e7bf482d76c99394c3ddd80272fec3e7baa6cc2f401381b47709c502242384c464736f6c63430008140033",
  "linkReferences": {},
  "deployedLinkReferences": {}
}